{
  "_format": "hh-sol-artifact-1",
  "contractName": "NFTPoolLockAndRelease",
  "sourceName": "contracts/NFTPoolLockAndRelease.sol",
  "abi": [
    {
      "inputs": [
        {
          "internalType": "address",
          "name": "_router",
          "type": "address"
        },
        {
          "internalType": "address",
          "name": "_link",
          "type": "address"
        },
        {
          "internalType": "address",
          "name": "nftAddr",
          "type": "address"
        }
      ],
      "stateMutability": "nonpayable",
      "type": "constructor"
    },
    {
      "inputs": [
        {
          "internalType": "address",
          "name": "owner",
          "type": "address"
        },
        {
          "internalType": "address",
          "name": "target",
          "type": "address"
        },
        {
          "internalType": "uint256",
          "name": "value",
          "type": "uint256"
        }
      ],
      "name": "FailedToWithdrawEth",
      "type": "error"
    },
    {
      "inputs": [
        {
          "internalType": "address",
          "name": "router",
          "type": "address"
        }
      ],
      "name": "InvalidRouter",
      "type": "error"
    },
    {
      "inputs": [
        {
          "internalType": "uint256",
          "name": "currentBalance",
          "type": "uint256"
        },
        {
          "internalType": "uint256",
          "name": "calculatedFees",
          "type": "uint256"
        }
      ],
      "name": "NotEnoughBalance",
      "type": "error"
    },
    {
      "inputs": [],
      "name": "NothingToWithdraw",
      "type": "error"
    },
    {
      "anonymous": false,
      "inputs": [
        {
          "indexed": true,
          "internalType": "bytes32",
          "name": "messageId",
          "type": "bytes32"
        },
        {
          "indexed": true,
          "internalType": "uint64",
          "name": "destinationChainSelector",
          "type": "uint64"
        },
        {
          "indexed": false,
          "internalType": "address",
          "name": "receiver",
          "type": "address"
        },
        {
          "indexed": false,
          "internalType": "bytes",
          "name": "text",
          "type": "bytes"
        },
        {
          "indexed": false,
          "internalType": "address",
          "name": "feeToken",
          "type": "address"
        },
        {
          "indexed": false,
          "internalType": "uint256",
          "name": "fees",
          "type": "uint256"
        }
      ],
      "name": "MessageSent",
      "type": "event"
    },
    {
      "anonymous": false,
      "inputs": [
        {
          "indexed": true,
          "internalType": "address",
          "name": "from",
          "type": "address"
        },
        {
          "indexed": true,
          "internalType": "address",
          "name": "to",
          "type": "address"
        }
      ],
      "name": "OwnershipTransferRequested",
      "type": "event"
    },
    {
      "anonymous": false,
      "inputs": [
        {
          "indexed": true,
          "internalType": "address",
          "name": "from",
          "type": "address"
        },
        {
          "indexed": true,
          "internalType": "address",
          "name": "to",
          "type": "address"
        }
      ],
      "name": "OwnershipTransferred",
      "type": "event"
    },
    {
      "anonymous": false,
      "inputs": [
        {
          "indexed": false,
          "internalType": "uint256",
          "name": "tokenId",
          "type": "uint256"
        },
        {
          "indexed": false,
          "internalType": "address",
          "name": "newOwner",
          "type": "address"
        }
      ],
      "name": "TokenUnlocked",
      "type": "event"
    },
    {
      "inputs": [],
      "name": "acceptOwnership",
      "outputs": [],
      "stateMutability": "nonpayable",
      "type": "function"
    },
    {
      "inputs": [
        {
          "internalType": "uint64",
          "name": "_destinationChainSelector",
          "type": "uint64"
        },
        {
          "internalType": "bool",
          "name": "allowed",
          "type": "bool"
        }
      ],
      "name": "allowlistDestinationChain",
      "outputs": [],
      "stateMutability": "nonpayable",
      "type": "function"
    },
    {
      "inputs": [
        {
          "internalType": "address",
          "name": "_sender",
          "type": "address"
        },
        {
          "internalType": "bool",
          "name": "allowed",
          "type": "bool"
        }
      ],
      "name": "allowlistSender",
      "outputs": [],
      "stateMutability": "nonpayable",
      "type": "function"
    },
    {
      "inputs": [
        {
          "internalType": "uint64",
          "name": "_sourceChainSelector",
          "type": "uint64"
        },
        {
          "internalType": "bool",
          "name": "allowed",
          "type": "bool"
        }
      ],
      "name": "allowlistSourceChain",
      "outputs": [],
      "stateMutability": "nonpayable",
      "type": "function"
    },
    {
      "inputs": [
        {
          "internalType": "uint64",
          "name": "",
          "type": "uint64"
        }
      ],
      "name": "allowlistedDestinationChains",
      "outputs": [
        {
          "internalType": "bool",
          "name": "",
          "type": "bool"
        }
      ],
      "stateMutability": "view",
      "type": "function"
    },
    {
      "inputs": [
        {
          "internalType": "address",
          "name": "",
          "type": "address"
        }
      ],
      "name": "allowlistedSenders",
      "outputs": [
        {
          "internalType": "bool",
          "name": "",
          "type": "bool"
        }
      ],
      "stateMutability": "view",
      "type": "function"
    },
    {
      "inputs": [
        {
          "internalType": "uint64",
          "name": "",
          "type": "uint64"
        }
      ],
      "name": "allowlistedSourceChains",
      "outputs": [
        {
          "internalType": "bool",
          "name": "",
          "type": "bool"
        }
      ],
      "stateMutability": "view",
      "type": "function"
    },
    {
      "inputs": [
        {
          "components": [
            {
              "internalType": "bytes32",
              "name": "messageId",
              "type": "bytes32"
            },
            {
              "internalType": "uint64",
              "name": "sourceChainSelector",
              "type": "uint64"
            },
            {
              "internalType": "bytes",
              "name": "sender",
              "type": "bytes"
            },
            {
              "internalType": "bytes",
              "name": "data",
              "type": "bytes"
            },
            {
              "components": [
                {
                  "internalType": "address",
                  "name": "token",
                  "type": "address"
                },
                {
                  "internalType": "uint256",
                  "name": "amount",
                  "type": "uint256"
                }
              ],
              "internalType": "struct Client.EVMTokenAmount[]",
              "name": "destTokenAmounts",
              "type": "tuple[]"
            }
          ],
          "internalType": "struct Client.Any2EVMMessage",
          "name": "message",
          "type": "tuple"
        }
      ],
      "name": "ccipReceive",
      "outputs": [],
      "stateMutability": "nonpayable",
      "type": "function"
    },
    {
      "inputs": [],
      "name": "getLastReceivedMessageDetails",
      "outputs": [
        {
          "internalType": "bytes32",
          "name": "messageId",
          "type": "bytes32"
        },
        {
          "internalType": "string",
          "name": "text",
          "type": "string"
        }
      ],
      "stateMutability": "view",
      "type": "function"
    },
    {
      "inputs": [],
      "name": "getRouter",
      "outputs": [
        {
          "internalType": "address",
          "name": "",
          "type": "address"
        }
      ],
      "stateMutability": "view",
      "type": "function"
    },
    {
      "inputs": [
        {
          "internalType": "uint256",
          "name": "tokenId",
          "type": "uint256"
        },
        {
          "internalType": "address",
          "name": "newOwner",
          "type": "address"
        },
        {
          "internalType": "uint64",
          "name": "destChainSelector",
          "type": "uint64"
        },
        {
          "internalType": "address",
          "name": "destReceiver",
          "type": "address"
        }
      ],
      "name": "lockAndSendNFT",
      "outputs": [
        {
          "internalType": "bytes32",
          "name": "",
          "type": "bytes32"
        }
      ],
      "stateMutability": "nonpayable",
      "type": "function"
    },
    {
      "inputs": [],
      "name": "nft",
      "outputs": [
        {
          "internalType": "contract MyToken",
          "name": "",
          "type": "address"
        }
      ],
      "stateMutability": "view",
      "type": "function"
    },
    {
      "inputs": [],
      "name": "owner",
      "outputs": [
        {
          "internalType": "address",
          "name": "",
          "type": "address"
        }
      ],
      "stateMutability": "view",
      "type": "function"
    },
    {
      "inputs": [
        {
          "internalType": "bytes4",
          "name": "interfaceId",
          "type": "bytes4"
        }
      ],
      "name": "supportsInterface",
      "outputs": [
        {
          "internalType": "bool",
          "name": "",
          "type": "bool"
        }
      ],
      "stateMutability": "pure",
      "type": "function"
    },
    {
      "inputs": [
        {
          "internalType": "uint256",
          "name": "",
          "type": "uint256"
        }
      ],
      "name": "tokenLocked",
      "outputs": [
        {
          "internalType": "bool",
          "name": "",
          "type": "bool"
        }
      ],
      "stateMutability": "view",
      "type": "function"
    },
    {
      "inputs": [
        {
          "internalType": "address",
          "name": "to",
          "type": "address"
        }
      ],
      "name": "transferOwnership",
      "outputs": [],
      "stateMutability": "nonpayable",
      "type": "function"
    },
    {
      "inputs": [
        {
          "internalType": "address",
          "name": "_beneficiary",
          "type": "address"
        }
      ],
      "name": "withdraw",
      "outputs": [],
      "stateMutability": "nonpayable",
      "type": "function"
    },
    {
      "inputs": [
        {
          "internalType": "address",
          "name": "_beneficiary",
          "type": "address"
        },
        {
          "internalType": "address",
          "name": "_token",
          "type": "address"
        }
      ],
      "name": "withdrawToken",
      "outputs": [],
      "stateMutability": "nonpayable",
      "type": "function"
    },
    {
      "stateMutability": "payable",
      "type": "receive"
    }
  ],
  "bytecode": "0x60a06040523480156200001157600080fd5b506040516200319f3803806200319f833981810160405281019062000037919062000406565b3380600085600073ffffffffffffffffffffffffffffffffffffffff168173ffffffffffffffffffffffffffffffffffffffff1603620000b15760006040517fd7f73334000000000000000000000000000000000000000000000000000000008152600401620000a8919062000473565b60405180910390fd5b8073ffffffffffffffffffffffffffffffffffffffff1660808173ffffffffffffffffffffffffffffffffffffffff168152505050600073ffffffffffffffffffffffffffffffffffffffff168273ffffffffffffffffffffffffffffffffffffffff160362000158576040517f08c379a00000000000000000000000000000000000000000000000000000000081526004016200014f90620004f1565b60405180910390fd5b816000806101000a81548173ffffffffffffffffffffffffffffffffffffffff021916908373ffffffffffffffffffffffffffffffffffffffff160217905550600073ffffffffffffffffffffffffffffffffffffffff168173ffffffffffffffffffffffffffffffffffffffff1614620001df57620001de816200026d60201b60201c565b5b50505081600760006101000a81548173ffffffffffffffffffffffffffffffffffffffff021916908373ffffffffffffffffffffffffffffffffffffffff16021790555080600860006101000a81548173ffffffffffffffffffffffffffffffffffffffff021916908373ffffffffffffffffffffffffffffffffffffffff16021790555050505062000585565b3373ffffffffffffffffffffffffffffffffffffffff168173ffffffffffffffffffffffffffffffffffffffff1603620002de576040517f08c379a0000000000000000000000000000000000000000000000000000000008152600401620002d59062000563565b60405180910390fd5b80600160006101000a81548173ffffffffffffffffffffffffffffffffffffffff021916908373ffffffffffffffffffffffffffffffffffffffff1602179055508073ffffffffffffffffffffffffffffffffffffffff1660008054906101000a900473ffffffffffffffffffffffffffffffffffffffff1673ffffffffffffffffffffffffffffffffffffffff167fed8889f560326eb138920d842192f0eb3dd22b4f139c87a2c57538e05bae127860405160405180910390a350565b600080fd5b600073ffffffffffffffffffffffffffffffffffffffff82169050919050565b6000620003ce82620003a1565b9050919050565b620003e081620003c1565b8114620003ec57600080fd5b50565b6000815190506200040081620003d5565b92915050565b6000806000606084860312156200042257620004216200039c565b5b60006200043286828701620003ef565b93505060206200044586828701620003ef565b92505060406200045886828701620003ef565b9150509250925092565b6200046d81620003c1565b82525050565b60006020820190506200048a600083018462000462565b92915050565b600082825260208201905092915050565b7f43616e6e6f7420736574206f776e657220746f207a65726f0000000000000000600082015250565b6000620004d960188362000490565b9150620004e682620004a1565b602082019050919050565b600060208201905081810360008301526200050c81620004ca565b9050919050565b7f43616e6e6f74207472616e7366657220746f2073656c66000000000000000000600082015250565b60006200054b60178362000490565b9150620005588262000513565b602082019050919050565b600060208201905081810360008301526200057e816200053c565b9050919050565b608051612bf7620005a860003960008181610a040152610b1f0152612bf76000f3fe60806040526004361061010d5760003560e01c806379ba509711610095578063b0f479a111610064578063b0f479a114610387578063db04fa49146103b2578063e34ed575146103db578063eab5b02c14610418578063f2fde38b1461044157610114565b806379ba5097146102f357806385572ffb1461030a5780638da5cb5b1461033357806396d3b83d1461035e57610114565b806346694b7d116100dc57806346694b7d146101e857806347ccca021461022557806351cff8d9146102505780636159ada11461027957806375c67c66146102b657610114565b806301ffc9a714610119578063263596a5146101565780633aeac4e1146101825780634030d521146101ab57610114565b3661011457005b600080fd5b34801561012557600080fd5b50610140600480360381019061013b91906119b7565b61046a565b60405161014d91906119ff565b60405180910390f35b34801561016257600080fd5b5061016b61053c565b604051610179929190611ac3565b60405180910390f35b34801561018e57600080fd5b506101a960048036038101906101a49190611b51565b6105d9565b005b3480156101b757600080fd5b506101d260048036038101906101cd9190611bd1565b6106c9565b6040516101df91906119ff565b60405180910390f35b3480156101f457600080fd5b5061020f600480360381019061020a9190611c34565b6106e9565b60405161021c91906119ff565b60405180910390f35b34801561023157600080fd5b5061023a610709565b6040516102479190611cc0565b60405180910390f35b34801561025c57600080fd5b5061027760048036038101906102729190611cdb565b61072f565b005b34801561028557600080fd5b506102a0600480360381019061029b9190611cdb565b61082d565b6040516102ad91906119ff565b60405180910390f35b3480156102c257600080fd5b506102dd60048036038101906102d89190611bd1565b61084d565b6040516102ea91906119ff565b60405180910390f35b3480156102ff57600080fd5b5061030861086d565b005b34801561031657600080fd5b50610331600480360381019061032c9190611d2c565b610a02565b005b34801561033f57600080fd5b50610348610aa7565b6040516103559190611d84565b60405180910390f35b34801561036a57600080fd5b5061038560048036038101906103809190611dcb565b610ad0565b005b34801561039357600080fd5b5061039c610b1b565b6040516103a99190611d84565b60405180910390f35b3480156103be57600080fd5b506103d960048036038101906103d49190611dcb565b610b43565b005b3480156103e757600080fd5b5061040260048036038101906103fd9190611e0b565b610b8e565b60405161040f9190611e72565b60405180910390f35b34801561042457600080fd5b5061043f600480360381019061043a9190611e8d565b610c8f565b005b34801561044d57600080fd5b5061046860048036038101906104639190611cdb565b610cf2565b005b60007f85572ffb000000000000000000000000000000000000000000000000000000007bffffffffffffffffffffffffffffffffffffffffffffffffffffffff1916827bffffffffffffffffffffffffffffffffffffffffffffffffffffffff1916148061053557507f01ffc9a7000000000000000000000000000000000000000000000000000000007bffffffffffffffffffffffffffffffffffffffffffffffffffffffff1916827bffffffffffffffffffffffffffffffffffffffffffffffffffffffff1916145b9050919050565b60006060600254600380805461055190611efc565b80601f016020809104026020016040519081016040528092919081815260200182805461057d90611efc565b80156105ca5780601f1061059f576101008083540402835291602001916105ca565b820191906000526020600020905b8154815290600101906020018083116105ad57829003601f168201915b50505050509050915091509091565b6105e1610d06565b60008173ffffffffffffffffffffffffffffffffffffffff166370a08231306040518263ffffffff1660e01b815260040161061c9190611d84565b602060405180830381865afa158015610639573d6000803e3d6000fd5b505050506040513d601f19601f8201168201806040525081019061065d9190611f42565b905060008103610699576040517fd0d04f6000000000000000000000000000000000000000000000000000000000815260040160405180910390fd5b6106c483828473ffffffffffffffffffffffffffffffffffffffff16610d969092919063ffffffff16565b505050565b60056020528060005260406000206000915054906101000a900460ff1681565b60096020528060005260406000206000915054906101000a900460ff1681565b600860009054906101000a900473ffffffffffffffffffffffffffffffffffffffff1681565b610737610d06565b600047905060008103610776576040517fd0d04f6000000000000000000000000000000000000000000000000000000000815260040160405180910390fd5b60008273ffffffffffffffffffffffffffffffffffffffff168260405161079c90611fa0565b60006040518083038185875af1925050503d80600081146107d9576040519150601f19603f3d011682016040523d82523d6000602084013e6107de565b606091505b5050905080610828573383836040517f9d11f56300000000000000000000000000000000000000000000000000000000815260040161081f93929190611fc4565b60405180910390fd5b505050565b60066020528060005260406000206000915054906101000a900460ff1681565b60046020528060005260406000206000915054906101000a900460ff1681565b600160009054906101000a900473ffffffffffffffffffffffffffffffffffffffff1673ffffffffffffffffffffffffffffffffffffffff163373ffffffffffffffffffffffffffffffffffffffff16146108fd576040517f08c379a00000000000000000000000000000000000000000000000000000000081526004016108f490612047565b60405180910390fd5b60008060009054906101000a900473ffffffffffffffffffffffffffffffffffffffff169050336000806101000a81548173ffffffffffffffffffffffffffffffffffffffff021916908373ffffffffffffffffffffffffffffffffffffffff1602179055506000600160006101000a81548173ffffffffffffffffffffffffffffffffffffffff021916908373ffffffffffffffffffffffffffffffffffffffff1602179055503373ffffffffffffffffffffffffffffffffffffffff168173ffffffffffffffffffffffffffffffffffffffff167f8be0079c531659141344cd1fd0a4f28419497f9722a3daafe3b4186f6b6457e060405160405180910390a350565b7f000000000000000000000000000000000000000000000000000000000000000073ffffffffffffffffffffffffffffffffffffffff163373ffffffffffffffffffffffffffffffffffffffff1614610a9257336040517fd7f73334000000000000000000000000000000000000000000000000000000008152600401610a899190611d84565b60405180910390fd5b610aa481610a9f906123ca565b610e1c565b50565b60008060009054906101000a900473ffffffffffffffffffffffffffffffffffffffff16905090565b610ad8610d06565b80600460008467ffffffffffffffff1667ffffffffffffffff16815260200190815260200160002060006101000a81548160ff0219169083151502179055505050565b60007f0000000000000000000000000000000000000000000000000000000000000000905090565b610b4b610d06565b80600560008467ffffffffffffffff1667ffffffffffffffff16815260200190815260200160002060006101000a81548160ff0219169083151502179055505050565b6000600860009054906101000a900473ffffffffffffffffffffffffffffffffffffffff1673ffffffffffffffffffffffffffffffffffffffff166323b872dd3330886040518463ffffffff1660e01b8152600401610bef93929190611fc4565b600060405180830381600087803b158015610c0957600080fd5b505af1158015610c1d573d6000803e3d6000fd5b5050505060008585604051602001610c369291906123dd565b60405160208183030381529060405290506000610c54858584610f85565b905060016009600089815260200190815260200160002060006101000a81548160ff0219169083151502179055508092505050949350505050565b610c97610d06565b80600660008473ffffffffffffffffffffffffffffffffffffffff1673ffffffffffffffffffffffffffffffffffffffff16815260200190815260200160002060006101000a81548160ff0219169083151502179055505050565b610cfa610d06565b610d03816113bd565b50565b60008054906101000a900473ffffffffffffffffffffffffffffffffffffffff1673ffffffffffffffffffffffffffffffffffffffff163373ffffffffffffffffffffffffffffffffffffffff1614610d94576040517f08c379a0000000000000000000000000000000000000000000000000000000008152600401610d8b90612452565b60405180910390fd5b565b610e178363a9059cbb60e01b8484604051602401610db5929190612472565b604051602081830303815290604052907bffffffffffffffffffffffffffffffffffffffffffffffffffffffff19166020820180517bffffffffffffffffffffffffffffffffffffffffffffffffffffffff83818316178352505050506114e9565b505050565b806000015160028190555060008160600151806020019051810190610e419190612500565b90506000816000015190506000826020015190506009600083815260200190815260200160002060009054906101000a900460ff16610eb5576040517f08c379a0000000000000000000000000000000000000000000000000000000008152600401610eac90612579565b60405180910390fd5b600860009054906101000a900473ffffffffffffffffffffffffffffffffffffffff1673ffffffffffffffffffffffffffffffffffffffff166323b872dd3083856040518463ffffffff1660e01b8152600401610f1493929190611fc4565b600060405180830381600087803b158015610f2e57600080fd5b505af1158015610f42573d6000803e3d6000fd5b505050507f0fe7d9801197f79ef3b1595d19379eb58f0fff5f98b0f6d6f34c03cae5306c378282604051610f779291906123dd565b60405180910390a150505050565b600080610fb58484600760009054906101000a900473ffffffffffffffffffffffffffffffffffffffff166115b0565b905060003073ffffffffffffffffffffffffffffffffffffffff1663b0f479a16040518163ffffffff1660e01b8152600401602060405180830381865afa158015611004573d6000803e3d6000fd5b505050506040513d601f19601f820116820180604052508101906110289190612599565b905060008173ffffffffffffffffffffffffffffffffffffffff166320487ded88856040518363ffffffff1660e01b81526004016110679291906127b1565b602060405180830381865afa158015611084573d6000803e3d6000fd5b505050506040513d601f19601f820116820180604052508101906110a89190611f42565b9050600760009054906101000a900473ffffffffffffffffffffffffffffffffffffffff1673ffffffffffffffffffffffffffffffffffffffff166370a08231306040518263ffffffff1660e01b81526004016111059190611d84565b602060405180830381865afa158015611122573d6000803e3d6000fd5b505050506040513d601f19601f820116820180604052508101906111469190611f42565b81111561122757600760009054906101000a900473ffffffffffffffffffffffffffffffffffffffff1673ffffffffffffffffffffffffffffffffffffffff166370a08231306040518263ffffffff1660e01b81526004016111a89190611d84565b602060405180830381865afa1580156111c5573d6000803e3d6000fd5b505050506040513d601f19601f820116820180604052508101906111e99190611f42565b816040517f8f0f420600000000000000000000000000000000000000000000000000000000815260040161121e9291906127e1565b60405180910390fd5b600760009054906101000a900473ffffffffffffffffffffffffffffffffffffffff1673ffffffffffffffffffffffffffffffffffffffff1663095ea7b383836040518363ffffffff1660e01b8152600401611284929190612472565b6020604051808303816000875af11580156112a3573d6000803e3d6000fd5b505050506040513d601f19601f820116820180604052508101906112c7919061281f565b508173ffffffffffffffffffffffffffffffffffffffff166396f4e9f988856040518363ffffffff1660e01b81526004016113039291906127b1565b6020604051808303816000875af1158015611322573d6000803e3d6000fd5b505050506040513d601f19601f820116820180604052508101906113469190612861565b93508667ffffffffffffffff16847f3d8a9f055772202d2c3c1fddbad930d3dbe588d8692b75b84cee0719462829118888600760009054906101000a900473ffffffffffffffffffffffffffffffffffffffff16866040516113ab94939291906128d8565b60405180910390a35050509392505050565b3373ffffffffffffffffffffffffffffffffffffffff168173ffffffffffffffffffffffffffffffffffffffff160361142b576040517f08c379a000000000000000000000000000000000000000000000000000000000815260040161142290612970565b60405180910390fd5b80600160006101000a81548173ffffffffffffffffffffffffffffffffffffffff021916908373ffffffffffffffffffffffffffffffffffffffff1602179055508073ffffffffffffffffffffffffffffffffffffffff1660008054906101000a900473ffffffffffffffffffffffffffffffffffffffff1673ffffffffffffffffffffffffffffffffffffffff167fed8889f560326eb138920d842192f0eb3dd22b4f139c87a2c57538e05bae127860405160405180910390a350565b600061154b826040518060400160405280602081526020017f5361666545524332303a206c6f772d6c6576656c2063616c6c206661696c65648152508573ffffffffffffffffffffffffffffffffffffffff1661168a9092919063ffffffff16565b90506000815111156115ab578080602001905181019061156b919061281f565b6115aa576040517f08c379a00000000000000000000000000000000000000000000000000000000081526004016115a190612a02565b60405180910390fd5b5b505050565b6115b86118d6565b6040518060a00160405280856040516020016115d49190611d84565b6040516020818303038152906040528152602001848152602001600067ffffffffffffffff8111156116095761160861206c565b5b60405190808252806020026020018201604052801561164257816020015b61162f61191b565b8152602001906001900390816116275790505b5081526020018373ffffffffffffffffffffffffffffffffffffffff16815260200161167e604051806020016040528062030d408152506116a2565b81525090509392505050565b60606116998484600085611721565b90509392505050565b60606397a657c960e01b826040516024016116bd9190612a3e565b604051602081830303815290604052907bffffffffffffffffffffffffffffffffffffffffffffffffffffffff19166020820180517bffffffffffffffffffffffffffffffffffffffffffffffffffffffff83818316178352505050509050919050565b606082471015611766576040517f08c379a000000000000000000000000000000000000000000000000000000000815260040161175d90612acb565b60405180910390fd5b6000808673ffffffffffffffffffffffffffffffffffffffff16858760405161178f9190612b1c565b60006040518083038185875af1925050503d80600081146117cc576040519150601f19603f3d011682016040523d82523d6000602084013e6117d1565b606091505b50915091506117e2878383876117ee565b92505050949350505050565b606083156118505760008351036118485761180885611863565b611847576040517f08c379a000000000000000000000000000000000000000000000000000000000815260040161183e90612b7f565b60405180910390fd5b5b82905061185b565b61185a8383611886565b5b949350505050565b6000808273ffffffffffffffffffffffffffffffffffffffff163b119050919050565b6000825111156118995781518083602001fd5b806040517f08c379a00000000000000000000000000000000000000000000000000000000081526004016118cd9190612b9f565b60405180910390fd5b6040518060a00160405280606081526020016060815260200160608152602001600073ffffffffffffffffffffffffffffffffffffffff168152602001606081525090565b6040518060400160405280600073ffffffffffffffffffffffffffffffffffffffff168152602001600081525090565b6000604051905090565b600080fd5b600080fd5b60007fffffffff0000000000000000000000000000000000000000000000000000000082169050919050565b6119948161195f565b811461199f57600080fd5b50565b6000813590506119b18161198b565b92915050565b6000602082840312156119cd576119cc611955565b5b60006119db848285016119a2565b91505092915050565b60008115159050919050565b6119f9816119e4565b82525050565b6000602082019050611a1460008301846119f0565b92915050565b6000819050919050565b611a2d81611a1a565b82525050565b600081519050919050565b600082825260208201905092915050565b60005b83811015611a6d578082015181840152602081019050611a52565b60008484015250505050565b6000601f19601f8301169050919050565b6000611a9582611a33565b611a9f8185611a3e565b9350611aaf818560208601611a4f565b611ab881611a79565b840191505092915050565b6000604082019050611ad86000830185611a24565b8181036020830152611aea8184611a8a565b90509392505050565b600073ffffffffffffffffffffffffffffffffffffffff82169050919050565b6000611b1e82611af3565b9050919050565b611b2e81611b13565b8114611b3957600080fd5b50565b600081359050611b4b81611b25565b92915050565b60008060408385031215611b6857611b67611955565b5b6000611b7685828601611b3c565b9250506020611b8785828601611b3c565b9150509250929050565b600067ffffffffffffffff82169050919050565b611bae81611b91565b8114611bb957600080fd5b50565b600081359050611bcb81611ba5565b92915050565b600060208284031215611be757611be6611955565b5b6000611bf584828501611bbc565b91505092915050565b6000819050919050565b611c1181611bfe565b8114611c1c57600080fd5b50565b600081359050611c2e81611c08565b92915050565b600060208284031215611c4a57611c49611955565b5b6000611c5884828501611c1f565b91505092915050565b6000819050919050565b6000611c86611c81611c7c84611af3565b611c61565b611af3565b9050919050565b6000611c9882611c6b565b9050919050565b6000611caa82611c8d565b9050919050565b611cba81611c9f565b82525050565b6000602082019050611cd56000830184611cb1565b92915050565b600060208284031215611cf157611cf0611955565b5b6000611cff84828501611b3c565b91505092915050565b600080fd5b600060a08284031215611d2357611d22611d08565b5b81905092915050565b600060208284031215611d4257611d41611955565b5b600082013567ffffffffffffffff811115611d6057611d5f61195a565b5b611d6c84828501611d0d565b91505092915050565b611d7e81611b13565b82525050565b6000602082019050611d996000830184611d75565b92915050565b611da8816119e4565b8114611db357600080fd5b50565b600081359050611dc581611d9f565b92915050565b60008060408385031215611de257611de1611955565b5b6000611df085828601611bbc565b9250506020611e0185828601611db6565b9150509250929050565b60008060008060808587031215611e2557611e24611955565b5b6000611e3387828801611c1f565b9450506020611e4487828801611b3c565b9350506040611e5587828801611bbc565b9250506060611e6687828801611b3c565b91505092959194509250565b6000602082019050611e876000830184611a24565b92915050565b60008060408385031215611ea457611ea3611955565b5b6000611eb285828601611b3c565b9250506020611ec385828601611db6565b9150509250929050565b7f4e487b7100000000000000000000000000000000000000000000000000000000600052602260045260246000fd5b60006002820490506001821680611f1457607f821691505b602082108103611f2757611f26611ecd565b5b50919050565b600081519050611f3c81611c08565b92915050565b600060208284031215611f5857611f57611955565b5b6000611f6684828501611f2d565b91505092915050565b600081905092915050565b50565b6000611f8a600083611f6f565b9150611f9582611f7a565b600082019050919050565b6000611fab82611f7d565b9150819050919050565b611fbe81611bfe565b82525050565b6000606082019050611fd96000830186611d75565b611fe66020830185611d75565b611ff36040830184611fb5565b949350505050565b7f4d7573742062652070726f706f736564206f776e657200000000000000000000600082015250565b6000612031601683611a3e565b915061203c82611ffb565b602082019050919050565b6000602082019050818103600083015261206081612024565b9050919050565b600080fd5b7f4e487b7100000000000000000000000000000000000000000000000000000000600052604160045260246000fd5b6120a482611a79565b810181811067ffffffffffffffff821117156120c3576120c261206c565b5b80604052505050565b60006120d661194b565b90506120e2828261209b565b919050565b600080fd5b6120f581611a1a565b811461210057600080fd5b50565b600081359050612112816120ec565b92915050565b600080fd5b600080fd5b600067ffffffffffffffff82111561213d5761213c61206c565b5b61214682611a79565b9050602081019050919050565b82818337600083830152505050565b600061217561217084612122565b6120cc565b9050828152602081018484840111156121915761219061211d565b5b61219c848285612153565b509392505050565b600082601f8301126121b9576121b8612118565b5b81356121c9848260208601612162565b91505092915050565b600067ffffffffffffffff8211156121ed576121ec61206c565b5b602082029050602081019050919050565b600080fd5b60006040828403121561221957612218612067565b5b61222360406120cc565b9050600061223384828501611b3c565b600083015250602061224784828501611c1f565b60208301525092915050565b6000612266612261846121d2565b6120cc565b90508083825260208201905060408402830185811115612289576122886121fe565b5b835b818110156122b2578061229e8882612203565b84526020840193505060408101905061228b565b5050509392505050565b600082601f8301126122d1576122d0612118565b5b81356122e1848260208601612253565b91505092915050565b600060a08284031215612300576122ff612067565b5b61230a60a06120cc565b9050600061231a84828501612103565b600083015250602061232e84828501611bbc565b602083015250604082013567ffffffffffffffff811115612352576123516120e7565b5b61235e848285016121a4565b604083015250606082013567ffffffffffffffff811115612382576123816120e7565b5b61238e848285016121a4565b606083015250608082013567ffffffffffffffff8111156123b2576123b16120e7565b5b6123be848285016122bc565b60808301525092915050565b60006123d636836122ea565b9050919050565b60006040820190506123f26000830185611fb5565b6123ff6020830184611d75565b9392505050565b7f4f6e6c792063616c6c61626c65206279206f776e657200000000000000000000600082015250565b600061243c601683611a3e565b915061244782612406565b602082019050919050565b6000602082019050818103600083015261246b8161242f565b9050919050565b60006040820190506124876000830185611d75565b6124946020830184611fb5565b9392505050565b6000815190506124aa81611b25565b92915050565b6000604082840312156124c6576124c5612067565b5b6124d060406120cc565b905060006124e084828501611f2d565b60008301525060206124f48482850161249b565b60208301525092915050565b60006040828403121561251657612515611955565b5b6000612524848285016124b0565b91505092915050565b7f746865204e4654206973206e6f74206c6f636b65640000000000000000000000600082015250565b6000612563601583611a3e565b915061256e8261252d565b602082019050919050565b6000602082019050818103600083015261259281612556565b9050919050565b6000602082840312156125af576125ae611955565b5b60006125bd8482850161249b565b91505092915050565b6125cf81611b91565b82525050565b600081519050919050565b600082825260208201905092915050565b60006125fc826125d5565b61260681856125e0565b9350612616818560208601611a4f565b61261f81611a79565b840191505092915050565b600081519050919050565b600082825260208201905092915050565b6000819050602082019050919050565b61265f81611b13565b82525050565b61266e81611bfe565b82525050565b60408201600082015161268a6000850182612656565b50602082015161269d6020850182612665565b50505050565b60006126af8383612674565b60408301905092915050565b6000602082019050919050565b60006126d38261262a565b6126dd8185612635565b93506126e883612646565b8060005b8381101561271957815161270088826126a3565b975061270b836126bb565b9250506001810190506126ec565b5085935050505092915050565b600060a083016000830151848203600086015261274382826125f1565b9150506020830151848203602086015261275d82826125f1565b9150506040830151848203604086015261277782826126c8565b915050606083015161278c6060860182612656565b50608083015184820360808601526127a482826125f1565b9150508091505092915050565b60006040820190506127c660008301856125c6565b81810360208301526127d88184612726565b90509392505050565b60006040820190506127f66000830185611fb5565b6128036020830184611fb5565b9392505050565b60008151905061281981611d9f565b92915050565b60006020828403121561283557612834611955565b5b60006128438482850161280a565b91505092915050565b60008151905061285b816120ec565b92915050565b60006020828403121561287757612876611955565b5b60006128858482850161284c565b91505092915050565b600082825260208201905092915050565b60006128aa826125d5565b6128b4818561288e565b93506128c4818560208601611a4f565b6128cd81611a79565b840191505092915050565b60006080820190506128ed6000830187611d75565b81810360208301526128ff818661289f565b905061290e6040830185611d75565b61291b6060830184611fb5565b95945050505050565b7f43616e6e6f74207472616e7366657220746f2073656c66000000000000000000600082015250565b600061295a601783611a3e565b915061296582612924565b602082019050919050565b600060208201905081810360008301526129898161294d565b9050919050565b7f5361666545524332303a204552433230206f7065726174696f6e20646964206e60008201527f6f74207375636365656400000000000000000000000000000000000000000000602082015250565b60006129ec602a83611a3e565b91506129f782612990565b604082019050919050565b60006020820190508181036000830152612a1b816129df565b9050919050565b602082016000820151612a386000850182612665565b50505050565b6000602082019050612a536000830184612a22565b92915050565b7f416464726573733a20696e73756666696369656e742062616c616e636520666f60008201527f722063616c6c0000000000000000000000000000000000000000000000000000602082015250565b6000612ab5602683611a3e565b9150612ac082612a59565b604082019050919050565b60006020820190508181036000830152612ae481612aa8565b9050919050565b6000612af6826125d5565b612b008185611f6f565b9350612b10818560208601611a4f565b80840191505092915050565b6000612b288284612aeb565b915081905092915050565b7f416464726573733a2063616c6c20746f206e6f6e2d636f6e7472616374000000600082015250565b6000612b69601d83611a3e565b9150612b7482612b33565b602082019050919050565b60006020820190508181036000830152612b9881612b5c565b9050919050565b60006020820190508181036000830152612bb98184611a8a565b90509291505056fea2646970667358221220609ac1f2401db887cd475c2a66d19453f2bc911e79eb324af2a53c89dbc3610e64736f6c63430008140033",
  "linkReferences": {},
  "deployedLinkReferences": {}
}