{
	"lesson - 3/FundMe.sol": {
		"FundMe": {
			"abi": [
				{
					"inputs": [],
					"stateMutability": "nonpayable",
					"type": "constructor"
				},
				{
					"inputs": [],
					"name": "fund",
					"outputs": [],
					"stateMutability": "payable",
					"type": "function"
				},
				{
					"inputs": [
						{
							"internalType": "address",
							"name": "",
							"type": "address"
						}
					],
					"name": "funderToAmount",
					"outputs": [
						{
							"internalType": "uint256",
							"name": "",
							"type": "uint256"
						}
					],
					"stateMutability": "view",
					"type": "function"
				},
				{
					"inputs": [],
					"name": "getChainlinkDataFeedLatestAnswer",
					"outputs": [
						{
							"internalType": "int256",
							"name": "",
							"type": "int256"
						}
					],
					"stateMutability": "view",
					"type": "function"
				},
				{
					"inputs": [],
					"name": "getFund",
					"outputs": [],
					"stateMutability": "view",
					"type": "function"
				},
				{
					"inputs": [
						{
							"internalType": "address",
							"name": "newOwner",
							"type": "address"
						}
					],
					"name": "transferOwnership",
					"outputs": [],
					"stateMutability": "nonpayable",
					"type": "function"
				}
			],
			"devdoc": {
				"kind": "dev",
				"methods": {},
				"version": 1
			},
			"evm": {
				"assembly": "    /* \"lesson - 3/FundMe.sol\":457:2038  contract FundMe {... */\n  mstore(0x40, 0x80)\n    /* \"lesson - 3/FundMe.sol\":710:872  constructor() {... */\n  callvalue\n  dup1\n  iszero\n  tag_1\n  jumpi\n  0x00\n  dup1\n  revert\ntag_1:\n  pop\n    /* \"lesson - 3/FundMe.sol\":794:836  0x694AA1769357215DE4FAC081bf1f309aDC325306 */\n  0x694aa1769357215de4fac081bf1f309adc325306\n    /* \"lesson - 3/FundMe.sol\":761:769  dataFeed */\n  0x01\n  0x00\n    /* \"lesson - 3/FundMe.sol\":761:837  dataFeed = AggregatorV3Interface(0x694AA1769357215DE4FAC081bf1f309aDC325306) */\n  0x0100\n  exp\n  dup2\n  sload\n  dup2\n  0xffffffffffffffffffffffffffffffffffffffff\n  mul\n  not\n  and\n  swap1\n  dup4\n  0xffffffffffffffffffffffffffffffffffffffff\n  and\n  mul\n  or\n  swap1\n  sstore\n  pop\n    /* \"lesson - 3/FundMe.sol\":855:865  msg.sender */\n  caller\n    /* \"lesson - 3/FundMe.sol\":847:852  owner */\n  0x02\n  0x00\n    /* \"lesson - 3/FundMe.sol\":847:865  owner = msg.sender */\n  0x0100\n  exp\n  dup2\n  sload\n  dup2\n  0xffffffffffffffffffffffffffffffffffffffff\n  mul\n  not\n  and\n  swap1\n  dup4\n  0xffffffffffffffffffffffffffffffffffffffff\n  and\n  mul\n  or\n  swap1\n  sstore\n  pop\n    /* \"lesson - 3/FundMe.sol\":457:2038  contract FundMe {... */\n  dataSize(sub_0)\n  dup1\n  dataOffset(sub_0)\n  0x00\n  codecopy\n  0x00\n  return\nstop\n\nsub_0: assembly {\n        /* \"lesson - 3/FundMe.sol\":457:2038  contract FundMe {... */\n      mstore(0x40, 0x80)\n      jumpi(tag_1, lt(calldatasize, 0x04))\n      shr(0xe0, calldataload(0x00))\n      dup1\n      0x4407e1e8\n      eq\n      tag_2\n      jumpi\n      dup1\n      0x8edd6eb6\n      eq\n      tag_3\n      jumpi\n      dup1\n      0xb60d4288\n      eq\n      tag_4\n      jumpi\n      dup1\n      0xbea4dfb5\n      eq\n      tag_5\n      jumpi\n      dup1\n      0xf2fde38b\n      eq\n      tag_6\n      jumpi\n    tag_1:\n      0x00\n      dup1\n      revert\n        /* \"lesson - 3/FundMe.sol\":479:528  mapping(address => uint256) public funderToAmount */\n    tag_2:\n      callvalue\n      dup1\n      iszero\n      tag_7\n      jumpi\n      0x00\n      dup1\n      revert\n    tag_7:\n      pop\n      tag_8\n      0x04\n      dup1\n      calldatasize\n      sub\n      dup2\n      add\n      swap1\n      tag_9\n      swap2\n      swap1\n      tag_10\n      jump\t// in\n    tag_9:\n      tag_11\n      jump\t// in\n    tag_8:\n      mload(0x40)\n      tag_12\n      swap2\n      swap1\n      tag_13\n      jump\t// in\n    tag_12:\n      mload(0x40)\n      dup1\n      swap2\n      sub\n      swap1\n      return\n        /* \"lesson - 3/FundMe.sol\":1815:2031  function getFund() external view {... */\n    tag_3:\n      callvalue\n      dup1\n      iszero\n      tag_14\n      jumpi\n      0x00\n      dup1\n      revert\n    tag_14:\n      pop\n      tag_15\n      tag_16\n      jump\t// in\n    tag_15:\n      stop\n        /* \"lesson - 3/FundMe.sol\":878:1046  function fund() external  payable {... */\n    tag_4:\n      tag_17\n      tag_18\n      jump\t// in\n    tag_17:\n      stop\n        /* \"lesson - 3/FundMe.sol\":1052:1390  function getChainlinkDataFeedLatestAnswer() public view returns (int) {... */\n    tag_5:\n      callvalue\n      dup1\n      iszero\n      tag_19\n      jumpi\n      0x00\n      dup1\n      revert\n    tag_19:\n      pop\n      tag_20\n      tag_21\n      jump\t// in\n    tag_20:\n      mload(0x40)\n      tag_22\n      swap2\n      swap1\n      tag_23\n      jump\t// in\n    tag_22:\n      mload(0x40)\n      dup1\n      swap2\n      sub\n      swap1\n      return\n        /* \"lesson - 3/FundMe.sol\":1640:1808  function transferOwnership(address newOwner) public {... */\n    tag_6:\n      callvalue\n      dup1\n      iszero\n      tag_24\n      jumpi\n      0x00\n      dup1\n      revert\n    tag_24:\n      pop\n      tag_25\n      0x04\n      dup1\n      calldatasize\n      sub\n      dup2\n      add\n      swap1\n      tag_26\n      swap2\n      swap1\n      tag_10\n      jump\t// in\n    tag_26:\n      tag_27\n      jump\t// in\n    tag_25:\n      stop\n        /* \"lesson - 3/FundMe.sol\":479:528  mapping(address => uint256) public funderToAmount */\n    tag_11:\n      mstore(0x20, 0x00)\n      dup1\n      0x00\n      mstore\n      keccak256(0x00, 0x40)\n      0x00\n      swap2\n      pop\n      swap1\n      pop\n      sload\n      dup2\n      jump\t// out\n        /* \"lesson - 3/FundMe.sol\":1815:2031  function getFund() external view {... */\n    tag_16:\n        /* \"lesson - 3/FundMe.sol\":668:683  1000 * 10 ** 18 */\n      0x3635c9adc5dea00000\n        /* \"lesson - 3/FundMe.sol\":1866:1904  convertEthToUSD(address(this).balance) */\n      tag_29\n        /* \"lesson - 3/FundMe.sol\":1882:1903  address(this).balance */\n      selfbalance\n        /* \"lesson - 3/FundMe.sol\":1866:1881  convertEthToUSD */\n      tag_30\n        /* \"lesson - 3/FundMe.sol\":1866:1904  convertEthToUSD(address(this).balance) */\n      jump\t// in\n    tag_29:\n        /* \"lesson - 3/FundMe.sol\":1866:1914  convertEthToUSD(address(this).balance) >= TARGET */\n      lt\n      iszero\n        /* \"lesson - 3/FundMe.sol\":1858:1940  require(convertEthToUSD(address(this).balance) >= TARGET, \"Target is not reached\") */\n      tag_31\n      jumpi\n      mload(0x40)\n      0x08c379a000000000000000000000000000000000000000000000000000000000\n      dup2\n      mstore\n      0x04\n      add\n      tag_32\n      swap1\n      tag_33\n      jump\t// in\n    tag_32:\n      mload(0x40)\n      dup1\n      swap2\n      sub\n      swap1\n      revert\n    tag_31:\n        /* \"lesson - 3/FundMe.sol\":1972:1977  owner */\n      0x02\n      0x00\n      swap1\n      sload\n      swap1\n      0x0100\n      exp\n      swap1\n      div\n      0xffffffffffffffffffffffffffffffffffffffff\n      and\n        /* \"lesson - 3/FundMe.sol\":1958:1977  msg.sender == owner */\n      0xffffffffffffffffffffffffffffffffffffffff\n      and\n        /* \"lesson - 3/FundMe.sol\":1958:1968  msg.sender */\n      caller\n        /* \"lesson - 3/FundMe.sol\":1958:1977  msg.sender == owner */\n      0xffffffffffffffffffffffffffffffffffffffff\n      and\n      eq\n        /* \"lesson - 3/FundMe.sol\":1950:2023  require(msg.sender == owner, \"this function can only be called by owner\") */\n      tag_34\n      jumpi\n      mload(0x40)\n      0x08c379a000000000000000000000000000000000000000000000000000000000\n      dup2\n      mstore\n      0x04\n      add\n      tag_35\n      swap1\n      tag_36\n      jump\t// in\n    tag_35:\n      mload(0x40)\n      dup1\n      swap2\n      sub\n      swap1\n      revert\n    tag_34:\n        /* \"lesson - 3/FundMe.sol\":1815:2031  function getFund() external view {... */\n      jump\t// out\n        /* \"lesson - 3/FundMe.sol\":878:1046  function fund() external  payable {... */\n    tag_18:\n        /* \"lesson - 3/FundMe.sol\":568:582  100 * 10 ** 18 */\n      0x056bc75e2d63100000\n        /* \"lesson - 3/FundMe.sol\":930:956  convertEthToUSD(msg.value) */\n      tag_38\n        /* \"lesson - 3/FundMe.sol\":946:955  msg.value */\n      callvalue\n        /* \"lesson - 3/FundMe.sol\":930:945  convertEthToUSD */\n      tag_30\n        /* \"lesson - 3/FundMe.sol\":930:956  convertEthToUSD(msg.value) */\n      jump\t// in\n    tag_38:\n        /* \"lesson - 3/FundMe.sol\":930:973  convertEthToUSD(msg.value) >= MINIMUN_VALUE */\n      lt\n      iszero\n        /* \"lesson - 3/FundMe.sol\":922:991  require(convertEthToUSD(msg.value) >= MINIMUN_VALUE, \"Send more ETH\") */\n      tag_39\n      jumpi\n      mload(0x40)\n      0x08c379a000000000000000000000000000000000000000000000000000000000\n      dup2\n      mstore\n      0x04\n      add\n      tag_40\n      swap1\n      tag_41\n      jump\t// in\n    tag_40:\n      mload(0x40)\n      dup1\n      swap2\n      sub\n      swap1\n      revert\n    tag_39:\n        /* \"lesson - 3/FundMe.sol\":1030:1039  msg.value */\n      callvalue\n        /* \"lesson - 3/FundMe.sol\":1001:1015  funderToAmount */\n      0x00\n        /* \"lesson - 3/FundMe.sol\":1001:1027  funderToAmount[msg.sender] */\n      dup1\n        /* \"lesson - 3/FundMe.sol\":1016:1026  msg.sender */\n      caller\n        /* \"lesson - 3/FundMe.sol\":1001:1027  funderToAmount[msg.sender] */\n      0xffffffffffffffffffffffffffffffffffffffff\n      and\n      0xffffffffffffffffffffffffffffffffffffffff\n      and\n      dup2\n      mstore\n      0x20\n      add\n      swap1\n      dup2\n      mstore\n      0x20\n      add\n      0x00\n      keccak256\n        /* \"lesson - 3/FundMe.sol\":1001:1039  funderToAmount[msg.sender] = msg.value */\n      dup2\n      swap1\n      sstore\n      pop\n        /* \"lesson - 3/FundMe.sol\":878:1046  function fund() external  payable {... */\n      jump\t// out\n        /* \"lesson - 3/FundMe.sol\":1052:1390  function getChainlinkDataFeedLatestAnswer() public view returns (int) {... */\n    tag_21:\n        /* \"lesson - 3/FundMe.sol\":1117:1120  int */\n      0x00\n        /* \"lesson - 3/FundMe.sol\":1207:1217  int answer */\n      dup1\n        /* \"lesson - 3/FundMe.sol\":1334:1342  dataFeed */\n      0x01\n      0x00\n      swap1\n      sload\n      swap1\n      0x0100\n      exp\n      swap1\n      div\n      0xffffffffffffffffffffffffffffffffffffffff\n      and\n        /* \"lesson - 3/FundMe.sol\":1334:1358  dataFeed.latestRoundData */\n      0xffffffffffffffffffffffffffffffffffffffff\n      and\n      0xfeaf968c\n        /* \"lesson - 3/FundMe.sol\":1334:1360  dataFeed.latestRoundData() */\n      mload(0x40)\n      dup2\n      0xffffffff\n      and\n      0xe0\n      shl\n      dup2\n      mstore\n      0x04\n      add\n      0xa0\n      mload(0x40)\n      dup1\n      dup4\n      sub\n      dup2\n      dup7\n      gas\n      staticcall\n      iszero\n      dup1\n      iszero\n      tag_44\n      jumpi\n      returndatasize\n      0x00\n      dup1\n      returndatacopy\n      revert(0x00, returndatasize)\n    tag_44:\n      pop\n      pop\n      pop\n      pop\n      mload(0x40)\n      returndatasize\n      not(0x1f)\n      0x1f\n      dup3\n      add\n      and\n      dup3\n      add\n      dup1\n      0x40\n      mstore\n      pop\n      dup2\n      add\n      swap1\n      tag_45\n      swap2\n      swap1\n      tag_46\n      jump\t// in\n    tag_45:\n        /* \"lesson - 3/FundMe.sol\":1159:1360  (... */\n      pop\n      pop\n      pop\n      swap2\n      pop\n      pop\n        /* \"lesson - 3/FundMe.sol\":1377:1383  answer */\n      dup1\n        /* \"lesson - 3/FundMe.sol\":1370:1383  return answer */\n      swap2\n      pop\n      pop\n        /* \"lesson - 3/FundMe.sol\":1052:1390  function getChainlinkDataFeedLatestAnswer() public view returns (int) {... */\n      swap1\n      jump\t// out\n        /* \"lesson - 3/FundMe.sol\":1640:1808  function transferOwnership(address newOwner) public {... */\n    tag_27:\n        /* \"lesson - 3/FundMe.sol\":1724:1729  owner */\n      0x02\n      0x00\n      swap1\n      sload\n      swap1\n      0x0100\n      exp\n      swap1\n      div\n      0xffffffffffffffffffffffffffffffffffffffff\n      and\n        /* \"lesson - 3/FundMe.sol\":1710:1729  msg.sender == owner */\n      0xffffffffffffffffffffffffffffffffffffffff\n      and\n        /* \"lesson - 3/FundMe.sol\":1710:1720  msg.sender */\n      caller\n        /* \"lesson - 3/FundMe.sol\":1710:1729  msg.sender == owner */\n      0xffffffffffffffffffffffffffffffffffffffff\n      and\n      eq\n        /* \"lesson - 3/FundMe.sol\":1702:1775  require(msg.sender == owner, \"this function can only be called by owner\") */\n      tag_48\n      jumpi\n      mload(0x40)\n      0x08c379a000000000000000000000000000000000000000000000000000000000\n      dup2\n      mstore\n      0x04\n      add\n      tag_49\n      swap1\n      tag_36\n      jump\t// in\n    tag_49:\n      mload(0x40)\n      dup1\n      swap2\n      sub\n      swap1\n      revert\n    tag_48:\n        /* \"lesson - 3/FundMe.sol\":1793:1801  newOwner */\n      dup1\n        /* \"lesson - 3/FundMe.sol\":1785:1790  owner */\n      0x02\n      0x00\n        /* \"lesson - 3/FundMe.sol\":1785:1801  owner = newOwner */\n      0x0100\n      exp\n      dup2\n      sload\n      dup2\n      0xffffffffffffffffffffffffffffffffffffffff\n      mul\n      not\n      and\n      swap1\n      dup4\n      0xffffffffffffffffffffffffffffffffffffffff\n      and\n      mul\n      or\n      swap1\n      sstore\n      pop\n        /* \"lesson - 3/FundMe.sol\":1640:1808  function transferOwnership(address newOwner) public {... */\n      pop\n      jump\t// out\n        /* \"lesson - 3/FundMe.sol\":1396:1634  function convertEthToUSD(uint256 ethAmount) ... */\n    tag_30:\n        /* \"lesson - 3/FundMe.sol\":1489:1496  uint256 */\n      0x00\n        /* \"lesson - 3/FundMe.sol\":1512:1528  uint256 ethPrice */\n      dup1\n        /* \"lesson - 3/FundMe.sol\":1539:1573  getChainlinkDataFeedLatestAnswer() */\n      tag_51\n        /* \"lesson - 3/FundMe.sol\":1539:1571  getChainlinkDataFeedLatestAnswer */\n      tag_21\n        /* \"lesson - 3/FundMe.sol\":1539:1573  getChainlinkDataFeedLatestAnswer() */\n      jump\t// in\n    tag_51:\n        /* \"lesson - 3/FundMe.sol\":1512:1574  uint256 ethPrice = uint256(getChainlinkDataFeedLatestAnswer()) */\n      swap1\n      pop\n        /* \"lesson - 3/FundMe.sol\":1619:1626  10 ** 8 */\n      0x05f5e100\n        /* \"lesson - 3/FundMe.sol\":1607:1615  ethPrice */\n      dup2\n        /* \"lesson - 3/FundMe.sol\":1595:1604  ethAmount */\n      dup5\n        /* \"lesson - 3/FundMe.sol\":1595:1615  ethAmount * ethPrice */\n      tag_52\n      swap2\n      swap1\n      tag_53\n      jump\t// in\n    tag_52:\n        /* \"lesson - 3/FundMe.sol\":1595:1627  ethAmount * ethPrice / (10 ** 8) */\n      tag_54\n      swap2\n      swap1\n      tag_55\n      jump\t// in\n    tag_54:\n        /* \"lesson - 3/FundMe.sol\":1588:1627  return ethAmount * ethPrice / (10 ** 8) */\n      swap2\n      pop\n      pop\n        /* \"lesson - 3/FundMe.sol\":1396:1634  function convertEthToUSD(uint256 ethAmount) ... */\n      swap2\n      swap1\n      pop\n      jump\t// out\n        /* \"#utility.yul\":88:205   */\n    tag_57:\n        /* \"#utility.yul\":197:198   */\n      0x00\n        /* \"#utility.yul\":194:195   */\n      dup1\n        /* \"#utility.yul\":187:199   */\n      revert\n        /* \"#utility.yul\":334:460   */\n    tag_59:\n        /* \"#utility.yul\":371:378   */\n      0x00\n        /* \"#utility.yul\":411:453   */\n      0xffffffffffffffffffffffffffffffffffffffff\n        /* \"#utility.yul\":404:409   */\n      dup3\n        /* \"#utility.yul\":400:454   */\n      and\n        /* \"#utility.yul\":389:454   */\n      swap1\n      pop\n        /* \"#utility.yul\":334:460   */\n      swap2\n      swap1\n      pop\n      jump\t// out\n        /* \"#utility.yul\":466:562   */\n    tag_60:\n        /* \"#utility.yul\":503:510   */\n      0x00\n        /* \"#utility.yul\":532:556   */\n      tag_89\n        /* \"#utility.yul\":550:555   */\n      dup3\n        /* \"#utility.yul\":532:556   */\n      tag_59\n      jump\t// in\n    tag_89:\n        /* \"#utility.yul\":521:556   */\n      swap1\n      pop\n        /* \"#utility.yul\":466:562   */\n      swap2\n      swap1\n      pop\n      jump\t// out\n        /* \"#utility.yul\":568:690   */\n    tag_61:\n        /* \"#utility.yul\":641:665   */\n      tag_91\n        /* \"#utility.yul\":659:664   */\n      dup2\n        /* \"#utility.yul\":641:665   */\n      tag_60\n      jump\t// in\n    tag_91:\n        /* \"#utility.yul\":634:639   */\n      dup2\n        /* \"#utility.yul\":631:666   */\n      eq\n        /* \"#utility.yul\":621:684   */\n      tag_92\n      jumpi\n        /* \"#utility.yul\":680:681   */\n      0x00\n        /* \"#utility.yul\":677:678   */\n      dup1\n        /* \"#utility.yul\":670:682   */\n      revert\n        /* \"#utility.yul\":621:684   */\n    tag_92:\n        /* \"#utility.yul\":568:690   */\n      pop\n      jump\t// out\n        /* \"#utility.yul\":696:835   */\n    tag_62:\n        /* \"#utility.yul\":742:747   */\n      0x00\n        /* \"#utility.yul\":780:786   */\n      dup2\n        /* \"#utility.yul\":767:787   */\n      calldataload\n        /* \"#utility.yul\":758:787   */\n      swap1\n      pop\n        /* \"#utility.yul\":796:829   */\n      tag_94\n        /* \"#utility.yul\":823:828   */\n      dup2\n        /* \"#utility.yul\":796:829   */\n      tag_61\n      jump\t// in\n    tag_94:\n        /* \"#utility.yul\":696:835   */\n      swap3\n      swap2\n      pop\n      pop\n      jump\t// out\n        /* \"#utility.yul\":841:1170   */\n    tag_10:\n        /* \"#utility.yul\":900:906   */\n      0x00\n        /* \"#utility.yul\":949:951   */\n      0x20\n        /* \"#utility.yul\":937:946   */\n      dup3\n        /* \"#utility.yul\":928:935   */\n      dup5\n        /* \"#utility.yul\":924:947   */\n      sub\n        /* \"#utility.yul\":920:952   */\n      slt\n        /* \"#utility.yul\":917:1036   */\n      iszero\n      tag_96\n      jumpi\n        /* \"#utility.yul\":955:1034   */\n      tag_97\n      tag_57\n      jump\t// in\n    tag_97:\n        /* \"#utility.yul\":917:1036   */\n    tag_96:\n        /* \"#utility.yul\":1075:1076   */\n      0x00\n        /* \"#utility.yul\":1100:1153   */\n      tag_98\n        /* \"#utility.yul\":1145:1152   */\n      dup5\n        /* \"#utility.yul\":1136:1142   */\n      dup3\n        /* \"#utility.yul\":1125:1134   */\n      dup6\n        /* \"#utility.yul\":1121:1143   */\n      add\n        /* \"#utility.yul\":1100:1153   */\n      tag_62\n      jump\t// in\n    tag_98:\n        /* \"#utility.yul\":1090:1153   */\n      swap2\n      pop\n        /* \"#utility.yul\":1046:1163   */\n      pop\n        /* \"#utility.yul\":841:1170   */\n      swap3\n      swap2\n      pop\n      pop\n      jump\t// out\n        /* \"#utility.yul\":1176:1253   */\n    tag_63:\n        /* \"#utility.yul\":1213:1220   */\n      0x00\n        /* \"#utility.yul\":1242:1247   */\n      dup2\n        /* \"#utility.yul\":1231:1247   */\n      swap1\n      pop\n        /* \"#utility.yul\":1176:1253   */\n      swap2\n      swap1\n      pop\n      jump\t// out\n        /* \"#utility.yul\":1259:1377   */\n    tag_64:\n        /* \"#utility.yul\":1346:1370   */\n      tag_101\n        /* \"#utility.yul\":1364:1369   */\n      dup2\n        /* \"#utility.yul\":1346:1370   */\n      tag_63\n      jump\t// in\n    tag_101:\n        /* \"#utility.yul\":1341:1344   */\n      dup3\n        /* \"#utility.yul\":1334:1371   */\n      mstore\n        /* \"#utility.yul\":1259:1377   */\n      pop\n      pop\n      jump\t// out\n        /* \"#utility.yul\":1383:1605   */\n    tag_13:\n        /* \"#utility.yul\":1476:1480   */\n      0x00\n        /* \"#utility.yul\":1514:1516   */\n      0x20\n        /* \"#utility.yul\":1503:1512   */\n      dup3\n        /* \"#utility.yul\":1499:1517   */\n      add\n        /* \"#utility.yul\":1491:1517   */\n      swap1\n      pop\n        /* \"#utility.yul\":1527:1598   */\n      tag_103\n        /* \"#utility.yul\":1595:1596   */\n      0x00\n        /* \"#utility.yul\":1584:1593   */\n      dup4\n        /* \"#utility.yul\":1580:1597   */\n      add\n        /* \"#utility.yul\":1571:1577   */\n      dup5\n        /* \"#utility.yul\":1527:1598   */\n      tag_64\n      jump\t// in\n    tag_103:\n        /* \"#utility.yul\":1383:1605   */\n      swap3\n      swap2\n      pop\n      pop\n      jump\t// out\n        /* \"#utility.yul\":1611:1687   */\n    tag_65:\n        /* \"#utility.yul\":1647:1654   */\n      0x00\n        /* \"#utility.yul\":1676:1681   */\n      dup2\n        /* \"#utility.yul\":1665:1681   */\n      swap1\n      pop\n        /* \"#utility.yul\":1611:1687   */\n      swap2\n      swap1\n      pop\n      jump\t// out\n        /* \"#utility.yul\":1693:1808   */\n    tag_66:\n        /* \"#utility.yul\":1778:1801   */\n      tag_106\n        /* \"#utility.yul\":1795:1800   */\n      dup2\n        /* \"#utility.yul\":1778:1801   */\n      tag_65\n      jump\t// in\n    tag_106:\n        /* \"#utility.yul\":1773:1776   */\n      dup3\n        /* \"#utility.yul\":1766:1802   */\n      mstore\n        /* \"#utility.yul\":1693:1808   */\n      pop\n      pop\n      jump\t// out\n        /* \"#utility.yul\":1814:2032   */\n    tag_23:\n        /* \"#utility.yul\":1905:1909   */\n      0x00\n        /* \"#utility.yul\":1943:1945   */\n      0x20\n        /* \"#utility.yul\":1932:1941   */\n      dup3\n        /* \"#utility.yul\":1928:1946   */\n      add\n        /* \"#utility.yul\":1920:1946   */\n      swap1\n      pop\n        /* \"#utility.yul\":1956:2025   */\n      tag_108\n        /* \"#utility.yul\":2022:2023   */\n      0x00\n        /* \"#utility.yul\":2011:2020   */\n      dup4\n        /* \"#utility.yul\":2007:2024   */\n      add\n        /* \"#utility.yul\":1998:2004   */\n      dup5\n        /* \"#utility.yul\":1956:2025   */\n      tag_66\n      jump\t// in\n    tag_108:\n        /* \"#utility.yul\":1814:2032   */\n      swap3\n      swap2\n      pop\n      pop\n      jump\t// out\n        /* \"#utility.yul\":2038:2207   */\n    tag_67:\n        /* \"#utility.yul\":2122:2133   */\n      0x00\n        /* \"#utility.yul\":2156:2162   */\n      dup3\n        /* \"#utility.yul\":2151:2154   */\n      dup3\n        /* \"#utility.yul\":2144:2163   */\n      mstore\n        /* \"#utility.yul\":2196:2200   */\n      0x20\n        /* \"#utility.yul\":2191:2194   */\n      dup3\n        /* \"#utility.yul\":2187:2201   */\n      add\n        /* \"#utility.yul\":2172:2201   */\n      swap1\n      pop\n        /* \"#utility.yul\":2038:2207   */\n      swap3\n      swap2\n      pop\n      pop\n      jump\t// out\n        /* \"#utility.yul\":2213:2384   */\n    tag_68:\n        /* \"#utility.yul\":2353:2376   */\n      0x546172676574206973206e6f7420726561636865640000000000000000000000\n        /* \"#utility.yul\":2349:2350   */\n      0x00\n        /* \"#utility.yul\":2341:2347   */\n      dup3\n        /* \"#utility.yul\":2337:2351   */\n      add\n        /* \"#utility.yul\":2330:2377   */\n      mstore\n        /* \"#utility.yul\":2213:2384   */\n      pop\n      jump\t// out\n        /* \"#utility.yul\":2390:2756   */\n    tag_69:\n        /* \"#utility.yul\":2532:2535   */\n      0x00\n        /* \"#utility.yul\":2553:2620   */\n      tag_112\n        /* \"#utility.yul\":2617:2619   */\n      0x15\n        /* \"#utility.yul\":2612:2615   */\n      dup4\n        /* \"#utility.yul\":2553:2620   */\n      tag_67\n      jump\t// in\n    tag_112:\n        /* \"#utility.yul\":2546:2620   */\n      swap2\n      pop\n        /* \"#utility.yul\":2629:2722   */\n      tag_113\n        /* \"#utility.yul\":2718:2721   */\n      dup3\n        /* \"#utility.yul\":2629:2722   */\n      tag_68\n      jump\t// in\n    tag_113:\n        /* \"#utility.yul\":2747:2749   */\n      0x20\n        /* \"#utility.yul\":2742:2745   */\n      dup3\n        /* \"#utility.yul\":2738:2750   */\n      add\n        /* \"#utility.yul\":2731:2750   */\n      swap1\n      pop\n        /* \"#utility.yul\":2390:2756   */\n      swap2\n      swap1\n      pop\n      jump\t// out\n        /* \"#utility.yul\":2762:3181   */\n    tag_33:\n        /* \"#utility.yul\":2928:2932   */\n      0x00\n        /* \"#utility.yul\":2966:2968   */\n      0x20\n        /* \"#utility.yul\":2955:2964   */\n      dup3\n        /* \"#utility.yul\":2951:2969   */\n      add\n        /* \"#utility.yul\":2943:2969   */\n      swap1\n      pop\n        /* \"#utility.yul\":3015:3024   */\n      dup2\n        /* \"#utility.yul\":3009:3013   */\n      dup2\n        /* \"#utility.yul\":3005:3025   */\n      sub\n        /* \"#utility.yul\":3001:3002   */\n      0x00\n        /* \"#utility.yul\":2990:2999   */\n      dup4\n        /* \"#utility.yul\":2986:3003   */\n      add\n        /* \"#utility.yul\":2979:3026   */\n      mstore\n        /* \"#utility.yul\":3043:3174   */\n      tag_115\n        /* \"#utility.yul\":3169:3173   */\n      dup2\n        /* \"#utility.yul\":3043:3174   */\n      tag_69\n      jump\t// in\n    tag_115:\n        /* \"#utility.yul\":3035:3174   */\n      swap1\n      pop\n        /* \"#utility.yul\":2762:3181   */\n      swap2\n      swap1\n      pop\n      jump\t// out\n        /* \"#utility.yul\":3187:3415   */\n    tag_70:\n        /* \"#utility.yul\":3327:3361   */\n      0x746869732066756e6374696f6e2063616e206f6e6c792062652063616c6c6564\n        /* \"#utility.yul\":3323:3324   */\n      0x00\n        /* \"#utility.yul\":3315:3321   */\n      dup3\n        /* \"#utility.yul\":3311:3325   */\n      add\n        /* \"#utility.yul\":3304:3362   */\n      mstore\n        /* \"#utility.yul\":3396:3407   */\n      0x206279206f776e65720000000000000000000000000000000000000000000000\n        /* \"#utility.yul\":3391:3393   */\n      0x20\n        /* \"#utility.yul\":3383:3389   */\n      dup3\n        /* \"#utility.yul\":3379:3394   */\n      add\n        /* \"#utility.yul\":3372:3408   */\n      mstore\n        /* \"#utility.yul\":3187:3415   */\n      pop\n      jump\t// out\n        /* \"#utility.yul\":3421:3787   */\n    tag_71:\n        /* \"#utility.yul\":3563:3566   */\n      0x00\n        /* \"#utility.yul\":3584:3651   */\n      tag_118\n        /* \"#utility.yul\":3648:3650   */\n      0x29\n        /* \"#utility.yul\":3643:3646   */\n      dup4\n        /* \"#utility.yul\":3584:3651   */\n      tag_67\n      jump\t// in\n    tag_118:\n        /* \"#utility.yul\":3577:3651   */\n      swap2\n      pop\n        /* \"#utility.yul\":3660:3753   */\n      tag_119\n        /* \"#utility.yul\":3749:3752   */\n      dup3\n        /* \"#utility.yul\":3660:3753   */\n      tag_70\n      jump\t// in\n    tag_119:\n        /* \"#utility.yul\":3778:3780   */\n      0x40\n        /* \"#utility.yul\":3773:3776   */\n      dup3\n        /* \"#utility.yul\":3769:3781   */\n      add\n        /* \"#utility.yul\":3762:3781   */\n      swap1\n      pop\n        /* \"#utility.yul\":3421:3787   */\n      swap2\n      swap1\n      pop\n      jump\t// out\n        /* \"#utility.yul\":3793:4212   */\n    tag_36:\n        /* \"#utility.yul\":3959:3963   */\n      0x00\n        /* \"#utility.yul\":3997:3999   */\n      0x20\n        /* \"#utility.yul\":3986:3995   */\n      dup3\n        /* \"#utility.yul\":3982:4000   */\n      add\n        /* \"#utility.yul\":3974:4000   */\n      swap1\n      pop\n        /* \"#utility.yul\":4046:4055   */\n      dup2\n        /* \"#utility.yul\":4040:4044   */\n      dup2\n        /* \"#utility.yul\":4036:4056   */\n      sub\n        /* \"#utility.yul\":4032:4033   */\n      0x00\n        /* \"#utility.yul\":4021:4030   */\n      dup4\n        /* \"#utility.yul\":4017:4034   */\n      add\n        /* \"#utility.yul\":4010:4057   */\n      mstore\n        /* \"#utility.yul\":4074:4205   */\n      tag_121\n        /* \"#utility.yul\":4200:4204   */\n      dup2\n        /* \"#utility.yul\":4074:4205   */\n      tag_71\n      jump\t// in\n    tag_121:\n        /* \"#utility.yul\":4066:4205   */\n      swap1\n      pop\n        /* \"#utility.yul\":3793:4212   */\n      swap2\n      swap1\n      pop\n      jump\t// out\n        /* \"#utility.yul\":4218:4381   */\n    tag_72:\n        /* \"#utility.yul\":4358:4373   */\n      0x53656e64206d6f72652045544800000000000000000000000000000000000000\n        /* \"#utility.yul\":4354:4355   */\n      0x00\n        /* \"#utility.yul\":4346:4352   */\n      dup3\n        /* \"#utility.yul\":4342:4356   */\n      add\n        /* \"#utility.yul\":4335:4374   */\n      mstore\n        /* \"#utility.yul\":4218:4381   */\n      pop\n      jump\t// out\n        /* \"#utility.yul\":4387:4753   */\n    tag_73:\n        /* \"#utility.yul\":4529:4532   */\n      0x00\n        /* \"#utility.yul\":4550:4617   */\n      tag_124\n        /* \"#utility.yul\":4614:4616   */\n      0x0d\n        /* \"#utility.yul\":4609:4612   */\n      dup4\n        /* \"#utility.yul\":4550:4617   */\n      tag_67\n      jump\t// in\n    tag_124:\n        /* \"#utility.yul\":4543:4617   */\n      swap2\n      pop\n        /* \"#utility.yul\":4626:4719   */\n      tag_125\n        /* \"#utility.yul\":4715:4718   */\n      dup3\n        /* \"#utility.yul\":4626:4719   */\n      tag_72\n      jump\t// in\n    tag_125:\n        /* \"#utility.yul\":4744:4746   */\n      0x20\n        /* \"#utility.yul\":4739:4742   */\n      dup3\n        /* \"#utility.yul\":4735:4747   */\n      add\n        /* \"#utility.yul\":4728:4747   */\n      swap1\n      pop\n        /* \"#utility.yul\":4387:4753   */\n      swap2\n      swap1\n      pop\n      jump\t// out\n        /* \"#utility.yul\":4759:5178   */\n    tag_41:\n        /* \"#utility.yul\":4925:4929   */\n      0x00\n        /* \"#utility.yul\":4963:4965   */\n      0x20\n        /* \"#utility.yul\":4952:4961   */\n      dup3\n        /* \"#utility.yul\":4948:4966   */\n      add\n        /* \"#utility.yul\":4940:4966   */\n      swap1\n      pop\n        /* \"#utility.yul\":5012:5021   */\n      dup2\n        /* \"#utility.yul\":5006:5010   */\n      dup2\n        /* \"#utility.yul\":5002:5022   */\n      sub\n        /* \"#utility.yul\":4998:4999   */\n      0x00\n        /* \"#utility.yul\":4987:4996   */\n      dup4\n        /* \"#utility.yul\":4983:5000   */\n      add\n        /* \"#utility.yul\":4976:5023   */\n      mstore\n        /* \"#utility.yul\":5040:5171   */\n      tag_127\n        /* \"#utility.yul\":5166:5170   */\n      dup2\n        /* \"#utility.yul\":5040:5171   */\n      tag_73\n      jump\t// in\n    tag_127:\n        /* \"#utility.yul\":5032:5171   */\n      swap1\n      pop\n        /* \"#utility.yul\":4759:5178   */\n      swap2\n      swap1\n      pop\n      jump\t// out\n        /* \"#utility.yul\":5184:5289   */\n    tag_74:\n        /* \"#utility.yul\":5220:5227   */\n      0x00\n        /* \"#utility.yul\":5260:5282   */\n      0xffffffffffffffffffff\n        /* \"#utility.yul\":5253:5258   */\n      dup3\n        /* \"#utility.yul\":5249:5283   */\n      and\n        /* \"#utility.yul\":5238:5283   */\n      swap1\n      pop\n        /* \"#utility.yul\":5184:5289   */\n      swap2\n      swap1\n      pop\n      jump\t// out\n        /* \"#utility.yul\":5295:5415   */\n    tag_75:\n        /* \"#utility.yul\":5367:5390   */\n      tag_130\n        /* \"#utility.yul\":5384:5389   */\n      dup2\n        /* \"#utility.yul\":5367:5390   */\n      tag_74\n      jump\t// in\n    tag_130:\n        /* \"#utility.yul\":5360:5365   */\n      dup2\n        /* \"#utility.yul\":5357:5391   */\n      eq\n        /* \"#utility.yul\":5347:5409   */\n      tag_131\n      jumpi\n        /* \"#utility.yul\":5405:5406   */\n      0x00\n        /* \"#utility.yul\":5402:5403   */\n      dup1\n        /* \"#utility.yul\":5395:5407   */\n      revert\n        /* \"#utility.yul\":5347:5409   */\n    tag_131:\n        /* \"#utility.yul\":5295:5415   */\n      pop\n      jump\t// out\n        /* \"#utility.yul\":5421:5562   */\n    tag_76:\n        /* \"#utility.yul\":5477:5482   */\n      0x00\n        /* \"#utility.yul\":5508:5514   */\n      dup2\n        /* \"#utility.yul\":5502:5515   */\n      mload\n        /* \"#utility.yul\":5493:5515   */\n      swap1\n      pop\n        /* \"#utility.yul\":5524:5556   */\n      tag_133\n        /* \"#utility.yul\":5550:5555   */\n      dup2\n        /* \"#utility.yul\":5524:5556   */\n      tag_75\n      jump\t// in\n    tag_133:\n        /* \"#utility.yul\":5421:5562   */\n      swap3\n      swap2\n      pop\n      pop\n      jump\t// out\n        /* \"#utility.yul\":5568:5688   */\n    tag_77:\n        /* \"#utility.yul\":5640:5663   */\n      tag_135\n        /* \"#utility.yul\":5657:5662   */\n      dup2\n        /* \"#utility.yul\":5640:5663   */\n      tag_65\n      jump\t// in\n    tag_135:\n        /* \"#utility.yul\":5633:5638   */\n      dup2\n        /* \"#utility.yul\":5630:5664   */\n      eq\n        /* \"#utility.yul\":5620:5682   */\n      tag_136\n      jumpi\n        /* \"#utility.yul\":5678:5679   */\n      0x00\n        /* \"#utility.yul\":5675:5676   */\n      dup1\n        /* \"#utility.yul\":5668:5680   */\n      revert\n        /* \"#utility.yul\":5620:5682   */\n    tag_136:\n        /* \"#utility.yul\":5568:5688   */\n      pop\n      jump\t// out\n        /* \"#utility.yul\":5694:5835   */\n    tag_78:\n        /* \"#utility.yul\":5750:5755   */\n      0x00\n        /* \"#utility.yul\":5781:5787   */\n      dup2\n        /* \"#utility.yul\":5775:5788   */\n      mload\n        /* \"#utility.yul\":5766:5788   */\n      swap1\n      pop\n        /* \"#utility.yul\":5797:5829   */\n      tag_138\n        /* \"#utility.yul\":5823:5828   */\n      dup2\n        /* \"#utility.yul\":5797:5829   */\n      tag_77\n      jump\t// in\n    tag_138:\n        /* \"#utility.yul\":5694:5835   */\n      swap3\n      swap2\n      pop\n      pop\n      jump\t// out\n        /* \"#utility.yul\":5841:5963   */\n    tag_79:\n        /* \"#utility.yul\":5914:5938   */\n      tag_140\n        /* \"#utility.yul\":5932:5937   */\n      dup2\n        /* \"#utility.yul\":5914:5938   */\n      tag_63\n      jump\t// in\n    tag_140:\n        /* \"#utility.yul\":5907:5912   */\n      dup2\n        /* \"#utility.yul\":5904:5939   */\n      eq\n        /* \"#utility.yul\":5894:5957   */\n      tag_141\n      jumpi\n        /* \"#utility.yul\":5953:5954   */\n      0x00\n        /* \"#utility.yul\":5950:5951   */\n      dup1\n        /* \"#utility.yul\":5943:5955   */\n      revert\n        /* \"#utility.yul\":5894:5957   */\n    tag_141:\n        /* \"#utility.yul\":5841:5963   */\n      pop\n      jump\t// out\n        /* \"#utility.yul\":5969:6112   */\n    tag_80:\n        /* \"#utility.yul\":6026:6031   */\n      0x00\n        /* \"#utility.yul\":6057:6063   */\n      dup2\n        /* \"#utility.yul\":6051:6064   */\n      mload\n        /* \"#utility.yul\":6042:6064   */\n      swap1\n      pop\n        /* \"#utility.yul\":6073:6106   */\n      tag_143\n        /* \"#utility.yul\":6100:6105   */\n      dup2\n        /* \"#utility.yul\":6073:6106   */\n      tag_79\n      jump\t// in\n    tag_143:\n        /* \"#utility.yul\":5969:6112   */\n      swap3\n      swap2\n      pop\n      pop\n      jump\t// out\n        /* \"#utility.yul\":6118:7089   */\n    tag_46:\n        /* \"#utility.yul\":6221:6227   */\n      0x00\n        /* \"#utility.yul\":6229:6235   */\n      dup1\n        /* \"#utility.yul\":6237:6243   */\n      0x00\n        /* \"#utility.yul\":6245:6251   */\n      dup1\n        /* \"#utility.yul\":6253:6259   */\n      0x00\n        /* \"#utility.yul\":6302:6305   */\n      0xa0\n        /* \"#utility.yul\":6290:6299   */\n      dup7\n        /* \"#utility.yul\":6281:6288   */\n      dup9\n        /* \"#utility.yul\":6277:6300   */\n      sub\n        /* \"#utility.yul\":6273:6306   */\n      slt\n        /* \"#utility.yul\":6270:6390   */\n      iszero\n      tag_145\n      jumpi\n        /* \"#utility.yul\":6309:6388   */\n      tag_146\n      tag_57\n      jump\t// in\n    tag_146:\n        /* \"#utility.yul\":6270:6390   */\n    tag_145:\n        /* \"#utility.yul\":6429:6430   */\n      0x00\n        /* \"#utility.yul\":6454:6517   */\n      tag_147\n        /* \"#utility.yul\":6509:6516   */\n      dup9\n        /* \"#utility.yul\":6500:6506   */\n      dup3\n        /* \"#utility.yul\":6489:6498   */\n      dup10\n        /* \"#utility.yul\":6485:6507   */\n      add\n        /* \"#utility.yul\":6454:6517   */\n      tag_76\n      jump\t// in\n    tag_147:\n        /* \"#utility.yul\":6444:6517   */\n      swap6\n      pop\n        /* \"#utility.yul\":6400:6527   */\n      pop\n        /* \"#utility.yul\":6566:6568   */\n      0x20\n        /* \"#utility.yul\":6592:6655   */\n      tag_148\n        /* \"#utility.yul\":6647:6654   */\n      dup9\n        /* \"#utility.yul\":6638:6644   */\n      dup3\n        /* \"#utility.yul\":6627:6636   */\n      dup10\n        /* \"#utility.yul\":6623:6645   */\n      add\n        /* \"#utility.yul\":6592:6655   */\n      tag_78\n      jump\t// in\n    tag_148:\n        /* \"#utility.yul\":6582:6655   */\n      swap5\n      pop\n        /* \"#utility.yul\":6537:6665   */\n      pop\n        /* \"#utility.yul\":6704:6706   */\n      0x40\n        /* \"#utility.yul\":6730:6794   */\n      tag_149\n        /* \"#utility.yul\":6786:6793   */\n      dup9\n        /* \"#utility.yul\":6777:6783   */\n      dup3\n        /* \"#utility.yul\":6766:6775   */\n      dup10\n        /* \"#utility.yul\":6762:6784   */\n      add\n        /* \"#utility.yul\":6730:6794   */\n      tag_80\n      jump\t// in\n    tag_149:\n        /* \"#utility.yul\":6720:6794   */\n      swap4\n      pop\n        /* \"#utility.yul\":6675:6804   */\n      pop\n        /* \"#utility.yul\":6843:6845   */\n      0x60\n        /* \"#utility.yul\":6869:6933   */\n      tag_150\n        /* \"#utility.yul\":6925:6932   */\n      dup9\n        /* \"#utility.yul\":6916:6922   */\n      dup3\n        /* \"#utility.yul\":6905:6914   */\n      dup10\n        /* \"#utility.yul\":6901:6923   */\n      add\n        /* \"#utility.yul\":6869:6933   */\n      tag_80\n      jump\t// in\n    tag_150:\n        /* \"#utility.yul\":6859:6933   */\n      swap3\n      pop\n        /* \"#utility.yul\":6814:6943   */\n      pop\n        /* \"#utility.yul\":6982:6985   */\n      0x80\n        /* \"#utility.yul\":7009:7072   */\n      tag_151\n        /* \"#utility.yul\":7064:7071   */\n      dup9\n        /* \"#utility.yul\":7055:7061   */\n      dup3\n        /* \"#utility.yul\":7044:7053   */\n      dup10\n        /* \"#utility.yul\":7040:7062   */\n      add\n        /* \"#utility.yul\":7009:7072   */\n      tag_76\n      jump\t// in\n    tag_151:\n        /* \"#utility.yul\":6999:7072   */\n      swap2\n      pop\n        /* \"#utility.yul\":6953:7082   */\n      pop\n        /* \"#utility.yul\":6118:7089   */\n      swap3\n      swap6\n      pop\n      swap3\n      swap6\n      swap1\n      swap4\n      pop\n      jump\t// out\n        /* \"#utility.yul\":7095:7275   */\n    tag_81:\n        /* \"#utility.yul\":7143:7220   */\n      0x4e487b7100000000000000000000000000000000000000000000000000000000\n        /* \"#utility.yul\":7140:7141   */\n      0x00\n        /* \"#utility.yul\":7133:7221   */\n      mstore\n        /* \"#utility.yul\":7240:7244   */\n      0x11\n        /* \"#utility.yul\":7237:7238   */\n      0x04\n        /* \"#utility.yul\":7230:7245   */\n      mstore\n        /* \"#utility.yul\":7264:7268   */\n      0x24\n        /* \"#utility.yul\":7261:7262   */\n      0x00\n        /* \"#utility.yul\":7254:7269   */\n      revert\n        /* \"#utility.yul\":7281:7691   */\n    tag_53:\n        /* \"#utility.yul\":7321:7328   */\n      0x00\n        /* \"#utility.yul\":7344:7364   */\n      tag_154\n        /* \"#utility.yul\":7362:7363   */\n      dup3\n        /* \"#utility.yul\":7344:7364   */\n      tag_63\n      jump\t// in\n    tag_154:\n        /* \"#utility.yul\":7339:7364   */\n      swap2\n      pop\n        /* \"#utility.yul\":7378:7398   */\n      tag_155\n        /* \"#utility.yul\":7396:7397   */\n      dup4\n        /* \"#utility.yul\":7378:7398   */\n      tag_63\n      jump\t// in\n    tag_155:\n        /* \"#utility.yul\":7373:7398   */\n      swap3\n      pop\n        /* \"#utility.yul\":7433:7434   */\n      dup3\n        /* \"#utility.yul\":7430:7431   */\n      dup3\n        /* \"#utility.yul\":7426:7435   */\n      mul\n        /* \"#utility.yul\":7455:7485   */\n      tag_156\n        /* \"#utility.yul\":7473:7484   */\n      dup2\n        /* \"#utility.yul\":7455:7485   */\n      tag_63\n      jump\t// in\n    tag_156:\n        /* \"#utility.yul\":7444:7485   */\n      swap2\n      pop\n        /* \"#utility.yul\":7634:7635   */\n      dup3\n        /* \"#utility.yul\":7625:7632   */\n      dup3\n        /* \"#utility.yul\":7621:7636   */\n      div\n        /* \"#utility.yul\":7618:7619   */\n      dup5\n        /* \"#utility.yul\":7615:7637   */\n      eq\n        /* \"#utility.yul\":7595:7596   */\n      dup4\n        /* \"#utility.yul\":7588:7597   */\n      iszero\n        /* \"#utility.yul\":7568:7651   */\n      or\n        /* \"#utility.yul\":7545:7684   */\n      tag_157\n      jumpi\n        /* \"#utility.yul\":7664:7682   */\n      tag_158\n      tag_81\n      jump\t// in\n    tag_158:\n        /* \"#utility.yul\":7545:7684   */\n    tag_157:\n        /* \"#utility.yul\":7329:7691   */\n      pop\n        /* \"#utility.yul\":7281:7691   */\n      swap3\n      swap2\n      pop\n      pop\n      jump\t// out\n        /* \"#utility.yul\":7697:7877   */\n    tag_82:\n        /* \"#utility.yul\":7745:7822   */\n      0x4e487b7100000000000000000000000000000000000000000000000000000000\n        /* \"#utility.yul\":7742:7743   */\n      0x00\n        /* \"#utility.yul\":7735:7823   */\n      mstore\n        /* \"#utility.yul\":7842:7846   */\n      0x12\n        /* \"#utility.yul\":7839:7840   */\n      0x04\n        /* \"#utility.yul\":7832:7847   */\n      mstore\n        /* \"#utility.yul\":7866:7870   */\n      0x24\n        /* \"#utility.yul\":7863:7864   */\n      0x00\n        /* \"#utility.yul\":7856:7871   */\n      revert\n        /* \"#utility.yul\":7883:8068   */\n    tag_55:\n        /* \"#utility.yul\":7923:7924   */\n      0x00\n        /* \"#utility.yul\":7940:7960   */\n      tag_161\n        /* \"#utility.yul\":7958:7959   */\n      dup3\n        /* \"#utility.yul\":7940:7960   */\n      tag_63\n      jump\t// in\n    tag_161:\n        /* \"#utility.yul\":7935:7960   */\n      swap2\n      pop\n        /* \"#utility.yul\":7974:7994   */\n      tag_162\n        /* \"#utility.yul\":7992:7993   */\n      dup4\n        /* \"#utility.yul\":7974:7994   */\n      tag_63\n      jump\t// in\n    tag_162:\n        /* \"#utility.yul\":7969:7994   */\n      swap3\n      pop\n        /* \"#utility.yul\":8013:8014   */\n      dup3\n        /* \"#utility.yul\":8003:8038   */\n      tag_163\n      jumpi\n        /* \"#utility.yul\":8018:8036   */\n      tag_164\n      tag_82\n      jump\t// in\n    tag_164:\n        /* \"#utility.yul\":8003:8038   */\n    tag_163:\n        /* \"#utility.yul\":8060:8061   */\n      dup3\n        /* \"#utility.yul\":8057:8058   */\n      dup3\n        /* \"#utility.yul\":8053:8062   */\n      div\n        /* \"#utility.yul\":8048:8062   */\n      swap1\n      pop\n        /* \"#utility.yul\":7883:8068   */\n      swap3\n      swap2\n      pop\n      pop\n      jump\t// out\n\n    auxdata: 0xa2646970667358221220d5febd0cde5fc55a0b57702e7e2caf8f30196a2ebb40da401b62c0c7ed5eda5d64736f6c634300081a0033\n}\n",
				"bytecode": {
					"linkReferences": {},
					"object": "6080604052348015600e575f80fd5b5073694aa1769357215de4fac081bf1f309adc32530660015f6101000a81548173ffffffffffffffffffffffffffffffffffffffff021916908373ffffffffffffffffffffffffffffffffffffffff1602179055503360025f6101000a81548173ffffffffffffffffffffffffffffffffffffffff021916908373ffffffffffffffffffffffffffffffffffffffff16021790555061088d806100b05f395ff3fe608060405260043610610049575f3560e01c80634407e1e81461004d5780638edd6eb614610089578063b60d42881461009f578063bea4dfb5146100a9578063f2fde38b146100d3575b5f80fd5b348015610058575f80fd5b50610073600480360381019061006e9190610487565b6100fb565b60405161008091906104ca565b60405180910390f35b348015610094575f80fd5b5061009d61010f565b005b6100a76101f4565b005b3480156100b4575f80fd5b506100bd61028b565b6040516100ca91906104fb565b60405180910390f35b3480156100de575f80fd5b506100f960048036038101906100f49190610487565b610328565b005b5f602052805f5260405f205f915090505481565b683635c9adc5dea00000610122476103fa565b1015610163576040517f08c379a000000000000000000000000000000000000000000000000000000000815260040161015a9061056e565b60405180910390fd5b60025f9054906101000a900473ffffffffffffffffffffffffffffffffffffffff1673ffffffffffffffffffffffffffffffffffffffff163373ffffffffffffffffffffffffffffffffffffffff16146101f2576040517f08c379a00000000000000000000000000000000000000000000000000000000081526004016101e9906105fc565b60405180910390fd5b565b68056bc75e2d63100000610207346103fa565b1015610248576040517f08c379a000000000000000000000000000000000000000000000000000000000815260040161023f90610664565b60405180910390fd5b345f803373ffffffffffffffffffffffffffffffffffffffff1673ffffffffffffffffffffffffffffffffffffffff1681526020019081526020015f2081905550565b5f8060015f9054906101000a900473ffffffffffffffffffffffffffffffffffffffff1673ffffffffffffffffffffffffffffffffffffffff1663feaf968c6040518163ffffffff1660e01b815260040160a060405180830381865afa1580156102f7573d5f803e3d5ffd5b505050506040513d601f19601f8201168201806040525081019061031b9190610715565b5050509150508091505090565b60025f9054906101000a900473ffffffffffffffffffffffffffffffffffffffff1673ffffffffffffffffffffffffffffffffffffffff163373ffffffffffffffffffffffffffffffffffffffff16146103b7576040517f08c379a00000000000000000000000000000000000000000000000000000000081526004016103ae906105fc565b60405180910390fd5b8060025f6101000a81548173ffffffffffffffffffffffffffffffffffffffff021916908373ffffffffffffffffffffffffffffffffffffffff16021790555050565b5f8061040461028b565b90506305f5e100818461041791906107b9565b6104219190610827565b915050919050565b5f80fd5b5f73ffffffffffffffffffffffffffffffffffffffff82169050919050565b5f6104568261042d565b9050919050565b6104668161044c565b8114610470575f80fd5b50565b5f813590506104818161045d565b92915050565b5f6020828403121561049c5761049b610429565b5b5f6104a984828501610473565b91505092915050565b5f819050919050565b6104c4816104b2565b82525050565b5f6020820190506104dd5f8301846104bb565b92915050565b5f819050919050565b6104f5816104e3565b82525050565b5f60208201905061050e5f8301846104ec565b92915050565b5f82825260208201905092915050565b7f546172676574206973206e6f74207265616368656400000000000000000000005f82015250565b5f610558601583610514565b915061056382610524565b602082019050919050565b5f6020820190508181035f8301526105858161054c565b9050919050565b7f746869732066756e6374696f6e2063616e206f6e6c792062652063616c6c65645f8201527f206279206f776e65720000000000000000000000000000000000000000000000602082015250565b5f6105e6602983610514565b91506105f18261058c565b604082019050919050565b5f6020820190508181035f830152610613816105da565b9050919050565b7f53656e64206d6f726520455448000000000000000000000000000000000000005f82015250565b5f61064e600d83610514565b91506106598261061a565b602082019050919050565b5f6020820190508181035f83015261067b81610642565b9050919050565b5f69ffffffffffffffffffff82169050919050565b6106a081610682565b81146106aa575f80fd5b50565b5f815190506106bb81610697565b92915050565b6106ca816104e3565b81146106d4575f80fd5b50565b5f815190506106e5816106c1565b92915050565b6106f4816104b2565b81146106fe575f80fd5b50565b5f8151905061070f816106eb565b92915050565b5f805f805f60a0868803121561072e5761072d610429565b5b5f61073b888289016106ad565b955050602061074c888289016106d7565b945050604061075d88828901610701565b935050606061076e88828901610701565b925050608061077f888289016106ad565b9150509295509295909350565b7f4e487b71000000000000000000000000000000000000000000000000000000005f52601160045260245ffd5b5f6107c3826104b2565b91506107ce836104b2565b92508282026107dc816104b2565b915082820484148315176107f3576107f261078c565b5b5092915050565b7f4e487b71000000000000000000000000000000000000000000000000000000005f52601260045260245ffd5b5f610831826104b2565b915061083c836104b2565b92508261084c5761084b6107fa565b5b82820490509291505056fea2646970667358221220d5febd0cde5fc55a0b57702e7e2caf8f30196a2ebb40da401b62c0c7ed5eda5d64736f6c634300081a0033",
					"opcodes": "PUSH1 0x80 PUSH1 0x40 MSTORE CALLVALUE DUP1 ISZERO PUSH1 0xE JUMPI PUSH0 DUP1 REVERT JUMPDEST POP PUSH20 0x694AA1769357215DE4FAC081BF1F309ADC325306 PUSH1 0x1 PUSH0 PUSH2 0x100 EXP DUP2 SLOAD DUP2 PUSH20 0xFFFFFFFFFFFFFFFFFFFFFFFFFFFFFFFFFFFFFFFF MUL NOT AND SWAP1 DUP4 PUSH20 0xFFFFFFFFFFFFFFFFFFFFFFFFFFFFFFFFFFFFFFFF AND MUL OR SWAP1 SSTORE POP CALLER PUSH1 0x2 PUSH0 PUSH2 0x100 EXP DUP2 SLOAD DUP2 PUSH20 0xFFFFFFFFFFFFFFFFFFFFFFFFFFFFFFFFFFFFFFFF MUL NOT AND SWAP1 DUP4 PUSH20 0xFFFFFFFFFFFFFFFFFFFFFFFFFFFFFFFFFFFFFFFF AND MUL OR SWAP1 SSTORE POP PUSH2 0x88D DUP1 PUSH2 0xB0 PUSH0 CODECOPY PUSH0 RETURN INVALID PUSH1 0x80 PUSH1 0x40 MSTORE PUSH1 0x4 CALLDATASIZE LT PUSH2 0x49 JUMPI PUSH0 CALLDATALOAD PUSH1 0xE0 SHR DUP1 PUSH4 0x4407E1E8 EQ PUSH2 0x4D JUMPI DUP1 PUSH4 0x8EDD6EB6 EQ PUSH2 0x89 JUMPI DUP1 PUSH4 0xB60D4288 EQ PUSH2 0x9F JUMPI DUP1 PUSH4 0xBEA4DFB5 EQ PUSH2 0xA9 JUMPI DUP1 PUSH4 0xF2FDE38B EQ PUSH2 0xD3 JUMPI JUMPDEST PUSH0 DUP1 REVERT JUMPDEST CALLVALUE DUP1 ISZERO PUSH2 0x58 JUMPI PUSH0 DUP1 REVERT JUMPDEST POP PUSH2 0x73 PUSH1 0x4 DUP1 CALLDATASIZE SUB DUP2 ADD SWAP1 PUSH2 0x6E SWAP2 SWAP1 PUSH2 0x487 JUMP JUMPDEST PUSH2 0xFB JUMP JUMPDEST PUSH1 0x40 MLOAD PUSH2 0x80 SWAP2 SWAP1 PUSH2 0x4CA JUMP JUMPDEST PUSH1 0x40 MLOAD DUP1 SWAP2 SUB SWAP1 RETURN JUMPDEST CALLVALUE DUP1 ISZERO PUSH2 0x94 JUMPI PUSH0 DUP1 REVERT JUMPDEST POP PUSH2 0x9D PUSH2 0x10F JUMP JUMPDEST STOP JUMPDEST PUSH2 0xA7 PUSH2 0x1F4 JUMP JUMPDEST STOP JUMPDEST CALLVALUE DUP1 ISZERO PUSH2 0xB4 JUMPI PUSH0 DUP1 REVERT JUMPDEST POP PUSH2 0xBD PUSH2 0x28B JUMP JUMPDEST PUSH1 0x40 MLOAD PUSH2 0xCA SWAP2 SWAP1 PUSH2 0x4FB JUMP JUMPDEST PUSH1 0x40 MLOAD DUP1 SWAP2 SUB SWAP1 RETURN JUMPDEST CALLVALUE DUP1 ISZERO PUSH2 0xDE JUMPI PUSH0 DUP1 REVERT JUMPDEST POP PUSH2 0xF9 PUSH1 0x4 DUP1 CALLDATASIZE SUB DUP2 ADD SWAP1 PUSH2 0xF4 SWAP2 SWAP1 PUSH2 0x487 JUMP JUMPDEST PUSH2 0x328 JUMP JUMPDEST STOP JUMPDEST PUSH0 PUSH1 0x20 MSTORE DUP1 PUSH0 MSTORE PUSH1 0x40 PUSH0 KECCAK256 PUSH0 SWAP2 POP SWAP1 POP SLOAD DUP2 JUMP JUMPDEST PUSH9 0x3635C9ADC5DEA00000 PUSH2 0x122 SELFBALANCE PUSH2 0x3FA JUMP JUMPDEST LT ISZERO PUSH2 0x163 JUMPI PUSH1 0x40 MLOAD PUSH32 0x8C379A000000000000000000000000000000000000000000000000000000000 DUP2 MSTORE PUSH1 0x4 ADD PUSH2 0x15A SWAP1 PUSH2 0x56E JUMP JUMPDEST PUSH1 0x40 MLOAD DUP1 SWAP2 SUB SWAP1 REVERT JUMPDEST PUSH1 0x2 PUSH0 SWAP1 SLOAD SWAP1 PUSH2 0x100 EXP SWAP1 DIV PUSH20 0xFFFFFFFFFFFFFFFFFFFFFFFFFFFFFFFFFFFFFFFF AND PUSH20 0xFFFFFFFFFFFFFFFFFFFFFFFFFFFFFFFFFFFFFFFF AND CALLER PUSH20 0xFFFFFFFFFFFFFFFFFFFFFFFFFFFFFFFFFFFFFFFF AND EQ PUSH2 0x1F2 JUMPI PUSH1 0x40 MLOAD PUSH32 0x8C379A000000000000000000000000000000000000000000000000000000000 DUP2 MSTORE PUSH1 0x4 ADD PUSH2 0x1E9 SWAP1 PUSH2 0x5FC JUMP JUMPDEST PUSH1 0x40 MLOAD DUP1 SWAP2 SUB SWAP1 REVERT JUMPDEST JUMP JUMPDEST PUSH9 0x56BC75E2D63100000 PUSH2 0x207 CALLVALUE PUSH2 0x3FA JUMP JUMPDEST LT ISZERO PUSH2 0x248 JUMPI PUSH1 0x40 MLOAD PUSH32 0x8C379A000000000000000000000000000000000000000000000000000000000 DUP2 MSTORE PUSH1 0x4 ADD PUSH2 0x23F SWAP1 PUSH2 0x664 JUMP JUMPDEST PUSH1 0x40 MLOAD DUP1 SWAP2 SUB SWAP1 REVERT JUMPDEST CALLVALUE PUSH0 DUP1 CALLER PUSH20 0xFFFFFFFFFFFFFFFFFFFFFFFFFFFFFFFFFFFFFFFF AND PUSH20 0xFFFFFFFFFFFFFFFFFFFFFFFFFFFFFFFFFFFFFFFF AND DUP2 MSTORE PUSH1 0x20 ADD SWAP1 DUP2 MSTORE PUSH1 0x20 ADD PUSH0 KECCAK256 DUP2 SWAP1 SSTORE POP JUMP JUMPDEST PUSH0 DUP1 PUSH1 0x1 PUSH0 SWAP1 SLOAD SWAP1 PUSH2 0x100 EXP SWAP1 DIV PUSH20 0xFFFFFFFFFFFFFFFFFFFFFFFFFFFFFFFFFFFFFFFF AND PUSH20 0xFFFFFFFFFFFFFFFFFFFFFFFFFFFFFFFFFFFFFFFF AND PUSH4 0xFEAF968C PUSH1 0x40 MLOAD DUP2 PUSH4 0xFFFFFFFF AND PUSH1 0xE0 SHL DUP2 MSTORE PUSH1 0x4 ADD PUSH1 0xA0 PUSH1 0x40 MLOAD DUP1 DUP4 SUB DUP2 DUP7 GAS STATICCALL ISZERO DUP1 ISZERO PUSH2 0x2F7 JUMPI RETURNDATASIZE PUSH0 DUP1 RETURNDATACOPY RETURNDATASIZE PUSH0 REVERT JUMPDEST POP POP POP POP PUSH1 0x40 MLOAD RETURNDATASIZE PUSH1 0x1F NOT PUSH1 0x1F DUP3 ADD AND DUP3 ADD DUP1 PUSH1 0x40 MSTORE POP DUP2 ADD SWAP1 PUSH2 0x31B SWAP2 SWAP1 PUSH2 0x715 JUMP JUMPDEST POP POP POP SWAP2 POP POP DUP1 SWAP2 POP POP SWAP1 JUMP JUMPDEST PUSH1 0x2 PUSH0 SWAP1 SLOAD SWAP1 PUSH2 0x100 EXP SWAP1 DIV PUSH20 0xFFFFFFFFFFFFFFFFFFFFFFFFFFFFFFFFFFFFFFFF AND PUSH20 0xFFFFFFFFFFFFFFFFFFFFFFFFFFFFFFFFFFFFFFFF AND CALLER PUSH20 0xFFFFFFFFFFFFFFFFFFFFFFFFFFFFFFFFFFFFFFFF AND EQ PUSH2 0x3B7 JUMPI PUSH1 0x40 MLOAD PUSH32 0x8C379A000000000000000000000000000000000000000000000000000000000 DUP2 MSTORE PUSH1 0x4 ADD PUSH2 0x3AE SWAP1 PUSH2 0x5FC JUMP JUMPDEST PUSH1 0x40 MLOAD DUP1 SWAP2 SUB SWAP1 REVERT JUMPDEST DUP1 PUSH1 0x2 PUSH0 PUSH2 0x100 EXP DUP2 SLOAD DUP2 PUSH20 0xFFFFFFFFFFFFFFFFFFFFFFFFFFFFFFFFFFFFFFFF MUL NOT AND SWAP1 DUP4 PUSH20 0xFFFFFFFFFFFFFFFFFFFFFFFFFFFFFFFFFFFFFFFF AND MUL OR SWAP1 SSTORE POP POP JUMP JUMPDEST PUSH0 DUP1 PUSH2 0x404 PUSH2 0x28B JUMP JUMPDEST SWAP1 POP PUSH4 0x5F5E100 DUP2 DUP5 PUSH2 0x417 SWAP2 SWAP1 PUSH2 0x7B9 JUMP JUMPDEST PUSH2 0x421 SWAP2 SWAP1 PUSH2 0x827 JUMP JUMPDEST SWAP2 POP POP SWAP2 SWAP1 POP JUMP JUMPDEST PUSH0 DUP1 REVERT JUMPDEST PUSH0 PUSH20 0xFFFFFFFFFFFFFFFFFFFFFFFFFFFFFFFFFFFFFFFF DUP3 AND SWAP1 POP SWAP2 SWAP1 POP JUMP JUMPDEST PUSH0 PUSH2 0x456 DUP3 PUSH2 0x42D JUMP JUMPDEST SWAP1 POP SWAP2 SWAP1 POP JUMP JUMPDEST PUSH2 0x466 DUP2 PUSH2 0x44C JUMP JUMPDEST DUP2 EQ PUSH2 0x470 JUMPI PUSH0 DUP1 REVERT JUMPDEST POP JUMP JUMPDEST PUSH0 DUP2 CALLDATALOAD SWAP1 POP PUSH2 0x481 DUP2 PUSH2 0x45D JUMP JUMPDEST SWAP3 SWAP2 POP POP JUMP JUMPDEST PUSH0 PUSH1 0x20 DUP3 DUP5 SUB SLT ISZERO PUSH2 0x49C JUMPI PUSH2 0x49B PUSH2 0x429 JUMP JUMPDEST JUMPDEST PUSH0 PUSH2 0x4A9 DUP5 DUP3 DUP6 ADD PUSH2 0x473 JUMP JUMPDEST SWAP2 POP POP SWAP3 SWAP2 POP POP JUMP JUMPDEST PUSH0 DUP2 SWAP1 POP SWAP2 SWAP1 POP JUMP JUMPDEST PUSH2 0x4C4 DUP2 PUSH2 0x4B2 JUMP JUMPDEST DUP3 MSTORE POP POP JUMP JUMPDEST PUSH0 PUSH1 0x20 DUP3 ADD SWAP1 POP PUSH2 0x4DD PUSH0 DUP4 ADD DUP5 PUSH2 0x4BB JUMP JUMPDEST SWAP3 SWAP2 POP POP JUMP JUMPDEST PUSH0 DUP2 SWAP1 POP SWAP2 SWAP1 POP JUMP JUMPDEST PUSH2 0x4F5 DUP2 PUSH2 0x4E3 JUMP JUMPDEST DUP3 MSTORE POP POP JUMP JUMPDEST PUSH0 PUSH1 0x20 DUP3 ADD SWAP1 POP PUSH2 0x50E PUSH0 DUP4 ADD DUP5 PUSH2 0x4EC JUMP JUMPDEST SWAP3 SWAP2 POP POP JUMP JUMPDEST PUSH0 DUP3 DUP3 MSTORE PUSH1 0x20 DUP3 ADD SWAP1 POP SWAP3 SWAP2 POP POP JUMP JUMPDEST PUSH32 0x546172676574206973206E6F7420726561636865640000000000000000000000 PUSH0 DUP3 ADD MSTORE POP JUMP JUMPDEST PUSH0 PUSH2 0x558 PUSH1 0x15 DUP4 PUSH2 0x514 JUMP JUMPDEST SWAP2 POP PUSH2 0x563 DUP3 PUSH2 0x524 JUMP JUMPDEST PUSH1 0x20 DUP3 ADD SWAP1 POP SWAP2 SWAP1 POP JUMP JUMPDEST PUSH0 PUSH1 0x20 DUP3 ADD SWAP1 POP DUP2 DUP2 SUB PUSH0 DUP4 ADD MSTORE PUSH2 0x585 DUP2 PUSH2 0x54C JUMP JUMPDEST SWAP1 POP SWAP2 SWAP1 POP JUMP JUMPDEST PUSH32 0x746869732066756E6374696F6E2063616E206F6E6C792062652063616C6C6564 PUSH0 DUP3 ADD MSTORE PUSH32 0x206279206F776E65720000000000000000000000000000000000000000000000 PUSH1 0x20 DUP3 ADD MSTORE POP JUMP JUMPDEST PUSH0 PUSH2 0x5E6 PUSH1 0x29 DUP4 PUSH2 0x514 JUMP JUMPDEST SWAP2 POP PUSH2 0x5F1 DUP3 PUSH2 0x58C JUMP JUMPDEST PUSH1 0x40 DUP3 ADD SWAP1 POP SWAP2 SWAP1 POP JUMP JUMPDEST PUSH0 PUSH1 0x20 DUP3 ADD SWAP1 POP DUP2 DUP2 SUB PUSH0 DUP4 ADD MSTORE PUSH2 0x613 DUP2 PUSH2 0x5DA JUMP JUMPDEST SWAP1 POP SWAP2 SWAP1 POP JUMP JUMPDEST PUSH32 0x53656E64206D6F72652045544800000000000000000000000000000000000000 PUSH0 DUP3 ADD MSTORE POP JUMP JUMPDEST PUSH0 PUSH2 0x64E PUSH1 0xD DUP4 PUSH2 0x514 JUMP JUMPDEST SWAP2 POP PUSH2 0x659 DUP3 PUSH2 0x61A JUMP JUMPDEST PUSH1 0x20 DUP3 ADD SWAP1 POP SWAP2 SWAP1 POP JUMP JUMPDEST PUSH0 PUSH1 0x20 DUP3 ADD SWAP1 POP DUP2 DUP2 SUB PUSH0 DUP4 ADD MSTORE PUSH2 0x67B DUP2 PUSH2 0x642 JUMP JUMPDEST SWAP1 POP SWAP2 SWAP1 POP JUMP JUMPDEST PUSH0 PUSH10 0xFFFFFFFFFFFFFFFFFFFF DUP3 AND SWAP1 POP SWAP2 SWAP1 POP JUMP JUMPDEST PUSH2 0x6A0 DUP2 PUSH2 0x682 JUMP JUMPDEST DUP2 EQ PUSH2 0x6AA JUMPI PUSH0 DUP1 REVERT JUMPDEST POP JUMP JUMPDEST PUSH0 DUP2 MLOAD SWAP1 POP PUSH2 0x6BB DUP2 PUSH2 0x697 JUMP JUMPDEST SWAP3 SWAP2 POP POP JUMP JUMPDEST PUSH2 0x6CA DUP2 PUSH2 0x4E3 JUMP JUMPDEST DUP2 EQ PUSH2 0x6D4 JUMPI PUSH0 DUP1 REVERT JUMPDEST POP JUMP JUMPDEST PUSH0 DUP2 MLOAD SWAP1 POP PUSH2 0x6E5 DUP2 PUSH2 0x6C1 JUMP JUMPDEST SWAP3 SWAP2 POP POP JUMP JUMPDEST PUSH2 0x6F4 DUP2 PUSH2 0x4B2 JUMP JUMPDEST DUP2 EQ PUSH2 0x6FE JUMPI PUSH0 DUP1 REVERT JUMPDEST POP JUMP JUMPDEST PUSH0 DUP2 MLOAD SWAP1 POP PUSH2 0x70F DUP2 PUSH2 0x6EB JUMP JUMPDEST SWAP3 SWAP2 POP POP JUMP JUMPDEST PUSH0 DUP1 PUSH0 DUP1 PUSH0 PUSH1 0xA0 DUP7 DUP9 SUB SLT ISZERO PUSH2 0x72E JUMPI PUSH2 0x72D PUSH2 0x429 JUMP JUMPDEST JUMPDEST PUSH0 PUSH2 0x73B DUP9 DUP3 DUP10 ADD PUSH2 0x6AD JUMP JUMPDEST SWAP6 POP POP PUSH1 0x20 PUSH2 0x74C DUP9 DUP3 DUP10 ADD PUSH2 0x6D7 JUMP JUMPDEST SWAP5 POP POP PUSH1 0x40 PUSH2 0x75D DUP9 DUP3 DUP10 ADD PUSH2 0x701 JUMP JUMPDEST SWAP4 POP POP PUSH1 0x60 PUSH2 0x76E DUP9 DUP3 DUP10 ADD PUSH2 0x701 JUMP JUMPDEST SWAP3 POP POP PUSH1 0x80 PUSH2 0x77F DUP9 DUP3 DUP10 ADD PUSH2 0x6AD JUMP JUMPDEST SWAP2 POP POP SWAP3 SWAP6 POP SWAP3 SWAP6 SWAP1 SWAP4 POP JUMP JUMPDEST PUSH32 0x4E487B7100000000000000000000000000000000000000000000000000000000 PUSH0 MSTORE PUSH1 0x11 PUSH1 0x4 MSTORE PUSH1 0x24 PUSH0 REVERT JUMPDEST PUSH0 PUSH2 0x7C3 DUP3 PUSH2 0x4B2 JUMP JUMPDEST SWAP2 POP PUSH2 0x7CE DUP4 PUSH2 0x4B2 JUMP JUMPDEST SWAP3 POP DUP3 DUP3 MUL PUSH2 0x7DC DUP2 PUSH2 0x4B2 JUMP JUMPDEST SWAP2 POP DUP3 DUP3 DIV DUP5 EQ DUP4 ISZERO OR PUSH2 0x7F3 JUMPI PUSH2 0x7F2 PUSH2 0x78C JUMP JUMPDEST JUMPDEST POP SWAP3 SWAP2 POP POP JUMP JUMPDEST PUSH32 0x4E487B7100000000000000000000000000000000000000000000000000000000 PUSH0 MSTORE PUSH1 0x12 PUSH1 0x4 MSTORE PUSH1 0x24 PUSH0 REVERT JUMPDEST PUSH0 PUSH2 0x831 DUP3 PUSH2 0x4B2 JUMP JUMPDEST SWAP2 POP PUSH2 0x83C DUP4 PUSH2 0x4B2 JUMP JUMPDEST SWAP3 POP DUP3 PUSH2 0x84C JUMPI PUSH2 0x84B PUSH2 0x7FA JUMP JUMPDEST JUMPDEST DUP3 DUP3 DIV SWAP1 POP SWAP3 SWAP2 POP POP JUMP INVALID LOG2 PUSH5 0x6970667358 0x22 SLT KECCAK256 0xD5 INVALID 0xBD 0xC 0xDE PUSH0 0xC5 GAS SIGNEXTEND JUMPI PUSH17 0x2E7E2CAF8F30196A2EBB40DA401B62C0C7 0xED MCOPY 0xDA TSTORE PUSH5 0x736F6C6343 STOP ADDMOD BYTE STOP CALLER "
				},
				"gasEstimates": {
					"creation": {
						"codeDepositCost": "437800",
						"executionCost": "49003",
						"totalCost": "486803"
					},
					"external": {
						"fund()": "infinite",
						"funderToAmount(address)": "2779",
						"getChainlinkDataFeedLatestAnswer()": "infinite",
						"getFund()": "infinite",
						"transferOwnership(address)": "26950"
					},
					"internal": {
						"convertEthToUSD(uint256)": "infinite"
					}
				},
				"methodIdentifiers": {
					"fund()": "b60d4288",
					"funderToAmount(address)": "4407e1e8",
					"getChainlinkDataFeedLatestAnswer()": "bea4dfb5",
					"getFund()": "8edd6eb6",
					"transferOwnership(address)": "f2fde38b"
				}
			},
			"storageLayout": {
				"storage": [
					{
						"astId": 53,
						"contract": "lesson - 3/FundMe.sol:FundMe",
						"label": "funderToAmount",
						"offset": 0,
						"slot": "0",
						"type": "t_mapping(t_address,t_uint256)"
					},
					{
						"astId": 63,
						"contract": "lesson - 3/FundMe.sol:FundMe",
						"label": "dataFeed",
						"offset": 0,
						"slot": "1",
						"type": "t_contract(AggregatorV3Interface)45"
					},
					{
						"astId": 72,
						"contract": "lesson - 3/FundMe.sol:FundMe",
						"label": "owner",
						"offset": 0,
						"slot": "2",
						"type": "t_address"
					}
				],
				"types": {
					"t_address": {
						"encoding": "inplace",
						"label": "address",
						"numberOfBytes": "20"
					},
					"t_contract(AggregatorV3Interface)45": {
						"encoding": "inplace",
						"label": "contract AggregatorV3Interface",
						"numberOfBytes": "20"
					},
					"t_mapping(t_address,t_uint256)": {
						"encoding": "mapping",
						"key": "t_address",
						"label": "mapping(address => uint256)",
						"numberOfBytes": "32",
						"value": "t_uint256"
					},
					"t_uint256": {
						"encoding": "inplace",
						"label": "uint256",
						"numberOfBytes": "32"
					}
				}
			},
			"userdoc": {
				"kind": "user",
				"methods": {},
				"version": 1
			}
		}
	}
}