{
	"lesson - 3/FundMe.sol": {
		"FundMe": {
			"abi": [
				{
					"inputs": [
						{
							"internalType": "uint256",
							"name": "_lockTime",
							"type": "uint256"
						}
					],
					"stateMutability": "nonpayable",
					"type": "constructor"
				},
				{
					"inputs": [],
					"name": "fund",
					"outputs": [],
					"stateMutability": "payable",
					"type": "function"
				},
				{
					"inputs": [
						{
							"internalType": "address",
							"name": "",
							"type": "address"
						}
					],
					"name": "fundersToAmount",
					"outputs": [
						{
							"internalType": "uint256",
							"name": "",
							"type": "uint256"
						}
					],
					"stateMutability": "view",
					"type": "function"
				},
				{
					"inputs": [],
					"name": "getChainlinkDataFeedLatestAnswer",
					"outputs": [
						{
							"internalType": "int256",
							"name": "",
							"type": "int256"
						}
					],
					"stateMutability": "view",
					"type": "function"
				},
				{
					"inputs": [],
					"name": "getFund",
					"outputs": [],
					"stateMutability": "nonpayable",
					"type": "function"
				},
				{
					"inputs": [],
					"name": "getFundSuccess",
					"outputs": [
						{
							"internalType": "bool",
							"name": "",
							"type": "bool"
						}
					],
					"stateMutability": "view",
					"type": "function"
				},
				{
					"inputs": [],
					"name": "owner",
					"outputs": [
						{
							"internalType": "address",
							"name": "",
							"type": "address"
						}
					],
					"stateMutability": "view",
					"type": "function"
				},
				{
					"inputs": [],
					"name": "refund",
					"outputs": [],
					"stateMutability": "nonpayable",
					"type": "function"
				},
				{
					"inputs": [
						{
							"internalType": "address",
							"name": "_erc20Addr",
							"type": "address"
						}
					],
					"name": "setErc20Addr",
					"outputs": [],
					"stateMutability": "nonpayable",
					"type": "function"
				},
				{
					"inputs": [
						{
							"internalType": "address",
							"name": "funder",
							"type": "address"
						},
						{
							"internalType": "uint256",
							"name": "amountToUpdate",
							"type": "uint256"
						}
					],
					"name": "setFunderToAmount",
					"outputs": [],
					"stateMutability": "nonpayable",
					"type": "function"
				},
				{
					"inputs": [
						{
							"internalType": "address",
							"name": "newOwner",
							"type": "address"
						}
					],
					"name": "transferOwnership",
					"outputs": [],
					"stateMutability": "nonpayable",
					"type": "function"
				}
			],
			"devdoc": {
				"kind": "dev",
				"methods": {},
				"version": 1
			},
			"evm": {
				"assembly": "    /* \"lesson - 3/FundMe.sol\":457:4328  contract FundMe {... */\n  mstore(0x40, 0x80)\n    /* \"lesson - 3/FundMe.sol\":858:863  false */\n  0x00\n    /* \"lesson - 3/FundMe.sol\":829:863  bool public getFundSuccess = false */\n  0x05\n  exp(0x0100, 0x14)\n  dup2\n  sload\n  dup2\n  0xff\n  mul\n  not\n  and\n  swap1\n  dup4\n  iszero\n  iszero\n  mul\n  or\n  swap1\n  sstore\n  pop\n    /* \"lesson - 3/FundMe.sol\":870:1216  constructor(uint256 _lockTime) {... */\n  callvalue\n  dup1\n  iszero\n  tag_1\n  jumpi\n  0x00\n  dup1\n  revert\ntag_1:\n  pop\n  mload(0x40)\n  sub(codesize, bytecodeSize)\n  dup1\n  bytecodeSize\n  dup4\n  codecopy\n  dup2\n  dup2\n  add\n  0x40\n  mstore\n  dup2\n  add\n  swap1\n  tag_2\n  swap2\n  swap1\n  tag_3\n  jump\t// in\ntag_2:\n    /* \"lesson - 3/FundMe.sol\":1060:1102  0x1AC55d145062C48ddda47f1AB2C5b7B0129842d5 */\n  0x1ac55d145062c48ddda47f1ab2c5b7b0129842d5\n    /* \"lesson - 3/FundMe.sol\":1027:1035  dataFeed */\n  0x01\n  0x00\n    /* \"lesson - 3/FundMe.sol\":1027:1103  dataFeed = AggregatorV3Interface(0x1AC55d145062C48ddda47f1AB2C5b7B0129842d5) */\n  0x0100\n  exp\n  dup2\n  sload\n  dup2\n  0xffffffffffffffffffffffffffffffffffffffff\n  mul\n  not\n  and\n  swap1\n  dup4\n  0xffffffffffffffffffffffffffffffffffffffff\n  and\n  mul\n  or\n  swap1\n  sstore\n  pop\n    /* \"lesson - 3/FundMe.sol\":1121:1131  msg.sender */\n  caller\n    /* \"lesson - 3/FundMe.sol\":1113:1118  owner */\n  0x02\n  0x00\n    /* \"lesson - 3/FundMe.sol\":1113:1131  owner = msg.sender */\n  0x0100\n  exp\n  dup2\n  sload\n  dup2\n  0xffffffffffffffffffffffffffffffffffffffff\n  mul\n  not\n  and\n  swap1\n  dup4\n  0xffffffffffffffffffffffffffffffffffffffff\n  and\n  mul\n  or\n  swap1\n  sstore\n  pop\n    /* \"lesson - 3/FundMe.sol\":1164:1179  block.timestamp */\n  timestamp\n    /* \"lesson - 3/FundMe.sol\":1142:1161  deploymentTimestamp */\n  0x03\n    /* \"lesson - 3/FundMe.sol\":1142:1179  deploymentTimestamp = block.timestamp */\n  dup2\n  swap1\n  sstore\n  pop\n    /* \"lesson - 3/FundMe.sol\":1200:1209  _lockTime */\n  dup1\n    /* \"lesson - 3/FundMe.sol\":1189:1197  lockTime */\n  0x04\n    /* \"lesson - 3/FundMe.sol\":1189:1209  lockTime = _lockTime */\n  dup2\n  swap1\n  sstore\n  pop\n    /* \"lesson - 3/FundMe.sol\":870:1216  constructor(uint256 _lockTime) {... */\n  pop\n    /* \"lesson - 3/FundMe.sol\":457:4328  contract FundMe {... */\n  jump(tag_6)\n    /* \"#utility.yul\":88:205   */\ntag_8:\n    /* \"#utility.yul\":197:198   */\n  0x00\n    /* \"#utility.yul\":194:195   */\n  dup1\n    /* \"#utility.yul\":187:199   */\n  revert\n    /* \"#utility.yul\":334:411   */\ntag_10:\n    /* \"#utility.yul\":371:378   */\n  0x00\n    /* \"#utility.yul\":400:405   */\n  dup2\n    /* \"#utility.yul\":389:405   */\n  swap1\n  pop\n    /* \"#utility.yul\":334:411   */\n  swap2\n  swap1\n  pop\n  jump\t// out\n    /* \"#utility.yul\":417:539   */\ntag_11:\n    /* \"#utility.yul\":490:514   */\n  tag_19\n    /* \"#utility.yul\":508:513   */\n  dup2\n    /* \"#utility.yul\":490:514   */\n  tag_10\n  jump\t// in\ntag_19:\n    /* \"#utility.yul\":483:488   */\n  dup2\n    /* \"#utility.yul\":480:515   */\n  eq\n    /* \"#utility.yul\":470:533   */\n  tag_20\n  jumpi\n    /* \"#utility.yul\":529:530   */\n  0x00\n    /* \"#utility.yul\":526:527   */\n  dup1\n    /* \"#utility.yul\":519:531   */\n  revert\n    /* \"#utility.yul\":470:533   */\ntag_20:\n    /* \"#utility.yul\":417:539   */\n  pop\n  jump\t// out\n    /* \"#utility.yul\":545:688   */\ntag_12:\n    /* \"#utility.yul\":602:607   */\n  0x00\n    /* \"#utility.yul\":633:639   */\n  dup2\n    /* \"#utility.yul\":627:640   */\n  mload\n    /* \"#utility.yul\":618:640   */\n  swap1\n  pop\n    /* \"#utility.yul\":649:682   */\n  tag_22\n    /* \"#utility.yul\":676:681   */\n  dup2\n    /* \"#utility.yul\":649:682   */\n  tag_11\n  jump\t// in\ntag_22:\n    /* \"#utility.yul\":545:688   */\n  swap3\n  swap2\n  pop\n  pop\n  jump\t// out\n    /* \"#utility.yul\":694:1045   */\ntag_3:\n    /* \"#utility.yul\":764:770   */\n  0x00\n    /* \"#utility.yul\":813:815   */\n  0x20\n    /* \"#utility.yul\":801:810   */\n  dup3\n    /* \"#utility.yul\":792:799   */\n  dup5\n    /* \"#utility.yul\":788:811   */\n  sub\n    /* \"#utility.yul\":784:816   */\n  slt\n    /* \"#utility.yul\":781:900   */\n  iszero\n  tag_24\n  jumpi\n    /* \"#utility.yul\":819:898   */\n  tag_25\n  tag_8\n  jump\t// in\ntag_25:\n    /* \"#utility.yul\":781:900   */\ntag_24:\n    /* \"#utility.yul\":939:940   */\n  0x00\n    /* \"#utility.yul\":964:1028   */\n  tag_26\n    /* \"#utility.yul\":1020:1027   */\n  dup5\n    /* \"#utility.yul\":1011:1017   */\n  dup3\n    /* \"#utility.yul\":1000:1009   */\n  dup6\n    /* \"#utility.yul\":996:1018   */\n  add\n    /* \"#utility.yul\":964:1028   */\n  tag_12\n  jump\t// in\ntag_26:\n    /* \"#utility.yul\":954:1028   */\n  swap2\n  pop\n    /* \"#utility.yul\":910:1038   */\n  pop\n    /* \"#utility.yul\":694:1045   */\n  swap3\n  swap2\n  pop\n  pop\n  jump\t// out\n    /* \"lesson - 3/FundMe.sol\":457:4328  contract FundMe {... */\ntag_6:\n  dataSize(sub_0)\n  dup1\n  dataOffset(sub_0)\n  0x00\n  codecopy\n  0x00\n  return\nstop\n\nsub_0: assembly {\n        /* \"lesson - 3/FundMe.sol\":457:4328  contract FundMe {... */\n      mstore(0x40, 0x80)\n      jumpi(tag_1, lt(calldatasize, 0x04))\n      shr(0xe0, calldataload(0x00))\n      dup1\n      0xb60d4288\n      gt\n      tag_12\n      jumpi\n      dup1\n      0xb60d4288\n      eq\n      tag_7\n      jumpi\n      dup1\n      0xbea4dfb5\n      eq\n      tag_8\n      jumpi\n      dup1\n      0xd39cf006\n      eq\n      tag_9\n      jumpi\n      dup1\n      0xda4658e0\n      eq\n      tag_10\n      jumpi\n      dup1\n      0xf2fde38b\n      eq\n      tag_11\n      jumpi\n      jump(tag_1)\n    tag_12:\n      dup1\n      0x13ffff01\n      eq\n      tag_2\n      jumpi\n      dup1\n      0x590e1ae3\n      eq\n      tag_3\n      jumpi\n      dup1\n      0x8da5cb5b\n      eq\n      tag_4\n      jumpi\n      dup1\n      0x8edd6eb6\n      eq\n      tag_5\n      jumpi\n      dup1\n      0x9f883a05\n      eq\n      tag_6\n      jumpi\n    tag_1:\n      0x00\n      dup1\n      revert\n        /* \"lesson - 3/FundMe.sol\":3962:4060  function setErc20Addr(address _erc20Addr) public onlyOwner {... */\n    tag_2:\n      callvalue\n      dup1\n      iszero\n      tag_13\n      jumpi\n      0x00\n      dup1\n      revert\n    tag_13:\n      pop\n      tag_14\n      0x04\n      dup1\n      calldatasize\n      sub\n      dup2\n      add\n      swap1\n      tag_15\n      swap2\n      swap1\n      tag_16\n      jump\t// in\n    tag_15:\n      tag_17\n      jump\t// in\n    tag_14:\n      stop\n        /* \"lesson - 3/FundMe.sol\":3120:3724  function refund() external windowClose{... */\n    tag_3:\n      callvalue\n      dup1\n      iszero\n      tag_18\n      jumpi\n      0x00\n      dup1\n      revert\n    tag_18:\n      pop\n      tag_19\n      tag_20\n      jump\t// in\n    tag_19:\n      stop\n        /* \"lesson - 3/FundMe.sol\":697:717  address public owner */\n    tag_4:\n      callvalue\n      dup1\n      iszero\n      tag_21\n      jumpi\n      0x00\n      dup1\n      revert\n    tag_21:\n      pop\n      tag_22\n      tag_23\n      jump\t// in\n    tag_22:\n      mload(0x40)\n      tag_24\n      swap2\n      swap1\n      tag_25\n      jump\t// in\n    tag_24:\n      mload(0x40)\n      dup1\n      swap2\n      sub\n      swap1\n      return\n        /* \"lesson - 3/FundMe.sol\":2261:3110  function getFund() external windowClose onlyOwner{... */\n    tag_5:\n      callvalue\n      dup1\n      iszero\n      tag_26\n      jumpi\n      0x00\n      dup1\n      revert\n    tag_26:\n      pop\n      tag_27\n      tag_28\n      jump\t// in\n    tag_27:\n      stop\n        /* \"lesson - 3/FundMe.sol\":479:529  mapping(address => uint256) public fundersToAmount */\n    tag_6:\n      callvalue\n      dup1\n      iszero\n      tag_29\n      jumpi\n      0x00\n      dup1\n      revert\n    tag_29:\n      pop\n      tag_30\n      0x04\n      dup1\n      calldatasize\n      sub\n      dup2\n      add\n      swap1\n      tag_31\n      swap2\n      swap1\n      tag_16\n      jump\t// in\n    tag_31:\n      tag_32\n      jump\t// in\n    tag_30:\n      mload(0x40)\n      tag_33\n      swap2\n      swap1\n      tag_34\n      jump\t// in\n    tag_33:\n      mload(0x40)\n      dup1\n      swap2\n      sub\n      swap1\n      return\n        /* \"lesson - 3/FundMe.sol\":1222:1480  function fund() external  payable {... */\n    tag_7:\n      tag_35\n      tag_36\n      jump\t// in\n    tag_35:\n      stop\n        /* \"lesson - 3/FundMe.sol\":1486:1824  function getChainlinkDataFeedLatestAnswer() public view returns (int) {... */\n    tag_8:\n      callvalue\n      dup1\n      iszero\n      tag_37\n      jumpi\n      0x00\n      dup1\n      revert\n    tag_37:\n      pop\n      tag_38\n      tag_39\n      jump\t// in\n    tag_38:\n      mload(0x40)\n      tag_40\n      swap2\n      swap1\n      tag_41\n      jump\t// in\n    tag_40:\n      mload(0x40)\n      dup1\n      swap2\n      sub\n      swap1\n      return\n        /* \"lesson - 3/FundMe.sol\":3730:3956  function setFunderToAmount(address funder, uint256 amountToUpdate) external {... */\n    tag_9:\n      callvalue\n      dup1\n      iszero\n      tag_42\n      jumpi\n      0x00\n      dup1\n      revert\n    tag_42:\n      pop\n      tag_43\n      0x04\n      dup1\n      calldatasize\n      sub\n      dup2\n      add\n      swap1\n      tag_44\n      swap2\n      swap1\n      tag_45\n      jump\t// in\n    tag_44:\n      tag_46\n      jump\t// in\n    tag_43:\n      stop\n        /* \"lesson - 3/FundMe.sol\":829:863  bool public getFundSuccess = false */\n    tag_10:\n      callvalue\n      dup1\n      iszero\n      tag_47\n      jumpi\n      0x00\n      dup1\n      revert\n    tag_47:\n      pop\n      tag_48\n      tag_49\n      jump\t// in\n    tag_48:\n      mload(0x40)\n      tag_50\n      swap2\n      swap1\n      tag_51\n      jump\t// in\n    tag_50:\n      mload(0x40)\n      dup1\n      swap2\n      sub\n      swap1\n      return\n        /* \"lesson - 3/FundMe.sol\":2074:2254  function transferOwnership(address newOwner) public onlyOwner{... */\n    tag_11:\n      callvalue\n      dup1\n      iszero\n      tag_52\n      jumpi\n      0x00\n      dup1\n      revert\n    tag_52:\n      pop\n      tag_53\n      0x04\n      dup1\n      calldatasize\n      sub\n      dup2\n      add\n      swap1\n      tag_54\n      swap2\n      swap1\n      tag_16\n      jump\t// in\n    tag_54:\n      tag_55\n      jump\t// in\n    tag_53:\n      stop\n        /* \"lesson - 3/FundMe.sol\":3962:4060  function setErc20Addr(address _erc20Addr) public onlyOwner {... */\n    tag_17:\n        /* \"lesson - 3/FundMe.sol\":4257:4262  owner */\n      0x02\n      0x00\n      swap1\n      sload\n      swap1\n      0x0100\n      exp\n      swap1\n      div\n      0xffffffffffffffffffffffffffffffffffffffff\n      and\n        /* \"lesson - 3/FundMe.sol\":4243:4262  msg.sender == owner */\n      0xffffffffffffffffffffffffffffffffffffffff\n      and\n        /* \"lesson - 3/FundMe.sol\":4243:4253  msg.sender */\n      caller\n        /* \"lesson - 3/FundMe.sol\":4243:4262  msg.sender == owner */\n      0xffffffffffffffffffffffffffffffffffffffff\n      and\n      eq\n        /* \"lesson - 3/FundMe.sol\":4235:4308  require(msg.sender == owner, \"this function can only be called by owner\") */\n      tag_57\n      jumpi\n      mload(0x40)\n      0x08c379a000000000000000000000000000000000000000000000000000000000\n      dup2\n      mstore\n      0x04\n      add\n      tag_58\n      swap1\n      tag_59\n      jump\t// in\n    tag_58:\n      mload(0x40)\n      dup1\n      swap2\n      sub\n      swap1\n      revert\n    tag_57:\n        /* \"lesson - 3/FundMe.sol\":4043:4053  _erc20Addr */\n      dup1\n        /* \"lesson - 3/FundMe.sol\":4031:4040  erc20Addr */\n      0x05\n      0x00\n        /* \"lesson - 3/FundMe.sol\":4031:4053  erc20Addr = _erc20Addr */\n      0x0100\n      exp\n      dup2\n      sload\n      dup2\n      0xffffffffffffffffffffffffffffffffffffffff\n      mul\n      not\n      and\n      swap1\n      dup4\n      0xffffffffffffffffffffffffffffffffffffffff\n      and\n      mul\n      or\n      swap1\n      sstore\n      pop\n        /* \"lesson - 3/FundMe.sol\":3962:4060  function setErc20Addr(address _erc20Addr) public onlyOwner {... */\n      pop\n      jump\t// out\n        /* \"lesson - 3/FundMe.sol\":3120:3724  function refund() external windowClose{... */\n    tag_20:\n        /* \"lesson - 3/FundMe.sol\":4148:4156  lockTime */\n      sload(0x04)\n        /* \"lesson - 3/FundMe.sol\":4126:4145  deploymentTimestamp */\n      sload(0x03)\n        /* \"lesson - 3/FundMe.sol\":4126:4156  deploymentTimestamp + lockTime */\n      tag_62\n      swap2\n      swap1\n      tag_63\n      jump\t// in\n    tag_62:\n        /* \"lesson - 3/FundMe.sol\":4107:4122  block.timestamp */\n      timestamp\n        /* \"lesson - 3/FundMe.sol\":4107:4156  block.timestamp >= deploymentTimestamp + lockTime */\n      lt\n      iszero\n        /* \"lesson - 3/FundMe.sol\":4099:4180  require(block.timestamp >= deploymentTimestamp + lockTime, \"window is not close\") */\n      tag_64\n      jumpi\n      mload(0x40)\n      0x08c379a000000000000000000000000000000000000000000000000000000000\n      dup2\n      mstore\n      0x04\n      add\n      tag_65\n      swap1\n      tag_66\n      jump\t// in\n    tag_65:\n      mload(0x40)\n      dup1\n      swap2\n      sub\n      swap1\n      revert\n    tag_64:\n        /* \"lesson - 3/FundMe.sol\":675:690  1000 * 10 ** 18 */\n      0x3635c9adc5dea00000\n        /* \"lesson - 3/FundMe.sol\":3176:3214  convertEthToUSD(address(this).balance) */\n      tag_68\n        /* \"lesson - 3/FundMe.sol\":3192:3213  address(this).balance */\n      selfbalance\n        /* \"lesson - 3/FundMe.sol\":3176:3191  convertEthToUSD */\n      tag_69\n        /* \"lesson - 3/FundMe.sol\":3176:3214  convertEthToUSD(address(this).balance) */\n      jump\t// in\n    tag_68:\n        /* \"lesson - 3/FundMe.sol\":3176:3223  convertEthToUSD(address(this).balance) < TARGET */\n      lt\n        /* \"lesson - 3/FundMe.sol\":3168:3245  require(convertEthToUSD(address(this).balance) < TARGET, \"Target is reached\") */\n      tag_70\n      jumpi\n      mload(0x40)\n      0x08c379a000000000000000000000000000000000000000000000000000000000\n      dup2\n      mstore\n      0x04\n      add\n      tag_71\n      swap1\n      tag_72\n      jump\t// in\n    tag_71:\n      mload(0x40)\n      dup1\n      swap2\n      sub\n      swap1\n      revert\n    tag_70:\n        /* \"lesson - 3/FundMe.sol\":3351:3352  0 */\n      0x00\n        /* \"lesson - 3/FundMe.sol\":3320:3335  fundersToAmount */\n      dup1\n        /* \"lesson - 3/FundMe.sol\":3320:3347  fundersToAmount[msg.sender] */\n      0x00\n        /* \"lesson - 3/FundMe.sol\":3336:3346  msg.sender */\n      caller\n        /* \"lesson - 3/FundMe.sol\":3320:3347  fundersToAmount[msg.sender] */\n      0xffffffffffffffffffffffffffffffffffffffff\n      and\n      0xffffffffffffffffffffffffffffffffffffffff\n      and\n      dup2\n      mstore\n      0x20\n      add\n      swap1\n      dup2\n      mstore\n      0x20\n      add\n      0x00\n      keccak256\n      sload\n        /* \"lesson - 3/FundMe.sol\":3320:3352  fundersToAmount[msg.sender] != 0 */\n      sub\n        /* \"lesson - 3/FundMe.sol\":3312:3382  require(fundersToAmount[msg.sender] != 0, \"there is no fund for you \") */\n      tag_73\n      jumpi\n      mload(0x40)\n      0x08c379a000000000000000000000000000000000000000000000000000000000\n      dup2\n      mstore\n      0x04\n      add\n      tag_74\n      swap1\n      tag_75\n      jump\t// in\n    tag_74:\n      mload(0x40)\n      dup1\n      swap2\n      sub\n      swap1\n      revert\n    tag_73:\n        /* \"lesson - 3/FundMe.sol\":3488:3500  bool success */\n      0x00\n        /* \"lesson - 3/FundMe.sol\":3532:3542  msg.sender */\n      caller\n        /* \"lesson - 3/FundMe.sol\":3524:3548  payable(msg.sender).call */\n      0xffffffffffffffffffffffffffffffffffffffff\n      and\n        /* \"lesson - 3/FundMe.sol\":3556:3571  fundersToAmount */\n      0x00\n        /* \"lesson - 3/FundMe.sol\":3556:3583  fundersToAmount[msg.sender] */\n      dup1\n        /* \"lesson - 3/FundMe.sol\":3572:3582  msg.sender */\n      caller\n        /* \"lesson - 3/FundMe.sol\":3556:3583  fundersToAmount[msg.sender] */\n      0xffffffffffffffffffffffffffffffffffffffff\n      and\n      0xffffffffffffffffffffffffffffffffffffffff\n      and\n      dup2\n      mstore\n      0x20\n      add\n      swap1\n      dup2\n      mstore\n      0x20\n      add\n      0x00\n      keccak256\n      sload\n        /* \"lesson - 3/FundMe.sol\":3524:3589  payable(msg.sender).call{value: fundersToAmount[msg.sender] }(\"\") */\n      mload(0x40)\n      tag_76\n      swap1\n      tag_77\n      jump\t// in\n    tag_76:\n      0x00\n      mload(0x40)\n      dup1\n      dup4\n      sub\n      dup2\n      dup6\n      dup8\n      gas\n      call\n      swap3\n      pop\n      pop\n      pop\n      returndatasize\n      dup1\n      0x00\n      dup2\n      eq\n      tag_80\n      jumpi\n      mload(0x40)\n      swap2\n      pop\n      and(add(returndatasize, 0x3f), not(0x1f))\n      dup3\n      add\n      0x40\n      mstore\n      returndatasize\n      dup3\n      mstore\n      returndatasize\n      0x00\n      0x20\n      dup5\n      add\n      returndatacopy\n      jump(tag_79)\n    tag_80:\n      0x60\n      swap2\n      pop\n    tag_79:\n      pop\n        /* \"lesson - 3/FundMe.sol\":3510:3589  (success, ) = payable(msg.sender).call{value: fundersToAmount[msg.sender] }(\"\") */\n      pop\n      dup1\n      swap2\n      pop\n      pop\n        /* \"lesson - 3/FundMe.sol\":3607:3614  success */\n      dup1\n        /* \"lesson - 3/FundMe.sol\":3599:3637  require(success, \"transfer tx failed\") */\n      tag_81\n      jumpi\n      mload(0x40)\n      0x08c379a000000000000000000000000000000000000000000000000000000000\n      dup2\n      mstore\n      0x04\n      add\n      tag_82\n      swap1\n      tag_83\n      jump\t// in\n    tag_82:\n      mload(0x40)\n      dup1\n      swap2\n      sub\n      swap1\n      revert\n    tag_81:\n        /* \"lesson - 3/FundMe.sol\":3677:3678  0 */\n      0x00\n        /* \"lesson - 3/FundMe.sol\":3647:3662  fundersToAmount */\n      dup1\n        /* \"lesson - 3/FundMe.sol\":3647:3674  fundersToAmount[msg.sender] */\n      0x00\n        /* \"lesson - 3/FundMe.sol\":3663:3673  msg.sender */\n      caller\n        /* \"lesson - 3/FundMe.sol\":3647:3674  fundersToAmount[msg.sender] */\n      0xffffffffffffffffffffffffffffffffffffffff\n      and\n      0xffffffffffffffffffffffffffffffffffffffff\n      and\n      dup2\n      mstore\n      0x20\n      add\n      swap1\n      dup2\n      mstore\n      0x20\n      add\n      0x00\n      keccak256\n        /* \"lesson - 3/FundMe.sol\":3647:3678  fundersToAmount[msg.sender] = 0 */\n      dup2\n      swap1\n      sstore\n      pop\n        /* \"lesson - 3/FundMe.sol\":3705:3709  true */\n      0x01\n        /* \"lesson - 3/FundMe.sol\":3688:3702  getFundSuccess */\n      0x05\n      0x14\n        /* \"lesson - 3/FundMe.sol\":3688:3709  getFundSuccess = true */\n      0x0100\n      exp\n      dup2\n      sload\n      dup2\n      0xff\n      mul\n      not\n      and\n      swap1\n      dup4\n      iszero\n      iszero\n      mul\n      or\n      swap1\n      sstore\n      pop\n        /* \"lesson - 3/FundMe.sol\":3158:3724  {... */\n      pop\n        /* \"lesson - 3/FundMe.sol\":3120:3724  function refund() external windowClose{... */\n      jump\t// out\n        /* \"lesson - 3/FundMe.sol\":697:717  address public owner */\n    tag_23:\n      0x02\n      0x00\n      swap1\n      sload\n      swap1\n      0x0100\n      exp\n      swap1\n      div\n      0xffffffffffffffffffffffffffffffffffffffff\n      and\n      dup2\n      jump\t// out\n        /* \"lesson - 3/FundMe.sol\":2261:3110  function getFund() external windowClose onlyOwner{... */\n    tag_28:\n        /* \"lesson - 3/FundMe.sol\":4148:4156  lockTime */\n      sload(0x04)\n        /* \"lesson - 3/FundMe.sol\":4126:4145  deploymentTimestamp */\n      sload(0x03)\n        /* \"lesson - 3/FundMe.sol\":4126:4156  deploymentTimestamp + lockTime */\n      tag_85\n      swap2\n      swap1\n      tag_63\n      jump\t// in\n    tag_85:\n        /* \"lesson - 3/FundMe.sol\":4107:4122  block.timestamp */\n      timestamp\n        /* \"lesson - 3/FundMe.sol\":4107:4156  block.timestamp >= deploymentTimestamp + lockTime */\n      lt\n      iszero\n        /* \"lesson - 3/FundMe.sol\":4099:4180  require(block.timestamp >= deploymentTimestamp + lockTime, \"window is not close\") */\n      tag_86\n      jumpi\n      mload(0x40)\n      0x08c379a000000000000000000000000000000000000000000000000000000000\n      dup2\n      mstore\n      0x04\n      add\n      tag_87\n      swap1\n      tag_66\n      jump\t// in\n    tag_87:\n      mload(0x40)\n      dup1\n      swap2\n      sub\n      swap1\n      revert\n    tag_86:\n        /* \"lesson - 3/FundMe.sol\":4257:4262  owner */\n      0x02\n      0x00\n      swap1\n      sload\n      swap1\n      0x0100\n      exp\n      swap1\n      div\n      0xffffffffffffffffffffffffffffffffffffffff\n      and\n        /* \"lesson - 3/FundMe.sol\":4243:4262  msg.sender == owner */\n      0xffffffffffffffffffffffffffffffffffffffff\n      and\n        /* \"lesson - 3/FundMe.sol\":4243:4253  msg.sender */\n      caller\n        /* \"lesson - 3/FundMe.sol\":4243:4262  msg.sender == owner */\n      0xffffffffffffffffffffffffffffffffffffffff\n      and\n      eq\n        /* \"lesson - 3/FundMe.sol\":4235:4308  require(msg.sender == owner, \"this function can only be called by owner\") */\n      tag_89\n      jumpi\n      mload(0x40)\n      0x08c379a000000000000000000000000000000000000000000000000000000000\n      dup2\n      mstore\n      0x04\n      add\n      tag_90\n      swap1\n      tag_59\n      jump\t// in\n    tag_90:\n      mload(0x40)\n      dup1\n      swap2\n      sub\n      swap1\n      revert\n    tag_89:\n        /* \"lesson - 3/FundMe.sol\":675:690  1000 * 10 ** 18 */\n      0x3635c9adc5dea00000\n        /* \"lesson - 3/FundMe.sol\":2328:2366  convertEthToUSD(address(this).balance) */\n      tag_92\n        /* \"lesson - 3/FundMe.sol\":2344:2365  address(this).balance */\n      selfbalance\n        /* \"lesson - 3/FundMe.sol\":2328:2343  convertEthToUSD */\n      tag_69\n        /* \"lesson - 3/FundMe.sol\":2328:2366  convertEthToUSD(address(this).balance) */\n      jump\t// in\n    tag_92:\n        /* \"lesson - 3/FundMe.sol\":2328:2376  convertEthToUSD(address(this).balance) >= TARGET */\n      lt\n      iszero\n        /* \"lesson - 3/FundMe.sol\":2320:2402  require(convertEthToUSD(address(this).balance) >= TARGET, \"Target is not reached\") */\n      tag_93\n      jumpi\n      mload(0x40)\n      0x08c379a000000000000000000000000000000000000000000000000000000000\n      dup2\n      mstore\n      0x04\n      add\n      tag_94\n      swap1\n      tag_95\n      jump\t// in\n    tag_94:\n      mload(0x40)\n      dup1\n      swap2\n      sub\n      swap1\n      revert\n    tag_93:\n        /* \"lesson - 3/FundMe.sol\":2919:2931  bool success */\n      0x00\n        /* \"lesson - 3/FundMe.sol\":2963:2973  msg.sender */\n      caller\n        /* \"lesson - 3/FundMe.sol\":2955:2979  payable(msg.sender).call */\n      0xffffffffffffffffffffffffffffffffffffffff\n      and\n        /* \"lesson - 3/FundMe.sol\":2987:3008  address(this).balance */\n      selfbalance\n        /* \"lesson - 3/FundMe.sol\":2955:3013  payable(msg.sender).call{value: address(this).balance}(\"\") */\n      mload(0x40)\n      tag_96\n      swap1\n      tag_77\n      jump\t// in\n    tag_96:\n      0x00\n      mload(0x40)\n      dup1\n      dup4\n      sub\n      dup2\n      dup6\n      dup8\n      gas\n      call\n      swap3\n      pop\n      pop\n      pop\n      returndatasize\n      dup1\n      0x00\n      dup2\n      eq\n      tag_99\n      jumpi\n      mload(0x40)\n      swap2\n      pop\n      and(add(returndatasize, 0x3f), not(0x1f))\n      dup3\n      add\n      0x40\n      mstore\n      returndatasize\n      dup3\n      mstore\n      returndatasize\n      0x00\n      0x20\n      dup5\n      add\n      returndatacopy\n      jump(tag_98)\n    tag_99:\n      0x60\n      swap2\n      pop\n    tag_98:\n      pop\n        /* \"lesson - 3/FundMe.sol\":2941:3013  (success, ) = payable(msg.sender).call{value: address(this).balance}(\"\") */\n      pop\n      dup1\n      swap2\n      pop\n      pop\n        /* \"lesson - 3/FundMe.sol\":3031:3038  success */\n      dup1\n        /* \"lesson - 3/FundMe.sol\":3023:3061  require(success, \"transfer tx failed\") */\n      tag_100\n      jumpi\n      mload(0x40)\n      0x08c379a000000000000000000000000000000000000000000000000000000000\n      dup2\n      mstore\n      0x04\n      add\n      tag_101\n      swap1\n      tag_83\n      jump\t// in\n    tag_101:\n      mload(0x40)\n      dup1\n      swap2\n      sub\n      swap1\n      revert\n    tag_100:\n        /* \"lesson - 3/FundMe.sol\":3101:3102  0 */\n      0x00\n        /* \"lesson - 3/FundMe.sol\":3071:3086  fundersToAmount */\n      dup1\n        /* \"lesson - 3/FundMe.sol\":3071:3098  fundersToAmount[msg.sender] */\n      0x00\n        /* \"lesson - 3/FundMe.sol\":3087:3097  msg.sender */\n      caller\n        /* \"lesson - 3/FundMe.sol\":3071:3098  fundersToAmount[msg.sender] */\n      0xffffffffffffffffffffffffffffffffffffffff\n      and\n      0xffffffffffffffffffffffffffffffffffffffff\n      and\n      dup2\n      mstore\n      0x20\n      add\n      swap1\n      dup2\n      mstore\n      0x20\n      add\n      0x00\n      keccak256\n        /* \"lesson - 3/FundMe.sol\":3071:3102  fundersToAmount[msg.sender] = 0 */\n      dup2\n      swap1\n      sstore\n      pop\n        /* \"lesson - 3/FundMe.sol\":2310:3110  {... */\n      pop\n        /* \"lesson - 3/FundMe.sol\":2261:3110  function getFund() external windowClose onlyOwner{... */\n      jump\t// out\n        /* \"lesson - 3/FundMe.sol\":479:529  mapping(address => uint256) public fundersToAmount */\n    tag_32:\n      mstore(0x20, 0x00)\n      dup1\n      0x00\n      mstore\n      keccak256(0x00, 0x40)\n      0x00\n      swap2\n      pop\n      swap1\n      pop\n      sload\n      dup2\n      jump\t// out\n        /* \"lesson - 3/FundMe.sol\":1222:1480  function fund() external  payable {... */\n    tag_36:\n        /* \"lesson - 3/FundMe.sol\":569:583  100 * 10 ** 18 */\n      0x056bc75e2d63100000\n        /* \"lesson - 3/FundMe.sol\":1274:1300  convertEthToUSD(msg.value) */\n      tag_103\n        /* \"lesson - 3/FundMe.sol\":1290:1299  msg.value */\n      callvalue\n        /* \"lesson - 3/FundMe.sol\":1274:1289  convertEthToUSD */\n      tag_69\n        /* \"lesson - 3/FundMe.sol\":1274:1300  convertEthToUSD(msg.value) */\n      jump\t// in\n    tag_103:\n        /* \"lesson - 3/FundMe.sol\":1274:1317  convertEthToUSD(msg.value) >= MINIMUN_VALUE */\n      lt\n      iszero\n        /* \"lesson - 3/FundMe.sol\":1266:1335  require(convertEthToUSD(msg.value) >= MINIMUN_VALUE, \"Send more ETH\") */\n      tag_104\n      jumpi\n      mload(0x40)\n      0x08c379a000000000000000000000000000000000000000000000000000000000\n      dup2\n      mstore\n      0x04\n      add\n      tag_105\n      swap1\n      tag_106\n      jump\t// in\n    tag_105:\n      mload(0x40)\n      dup1\n      swap2\n      sub\n      swap1\n      revert\n    tag_104:\n        /* \"lesson - 3/FundMe.sol\":1464:1473  msg.value */\n      callvalue\n        /* \"lesson - 3/FundMe.sol\":1434:1449  fundersToAmount */\n      0x00\n        /* \"lesson - 3/FundMe.sol\":1434:1461  fundersToAmount[msg.sender] */\n      dup1\n        /* \"lesson - 3/FundMe.sol\":1450:1460  msg.sender */\n      caller\n        /* \"lesson - 3/FundMe.sol\":1434:1461  fundersToAmount[msg.sender] */\n      0xffffffffffffffffffffffffffffffffffffffff\n      and\n      0xffffffffffffffffffffffffffffffffffffffff\n      and\n      dup2\n      mstore\n      0x20\n      add\n      swap1\n      dup2\n      mstore\n      0x20\n      add\n      0x00\n      keccak256\n        /* \"lesson - 3/FundMe.sol\":1434:1473  fundersToAmount[msg.sender] = msg.value */\n      dup2\n      swap1\n      sstore\n      pop\n        /* \"lesson - 3/FundMe.sol\":1222:1480  function fund() external  payable {... */\n      jump\t// out\n        /* \"lesson - 3/FundMe.sol\":1486:1824  function getChainlinkDataFeedLatestAnswer() public view returns (int) {... */\n    tag_39:\n        /* \"lesson - 3/FundMe.sol\":1551:1554  int */\n      0x00\n        /* \"lesson - 3/FundMe.sol\":1641:1651  int answer */\n      dup1\n        /* \"lesson - 3/FundMe.sol\":1768:1776  dataFeed */\n      0x01\n      0x00\n      swap1\n      sload\n      swap1\n      0x0100\n      exp\n      swap1\n      div\n      0xffffffffffffffffffffffffffffffffffffffff\n      and\n        /* \"lesson - 3/FundMe.sol\":1768:1792  dataFeed.latestRoundData */\n      0xffffffffffffffffffffffffffffffffffffffff\n      and\n      0xfeaf968c\n        /* \"lesson - 3/FundMe.sol\":1768:1794  dataFeed.latestRoundData() */\n      mload(0x40)\n      dup2\n      0xffffffff\n      and\n      0xe0\n      shl\n      dup2\n      mstore\n      0x04\n      add\n      0xa0\n      mload(0x40)\n      dup1\n      dup4\n      sub\n      dup2\n      dup7\n      gas\n      staticcall\n      iszero\n      dup1\n      iszero\n      tag_109\n      jumpi\n      returndatasize\n      0x00\n      dup1\n      returndatacopy\n      revert(0x00, returndatasize)\n    tag_109:\n      pop\n      pop\n      pop\n      pop\n      mload(0x40)\n      returndatasize\n      not(0x1f)\n      0x1f\n      dup3\n      add\n      and\n      dup3\n      add\n      dup1\n      0x40\n      mstore\n      pop\n      dup2\n      add\n      swap1\n      tag_110\n      swap2\n      swap1\n      tag_111\n      jump\t// in\n    tag_110:\n        /* \"lesson - 3/FundMe.sol\":1593:1794  (... */\n      pop\n      pop\n      pop\n      swap2\n      pop\n      pop\n        /* \"lesson - 3/FundMe.sol\":1811:1817  answer */\n      dup1\n        /* \"lesson - 3/FundMe.sol\":1804:1817  return answer */\n      swap2\n      pop\n      pop\n        /* \"lesson - 3/FundMe.sol\":1486:1824  function getChainlinkDataFeedLatestAnswer() public view returns (int) {... */\n      swap1\n      jump\t// out\n        /* \"lesson - 3/FundMe.sol\":3730:3956  function setFunderToAmount(address funder, uint256 amountToUpdate) external {... */\n    tag_46:\n        /* \"lesson - 3/FundMe.sol\":3838:3847  erc20Addr */\n      0x05\n      0x00\n      swap1\n      sload\n      swap1\n      0x0100\n      exp\n      swap1\n      div\n      0xffffffffffffffffffffffffffffffffffffffff\n      and\n        /* \"lesson - 3/FundMe.sol\":3824:3847  msg.sender == erc20Addr */\n      0xffffffffffffffffffffffffffffffffffffffff\n      and\n        /* \"lesson - 3/FundMe.sol\":3824:3834  msg.sender */\n      caller\n        /* \"lesson - 3/FundMe.sol\":3824:3847  msg.sender == erc20Addr */\n      0xffffffffffffffffffffffffffffffffffffffff\n      and\n      eq\n        /* \"lesson - 3/FundMe.sol\":3816:3899  require(msg.sender == erc20Addr, \"you do not have permission to call this funtion\") */\n      tag_113\n      jumpi\n      mload(0x40)\n      0x08c379a000000000000000000000000000000000000000000000000000000000\n      dup2\n      mstore\n      0x04\n      add\n      tag_114\n      swap1\n      tag_115\n      jump\t// in\n    tag_114:\n      mload(0x40)\n      dup1\n      swap2\n      sub\n      swap1\n      revert\n    tag_113:\n        /* \"lesson - 3/FundMe.sol\":3935:3949  amountToUpdate */\n      dup1\n        /* \"lesson - 3/FundMe.sol\":3909:3924  fundersToAmount */\n      0x00\n        /* \"lesson - 3/FundMe.sol\":3909:3932  fundersToAmount[funder] */\n      dup1\n        /* \"lesson - 3/FundMe.sol\":3925:3931  funder */\n      dup5\n        /* \"lesson - 3/FundMe.sol\":3909:3932  fundersToAmount[funder] */\n      0xffffffffffffffffffffffffffffffffffffffff\n      and\n      0xffffffffffffffffffffffffffffffffffffffff\n      and\n      dup2\n      mstore\n      0x20\n      add\n      swap1\n      dup2\n      mstore\n      0x20\n      add\n      0x00\n      keccak256\n        /* \"lesson - 3/FundMe.sol\":3909:3949  fundersToAmount[funder] = amountToUpdate */\n      dup2\n      swap1\n      sstore\n      pop\n        /* \"lesson - 3/FundMe.sol\":3730:3956  function setFunderToAmount(address funder, uint256 amountToUpdate) external {... */\n      pop\n      pop\n      jump\t// out\n        /* \"lesson - 3/FundMe.sol\":829:863  bool public getFundSuccess = false */\n    tag_49:\n      0x05\n      0x14\n      swap1\n      sload\n      swap1\n      0x0100\n      exp\n      swap1\n      div\n      0xff\n      and\n      dup2\n      jump\t// out\n        /* \"lesson - 3/FundMe.sol\":2074:2254  function transferOwnership(address newOwner) public onlyOwner{... */\n    tag_55:\n        /* \"lesson - 3/FundMe.sol\":4257:4262  owner */\n      0x02\n      0x00\n      swap1\n      sload\n      swap1\n      0x0100\n      exp\n      swap1\n      div\n      0xffffffffffffffffffffffffffffffffffffffff\n      and\n        /* \"lesson - 3/FundMe.sol\":4243:4262  msg.sender == owner */\n      0xffffffffffffffffffffffffffffffffffffffff\n      and\n        /* \"lesson - 3/FundMe.sol\":4243:4253  msg.sender */\n      caller\n        /* \"lesson - 3/FundMe.sol\":4243:4262  msg.sender == owner */\n      0xffffffffffffffffffffffffffffffffffffffff\n      and\n      eq\n        /* \"lesson - 3/FundMe.sol\":4235:4308  require(msg.sender == owner, \"this function can only be called by owner\") */\n      tag_117\n      jumpi\n      mload(0x40)\n      0x08c379a000000000000000000000000000000000000000000000000000000000\n      dup2\n      mstore\n      0x04\n      add\n      tag_118\n      swap1\n      tag_59\n      jump\t// in\n    tag_118:\n      mload(0x40)\n      dup1\n      swap2\n      sub\n      swap1\n      revert\n    tag_117:\n        /* \"lesson - 3/FundMe.sol\":2239:2247  newOwner */\n      dup1\n        /* \"lesson - 3/FundMe.sol\":2231:2236  owner */\n      0x02\n      0x00\n        /* \"lesson - 3/FundMe.sol\":2231:2247  owner = newOwner */\n      0x0100\n      exp\n      dup2\n      sload\n      dup2\n      0xffffffffffffffffffffffffffffffffffffffff\n      mul\n      not\n      and\n      swap1\n      dup4\n      0xffffffffffffffffffffffffffffffffffffffff\n      and\n      mul\n      or\n      swap1\n      sstore\n      pop\n        /* \"lesson - 3/FundMe.sol\":2074:2254  function transferOwnership(address newOwner) public onlyOwner{... */\n      pop\n      jump\t// out\n        /* \"lesson - 3/FundMe.sol\":1830:2068  function convertEthToUSD(uint256 ethAmount) ... */\n    tag_69:\n        /* \"lesson - 3/FundMe.sol\":1923:1930  uint256 */\n      0x00\n        /* \"lesson - 3/FundMe.sol\":1946:1962  uint256 ethPrice */\n      dup1\n        /* \"lesson - 3/FundMe.sol\":1973:2007  getChainlinkDataFeedLatestAnswer() */\n      tag_121\n        /* \"lesson - 3/FundMe.sol\":1973:2005  getChainlinkDataFeedLatestAnswer */\n      tag_39\n        /* \"lesson - 3/FundMe.sol\":1973:2007  getChainlinkDataFeedLatestAnswer() */\n      jump\t// in\n    tag_121:\n        /* \"lesson - 3/FundMe.sol\":1946:2008  uint256 ethPrice = uint256(getChainlinkDataFeedLatestAnswer()) */\n      swap1\n      pop\n        /* \"lesson - 3/FundMe.sol\":2053:2060  10 ** 8 */\n      0x05f5e100\n        /* \"lesson - 3/FundMe.sol\":2041:2049  ethPrice */\n      dup2\n        /* \"lesson - 3/FundMe.sol\":2029:2038  ethAmount */\n      dup5\n        /* \"lesson - 3/FundMe.sol\":2029:2049  ethAmount * ethPrice */\n      tag_122\n      swap2\n      swap1\n      tag_123\n      jump\t// in\n    tag_122:\n        /* \"lesson - 3/FundMe.sol\":2029:2061  ethAmount * ethPrice / (10 ** 8) */\n      tag_124\n      swap2\n      swap1\n      tag_125\n      jump\t// in\n    tag_124:\n        /* \"lesson - 3/FundMe.sol\":2022:2061  return ethAmount * ethPrice / (10 ** 8) */\n      swap2\n      pop\n      pop\n        /* \"lesson - 3/FundMe.sol\":1830:2068  function convertEthToUSD(uint256 ethAmount) ... */\n      swap2\n      swap1\n      pop\n      jump\t// out\n        /* \"#utility.yul\":88:205   */\n    tag_127:\n        /* \"#utility.yul\":197:198   */\n      0x00\n        /* \"#utility.yul\":194:195   */\n      dup1\n        /* \"#utility.yul\":187:199   */\n      revert\n        /* \"#utility.yul\":334:460   */\n    tag_129:\n        /* \"#utility.yul\":371:378   */\n      0x00\n        /* \"#utility.yul\":411:453   */\n      0xffffffffffffffffffffffffffffffffffffffff\n        /* \"#utility.yul\":404:409   */\n      dup3\n        /* \"#utility.yul\":400:454   */\n      and\n        /* \"#utility.yul\":389:454   */\n      swap1\n      pop\n        /* \"#utility.yul\":334:460   */\n      swap2\n      swap1\n      pop\n      jump\t// out\n        /* \"#utility.yul\":466:562   */\n    tag_130:\n        /* \"#utility.yul\":503:510   */\n      0x00\n        /* \"#utility.yul\":532:556   */\n      tag_176\n        /* \"#utility.yul\":550:555   */\n      dup3\n        /* \"#utility.yul\":532:556   */\n      tag_129\n      jump\t// in\n    tag_176:\n        /* \"#utility.yul\":521:556   */\n      swap1\n      pop\n        /* \"#utility.yul\":466:562   */\n      swap2\n      swap1\n      pop\n      jump\t// out\n        /* \"#utility.yul\":568:690   */\n    tag_131:\n        /* \"#utility.yul\":641:665   */\n      tag_178\n        /* \"#utility.yul\":659:664   */\n      dup2\n        /* \"#utility.yul\":641:665   */\n      tag_130\n      jump\t// in\n    tag_178:\n        /* \"#utility.yul\":634:639   */\n      dup2\n        /* \"#utility.yul\":631:666   */\n      eq\n        /* \"#utility.yul\":621:684   */\n      tag_179\n      jumpi\n        /* \"#utility.yul\":680:681   */\n      0x00\n        /* \"#utility.yul\":677:678   */\n      dup1\n        /* \"#utility.yul\":670:682   */\n      revert\n        /* \"#utility.yul\":621:684   */\n    tag_179:\n        /* \"#utility.yul\":568:690   */\n      pop\n      jump\t// out\n        /* \"#utility.yul\":696:835   */\n    tag_132:\n        /* \"#utility.yul\":742:747   */\n      0x00\n        /* \"#utility.yul\":780:786   */\n      dup2\n        /* \"#utility.yul\":767:787   */\n      calldataload\n        /* \"#utility.yul\":758:787   */\n      swap1\n      pop\n        /* \"#utility.yul\":796:829   */\n      tag_181\n        /* \"#utility.yul\":823:828   */\n      dup2\n        /* \"#utility.yul\":796:829   */\n      tag_131\n      jump\t// in\n    tag_181:\n        /* \"#utility.yul\":696:835   */\n      swap3\n      swap2\n      pop\n      pop\n      jump\t// out\n        /* \"#utility.yul\":841:1170   */\n    tag_16:\n        /* \"#utility.yul\":900:906   */\n      0x00\n        /* \"#utility.yul\":949:951   */\n      0x20\n        /* \"#utility.yul\":937:946   */\n      dup3\n        /* \"#utility.yul\":928:935   */\n      dup5\n        /* \"#utility.yul\":924:947   */\n      sub\n        /* \"#utility.yul\":920:952   */\n      slt\n        /* \"#utility.yul\":917:1036   */\n      iszero\n      tag_183\n      jumpi\n        /* \"#utility.yul\":955:1034   */\n      tag_184\n      tag_127\n      jump\t// in\n    tag_184:\n        /* \"#utility.yul\":917:1036   */\n    tag_183:\n        /* \"#utility.yul\":1075:1076   */\n      0x00\n        /* \"#utility.yul\":1100:1153   */\n      tag_185\n        /* \"#utility.yul\":1145:1152   */\n      dup5\n        /* \"#utility.yul\":1136:1142   */\n      dup3\n        /* \"#utility.yul\":1125:1134   */\n      dup6\n        /* \"#utility.yul\":1121:1143   */\n      add\n        /* \"#utility.yul\":1100:1153   */\n      tag_132\n      jump\t// in\n    tag_185:\n        /* \"#utility.yul\":1090:1153   */\n      swap2\n      pop\n        /* \"#utility.yul\":1046:1163   */\n      pop\n        /* \"#utility.yul\":841:1170   */\n      swap3\n      swap2\n      pop\n      pop\n      jump\t// out\n        /* \"#utility.yul\":1176:1294   */\n    tag_133:\n        /* \"#utility.yul\":1263:1287   */\n      tag_187\n        /* \"#utility.yul\":1281:1286   */\n      dup2\n        /* \"#utility.yul\":1263:1287   */\n      tag_130\n      jump\t// in\n    tag_187:\n        /* \"#utility.yul\":1258:1261   */\n      dup3\n        /* \"#utility.yul\":1251:1288   */\n      mstore\n        /* \"#utility.yul\":1176:1294   */\n      pop\n      pop\n      jump\t// out\n        /* \"#utility.yul\":1300:1522   */\n    tag_25:\n        /* \"#utility.yul\":1393:1397   */\n      0x00\n        /* \"#utility.yul\":1431:1433   */\n      0x20\n        /* \"#utility.yul\":1420:1429   */\n      dup3\n        /* \"#utility.yul\":1416:1434   */\n      add\n        /* \"#utility.yul\":1408:1434   */\n      swap1\n      pop\n        /* \"#utility.yul\":1444:1515   */\n      tag_189\n        /* \"#utility.yul\":1512:1513   */\n      0x00\n        /* \"#utility.yul\":1501:1510   */\n      dup4\n        /* \"#utility.yul\":1497:1514   */\n      add\n        /* \"#utility.yul\":1488:1494   */\n      dup5\n        /* \"#utility.yul\":1444:1515   */\n      tag_133\n      jump\t// in\n    tag_189:\n        /* \"#utility.yul\":1300:1522   */\n      swap3\n      swap2\n      pop\n      pop\n      jump\t// out\n        /* \"#utility.yul\":1528:1605   */\n    tag_134:\n        /* \"#utility.yul\":1565:1572   */\n      0x00\n        /* \"#utility.yul\":1594:1599   */\n      dup2\n        /* \"#utility.yul\":1583:1599   */\n      swap1\n      pop\n        /* \"#utility.yul\":1528:1605   */\n      swap2\n      swap1\n      pop\n      jump\t// out\n        /* \"#utility.yul\":1611:1729   */\n    tag_135:\n        /* \"#utility.yul\":1698:1722   */\n      tag_192\n        /* \"#utility.yul\":1716:1721   */\n      dup2\n        /* \"#utility.yul\":1698:1722   */\n      tag_134\n      jump\t// in\n    tag_192:\n        /* \"#utility.yul\":1693:1696   */\n      dup3\n        /* \"#utility.yul\":1686:1723   */\n      mstore\n        /* \"#utility.yul\":1611:1729   */\n      pop\n      pop\n      jump\t// out\n        /* \"#utility.yul\":1735:1957   */\n    tag_34:\n        /* \"#utility.yul\":1828:1832   */\n      0x00\n        /* \"#utility.yul\":1866:1868   */\n      0x20\n        /* \"#utility.yul\":1855:1864   */\n      dup3\n        /* \"#utility.yul\":1851:1869   */\n      add\n        /* \"#utility.yul\":1843:1869   */\n      swap1\n      pop\n        /* \"#utility.yul\":1879:1950   */\n      tag_194\n        /* \"#utility.yul\":1947:1948   */\n      0x00\n        /* \"#utility.yul\":1936:1945   */\n      dup4\n        /* \"#utility.yul\":1932:1949   */\n      add\n        /* \"#utility.yul\":1923:1929   */\n      dup5\n        /* \"#utility.yul\":1879:1950   */\n      tag_135\n      jump\t// in\n    tag_194:\n        /* \"#utility.yul\":1735:1957   */\n      swap3\n      swap2\n      pop\n      pop\n      jump\t// out\n        /* \"#utility.yul\":1963:2039   */\n    tag_136:\n        /* \"#utility.yul\":1999:2006   */\n      0x00\n        /* \"#utility.yul\":2028:2033   */\n      dup2\n        /* \"#utility.yul\":2017:2033   */\n      swap1\n      pop\n        /* \"#utility.yul\":1963:2039   */\n      swap2\n      swap1\n      pop\n      jump\t// out\n        /* \"#utility.yul\":2045:2160   */\n    tag_137:\n        /* \"#utility.yul\":2130:2153   */\n      tag_197\n        /* \"#utility.yul\":2147:2152   */\n      dup2\n        /* \"#utility.yul\":2130:2153   */\n      tag_136\n      jump\t// in\n    tag_197:\n        /* \"#utility.yul\":2125:2128   */\n      dup3\n        /* \"#utility.yul\":2118:2154   */\n      mstore\n        /* \"#utility.yul\":2045:2160   */\n      pop\n      pop\n      jump\t// out\n        /* \"#utility.yul\":2166:2384   */\n    tag_41:\n        /* \"#utility.yul\":2257:2261   */\n      0x00\n        /* \"#utility.yul\":2295:2297   */\n      0x20\n        /* \"#utility.yul\":2284:2293   */\n      dup3\n        /* \"#utility.yul\":2280:2298   */\n      add\n        /* \"#utility.yul\":2272:2298   */\n      swap1\n      pop\n        /* \"#utility.yul\":2308:2377   */\n      tag_199\n        /* \"#utility.yul\":2374:2375   */\n      0x00\n        /* \"#utility.yul\":2363:2372   */\n      dup4\n        /* \"#utility.yul\":2359:2376   */\n      add\n        /* \"#utility.yul\":2350:2356   */\n      dup5\n        /* \"#utility.yul\":2308:2377   */\n      tag_137\n      jump\t// in\n    tag_199:\n        /* \"#utility.yul\":2166:2384   */\n      swap3\n      swap2\n      pop\n      pop\n      jump\t// out\n        /* \"#utility.yul\":2390:2512   */\n    tag_138:\n        /* \"#utility.yul\":2463:2487   */\n      tag_201\n        /* \"#utility.yul\":2481:2486   */\n      dup2\n        /* \"#utility.yul\":2463:2487   */\n      tag_134\n      jump\t// in\n    tag_201:\n        /* \"#utility.yul\":2456:2461   */\n      dup2\n        /* \"#utility.yul\":2453:2488   */\n      eq\n        /* \"#utility.yul\":2443:2506   */\n      tag_202\n      jumpi\n        /* \"#utility.yul\":2502:2503   */\n      0x00\n        /* \"#utility.yul\":2499:2500   */\n      dup1\n        /* \"#utility.yul\":2492:2504   */\n      revert\n        /* \"#utility.yul\":2443:2506   */\n    tag_202:\n        /* \"#utility.yul\":2390:2512   */\n      pop\n      jump\t// out\n        /* \"#utility.yul\":2518:2657   */\n    tag_139:\n        /* \"#utility.yul\":2564:2569   */\n      0x00\n        /* \"#utility.yul\":2602:2608   */\n      dup2\n        /* \"#utility.yul\":2589:2609   */\n      calldataload\n        /* \"#utility.yul\":2580:2609   */\n      swap1\n      pop\n        /* \"#utility.yul\":2618:2651   */\n      tag_204\n        /* \"#utility.yul\":2645:2650   */\n      dup2\n        /* \"#utility.yul\":2618:2651   */\n      tag_138\n      jump\t// in\n    tag_204:\n        /* \"#utility.yul\":2518:2657   */\n      swap3\n      swap2\n      pop\n      pop\n      jump\t// out\n        /* \"#utility.yul\":2663:3137   */\n    tag_45:\n        /* \"#utility.yul\":2731:2737   */\n      0x00\n        /* \"#utility.yul\":2739:2745   */\n      dup1\n        /* \"#utility.yul\":2788:2790   */\n      0x40\n        /* \"#utility.yul\":2776:2785   */\n      dup4\n        /* \"#utility.yul\":2767:2774   */\n      dup6\n        /* \"#utility.yul\":2763:2786   */\n      sub\n        /* \"#utility.yul\":2759:2791   */\n      slt\n        /* \"#utility.yul\":2756:2875   */\n      iszero\n      tag_206\n      jumpi\n        /* \"#utility.yul\":2794:2873   */\n      tag_207\n      tag_127\n      jump\t// in\n    tag_207:\n        /* \"#utility.yul\":2756:2875   */\n    tag_206:\n        /* \"#utility.yul\":2914:2915   */\n      0x00\n        /* \"#utility.yul\":2939:2992   */\n      tag_208\n        /* \"#utility.yul\":2984:2991   */\n      dup6\n        /* \"#utility.yul\":2975:2981   */\n      dup3\n        /* \"#utility.yul\":2964:2973   */\n      dup7\n        /* \"#utility.yul\":2960:2982   */\n      add\n        /* \"#utility.yul\":2939:2992   */\n      tag_132\n      jump\t// in\n    tag_208:\n        /* \"#utility.yul\":2929:2992   */\n      swap3\n      pop\n        /* \"#utility.yul\":2885:3002   */\n      pop\n        /* \"#utility.yul\":3041:3043   */\n      0x20\n        /* \"#utility.yul\":3067:3120   */\n      tag_209\n        /* \"#utility.yul\":3112:3119   */\n      dup6\n        /* \"#utility.yul\":3103:3109   */\n      dup3\n        /* \"#utility.yul\":3092:3101   */\n      dup7\n        /* \"#utility.yul\":3088:3110   */\n      add\n        /* \"#utility.yul\":3067:3120   */\n      tag_139\n      jump\t// in\n    tag_209:\n        /* \"#utility.yul\":3057:3120   */\n      swap2\n      pop\n        /* \"#utility.yul\":3012:3130   */\n      pop\n        /* \"#utility.yul\":2663:3137   */\n      swap3\n      pop\n      swap3\n      swap1\n      pop\n      jump\t// out\n        /* \"#utility.yul\":3143:3233   */\n    tag_140:\n        /* \"#utility.yul\":3177:3184   */\n      0x00\n        /* \"#utility.yul\":3220:3225   */\n      dup2\n        /* \"#utility.yul\":3213:3226   */\n      iszero\n        /* \"#utility.yul\":3206:3227   */\n      iszero\n        /* \"#utility.yul\":3195:3227   */\n      swap1\n      pop\n        /* \"#utility.yul\":3143:3233   */\n      swap2\n      swap1\n      pop\n      jump\t// out\n        /* \"#utility.yul\":3239:3348   */\n    tag_141:\n        /* \"#utility.yul\":3320:3341   */\n      tag_212\n        /* \"#utility.yul\":3335:3340   */\n      dup2\n        /* \"#utility.yul\":3320:3341   */\n      tag_140\n      jump\t// in\n    tag_212:\n        /* \"#utility.yul\":3315:3318   */\n      dup3\n        /* \"#utility.yul\":3308:3342   */\n      mstore\n        /* \"#utility.yul\":3239:3348   */\n      pop\n      pop\n      jump\t// out\n        /* \"#utility.yul\":3354:3564   */\n    tag_51:\n        /* \"#utility.yul\":3441:3445   */\n      0x00\n        /* \"#utility.yul\":3479:3481   */\n      0x20\n        /* \"#utility.yul\":3468:3477   */\n      dup3\n        /* \"#utility.yul\":3464:3482   */\n      add\n        /* \"#utility.yul\":3456:3482   */\n      swap1\n      pop\n        /* \"#utility.yul\":3492:3557   */\n      tag_214\n        /* \"#utility.yul\":3554:3555   */\n      0x00\n        /* \"#utility.yul\":3543:3552   */\n      dup4\n        /* \"#utility.yul\":3539:3556   */\n      add\n        /* \"#utility.yul\":3530:3536   */\n      dup5\n        /* \"#utility.yul\":3492:3557   */\n      tag_141\n      jump\t// in\n    tag_214:\n        /* \"#utility.yul\":3354:3564   */\n      swap3\n      swap2\n      pop\n      pop\n      jump\t// out\n        /* \"#utility.yul\":3570:3739   */\n    tag_142:\n        /* \"#utility.yul\":3654:3665   */\n      0x00\n        /* \"#utility.yul\":3688:3694   */\n      dup3\n        /* \"#utility.yul\":3683:3686   */\n      dup3\n        /* \"#utility.yul\":3676:3695   */\n      mstore\n        /* \"#utility.yul\":3728:3732   */\n      0x20\n        /* \"#utility.yul\":3723:3726   */\n      dup3\n        /* \"#utility.yul\":3719:3733   */\n      add\n        /* \"#utility.yul\":3704:3733   */\n      swap1\n      pop\n        /* \"#utility.yul\":3570:3739   */\n      swap3\n      swap2\n      pop\n      pop\n      jump\t// out\n        /* \"#utility.yul\":3745:3973   */\n    tag_143:\n        /* \"#utility.yul\":3885:3919   */\n      0x746869732066756e6374696f6e2063616e206f6e6c792062652063616c6c6564\n        /* \"#utility.yul\":3881:3882   */\n      0x00\n        /* \"#utility.yul\":3873:3879   */\n      dup3\n        /* \"#utility.yul\":3869:3883   */\n      add\n        /* \"#utility.yul\":3862:3920   */\n      mstore\n        /* \"#utility.yul\":3954:3965   */\n      0x206279206f776e65720000000000000000000000000000000000000000000000\n        /* \"#utility.yul\":3949:3951   */\n      0x20\n        /* \"#utility.yul\":3941:3947   */\n      dup3\n        /* \"#utility.yul\":3937:3952   */\n      add\n        /* \"#utility.yul\":3930:3966   */\n      mstore\n        /* \"#utility.yul\":3745:3973   */\n      pop\n      jump\t// out\n        /* \"#utility.yul\":3979:4345   */\n    tag_144:\n        /* \"#utility.yul\":4121:4124   */\n      0x00\n        /* \"#utility.yul\":4142:4209   */\n      tag_218\n        /* \"#utility.yul\":4206:4208   */\n      0x29\n        /* \"#utility.yul\":4201:4204   */\n      dup4\n        /* \"#utility.yul\":4142:4209   */\n      tag_142\n      jump\t// in\n    tag_218:\n        /* \"#utility.yul\":4135:4209   */\n      swap2\n      pop\n        /* \"#utility.yul\":4218:4311   */\n      tag_219\n        /* \"#utility.yul\":4307:4310   */\n      dup3\n        /* \"#utility.yul\":4218:4311   */\n      tag_143\n      jump\t// in\n    tag_219:\n        /* \"#utility.yul\":4336:4338   */\n      0x40\n        /* \"#utility.yul\":4331:4334   */\n      dup3\n        /* \"#utility.yul\":4327:4339   */\n      add\n        /* \"#utility.yul\":4320:4339   */\n      swap1\n      pop\n        /* \"#utility.yul\":3979:4345   */\n      swap2\n      swap1\n      pop\n      jump\t// out\n        /* \"#utility.yul\":4351:4770   */\n    tag_59:\n        /* \"#utility.yul\":4517:4521   */\n      0x00\n        /* \"#utility.yul\":4555:4557   */\n      0x20\n        /* \"#utility.yul\":4544:4553   */\n      dup3\n        /* \"#utility.yul\":4540:4558   */\n      add\n        /* \"#utility.yul\":4532:4558   */\n      swap1\n      pop\n        /* \"#utility.yul\":4604:4613   */\n      dup2\n        /* \"#utility.yul\":4598:4602   */\n      dup2\n        /* \"#utility.yul\":4594:4614   */\n      sub\n        /* \"#utility.yul\":4590:4591   */\n      0x00\n        /* \"#utility.yul\":4579:4588   */\n      dup4\n        /* \"#utility.yul\":4575:4592   */\n      add\n        /* \"#utility.yul\":4568:4615   */\n      mstore\n        /* \"#utility.yul\":4632:4763   */\n      tag_221\n        /* \"#utility.yul\":4758:4762   */\n      dup2\n        /* \"#utility.yul\":4632:4763   */\n      tag_144\n      jump\t// in\n    tag_221:\n        /* \"#utility.yul\":4624:4763   */\n      swap1\n      pop\n        /* \"#utility.yul\":4351:4770   */\n      swap2\n      swap1\n      pop\n      jump\t// out\n        /* \"#utility.yul\":4776:4956   */\n    tag_145:\n        /* \"#utility.yul\":4824:4901   */\n      0x4e487b7100000000000000000000000000000000000000000000000000000000\n        /* \"#utility.yul\":4821:4822   */\n      0x00\n        /* \"#utility.yul\":4814:4902   */\n      mstore\n        /* \"#utility.yul\":4921:4925   */\n      0x11\n        /* \"#utility.yul\":4918:4919   */\n      0x04\n        /* \"#utility.yul\":4911:4926   */\n      mstore\n        /* \"#utility.yul\":4945:4949   */\n      0x24\n        /* \"#utility.yul\":4942:4943   */\n      0x00\n        /* \"#utility.yul\":4935:4950   */\n      revert\n        /* \"#utility.yul\":4962:5153   */\n    tag_63:\n        /* \"#utility.yul\":5002:5005   */\n      0x00\n        /* \"#utility.yul\":5021:5041   */\n      tag_224\n        /* \"#utility.yul\":5039:5040   */\n      dup3\n        /* \"#utility.yul\":5021:5041   */\n      tag_134\n      jump\t// in\n    tag_224:\n        /* \"#utility.yul\":5016:5041   */\n      swap2\n      pop\n        /* \"#utility.yul\":5055:5075   */\n      tag_225\n        /* \"#utility.yul\":5073:5074   */\n      dup4\n        /* \"#utility.yul\":5055:5075   */\n      tag_134\n      jump\t// in\n    tag_225:\n        /* \"#utility.yul\":5050:5075   */\n      swap3\n      pop\n        /* \"#utility.yul\":5098:5099   */\n      dup3\n        /* \"#utility.yul\":5095:5096   */\n      dup3\n        /* \"#utility.yul\":5091:5100   */\n      add\n        /* \"#utility.yul\":5084:5100   */\n      swap1\n      pop\n        /* \"#utility.yul\":5119:5122   */\n      dup1\n        /* \"#utility.yul\":5116:5117   */\n      dup3\n        /* \"#utility.yul\":5113:5123   */\n      gt\n        /* \"#utility.yul\":5110:5146   */\n      iszero\n      tag_226\n      jumpi\n        /* \"#utility.yul\":5126:5144   */\n      tag_227\n      tag_145\n      jump\t// in\n    tag_227:\n        /* \"#utility.yul\":5110:5146   */\n    tag_226:\n        /* \"#utility.yul\":4962:5153   */\n      swap3\n      swap2\n      pop\n      pop\n      jump\t// out\n        /* \"#utility.yul\":5159:5328   */\n    tag_146:\n        /* \"#utility.yul\":5299:5320   */\n      0x77696e646f77206973206e6f7420636c6f736500000000000000000000000000\n        /* \"#utility.yul\":5295:5296   */\n      0x00\n        /* \"#utility.yul\":5287:5293   */\n      dup3\n        /* \"#utility.yul\":5283:5297   */\n      add\n        /* \"#utility.yul\":5276:5321   */\n      mstore\n        /* \"#utility.yul\":5159:5328   */\n      pop\n      jump\t// out\n        /* \"#utility.yul\":5334:5700   */\n    tag_147:\n        /* \"#utility.yul\":5476:5479   */\n      0x00\n        /* \"#utility.yul\":5497:5564   */\n      tag_230\n        /* \"#utility.yul\":5561:5563   */\n      0x13\n        /* \"#utility.yul\":5556:5559   */\n      dup4\n        /* \"#utility.yul\":5497:5564   */\n      tag_142\n      jump\t// in\n    tag_230:\n        /* \"#utility.yul\":5490:5564   */\n      swap2\n      pop\n        /* \"#utility.yul\":5573:5666   */\n      tag_231\n        /* \"#utility.yul\":5662:5665   */\n      dup3\n        /* \"#utility.yul\":5573:5666   */\n      tag_146\n      jump\t// in\n    tag_231:\n        /* \"#utility.yul\":5691:5693   */\n      0x20\n        /* \"#utility.yul\":5686:5689   */\n      dup3\n        /* \"#utility.yul\":5682:5694   */\n      add\n        /* \"#utility.yul\":5675:5694   */\n      swap1\n      pop\n        /* \"#utility.yul\":5334:5700   */\n      swap2\n      swap1\n      pop\n      jump\t// out\n        /* \"#utility.yul\":5706:6125   */\n    tag_66:\n        /* \"#utility.yul\":5872:5876   */\n      0x00\n        /* \"#utility.yul\":5910:5912   */\n      0x20\n        /* \"#utility.yul\":5899:5908   */\n      dup3\n        /* \"#utility.yul\":5895:5913   */\n      add\n        /* \"#utility.yul\":5887:5913   */\n      swap1\n      pop\n        /* \"#utility.yul\":5959:5968   */\n      dup2\n        /* \"#utility.yul\":5953:5957   */\n      dup2\n        /* \"#utility.yul\":5949:5969   */\n      sub\n        /* \"#utility.yul\":5945:5946   */\n      0x00\n        /* \"#utility.yul\":5934:5943   */\n      dup4\n        /* \"#utility.yul\":5930:5947   */\n      add\n        /* \"#utility.yul\":5923:5970   */\n      mstore\n        /* \"#utility.yul\":5987:6118   */\n      tag_233\n        /* \"#utility.yul\":6113:6117   */\n      dup2\n        /* \"#utility.yul\":5987:6118   */\n      tag_147\n      jump\t// in\n    tag_233:\n        /* \"#utility.yul\":5979:6118   */\n      swap1\n      pop\n        /* \"#utility.yul\":5706:6125   */\n      swap2\n      swap1\n      pop\n      jump\t// out\n        /* \"#utility.yul\":6131:6298   */\n    tag_148:\n        /* \"#utility.yul\":6271:6290   */\n      0x5461726765742069732072656163686564000000000000000000000000000000\n        /* \"#utility.yul\":6267:6268   */\n      0x00\n        /* \"#utility.yul\":6259:6265   */\n      dup3\n        /* \"#utility.yul\":6255:6269   */\n      add\n        /* \"#utility.yul\":6248:6291   */\n      mstore\n        /* \"#utility.yul\":6131:6298   */\n      pop\n      jump\t// out\n        /* \"#utility.yul\":6304:6670   */\n    tag_149:\n        /* \"#utility.yul\":6446:6449   */\n      0x00\n        /* \"#utility.yul\":6467:6534   */\n      tag_236\n        /* \"#utility.yul\":6531:6533   */\n      0x11\n        /* \"#utility.yul\":6526:6529   */\n      dup4\n        /* \"#utility.yul\":6467:6534   */\n      tag_142\n      jump\t// in\n    tag_236:\n        /* \"#utility.yul\":6460:6534   */\n      swap2\n      pop\n        /* \"#utility.yul\":6543:6636   */\n      tag_237\n        /* \"#utility.yul\":6632:6635   */\n      dup3\n        /* \"#utility.yul\":6543:6636   */\n      tag_148\n      jump\t// in\n    tag_237:\n        /* \"#utility.yul\":6661:6663   */\n      0x20\n        /* \"#utility.yul\":6656:6659   */\n      dup3\n        /* \"#utility.yul\":6652:6664   */\n      add\n        /* \"#utility.yul\":6645:6664   */\n      swap1\n      pop\n        /* \"#utility.yul\":6304:6670   */\n      swap2\n      swap1\n      pop\n      jump\t// out\n        /* \"#utility.yul\":6676:7095   */\n    tag_72:\n        /* \"#utility.yul\":6842:6846   */\n      0x00\n        /* \"#utility.yul\":6880:6882   */\n      0x20\n        /* \"#utility.yul\":6869:6878   */\n      dup3\n        /* \"#utility.yul\":6865:6883   */\n      add\n        /* \"#utility.yul\":6857:6883   */\n      swap1\n      pop\n        /* \"#utility.yul\":6929:6938   */\n      dup2\n        /* \"#utility.yul\":6923:6927   */\n      dup2\n        /* \"#utility.yul\":6919:6939   */\n      sub\n        /* \"#utility.yul\":6915:6916   */\n      0x00\n        /* \"#utility.yul\":6904:6913   */\n      dup4\n        /* \"#utility.yul\":6900:6917   */\n      add\n        /* \"#utility.yul\":6893:6940   */\n      mstore\n        /* \"#utility.yul\":6957:7088   */\n      tag_239\n        /* \"#utility.yul\":7083:7087   */\n      dup2\n        /* \"#utility.yul\":6957:7088   */\n      tag_149\n      jump\t// in\n    tag_239:\n        /* \"#utility.yul\":6949:7088   */\n      swap1\n      pop\n        /* \"#utility.yul\":6676:7095   */\n      swap2\n      swap1\n      pop\n      jump\t// out\n        /* \"#utility.yul\":7101:7276   */\n    tag_150:\n        /* \"#utility.yul\":7241:7268   */\n      0x7468657265206973206e6f2066756e6420666f7220796f752000000000000000\n        /* \"#utility.yul\":7237:7238   */\n      0x00\n        /* \"#utility.yul\":7229:7235   */\n      dup3\n        /* \"#utility.yul\":7225:7239   */\n      add\n        /* \"#utility.yul\":7218:7269   */\n      mstore\n        /* \"#utility.yul\":7101:7276   */\n      pop\n      jump\t// out\n        /* \"#utility.yul\":7282:7648   */\n    tag_151:\n        /* \"#utility.yul\":7424:7427   */\n      0x00\n        /* \"#utility.yul\":7445:7512   */\n      tag_242\n        /* \"#utility.yul\":7509:7511   */\n      0x19\n        /* \"#utility.yul\":7504:7507   */\n      dup4\n        /* \"#utility.yul\":7445:7512   */\n      tag_142\n      jump\t// in\n    tag_242:\n        /* \"#utility.yul\":7438:7512   */\n      swap2\n      pop\n        /* \"#utility.yul\":7521:7614   */\n      tag_243\n        /* \"#utility.yul\":7610:7613   */\n      dup3\n        /* \"#utility.yul\":7521:7614   */\n      tag_150\n      jump\t// in\n    tag_243:\n        /* \"#utility.yul\":7639:7641   */\n      0x20\n        /* \"#utility.yul\":7634:7637   */\n      dup3\n        /* \"#utility.yul\":7630:7642   */\n      add\n        /* \"#utility.yul\":7623:7642   */\n      swap1\n      pop\n        /* \"#utility.yul\":7282:7648   */\n      swap2\n      swap1\n      pop\n      jump\t// out\n        /* \"#utility.yul\":7654:8073   */\n    tag_75:\n        /* \"#utility.yul\":7820:7824   */\n      0x00\n        /* \"#utility.yul\":7858:7860   */\n      0x20\n        /* \"#utility.yul\":7847:7856   */\n      dup3\n        /* \"#utility.yul\":7843:7861   */\n      add\n        /* \"#utility.yul\":7835:7861   */\n      swap1\n      pop\n        /* \"#utility.yul\":7907:7916   */\n      dup2\n        /* \"#utility.yul\":7901:7905   */\n      dup2\n        /* \"#utility.yul\":7897:7917   */\n      sub\n        /* \"#utility.yul\":7893:7894   */\n      0x00\n        /* \"#utility.yul\":7882:7891   */\n      dup4\n        /* \"#utility.yul\":7878:7895   */\n      add\n        /* \"#utility.yul\":7871:7918   */\n      mstore\n        /* \"#utility.yul\":7935:8066   */\n      tag_245\n        /* \"#utility.yul\":8061:8065   */\n      dup2\n        /* \"#utility.yul\":7935:8066   */\n      tag_151\n      jump\t// in\n    tag_245:\n        /* \"#utility.yul\":7927:8066   */\n      swap1\n      pop\n        /* \"#utility.yul\":7654:8073   */\n      swap2\n      swap1\n      pop\n      jump\t// out\n        /* \"#utility.yul\":8079:8226   */\n    tag_152:\n        /* \"#utility.yul\":8180:8191   */\n      0x00\n        /* \"#utility.yul\":8217:8220   */\n      dup2\n        /* \"#utility.yul\":8202:8220   */\n      swap1\n      pop\n        /* \"#utility.yul\":8079:8226   */\n      swap3\n      swap2\n      pop\n      pop\n      jump\t// out\n        /* \"#utility.yul\":8232:8346   */\n    tag_153:\n      pop\n      jump\t// out\n        /* \"#utility.yul\":8352:8750   */\n    tag_154:\n        /* \"#utility.yul\":8511:8514   */\n      0x00\n        /* \"#utility.yul\":8532:8615   */\n      tag_249\n        /* \"#utility.yul\":8613:8614   */\n      0x00\n        /* \"#utility.yul\":8608:8611   */\n      dup4\n        /* \"#utility.yul\":8532:8615   */\n      tag_152\n      jump\t// in\n    tag_249:\n        /* \"#utility.yul\":8525:8615   */\n      swap2\n      pop\n        /* \"#utility.yul\":8624:8717   */\n      tag_250\n        /* \"#utility.yul\":8713:8716   */\n      dup3\n        /* \"#utility.yul\":8624:8717   */\n      tag_153\n      jump\t// in\n    tag_250:\n        /* \"#utility.yul\":8742:8743   */\n      0x00\n        /* \"#utility.yul\":8737:8740   */\n      dup3\n        /* \"#utility.yul\":8733:8744   */\n      add\n        /* \"#utility.yul\":8726:8744   */\n      swap1\n      pop\n        /* \"#utility.yul\":8352:8750   */\n      swap2\n      swap1\n      pop\n      jump\t// out\n        /* \"#utility.yul\":8756:9135   */\n    tag_77:\n        /* \"#utility.yul\":8940:8943   */\n      0x00\n        /* \"#utility.yul\":8962:9109   */\n      tag_252\n        /* \"#utility.yul\":9105:9108   */\n      dup3\n        /* \"#utility.yul\":8962:9109   */\n      tag_154\n      jump\t// in\n    tag_252:\n        /* \"#utility.yul\":8955:9109   */\n      swap2\n      pop\n        /* \"#utility.yul\":9126:9129   */\n      dup2\n        /* \"#utility.yul\":9119:9129   */\n      swap1\n      pop\n        /* \"#utility.yul\":8756:9135   */\n      swap2\n      swap1\n      pop\n      jump\t// out\n        /* \"#utility.yul\":9141:9309   */\n    tag_155:\n        /* \"#utility.yul\":9281:9301   */\n      0x7472616e73666572207478206661696c65640000000000000000000000000000\n        /* \"#utility.yul\":9277:9278   */\n      0x00\n        /* \"#utility.yul\":9269:9275   */\n      dup3\n        /* \"#utility.yul\":9265:9279   */\n      add\n        /* \"#utility.yul\":9258:9302   */\n      mstore\n        /* \"#utility.yul\":9141:9309   */\n      pop\n      jump\t// out\n        /* \"#utility.yul\":9315:9681   */\n    tag_156:\n        /* \"#utility.yul\":9457:9460   */\n      0x00\n        /* \"#utility.yul\":9478:9545   */\n      tag_255\n        /* \"#utility.yul\":9542:9544   */\n      0x12\n        /* \"#utility.yul\":9537:9540   */\n      dup4\n        /* \"#utility.yul\":9478:9545   */\n      tag_142\n      jump\t// in\n    tag_255:\n        /* \"#utility.yul\":9471:9545   */\n      swap2\n      pop\n        /* \"#utility.yul\":9554:9647   */\n      tag_256\n        /* \"#utility.yul\":9643:9646   */\n      dup3\n        /* \"#utility.yul\":9554:9647   */\n      tag_155\n      jump\t// in\n    tag_256:\n        /* \"#utility.yul\":9672:9674   */\n      0x20\n        /* \"#utility.yul\":9667:9670   */\n      dup3\n        /* \"#utility.yul\":9663:9675   */\n      add\n        /* \"#utility.yul\":9656:9675   */\n      swap1\n      pop\n        /* \"#utility.yul\":9315:9681   */\n      swap2\n      swap1\n      pop\n      jump\t// out\n        /* \"#utility.yul\":9687:10106   */\n    tag_83:\n        /* \"#utility.yul\":9853:9857   */\n      0x00\n        /* \"#utility.yul\":9891:9893   */\n      0x20\n        /* \"#utility.yul\":9880:9889   */\n      dup3\n        /* \"#utility.yul\":9876:9894   */\n      add\n        /* \"#utility.yul\":9868:9894   */\n      swap1\n      pop\n        /* \"#utility.yul\":9940:9949   */\n      dup2\n        /* \"#utility.yul\":9934:9938   */\n      dup2\n        /* \"#utility.yul\":9930:9950   */\n      sub\n        /* \"#utility.yul\":9926:9927   */\n      0x00\n        /* \"#utility.yul\":9915:9924   */\n      dup4\n        /* \"#utility.yul\":9911:9928   */\n      add\n        /* \"#utility.yul\":9904:9951   */\n      mstore\n        /* \"#utility.yul\":9968:10099   */\n      tag_258\n        /* \"#utility.yul\":10094:10098   */\n      dup2\n        /* \"#utility.yul\":9968:10099   */\n      tag_156\n      jump\t// in\n    tag_258:\n        /* \"#utility.yul\":9960:10099   */\n      swap1\n      pop\n        /* \"#utility.yul\":9687:10106   */\n      swap2\n      swap1\n      pop\n      jump\t// out\n        /* \"#utility.yul\":10112:10283   */\n    tag_157:\n        /* \"#utility.yul\":10252:10275   */\n      0x546172676574206973206e6f7420726561636865640000000000000000000000\n        /* \"#utility.yul\":10248:10249   */\n      0x00\n        /* \"#utility.yul\":10240:10246   */\n      dup3\n        /* \"#utility.yul\":10236:10250   */\n      add\n        /* \"#utility.yul\":10229:10276   */\n      mstore\n        /* \"#utility.yul\":10112:10283   */\n      pop\n      jump\t// out\n        /* \"#utility.yul\":10289:10655   */\n    tag_158:\n        /* \"#utility.yul\":10431:10434   */\n      0x00\n        /* \"#utility.yul\":10452:10519   */\n      tag_261\n        /* \"#utility.yul\":10516:10518   */\n      0x15\n        /* \"#utility.yul\":10511:10514   */\n      dup4\n        /* \"#utility.yul\":10452:10519   */\n      tag_142\n      jump\t// in\n    tag_261:\n        /* \"#utility.yul\":10445:10519   */\n      swap2\n      pop\n        /* \"#utility.yul\":10528:10621   */\n      tag_262\n        /* \"#utility.yul\":10617:10620   */\n      dup3\n        /* \"#utility.yul\":10528:10621   */\n      tag_157\n      jump\t// in\n    tag_262:\n        /* \"#utility.yul\":10646:10648   */\n      0x20\n        /* \"#utility.yul\":10641:10644   */\n      dup3\n        /* \"#utility.yul\":10637:10649   */\n      add\n        /* \"#utility.yul\":10630:10649   */\n      swap1\n      pop\n        /* \"#utility.yul\":10289:10655   */\n      swap2\n      swap1\n      pop\n      jump\t// out\n        /* \"#utility.yul\":10661:11080   */\n    tag_95:\n        /* \"#utility.yul\":10827:10831   */\n      0x00\n        /* \"#utility.yul\":10865:10867   */\n      0x20\n        /* \"#utility.yul\":10854:10863   */\n      dup3\n        /* \"#utility.yul\":10850:10868   */\n      add\n        /* \"#utility.yul\":10842:10868   */\n      swap1\n      pop\n        /* \"#utility.yul\":10914:10923   */\n      dup2\n        /* \"#utility.yul\":10908:10912   */\n      dup2\n        /* \"#utility.yul\":10904:10924   */\n      sub\n        /* \"#utility.yul\":10900:10901   */\n      0x00\n        /* \"#utility.yul\":10889:10898   */\n      dup4\n        /* \"#utility.yul\":10885:10902   */\n      add\n        /* \"#utility.yul\":10878:10925   */\n      mstore\n        /* \"#utility.yul\":10942:11073   */\n      tag_264\n        /* \"#utility.yul\":11068:11072   */\n      dup2\n        /* \"#utility.yul\":10942:11073   */\n      tag_158\n      jump\t// in\n    tag_264:\n        /* \"#utility.yul\":10934:11073   */\n      swap1\n      pop\n        /* \"#utility.yul\":10661:11080   */\n      swap2\n      swap1\n      pop\n      jump\t// out\n        /* \"#utility.yul\":11086:11249   */\n    tag_159:\n        /* \"#utility.yul\":11226:11241   */\n      0x53656e64206d6f72652045544800000000000000000000000000000000000000\n        /* \"#utility.yul\":11222:11223   */\n      0x00\n        /* \"#utility.yul\":11214:11220   */\n      dup3\n        /* \"#utility.yul\":11210:11224   */\n      add\n        /* \"#utility.yul\":11203:11242   */\n      mstore\n        /* \"#utility.yul\":11086:11249   */\n      pop\n      jump\t// out\n        /* \"#utility.yul\":11255:11621   */\n    tag_160:\n        /* \"#utility.yul\":11397:11400   */\n      0x00\n        /* \"#utility.yul\":11418:11485   */\n      tag_267\n        /* \"#utility.yul\":11482:11484   */\n      0x0d\n        /* \"#utility.yul\":11477:11480   */\n      dup4\n        /* \"#utility.yul\":11418:11485   */\n      tag_142\n      jump\t// in\n    tag_267:\n        /* \"#utility.yul\":11411:11485   */\n      swap2\n      pop\n        /* \"#utility.yul\":11494:11587   */\n      tag_268\n        /* \"#utility.yul\":11583:11586   */\n      dup3\n        /* \"#utility.yul\":11494:11587   */\n      tag_159\n      jump\t// in\n    tag_268:\n        /* \"#utility.yul\":11612:11614   */\n      0x20\n        /* \"#utility.yul\":11607:11610   */\n      dup3\n        /* \"#utility.yul\":11603:11615   */\n      add\n        /* \"#utility.yul\":11596:11615   */\n      swap1\n      pop\n        /* \"#utility.yul\":11255:11621   */\n      swap2\n      swap1\n      pop\n      jump\t// out\n        /* \"#utility.yul\":11627:12046   */\n    tag_106:\n        /* \"#utility.yul\":11793:11797   */\n      0x00\n        /* \"#utility.yul\":11831:11833   */\n      0x20\n        /* \"#utility.yul\":11820:11829   */\n      dup3\n        /* \"#utility.yul\":11816:11834   */\n      add\n        /* \"#utility.yul\":11808:11834   */\n      swap1\n      pop\n        /* \"#utility.yul\":11880:11889   */\n      dup2\n        /* \"#utility.yul\":11874:11878   */\n      dup2\n        /* \"#utility.yul\":11870:11890   */\n      sub\n        /* \"#utility.yul\":11866:11867   */\n      0x00\n        /* \"#utility.yul\":11855:11864   */\n      dup4\n        /* \"#utility.yul\":11851:11868   */\n      add\n        /* \"#utility.yul\":11844:11891   */\n      mstore\n        /* \"#utility.yul\":11908:12039   */\n      tag_270\n        /* \"#utility.yul\":12034:12038   */\n      dup2\n        /* \"#utility.yul\":11908:12039   */\n      tag_160\n      jump\t// in\n    tag_270:\n        /* \"#utility.yul\":11900:12039   */\n      swap1\n      pop\n        /* \"#utility.yul\":11627:12046   */\n      swap2\n      swap1\n      pop\n      jump\t// out\n        /* \"#utility.yul\":12052:12157   */\n    tag_161:\n        /* \"#utility.yul\":12088:12095   */\n      0x00\n        /* \"#utility.yul\":12128:12150   */\n      0xffffffffffffffffffff\n        /* \"#utility.yul\":12121:12126   */\n      dup3\n        /* \"#utility.yul\":12117:12151   */\n      and\n        /* \"#utility.yul\":12106:12151   */\n      swap1\n      pop\n        /* \"#utility.yul\":12052:12157   */\n      swap2\n      swap1\n      pop\n      jump\t// out\n        /* \"#utility.yul\":12163:12283   */\n    tag_162:\n        /* \"#utility.yul\":12235:12258   */\n      tag_273\n        /* \"#utility.yul\":12252:12257   */\n      dup2\n        /* \"#utility.yul\":12235:12258   */\n      tag_161\n      jump\t// in\n    tag_273:\n        /* \"#utility.yul\":12228:12233   */\n      dup2\n        /* \"#utility.yul\":12225:12259   */\n      eq\n        /* \"#utility.yul\":12215:12277   */\n      tag_274\n      jumpi\n        /* \"#utility.yul\":12273:12274   */\n      0x00\n        /* \"#utility.yul\":12270:12271   */\n      dup1\n        /* \"#utility.yul\":12263:12275   */\n      revert\n        /* \"#utility.yul\":12215:12277   */\n    tag_274:\n        /* \"#utility.yul\":12163:12283   */\n      pop\n      jump\t// out\n        /* \"#utility.yul\":12289:12430   */\n    tag_163:\n        /* \"#utility.yul\":12345:12350   */\n      0x00\n        /* \"#utility.yul\":12376:12382   */\n      dup2\n        /* \"#utility.yul\":12370:12383   */\n      mload\n        /* \"#utility.yul\":12361:12383   */\n      swap1\n      pop\n        /* \"#utility.yul\":12392:12424   */\n      tag_276\n        /* \"#utility.yul\":12418:12423   */\n      dup2\n        /* \"#utility.yul\":12392:12424   */\n      tag_162\n      jump\t// in\n    tag_276:\n        /* \"#utility.yul\":12289:12430   */\n      swap3\n      swap2\n      pop\n      pop\n      jump\t// out\n        /* \"#utility.yul\":12436:12556   */\n    tag_164:\n        /* \"#utility.yul\":12508:12531   */\n      tag_278\n        /* \"#utility.yul\":12525:12530   */\n      dup2\n        /* \"#utility.yul\":12508:12531   */\n      tag_136\n      jump\t// in\n    tag_278:\n        /* \"#utility.yul\":12501:12506   */\n      dup2\n        /* \"#utility.yul\":12498:12532   */\n      eq\n        /* \"#utility.yul\":12488:12550   */\n      tag_279\n      jumpi\n        /* \"#utility.yul\":12546:12547   */\n      0x00\n        /* \"#utility.yul\":12543:12544   */\n      dup1\n        /* \"#utility.yul\":12536:12548   */\n      revert\n        /* \"#utility.yul\":12488:12550   */\n    tag_279:\n        /* \"#utility.yul\":12436:12556   */\n      pop\n      jump\t// out\n        /* \"#utility.yul\":12562:12703   */\n    tag_165:\n        /* \"#utility.yul\":12618:12623   */\n      0x00\n        /* \"#utility.yul\":12649:12655   */\n      dup2\n        /* \"#utility.yul\":12643:12656   */\n      mload\n        /* \"#utility.yul\":12634:12656   */\n      swap1\n      pop\n        /* \"#utility.yul\":12665:12697   */\n      tag_281\n        /* \"#utility.yul\":12691:12696   */\n      dup2\n        /* \"#utility.yul\":12665:12697   */\n      tag_164\n      jump\t// in\n    tag_281:\n        /* \"#utility.yul\":12562:12703   */\n      swap3\n      swap2\n      pop\n      pop\n      jump\t// out\n        /* \"#utility.yul\":12709:12852   */\n    tag_166:\n        /* \"#utility.yul\":12766:12771   */\n      0x00\n        /* \"#utility.yul\":12797:12803   */\n      dup2\n        /* \"#utility.yul\":12791:12804   */\n      mload\n        /* \"#utility.yul\":12782:12804   */\n      swap1\n      pop\n        /* \"#utility.yul\":12813:12846   */\n      tag_283\n        /* \"#utility.yul\":12840:12845   */\n      dup2\n        /* \"#utility.yul\":12813:12846   */\n      tag_138\n      jump\t// in\n    tag_283:\n        /* \"#utility.yul\":12709:12852   */\n      swap3\n      swap2\n      pop\n      pop\n      jump\t// out\n        /* \"#utility.yul\":12858:13829   */\n    tag_111:\n        /* \"#utility.yul\":12961:12967   */\n      0x00\n        /* \"#utility.yul\":12969:12975   */\n      dup1\n        /* \"#utility.yul\":12977:12983   */\n      0x00\n        /* \"#utility.yul\":12985:12991   */\n      dup1\n        /* \"#utility.yul\":12993:12999   */\n      0x00\n        /* \"#utility.yul\":13042:13045   */\n      0xa0\n        /* \"#utility.yul\":13030:13039   */\n      dup7\n        /* \"#utility.yul\":13021:13028   */\n      dup9\n        /* \"#utility.yul\":13017:13040   */\n      sub\n        /* \"#utility.yul\":13013:13046   */\n      slt\n        /* \"#utility.yul\":13010:13130   */\n      iszero\n      tag_285\n      jumpi\n        /* \"#utility.yul\":13049:13128   */\n      tag_286\n      tag_127\n      jump\t// in\n    tag_286:\n        /* \"#utility.yul\":13010:13130   */\n    tag_285:\n        /* \"#utility.yul\":13169:13170   */\n      0x00\n        /* \"#utility.yul\":13194:13257   */\n      tag_287\n        /* \"#utility.yul\":13249:13256   */\n      dup9\n        /* \"#utility.yul\":13240:13246   */\n      dup3\n        /* \"#utility.yul\":13229:13238   */\n      dup10\n        /* \"#utility.yul\":13225:13247   */\n      add\n        /* \"#utility.yul\":13194:13257   */\n      tag_163\n      jump\t// in\n    tag_287:\n        /* \"#utility.yul\":13184:13257   */\n      swap6\n      pop\n        /* \"#utility.yul\":13140:13267   */\n      pop\n        /* \"#utility.yul\":13306:13308   */\n      0x20\n        /* \"#utility.yul\":13332:13395   */\n      tag_288\n        /* \"#utility.yul\":13387:13394   */\n      dup9\n        /* \"#utility.yul\":13378:13384   */\n      dup3\n        /* \"#utility.yul\":13367:13376   */\n      dup10\n        /* \"#utility.yul\":13363:13385   */\n      add\n        /* \"#utility.yul\":13332:13395   */\n      tag_165\n      jump\t// in\n    tag_288:\n        /* \"#utility.yul\":13322:13395   */\n      swap5\n      pop\n        /* \"#utility.yul\":13277:13405   */\n      pop\n        /* \"#utility.yul\":13444:13446   */\n      0x40\n        /* \"#utility.yul\":13470:13534   */\n      tag_289\n        /* \"#utility.yul\":13526:13533   */\n      dup9\n        /* \"#utility.yul\":13517:13523   */\n      dup3\n        /* \"#utility.yul\":13506:13515   */\n      dup10\n        /* \"#utility.yul\":13502:13524   */\n      add\n        /* \"#utility.yul\":13470:13534   */\n      tag_166\n      jump\t// in\n    tag_289:\n        /* \"#utility.yul\":13460:13534   */\n      swap4\n      pop\n        /* \"#utility.yul\":13415:13544   */\n      pop\n        /* \"#utility.yul\":13583:13585   */\n      0x60\n        /* \"#utility.yul\":13609:13673   */\n      tag_290\n        /* \"#utility.yul\":13665:13672   */\n      dup9\n        /* \"#utility.yul\":13656:13662   */\n      dup3\n        /* \"#utility.yul\":13645:13654   */\n      dup10\n        /* \"#utility.yul\":13641:13663   */\n      add\n        /* \"#utility.yul\":13609:13673   */\n      tag_166\n      jump\t// in\n    tag_290:\n        /* \"#utility.yul\":13599:13673   */\n      swap3\n      pop\n        /* \"#utility.yul\":13554:13683   */\n      pop\n        /* \"#utility.yul\":13722:13725   */\n      0x80\n        /* \"#utility.yul\":13749:13812   */\n      tag_291\n        /* \"#utility.yul\":13804:13811   */\n      dup9\n        /* \"#utility.yul\":13795:13801   */\n      dup3\n        /* \"#utility.yul\":13784:13793   */\n      dup10\n        /* \"#utility.yul\":13780:13802   */\n      add\n        /* \"#utility.yul\":13749:13812   */\n      tag_163\n      jump\t// in\n    tag_291:\n        /* \"#utility.yul\":13739:13812   */\n      swap2\n      pop\n        /* \"#utility.yul\":13693:13822   */\n      pop\n        /* \"#utility.yul\":12858:13829   */\n      swap3\n      swap6\n      pop\n      swap3\n      swap6\n      swap1\n      swap4\n      pop\n      jump\t// out\n        /* \"#utility.yul\":13835:14069   */\n    tag_167:\n        /* \"#utility.yul\":13975:14009   */\n      0x796f7520646f206e6f742068617665207065726d697373696f6e20746f206361\n        /* \"#utility.yul\":13971:13972   */\n      0x00\n        /* \"#utility.yul\":13963:13969   */\n      dup3\n        /* \"#utility.yul\":13959:13973   */\n      add\n        /* \"#utility.yul\":13952:14010   */\n      mstore\n        /* \"#utility.yul\":14044:14061   */\n      0x6c6c20746869732066756e74696f6e0000000000000000000000000000000000\n        /* \"#utility.yul\":14039:14041   */\n      0x20\n        /* \"#utility.yul\":14031:14037   */\n      dup3\n        /* \"#utility.yul\":14027:14042   */\n      add\n        /* \"#utility.yul\":14020:14062   */\n      mstore\n        /* \"#utility.yul\":13835:14069   */\n      pop\n      jump\t// out\n        /* \"#utility.yul\":14075:14441   */\n    tag_168:\n        /* \"#utility.yul\":14217:14220   */\n      0x00\n        /* \"#utility.yul\":14238:14305   */\n      tag_294\n        /* \"#utility.yul\":14302:14304   */\n      0x2f\n        /* \"#utility.yul\":14297:14300   */\n      dup4\n        /* \"#utility.yul\":14238:14305   */\n      tag_142\n      jump\t// in\n    tag_294:\n        /* \"#utility.yul\":14231:14305   */\n      swap2\n      pop\n        /* \"#utility.yul\":14314:14407   */\n      tag_295\n        /* \"#utility.yul\":14403:14406   */\n      dup3\n        /* \"#utility.yul\":14314:14407   */\n      tag_167\n      jump\t// in\n    tag_295:\n        /* \"#utility.yul\":14432:14434   */\n      0x40\n        /* \"#utility.yul\":14427:14430   */\n      dup3\n        /* \"#utility.yul\":14423:14435   */\n      add\n        /* \"#utility.yul\":14416:14435   */\n      swap1\n      pop\n        /* \"#utility.yul\":14075:14441   */\n      swap2\n      swap1\n      pop\n      jump\t// out\n        /* \"#utility.yul\":14447:14866   */\n    tag_115:\n        /* \"#utility.yul\":14613:14617   */\n      0x00\n        /* \"#utility.yul\":14651:14653   */\n      0x20\n        /* \"#utility.yul\":14640:14649   */\n      dup3\n        /* \"#utility.yul\":14636:14654   */\n      add\n        /* \"#utility.yul\":14628:14654   */\n      swap1\n      pop\n        /* \"#utility.yul\":14700:14709   */\n      dup2\n        /* \"#utility.yul\":14694:14698   */\n      dup2\n        /* \"#utility.yul\":14690:14710   */\n      sub\n        /* \"#utility.yul\":14686:14687   */\n      0x00\n        /* \"#utility.yul\":14675:14684   */\n      dup4\n        /* \"#utility.yul\":14671:14688   */\n      add\n        /* \"#utility.yul\":14664:14711   */\n      mstore\n        /* \"#utility.yul\":14728:14859   */\n      tag_297\n        /* \"#utility.yul\":14854:14858   */\n      dup2\n        /* \"#utility.yul\":14728:14859   */\n      tag_168\n      jump\t// in\n    tag_297:\n        /* \"#utility.yul\":14720:14859   */\n      swap1\n      pop\n        /* \"#utility.yul\":14447:14866   */\n      swap2\n      swap1\n      pop\n      jump\t// out\n        /* \"#utility.yul\":14872:15282   */\n    tag_123:\n        /* \"#utility.yul\":14912:14919   */\n      0x00\n        /* \"#utility.yul\":14935:14955   */\n      tag_299\n        /* \"#utility.yul\":14953:14954   */\n      dup3\n        /* \"#utility.yul\":14935:14955   */\n      tag_134\n      jump\t// in\n    tag_299:\n        /* \"#utility.yul\":14930:14955   */\n      swap2\n      pop\n        /* \"#utility.yul\":14969:14989   */\n      tag_300\n        /* \"#utility.yul\":14987:14988   */\n      dup4\n        /* \"#utility.yul\":14969:14989   */\n      tag_134\n      jump\t// in\n    tag_300:\n        /* \"#utility.yul\":14964:14989   */\n      swap3\n      pop\n        /* \"#utility.yul\":15024:15025   */\n      dup3\n        /* \"#utility.yul\":15021:15022   */\n      dup3\n        /* \"#utility.yul\":15017:15026   */\n      mul\n        /* \"#utility.yul\":15046:15076   */\n      tag_301\n        /* \"#utility.yul\":15064:15075   */\n      dup2\n        /* \"#utility.yul\":15046:15076   */\n      tag_134\n      jump\t// in\n    tag_301:\n        /* \"#utility.yul\":15035:15076   */\n      swap2\n      pop\n        /* \"#utility.yul\":15225:15226   */\n      dup3\n        /* \"#utility.yul\":15216:15223   */\n      dup3\n        /* \"#utility.yul\":15212:15227   */\n      div\n        /* \"#utility.yul\":15209:15210   */\n      dup5\n        /* \"#utility.yul\":15206:15228   */\n      eq\n        /* \"#utility.yul\":15186:15187   */\n      dup4\n        /* \"#utility.yul\":15179:15188   */\n      iszero\n        /* \"#utility.yul\":15159:15242   */\n      or\n        /* \"#utility.yul\":15136:15275   */\n      tag_302\n      jumpi\n        /* \"#utility.yul\":15255:15273   */\n      tag_303\n      tag_145\n      jump\t// in\n    tag_303:\n        /* \"#utility.yul\":15136:15275   */\n    tag_302:\n        /* \"#utility.yul\":14920:15282   */\n      pop\n        /* \"#utility.yul\":14872:15282   */\n      swap3\n      swap2\n      pop\n      pop\n      jump\t// out\n        /* \"#utility.yul\":15288:15468   */\n    tag_169:\n        /* \"#utility.yul\":15336:15413   */\n      0x4e487b7100000000000000000000000000000000000000000000000000000000\n        /* \"#utility.yul\":15333:15334   */\n      0x00\n        /* \"#utility.yul\":15326:15414   */\n      mstore\n        /* \"#utility.yul\":15433:15437   */\n      0x12\n        /* \"#utility.yul\":15430:15431   */\n      0x04\n        /* \"#utility.yul\":15423:15438   */\n      mstore\n        /* \"#utility.yul\":15457:15461   */\n      0x24\n        /* \"#utility.yul\":15454:15455   */\n      0x00\n        /* \"#utility.yul\":15447:15462   */\n      revert\n        /* \"#utility.yul\":15474:15659   */\n    tag_125:\n        /* \"#utility.yul\":15514:15515   */\n      0x00\n        /* \"#utility.yul\":15531:15551   */\n      tag_306\n        /* \"#utility.yul\":15549:15550   */\n      dup3\n        /* \"#utility.yul\":15531:15551   */\n      tag_134\n      jump\t// in\n    tag_306:\n        /* \"#utility.yul\":15526:15551   */\n      swap2\n      pop\n        /* \"#utility.yul\":15565:15585   */\n      tag_307\n        /* \"#utility.yul\":15583:15584   */\n      dup4\n        /* \"#utility.yul\":15565:15585   */\n      tag_134\n      jump\t// in\n    tag_307:\n        /* \"#utility.yul\":15560:15585   */\n      swap3\n      pop\n        /* \"#utility.yul\":15604:15605   */\n      dup3\n        /* \"#utility.yul\":15594:15629   */\n      tag_308\n      jumpi\n        /* \"#utility.yul\":15609:15627   */\n      tag_309\n      tag_169\n      jump\t// in\n    tag_309:\n        /* \"#utility.yul\":15594:15629   */\n    tag_308:\n        /* \"#utility.yul\":15651:15652   */\n      dup3\n        /* \"#utility.yul\":15648:15649   */\n      dup3\n        /* \"#utility.yul\":15644:15653   */\n      div\n        /* \"#utility.yul\":15639:15653   */\n      swap1\n      pop\n        /* \"#utility.yul\":15474:15659   */\n      swap3\n      swap2\n      pop\n      pop\n      jump\t// out\n\n    auxdata: 0xa2646970667358221220d5a68dbabb813207d517629ef416447ce1d3c2ed5bc3d56a6ebf56b9811cd3b364736f6c634300081a0033\n}\n",
				"bytecode": {
					"linkReferences": {},
					"object": "60806040525f600560146101000a81548160ff021916908315150217905550348015610029575f80fd5b506040516113c33803806113c3833981810160405281019061004b919061012a565b731ac55d145062c48ddda47f1ab2c5b7b0129842d560015f6101000a81548173ffffffffffffffffffffffffffffffffffffffff021916908373ffffffffffffffffffffffffffffffffffffffff1602179055503360025f6101000a81548173ffffffffffffffffffffffffffffffffffffffff021916908373ffffffffffffffffffffffffffffffffffffffff160217905550426003819055508060048190555050610155565b5f80fd5b5f819050919050565b610109816100f7565b8114610113575f80fd5b50565b5f8151905061012481610100565b92915050565b5f6020828403121561013f5761013e6100f3565b5b5f61014c84828501610116565b91505092915050565b611261806101625f395ff3fe608060405260043610610090575f3560e01c8063b60d428811610058578063b60d42881461014e578063bea4dfb514610158578063d39cf00614610182578063da4658e0146101aa578063f2fde38b146101d457610090565b806313ffff0114610094578063590e1ae3146100bc5780638da5cb5b146100d25780638edd6eb6146100fc5780639f883a0514610112575b5f80fd5b34801561009f575f80fd5b506100ba60048036038101906100b59190610b0c565b6101fc565b005b3480156100c7575f80fd5b506100d06102ce565b005b3480156100dd575f80fd5b506100e6610536565b6040516100f39190610b46565b60405180910390f35b348015610107575f80fd5b5061011061055b565b005b34801561011d575f80fd5b5061013860048036038101906101339190610b0c565b61077e565b6040516101459190610b77565b60405180910390f35b610156610792565b005b348015610163575f80fd5b5061016c610829565b6040516101799190610ba8565b60405180910390f35b34801561018d575f80fd5b506101a860048036038101906101a39190610beb565b6108c6565b005b3480156101b5575f80fd5b506101be61099a565b6040516101cb9190610c43565b60405180910390f35b3480156101df575f80fd5b506101fa60048036038101906101f59190610b0c565b6109ad565b005b60025f9054906101000a900473ffffffffffffffffffffffffffffffffffffffff1673ffffffffffffffffffffffffffffffffffffffff163373ffffffffffffffffffffffffffffffffffffffff161461028b576040517f08c379a000000000000000000000000000000000000000000000000000000000815260040161028290610cdc565b60405180910390fd5b8060055f6101000a81548173ffffffffffffffffffffffffffffffffffffffff021916908373ffffffffffffffffffffffffffffffffffffffff16021790555050565b6004546003546102de9190610d27565b421015610320576040517f08c379a000000000000000000000000000000000000000000000000000000000815260040161031790610da4565b60405180910390fd5b683635c9adc5dea0000061033347610a7f565b10610373576040517f08c379a000000000000000000000000000000000000000000000000000000000815260040161036a90610e0c565b60405180910390fd5b5f805f3373ffffffffffffffffffffffffffffffffffffffff1673ffffffffffffffffffffffffffffffffffffffff1681526020019081526020015f2054036103f1576040517f08c379a00000000000000000000000000000000000000000000000000000000081526004016103e890610e74565b60405180910390fd5b5f3373ffffffffffffffffffffffffffffffffffffffff165f803373ffffffffffffffffffffffffffffffffffffffff1673ffffffffffffffffffffffffffffffffffffffff1681526020019081526020015f205460405161045290610ebf565b5f6040518083038185875af1925050503d805f811461048c576040519150601f19603f3d011682016040523d82523d5f602084013e610491565b606091505b505080915050806104d7576040517f08c379a00000000000000000000000000000000000000000000000000000000081526004016104ce90610f1d565b60405180910390fd5b5f805f3373ffffffffffffffffffffffffffffffffffffffff1673ffffffffffffffffffffffffffffffffffffffff1681526020019081526020015f20819055506001600560146101000a81548160ff02191690831515021790555050565b60025f9054906101000a900473ffffffffffffffffffffffffffffffffffffffff1681565b60045460035461056b9190610d27565b4210156105ad576040517f08c379a00000000000000000000000000000000000000000000000000000000081526004016105a490610da4565b60405180910390fd5b60025f9054906101000a900473ffffffffffffffffffffffffffffffffffffffff1673ffffffffffffffffffffffffffffffffffffffff163373ffffffffffffffffffffffffffffffffffffffff161461063c576040517f08c379a000000000000000000000000000000000000000000000000000000000815260040161063390610cdc565b60405180910390fd5b683635c9adc5dea0000061064f47610a7f565b1015610690576040517f08c379a000000000000000000000000000000000000000000000000000000000815260040161068790610f85565b60405180910390fd5b5f3373ffffffffffffffffffffffffffffffffffffffff16476040516106b590610ebf565b5f6040518083038185875af1925050503d805f81146106ef576040519150601f19603f3d011682016040523d82523d5f602084013e6106f4565b606091505b5050809150508061073a576040517f08c379a000000000000000000000000000000000000000000000000000000000815260040161073190610f1d565b60405180910390fd5b5f805f3373ffffffffffffffffffffffffffffffffffffffff1673ffffffffffffffffffffffffffffffffffffffff1681526020019081526020015f208190555050565b5f602052805f5260405f205f915090505481565b68056bc75e2d631000006107a534610a7f565b10156107e6576040517f08c379a00000000000000000000000000000000000000000000000000000000081526004016107dd90610fed565b60405180910390fd5b345f803373ffffffffffffffffffffffffffffffffffffffff1673ffffffffffffffffffffffffffffffffffffffff1681526020019081526020015f2081905550565b5f8060015f9054906101000a900473ffffffffffffffffffffffffffffffffffffffff1673ffffffffffffffffffffffffffffffffffffffff1663feaf968c6040518163ffffffff1660e01b815260040160a060405180830381865afa158015610895573d5f803e3d5ffd5b505050506040513d601f19601f820116820180604052508101906108b99190611088565b5050509150508091505090565b60055f9054906101000a900473ffffffffffffffffffffffffffffffffffffffff1673ffffffffffffffffffffffffffffffffffffffff163373ffffffffffffffffffffffffffffffffffffffff1614610955576040517f08c379a000000000000000000000000000000000000000000000000000000000815260040161094c9061116f565b60405180910390fd5b805f808473ffffffffffffffffffffffffffffffffffffffff1673ffffffffffffffffffffffffffffffffffffffff1681526020019081526020015f20819055505050565b600560149054906101000a900460ff1681565b60025f9054906101000a900473ffffffffffffffffffffffffffffffffffffffff1673ffffffffffffffffffffffffffffffffffffffff163373ffffffffffffffffffffffffffffffffffffffff1614610a3c576040517f08c379a0000000000000000000000000000000000000000000000000000000008152600401610a3390610cdc565b60405180910390fd5b8060025f6101000a81548173ffffffffffffffffffffffffffffffffffffffff021916908373ffffffffffffffffffffffffffffffffffffffff16021790555050565b5f80610a89610829565b90506305f5e1008184610a9c919061118d565b610aa691906111fb565b915050919050565b5f80fd5b5f73ffffffffffffffffffffffffffffffffffffffff82169050919050565b5f610adb82610ab2565b9050919050565b610aeb81610ad1565b8114610af5575f80fd5b50565b5f81359050610b0681610ae2565b92915050565b5f60208284031215610b2157610b20610aae565b5b5f610b2e84828501610af8565b91505092915050565b610b4081610ad1565b82525050565b5f602082019050610b595f830184610b37565b92915050565b5f819050919050565b610b7181610b5f565b82525050565b5f602082019050610b8a5f830184610b68565b92915050565b5f819050919050565b610ba281610b90565b82525050565b5f602082019050610bbb5f830184610b99565b92915050565b610bca81610b5f565b8114610bd4575f80fd5b50565b5f81359050610be581610bc1565b92915050565b5f8060408385031215610c0157610c00610aae565b5b5f610c0e85828601610af8565b9250506020610c1f85828601610bd7565b9150509250929050565b5f8115159050919050565b610c3d81610c29565b82525050565b5f602082019050610c565f830184610c34565b92915050565b5f82825260208201905092915050565b7f746869732066756e6374696f6e2063616e206f6e6c792062652063616c6c65645f8201527f206279206f776e65720000000000000000000000000000000000000000000000602082015250565b5f610cc6602983610c5c565b9150610cd182610c6c565b604082019050919050565b5f6020820190508181035f830152610cf381610cba565b9050919050565b7f4e487b71000000000000000000000000000000000000000000000000000000005f52601160045260245ffd5b5f610d3182610b5f565b9150610d3c83610b5f565b9250828201905080821115610d5457610d53610cfa565b5b92915050565b7f77696e646f77206973206e6f7420636c6f7365000000000000000000000000005f82015250565b5f610d8e601383610c5c565b9150610d9982610d5a565b602082019050919050565b5f6020820190508181035f830152610dbb81610d82565b9050919050565b7f54617267657420697320726561636865640000000000000000000000000000005f82015250565b5f610df6601183610c5c565b9150610e0182610dc2565b602082019050919050565b5f6020820190508181035f830152610e2381610dea565b9050919050565b7f7468657265206973206e6f2066756e6420666f7220796f7520000000000000005f82015250565b5f610e5e601983610c5c565b9150610e6982610e2a565b602082019050919050565b5f6020820190508181035f830152610e8b81610e52565b9050919050565b5f81905092915050565b50565b5f610eaa5f83610e92565b9150610eb582610e9c565b5f82019050919050565b5f610ec982610e9f565b9150819050919050565b7f7472616e73666572207478206661696c656400000000000000000000000000005f82015250565b5f610f07601283610c5c565b9150610f1282610ed3565b602082019050919050565b5f6020820190508181035f830152610f3481610efb565b9050919050565b7f546172676574206973206e6f74207265616368656400000000000000000000005f82015250565b5f610f6f601583610c5c565b9150610f7a82610f3b565b602082019050919050565b5f6020820190508181035f830152610f9c81610f63565b9050919050565b7f53656e64206d6f726520455448000000000000000000000000000000000000005f82015250565b5f610fd7600d83610c5c565b9150610fe282610fa3565b602082019050919050565b5f6020820190508181035f83015261100481610fcb565b9050919050565b5f69ffffffffffffffffffff82169050919050565b6110298161100b565b8114611033575f80fd5b50565b5f8151905061104481611020565b92915050565b61105381610b90565b811461105d575f80fd5b50565b5f8151905061106e8161104a565b92915050565b5f8151905061108281610bc1565b92915050565b5f805f805f60a086880312156110a1576110a0610aae565b5b5f6110ae88828901611036565b95505060206110bf88828901611060565b94505060406110d088828901611074565b93505060606110e188828901611074565b92505060806110f288828901611036565b9150509295509295909350565b7f796f7520646f206e6f742068617665207065726d697373696f6e20746f2063615f8201527f6c6c20746869732066756e74696f6e0000000000000000000000000000000000602082015250565b5f611159602f83610c5c565b9150611164826110ff565b604082019050919050565b5f6020820190508181035f8301526111868161114d565b9050919050565b5f61119782610b5f565b91506111a283610b5f565b92508282026111b081610b5f565b915082820484148315176111c7576111c6610cfa565b5b5092915050565b7f4e487b71000000000000000000000000000000000000000000000000000000005f52601260045260245ffd5b5f61120582610b5f565b915061121083610b5f565b9250826112205761121f6111ce565b5b82820490509291505056fea2646970667358221220d5a68dbabb813207d517629ef416447ce1d3c2ed5bc3d56a6ebf56b9811cd3b364736f6c634300081a0033",
					"opcodes": "PUSH1 0x80 PUSH1 0x40 MSTORE PUSH0 PUSH1 0x5 PUSH1 0x14 PUSH2 0x100 EXP DUP2 SLOAD DUP2 PUSH1 0xFF MUL NOT AND SWAP1 DUP4 ISZERO ISZERO MUL OR SWAP1 SSTORE POP CALLVALUE DUP1 ISZERO PUSH2 0x29 JUMPI PUSH0 DUP1 REVERT JUMPDEST POP PUSH1 0x40 MLOAD PUSH2 0x13C3 CODESIZE SUB DUP1 PUSH2 0x13C3 DUP4 CODECOPY DUP2 DUP2 ADD PUSH1 0x40 MSTORE DUP2 ADD SWAP1 PUSH2 0x4B SWAP2 SWAP1 PUSH2 0x12A JUMP JUMPDEST PUSH20 0x1AC55D145062C48DDDA47F1AB2C5B7B0129842D5 PUSH1 0x1 PUSH0 PUSH2 0x100 EXP DUP2 SLOAD DUP2 PUSH20 0xFFFFFFFFFFFFFFFFFFFFFFFFFFFFFFFFFFFFFFFF MUL NOT AND SWAP1 DUP4 PUSH20 0xFFFFFFFFFFFFFFFFFFFFFFFFFFFFFFFFFFFFFFFF AND MUL OR SWAP1 SSTORE POP CALLER PUSH1 0x2 PUSH0 PUSH2 0x100 EXP DUP2 SLOAD DUP2 PUSH20 0xFFFFFFFFFFFFFFFFFFFFFFFFFFFFFFFFFFFFFFFF MUL NOT AND SWAP1 DUP4 PUSH20 0xFFFFFFFFFFFFFFFFFFFFFFFFFFFFFFFFFFFFFFFF AND MUL OR SWAP1 SSTORE POP TIMESTAMP PUSH1 0x3 DUP2 SWAP1 SSTORE POP DUP1 PUSH1 0x4 DUP2 SWAP1 SSTORE POP POP PUSH2 0x155 JUMP JUMPDEST PUSH0 DUP1 REVERT JUMPDEST PUSH0 DUP2 SWAP1 POP SWAP2 SWAP1 POP JUMP JUMPDEST PUSH2 0x109 DUP2 PUSH2 0xF7 JUMP JUMPDEST DUP2 EQ PUSH2 0x113 JUMPI PUSH0 DUP1 REVERT JUMPDEST POP JUMP JUMPDEST PUSH0 DUP2 MLOAD SWAP1 POP PUSH2 0x124 DUP2 PUSH2 0x100 JUMP JUMPDEST SWAP3 SWAP2 POP POP JUMP JUMPDEST PUSH0 PUSH1 0x20 DUP3 DUP5 SUB SLT ISZERO PUSH2 0x13F JUMPI PUSH2 0x13E PUSH2 0xF3 JUMP JUMPDEST JUMPDEST PUSH0 PUSH2 0x14C DUP5 DUP3 DUP6 ADD PUSH2 0x116 JUMP JUMPDEST SWAP2 POP POP SWAP3 SWAP2 POP POP JUMP JUMPDEST PUSH2 0x1261 DUP1 PUSH2 0x162 PUSH0 CODECOPY PUSH0 RETURN INVALID PUSH1 0x80 PUSH1 0x40 MSTORE PUSH1 0x4 CALLDATASIZE LT PUSH2 0x90 JUMPI PUSH0 CALLDATALOAD PUSH1 0xE0 SHR DUP1 PUSH4 0xB60D4288 GT PUSH2 0x58 JUMPI DUP1 PUSH4 0xB60D4288 EQ PUSH2 0x14E JUMPI DUP1 PUSH4 0xBEA4DFB5 EQ PUSH2 0x158 JUMPI DUP1 PUSH4 0xD39CF006 EQ PUSH2 0x182 JUMPI DUP1 PUSH4 0xDA4658E0 EQ PUSH2 0x1AA JUMPI DUP1 PUSH4 0xF2FDE38B EQ PUSH2 0x1D4 JUMPI PUSH2 0x90 JUMP JUMPDEST DUP1 PUSH4 0x13FFFF01 EQ PUSH2 0x94 JUMPI DUP1 PUSH4 0x590E1AE3 EQ PUSH2 0xBC JUMPI DUP1 PUSH4 0x8DA5CB5B EQ PUSH2 0xD2 JUMPI DUP1 PUSH4 0x8EDD6EB6 EQ PUSH2 0xFC JUMPI DUP1 PUSH4 0x9F883A05 EQ PUSH2 0x112 JUMPI JUMPDEST PUSH0 DUP1 REVERT JUMPDEST CALLVALUE DUP1 ISZERO PUSH2 0x9F JUMPI PUSH0 DUP1 REVERT JUMPDEST POP PUSH2 0xBA PUSH1 0x4 DUP1 CALLDATASIZE SUB DUP2 ADD SWAP1 PUSH2 0xB5 SWAP2 SWAP1 PUSH2 0xB0C JUMP JUMPDEST PUSH2 0x1FC JUMP JUMPDEST STOP JUMPDEST CALLVALUE DUP1 ISZERO PUSH2 0xC7 JUMPI PUSH0 DUP1 REVERT JUMPDEST POP PUSH2 0xD0 PUSH2 0x2CE JUMP JUMPDEST STOP JUMPDEST CALLVALUE DUP1 ISZERO PUSH2 0xDD JUMPI PUSH0 DUP1 REVERT JUMPDEST POP PUSH2 0xE6 PUSH2 0x536 JUMP JUMPDEST PUSH1 0x40 MLOAD PUSH2 0xF3 SWAP2 SWAP1 PUSH2 0xB46 JUMP JUMPDEST PUSH1 0x40 MLOAD DUP1 SWAP2 SUB SWAP1 RETURN JUMPDEST CALLVALUE DUP1 ISZERO PUSH2 0x107 JUMPI PUSH0 DUP1 REVERT JUMPDEST POP PUSH2 0x110 PUSH2 0x55B JUMP JUMPDEST STOP JUMPDEST CALLVALUE DUP1 ISZERO PUSH2 0x11D JUMPI PUSH0 DUP1 REVERT JUMPDEST POP PUSH2 0x138 PUSH1 0x4 DUP1 CALLDATASIZE SUB DUP2 ADD SWAP1 PUSH2 0x133 SWAP2 SWAP1 PUSH2 0xB0C JUMP JUMPDEST PUSH2 0x77E JUMP JUMPDEST PUSH1 0x40 MLOAD PUSH2 0x145 SWAP2 SWAP1 PUSH2 0xB77 JUMP JUMPDEST PUSH1 0x40 MLOAD DUP1 SWAP2 SUB SWAP1 RETURN JUMPDEST PUSH2 0x156 PUSH2 0x792 JUMP JUMPDEST STOP JUMPDEST CALLVALUE DUP1 ISZERO PUSH2 0x163 JUMPI PUSH0 DUP1 REVERT JUMPDEST POP PUSH2 0x16C PUSH2 0x829 JUMP JUMPDEST PUSH1 0x40 MLOAD PUSH2 0x179 SWAP2 SWAP1 PUSH2 0xBA8 JUMP JUMPDEST PUSH1 0x40 MLOAD DUP1 SWAP2 SUB SWAP1 RETURN JUMPDEST CALLVALUE DUP1 ISZERO PUSH2 0x18D JUMPI PUSH0 DUP1 REVERT JUMPDEST POP PUSH2 0x1A8 PUSH1 0x4 DUP1 CALLDATASIZE SUB DUP2 ADD SWAP1 PUSH2 0x1A3 SWAP2 SWAP1 PUSH2 0xBEB JUMP JUMPDEST PUSH2 0x8C6 JUMP JUMPDEST STOP JUMPDEST CALLVALUE DUP1 ISZERO PUSH2 0x1B5 JUMPI PUSH0 DUP1 REVERT JUMPDEST POP PUSH2 0x1BE PUSH2 0x99A JUMP JUMPDEST PUSH1 0x40 MLOAD PUSH2 0x1CB SWAP2 SWAP1 PUSH2 0xC43 JUMP JUMPDEST PUSH1 0x40 MLOAD DUP1 SWAP2 SUB SWAP1 RETURN JUMPDEST CALLVALUE DUP1 ISZERO PUSH2 0x1DF JUMPI PUSH0 DUP1 REVERT JUMPDEST POP PUSH2 0x1FA PUSH1 0x4 DUP1 CALLDATASIZE SUB DUP2 ADD SWAP1 PUSH2 0x1F5 SWAP2 SWAP1 PUSH2 0xB0C JUMP JUMPDEST PUSH2 0x9AD JUMP JUMPDEST STOP JUMPDEST PUSH1 0x2 PUSH0 SWAP1 SLOAD SWAP1 PUSH2 0x100 EXP SWAP1 DIV PUSH20 0xFFFFFFFFFFFFFFFFFFFFFFFFFFFFFFFFFFFFFFFF AND PUSH20 0xFFFFFFFFFFFFFFFFFFFFFFFFFFFFFFFFFFFFFFFF AND CALLER PUSH20 0xFFFFFFFFFFFFFFFFFFFFFFFFFFFFFFFFFFFFFFFF AND EQ PUSH2 0x28B JUMPI PUSH1 0x40 MLOAD PUSH32 0x8C379A000000000000000000000000000000000000000000000000000000000 DUP2 MSTORE PUSH1 0x4 ADD PUSH2 0x282 SWAP1 PUSH2 0xCDC JUMP JUMPDEST PUSH1 0x40 MLOAD DUP1 SWAP2 SUB SWAP1 REVERT JUMPDEST DUP1 PUSH1 0x5 PUSH0 PUSH2 0x100 EXP DUP2 SLOAD DUP2 PUSH20 0xFFFFFFFFFFFFFFFFFFFFFFFFFFFFFFFFFFFFFFFF MUL NOT AND SWAP1 DUP4 PUSH20 0xFFFFFFFFFFFFFFFFFFFFFFFFFFFFFFFFFFFFFFFF AND MUL OR SWAP1 SSTORE POP POP JUMP JUMPDEST PUSH1 0x4 SLOAD PUSH1 0x3 SLOAD PUSH2 0x2DE SWAP2 SWAP1 PUSH2 0xD27 JUMP JUMPDEST TIMESTAMP LT ISZERO PUSH2 0x320 JUMPI PUSH1 0x40 MLOAD PUSH32 0x8C379A000000000000000000000000000000000000000000000000000000000 DUP2 MSTORE PUSH1 0x4 ADD PUSH2 0x317 SWAP1 PUSH2 0xDA4 JUMP JUMPDEST PUSH1 0x40 MLOAD DUP1 SWAP2 SUB SWAP1 REVERT JUMPDEST PUSH9 0x3635C9ADC5DEA00000 PUSH2 0x333 SELFBALANCE PUSH2 0xA7F JUMP JUMPDEST LT PUSH2 0x373 JUMPI PUSH1 0x40 MLOAD PUSH32 0x8C379A000000000000000000000000000000000000000000000000000000000 DUP2 MSTORE PUSH1 0x4 ADD PUSH2 0x36A SWAP1 PUSH2 0xE0C JUMP JUMPDEST PUSH1 0x40 MLOAD DUP1 SWAP2 SUB SWAP1 REVERT JUMPDEST PUSH0 DUP1 PUSH0 CALLER PUSH20 0xFFFFFFFFFFFFFFFFFFFFFFFFFFFFFFFFFFFFFFFF AND PUSH20 0xFFFFFFFFFFFFFFFFFFFFFFFFFFFFFFFFFFFFFFFF AND DUP2 MSTORE PUSH1 0x20 ADD SWAP1 DUP2 MSTORE PUSH1 0x20 ADD PUSH0 KECCAK256 SLOAD SUB PUSH2 0x3F1 JUMPI PUSH1 0x40 MLOAD PUSH32 0x8C379A000000000000000000000000000000000000000000000000000000000 DUP2 MSTORE PUSH1 0x4 ADD PUSH2 0x3E8 SWAP1 PUSH2 0xE74 JUMP JUMPDEST PUSH1 0x40 MLOAD DUP1 SWAP2 SUB SWAP1 REVERT JUMPDEST PUSH0 CALLER PUSH20 0xFFFFFFFFFFFFFFFFFFFFFFFFFFFFFFFFFFFFFFFF AND PUSH0 DUP1 CALLER PUSH20 0xFFFFFFFFFFFFFFFFFFFFFFFFFFFFFFFFFFFFFFFF AND PUSH20 0xFFFFFFFFFFFFFFFFFFFFFFFFFFFFFFFFFFFFFFFF AND DUP2 MSTORE PUSH1 0x20 ADD SWAP1 DUP2 MSTORE PUSH1 0x20 ADD PUSH0 KECCAK256 SLOAD PUSH1 0x40 MLOAD PUSH2 0x452 SWAP1 PUSH2 0xEBF JUMP JUMPDEST PUSH0 PUSH1 0x40 MLOAD DUP1 DUP4 SUB DUP2 DUP6 DUP8 GAS CALL SWAP3 POP POP POP RETURNDATASIZE DUP1 PUSH0 DUP2 EQ PUSH2 0x48C JUMPI PUSH1 0x40 MLOAD SWAP2 POP PUSH1 0x1F NOT PUSH1 0x3F RETURNDATASIZE ADD AND DUP3 ADD PUSH1 0x40 MSTORE RETURNDATASIZE DUP3 MSTORE RETURNDATASIZE PUSH0 PUSH1 0x20 DUP5 ADD RETURNDATACOPY PUSH2 0x491 JUMP JUMPDEST PUSH1 0x60 SWAP2 POP JUMPDEST POP POP DUP1 SWAP2 POP POP DUP1 PUSH2 0x4D7 JUMPI PUSH1 0x40 MLOAD PUSH32 0x8C379A000000000000000000000000000000000000000000000000000000000 DUP2 MSTORE PUSH1 0x4 ADD PUSH2 0x4CE SWAP1 PUSH2 0xF1D JUMP JUMPDEST PUSH1 0x40 MLOAD DUP1 SWAP2 SUB SWAP1 REVERT JUMPDEST PUSH0 DUP1 PUSH0 CALLER PUSH20 0xFFFFFFFFFFFFFFFFFFFFFFFFFFFFFFFFFFFFFFFF AND PUSH20 0xFFFFFFFFFFFFFFFFFFFFFFFFFFFFFFFFFFFFFFFF AND DUP2 MSTORE PUSH1 0x20 ADD SWAP1 DUP2 MSTORE PUSH1 0x20 ADD PUSH0 KECCAK256 DUP2 SWAP1 SSTORE POP PUSH1 0x1 PUSH1 0x5 PUSH1 0x14 PUSH2 0x100 EXP DUP2 SLOAD DUP2 PUSH1 0xFF MUL NOT AND SWAP1 DUP4 ISZERO ISZERO MUL OR SWAP1 SSTORE POP POP JUMP JUMPDEST PUSH1 0x2 PUSH0 SWAP1 SLOAD SWAP1 PUSH2 0x100 EXP SWAP1 DIV PUSH20 0xFFFFFFFFFFFFFFFFFFFFFFFFFFFFFFFFFFFFFFFF AND DUP2 JUMP JUMPDEST PUSH1 0x4 SLOAD PUSH1 0x3 SLOAD PUSH2 0x56B SWAP2 SWAP1 PUSH2 0xD27 JUMP JUMPDEST TIMESTAMP LT ISZERO PUSH2 0x5AD JUMPI PUSH1 0x40 MLOAD PUSH32 0x8C379A000000000000000000000000000000000000000000000000000000000 DUP2 MSTORE PUSH1 0x4 ADD PUSH2 0x5A4 SWAP1 PUSH2 0xDA4 JUMP JUMPDEST PUSH1 0x40 MLOAD DUP1 SWAP2 SUB SWAP1 REVERT JUMPDEST PUSH1 0x2 PUSH0 SWAP1 SLOAD SWAP1 PUSH2 0x100 EXP SWAP1 DIV PUSH20 0xFFFFFFFFFFFFFFFFFFFFFFFFFFFFFFFFFFFFFFFF AND PUSH20 0xFFFFFFFFFFFFFFFFFFFFFFFFFFFFFFFFFFFFFFFF AND CALLER PUSH20 0xFFFFFFFFFFFFFFFFFFFFFFFFFFFFFFFFFFFFFFFF AND EQ PUSH2 0x63C JUMPI PUSH1 0x40 MLOAD PUSH32 0x8C379A000000000000000000000000000000000000000000000000000000000 DUP2 MSTORE PUSH1 0x4 ADD PUSH2 0x633 SWAP1 PUSH2 0xCDC JUMP JUMPDEST PUSH1 0x40 MLOAD DUP1 SWAP2 SUB SWAP1 REVERT JUMPDEST PUSH9 0x3635C9ADC5DEA00000 PUSH2 0x64F SELFBALANCE PUSH2 0xA7F JUMP JUMPDEST LT ISZERO PUSH2 0x690 JUMPI PUSH1 0x40 MLOAD PUSH32 0x8C379A000000000000000000000000000000000000000000000000000000000 DUP2 MSTORE PUSH1 0x4 ADD PUSH2 0x687 SWAP1 PUSH2 0xF85 JUMP JUMPDEST PUSH1 0x40 MLOAD DUP1 SWAP2 SUB SWAP1 REVERT JUMPDEST PUSH0 CALLER PUSH20 0xFFFFFFFFFFFFFFFFFFFFFFFFFFFFFFFFFFFFFFFF AND SELFBALANCE PUSH1 0x40 MLOAD PUSH2 0x6B5 SWAP1 PUSH2 0xEBF JUMP JUMPDEST PUSH0 PUSH1 0x40 MLOAD DUP1 DUP4 SUB DUP2 DUP6 DUP8 GAS CALL SWAP3 POP POP POP RETURNDATASIZE DUP1 PUSH0 DUP2 EQ PUSH2 0x6EF JUMPI PUSH1 0x40 MLOAD SWAP2 POP PUSH1 0x1F NOT PUSH1 0x3F RETURNDATASIZE ADD AND DUP3 ADD PUSH1 0x40 MSTORE RETURNDATASIZE DUP3 MSTORE RETURNDATASIZE PUSH0 PUSH1 0x20 DUP5 ADD RETURNDATACOPY PUSH2 0x6F4 JUMP JUMPDEST PUSH1 0x60 SWAP2 POP JUMPDEST POP POP DUP1 SWAP2 POP POP DUP1 PUSH2 0x73A JUMPI PUSH1 0x40 MLOAD PUSH32 0x8C379A000000000000000000000000000000000000000000000000000000000 DUP2 MSTORE PUSH1 0x4 ADD PUSH2 0x731 SWAP1 PUSH2 0xF1D JUMP JUMPDEST PUSH1 0x40 MLOAD DUP1 SWAP2 SUB SWAP1 REVERT JUMPDEST PUSH0 DUP1 PUSH0 CALLER PUSH20 0xFFFFFFFFFFFFFFFFFFFFFFFFFFFFFFFFFFFFFFFF AND PUSH20 0xFFFFFFFFFFFFFFFFFFFFFFFFFFFFFFFFFFFFFFFF AND DUP2 MSTORE PUSH1 0x20 ADD SWAP1 DUP2 MSTORE PUSH1 0x20 ADD PUSH0 KECCAK256 DUP2 SWAP1 SSTORE POP POP JUMP JUMPDEST PUSH0 PUSH1 0x20 MSTORE DUP1 PUSH0 MSTORE PUSH1 0x40 PUSH0 KECCAK256 PUSH0 SWAP2 POP SWAP1 POP SLOAD DUP2 JUMP JUMPDEST PUSH9 0x56BC75E2D63100000 PUSH2 0x7A5 CALLVALUE PUSH2 0xA7F JUMP JUMPDEST LT ISZERO PUSH2 0x7E6 JUMPI PUSH1 0x40 MLOAD PUSH32 0x8C379A000000000000000000000000000000000000000000000000000000000 DUP2 MSTORE PUSH1 0x4 ADD PUSH2 0x7DD SWAP1 PUSH2 0xFED JUMP JUMPDEST PUSH1 0x40 MLOAD DUP1 SWAP2 SUB SWAP1 REVERT JUMPDEST CALLVALUE PUSH0 DUP1 CALLER PUSH20 0xFFFFFFFFFFFFFFFFFFFFFFFFFFFFFFFFFFFFFFFF AND PUSH20 0xFFFFFFFFFFFFFFFFFFFFFFFFFFFFFFFFFFFFFFFF AND DUP2 MSTORE PUSH1 0x20 ADD SWAP1 DUP2 MSTORE PUSH1 0x20 ADD PUSH0 KECCAK256 DUP2 SWAP1 SSTORE POP JUMP JUMPDEST PUSH0 DUP1 PUSH1 0x1 PUSH0 SWAP1 SLOAD SWAP1 PUSH2 0x100 EXP SWAP1 DIV PUSH20 0xFFFFFFFFFFFFFFFFFFFFFFFFFFFFFFFFFFFFFFFF AND PUSH20 0xFFFFFFFFFFFFFFFFFFFFFFFFFFFFFFFFFFFFFFFF AND PUSH4 0xFEAF968C PUSH1 0x40 MLOAD DUP2 PUSH4 0xFFFFFFFF AND PUSH1 0xE0 SHL DUP2 MSTORE PUSH1 0x4 ADD PUSH1 0xA0 PUSH1 0x40 MLOAD DUP1 DUP4 SUB DUP2 DUP7 GAS STATICCALL ISZERO DUP1 ISZERO PUSH2 0x895 JUMPI RETURNDATASIZE PUSH0 DUP1 RETURNDATACOPY RETURNDATASIZE PUSH0 REVERT JUMPDEST POP POP POP POP PUSH1 0x40 MLOAD RETURNDATASIZE PUSH1 0x1F NOT PUSH1 0x1F DUP3 ADD AND DUP3 ADD DUP1 PUSH1 0x40 MSTORE POP DUP2 ADD SWAP1 PUSH2 0x8B9 SWAP2 SWAP1 PUSH2 0x1088 JUMP JUMPDEST POP POP POP SWAP2 POP POP DUP1 SWAP2 POP POP SWAP1 JUMP JUMPDEST PUSH1 0x5 PUSH0 SWAP1 SLOAD SWAP1 PUSH2 0x100 EXP SWAP1 DIV PUSH20 0xFFFFFFFFFFFFFFFFFFFFFFFFFFFFFFFFFFFFFFFF AND PUSH20 0xFFFFFFFFFFFFFFFFFFFFFFFFFFFFFFFFFFFFFFFF AND CALLER PUSH20 0xFFFFFFFFFFFFFFFFFFFFFFFFFFFFFFFFFFFFFFFF AND EQ PUSH2 0x955 JUMPI PUSH1 0x40 MLOAD PUSH32 0x8C379A000000000000000000000000000000000000000000000000000000000 DUP2 MSTORE PUSH1 0x4 ADD PUSH2 0x94C SWAP1 PUSH2 0x116F JUMP JUMPDEST PUSH1 0x40 MLOAD DUP1 SWAP2 SUB SWAP1 REVERT JUMPDEST DUP1 PUSH0 DUP1 DUP5 PUSH20 0xFFFFFFFFFFFFFFFFFFFFFFFFFFFFFFFFFFFFFFFF AND PUSH20 0xFFFFFFFFFFFFFFFFFFFFFFFFFFFFFFFFFFFFFFFF AND DUP2 MSTORE PUSH1 0x20 ADD SWAP1 DUP2 MSTORE PUSH1 0x20 ADD PUSH0 KECCAK256 DUP2 SWAP1 SSTORE POP POP POP JUMP JUMPDEST PUSH1 0x5 PUSH1 0x14 SWAP1 SLOAD SWAP1 PUSH2 0x100 EXP SWAP1 DIV PUSH1 0xFF AND DUP2 JUMP JUMPDEST PUSH1 0x2 PUSH0 SWAP1 SLOAD SWAP1 PUSH2 0x100 EXP SWAP1 DIV PUSH20 0xFFFFFFFFFFFFFFFFFFFFFFFFFFFFFFFFFFFFFFFF AND PUSH20 0xFFFFFFFFFFFFFFFFFFFFFFFFFFFFFFFFFFFFFFFF AND CALLER PUSH20 0xFFFFFFFFFFFFFFFFFFFFFFFFFFFFFFFFFFFFFFFF AND EQ PUSH2 0xA3C JUMPI PUSH1 0x40 MLOAD PUSH32 0x8C379A000000000000000000000000000000000000000000000000000000000 DUP2 MSTORE PUSH1 0x4 ADD PUSH2 0xA33 SWAP1 PUSH2 0xCDC JUMP JUMPDEST PUSH1 0x40 MLOAD DUP1 SWAP2 SUB SWAP1 REVERT JUMPDEST DUP1 PUSH1 0x2 PUSH0 PUSH2 0x100 EXP DUP2 SLOAD DUP2 PUSH20 0xFFFFFFFFFFFFFFFFFFFFFFFFFFFFFFFFFFFFFFFF MUL NOT AND SWAP1 DUP4 PUSH20 0xFFFFFFFFFFFFFFFFFFFFFFFFFFFFFFFFFFFFFFFF AND MUL OR SWAP1 SSTORE POP POP JUMP JUMPDEST PUSH0 DUP1 PUSH2 0xA89 PUSH2 0x829 JUMP JUMPDEST SWAP1 POP PUSH4 0x5F5E100 DUP2 DUP5 PUSH2 0xA9C SWAP2 SWAP1 PUSH2 0x118D JUMP JUMPDEST PUSH2 0xAA6 SWAP2 SWAP1 PUSH2 0x11FB JUMP JUMPDEST SWAP2 POP POP SWAP2 SWAP1 POP JUMP JUMPDEST PUSH0 DUP1 REVERT JUMPDEST PUSH0 PUSH20 0xFFFFFFFFFFFFFFFFFFFFFFFFFFFFFFFFFFFFFFFF DUP3 AND SWAP1 POP SWAP2 SWAP1 POP JUMP JUMPDEST PUSH0 PUSH2 0xADB DUP3 PUSH2 0xAB2 JUMP JUMPDEST SWAP1 POP SWAP2 SWAP1 POP JUMP JUMPDEST PUSH2 0xAEB DUP2 PUSH2 0xAD1 JUMP JUMPDEST DUP2 EQ PUSH2 0xAF5 JUMPI PUSH0 DUP1 REVERT JUMPDEST POP JUMP JUMPDEST PUSH0 DUP2 CALLDATALOAD SWAP1 POP PUSH2 0xB06 DUP2 PUSH2 0xAE2 JUMP JUMPDEST SWAP3 SWAP2 POP POP JUMP JUMPDEST PUSH0 PUSH1 0x20 DUP3 DUP5 SUB SLT ISZERO PUSH2 0xB21 JUMPI PUSH2 0xB20 PUSH2 0xAAE JUMP JUMPDEST JUMPDEST PUSH0 PUSH2 0xB2E DUP5 DUP3 DUP6 ADD PUSH2 0xAF8 JUMP JUMPDEST SWAP2 POP POP SWAP3 SWAP2 POP POP JUMP JUMPDEST PUSH2 0xB40 DUP2 PUSH2 0xAD1 JUMP JUMPDEST DUP3 MSTORE POP POP JUMP JUMPDEST PUSH0 PUSH1 0x20 DUP3 ADD SWAP1 POP PUSH2 0xB59 PUSH0 DUP4 ADD DUP5 PUSH2 0xB37 JUMP JUMPDEST SWAP3 SWAP2 POP POP JUMP JUMPDEST PUSH0 DUP2 SWAP1 POP SWAP2 SWAP1 POP JUMP JUMPDEST PUSH2 0xB71 DUP2 PUSH2 0xB5F JUMP JUMPDEST DUP3 MSTORE POP POP JUMP JUMPDEST PUSH0 PUSH1 0x20 DUP3 ADD SWAP1 POP PUSH2 0xB8A PUSH0 DUP4 ADD DUP5 PUSH2 0xB68 JUMP JUMPDEST SWAP3 SWAP2 POP POP JUMP JUMPDEST PUSH0 DUP2 SWAP1 POP SWAP2 SWAP1 POP JUMP JUMPDEST PUSH2 0xBA2 DUP2 PUSH2 0xB90 JUMP JUMPDEST DUP3 MSTORE POP POP JUMP JUMPDEST PUSH0 PUSH1 0x20 DUP3 ADD SWAP1 POP PUSH2 0xBBB PUSH0 DUP4 ADD DUP5 PUSH2 0xB99 JUMP JUMPDEST SWAP3 SWAP2 POP POP JUMP JUMPDEST PUSH2 0xBCA DUP2 PUSH2 0xB5F JUMP JUMPDEST DUP2 EQ PUSH2 0xBD4 JUMPI PUSH0 DUP1 REVERT JUMPDEST POP JUMP JUMPDEST PUSH0 DUP2 CALLDATALOAD SWAP1 POP PUSH2 0xBE5 DUP2 PUSH2 0xBC1 JUMP JUMPDEST SWAP3 SWAP2 POP POP JUMP JUMPDEST PUSH0 DUP1 PUSH1 0x40 DUP4 DUP6 SUB SLT ISZERO PUSH2 0xC01 JUMPI PUSH2 0xC00 PUSH2 0xAAE JUMP JUMPDEST JUMPDEST PUSH0 PUSH2 0xC0E DUP6 DUP3 DUP7 ADD PUSH2 0xAF8 JUMP JUMPDEST SWAP3 POP POP PUSH1 0x20 PUSH2 0xC1F DUP6 DUP3 DUP7 ADD PUSH2 0xBD7 JUMP JUMPDEST SWAP2 POP POP SWAP3 POP SWAP3 SWAP1 POP JUMP JUMPDEST PUSH0 DUP2 ISZERO ISZERO SWAP1 POP SWAP2 SWAP1 POP JUMP JUMPDEST PUSH2 0xC3D DUP2 PUSH2 0xC29 JUMP JUMPDEST DUP3 MSTORE POP POP JUMP JUMPDEST PUSH0 PUSH1 0x20 DUP3 ADD SWAP1 POP PUSH2 0xC56 PUSH0 DUP4 ADD DUP5 PUSH2 0xC34 JUMP JUMPDEST SWAP3 SWAP2 POP POP JUMP JUMPDEST PUSH0 DUP3 DUP3 MSTORE PUSH1 0x20 DUP3 ADD SWAP1 POP SWAP3 SWAP2 POP POP JUMP JUMPDEST PUSH32 0x746869732066756E6374696F6E2063616E206F6E6C792062652063616C6C6564 PUSH0 DUP3 ADD MSTORE PUSH32 0x206279206F776E65720000000000000000000000000000000000000000000000 PUSH1 0x20 DUP3 ADD MSTORE POP JUMP JUMPDEST PUSH0 PUSH2 0xCC6 PUSH1 0x29 DUP4 PUSH2 0xC5C JUMP JUMPDEST SWAP2 POP PUSH2 0xCD1 DUP3 PUSH2 0xC6C JUMP JUMPDEST PUSH1 0x40 DUP3 ADD SWAP1 POP SWAP2 SWAP1 POP JUMP JUMPDEST PUSH0 PUSH1 0x20 DUP3 ADD SWAP1 POP DUP2 DUP2 SUB PUSH0 DUP4 ADD MSTORE PUSH2 0xCF3 DUP2 PUSH2 0xCBA JUMP JUMPDEST SWAP1 POP SWAP2 SWAP1 POP JUMP JUMPDEST PUSH32 0x4E487B7100000000000000000000000000000000000000000000000000000000 PUSH0 MSTORE PUSH1 0x11 PUSH1 0x4 MSTORE PUSH1 0x24 PUSH0 REVERT JUMPDEST PUSH0 PUSH2 0xD31 DUP3 PUSH2 0xB5F JUMP JUMPDEST SWAP2 POP PUSH2 0xD3C DUP4 PUSH2 0xB5F JUMP JUMPDEST SWAP3 POP DUP3 DUP3 ADD SWAP1 POP DUP1 DUP3 GT ISZERO PUSH2 0xD54 JUMPI PUSH2 0xD53 PUSH2 0xCFA JUMP JUMPDEST JUMPDEST SWAP3 SWAP2 POP POP JUMP JUMPDEST PUSH32 0x77696E646F77206973206E6F7420636C6F736500000000000000000000000000 PUSH0 DUP3 ADD MSTORE POP JUMP JUMPDEST PUSH0 PUSH2 0xD8E PUSH1 0x13 DUP4 PUSH2 0xC5C JUMP JUMPDEST SWAP2 POP PUSH2 0xD99 DUP3 PUSH2 0xD5A JUMP JUMPDEST PUSH1 0x20 DUP3 ADD SWAP1 POP SWAP2 SWAP1 POP JUMP JUMPDEST PUSH0 PUSH1 0x20 DUP3 ADD SWAP1 POP DUP2 DUP2 SUB PUSH0 DUP4 ADD MSTORE PUSH2 0xDBB DUP2 PUSH2 0xD82 JUMP JUMPDEST SWAP1 POP SWAP2 SWAP1 POP JUMP JUMPDEST PUSH32 0x5461726765742069732072656163686564000000000000000000000000000000 PUSH0 DUP3 ADD MSTORE POP JUMP JUMPDEST PUSH0 PUSH2 0xDF6 PUSH1 0x11 DUP4 PUSH2 0xC5C JUMP JUMPDEST SWAP2 POP PUSH2 0xE01 DUP3 PUSH2 0xDC2 JUMP JUMPDEST PUSH1 0x20 DUP3 ADD SWAP1 POP SWAP2 SWAP1 POP JUMP JUMPDEST PUSH0 PUSH1 0x20 DUP3 ADD SWAP1 POP DUP2 DUP2 SUB PUSH0 DUP4 ADD MSTORE PUSH2 0xE23 DUP2 PUSH2 0xDEA JUMP JUMPDEST SWAP1 POP SWAP2 SWAP1 POP JUMP JUMPDEST PUSH32 0x7468657265206973206E6F2066756E6420666F7220796F752000000000000000 PUSH0 DUP3 ADD MSTORE POP JUMP JUMPDEST PUSH0 PUSH2 0xE5E PUSH1 0x19 DUP4 PUSH2 0xC5C JUMP JUMPDEST SWAP2 POP PUSH2 0xE69 DUP3 PUSH2 0xE2A JUMP JUMPDEST PUSH1 0x20 DUP3 ADD SWAP1 POP SWAP2 SWAP1 POP JUMP JUMPDEST PUSH0 PUSH1 0x20 DUP3 ADD SWAP1 POP DUP2 DUP2 SUB PUSH0 DUP4 ADD MSTORE PUSH2 0xE8B DUP2 PUSH2 0xE52 JUMP JUMPDEST SWAP1 POP SWAP2 SWAP1 POP JUMP JUMPDEST PUSH0 DUP2 SWAP1 POP SWAP3 SWAP2 POP POP JUMP JUMPDEST POP JUMP JUMPDEST PUSH0 PUSH2 0xEAA PUSH0 DUP4 PUSH2 0xE92 JUMP JUMPDEST SWAP2 POP PUSH2 0xEB5 DUP3 PUSH2 0xE9C JUMP JUMPDEST PUSH0 DUP3 ADD SWAP1 POP SWAP2 SWAP1 POP JUMP JUMPDEST PUSH0 PUSH2 0xEC9 DUP3 PUSH2 0xE9F JUMP JUMPDEST SWAP2 POP DUP2 SWAP1 POP SWAP2 SWAP1 POP JUMP JUMPDEST PUSH32 0x7472616E73666572207478206661696C65640000000000000000000000000000 PUSH0 DUP3 ADD MSTORE POP JUMP JUMPDEST PUSH0 PUSH2 0xF07 PUSH1 0x12 DUP4 PUSH2 0xC5C JUMP JUMPDEST SWAP2 POP PUSH2 0xF12 DUP3 PUSH2 0xED3 JUMP JUMPDEST PUSH1 0x20 DUP3 ADD SWAP1 POP SWAP2 SWAP1 POP JUMP JUMPDEST PUSH0 PUSH1 0x20 DUP3 ADD SWAP1 POP DUP2 DUP2 SUB PUSH0 DUP4 ADD MSTORE PUSH2 0xF34 DUP2 PUSH2 0xEFB JUMP JUMPDEST SWAP1 POP SWAP2 SWAP1 POP JUMP JUMPDEST PUSH32 0x546172676574206973206E6F7420726561636865640000000000000000000000 PUSH0 DUP3 ADD MSTORE POP JUMP JUMPDEST PUSH0 PUSH2 0xF6F PUSH1 0x15 DUP4 PUSH2 0xC5C JUMP JUMPDEST SWAP2 POP PUSH2 0xF7A DUP3 PUSH2 0xF3B JUMP JUMPDEST PUSH1 0x20 DUP3 ADD SWAP1 POP SWAP2 SWAP1 POP JUMP JUMPDEST PUSH0 PUSH1 0x20 DUP3 ADD SWAP1 POP DUP2 DUP2 SUB PUSH0 DUP4 ADD MSTORE PUSH2 0xF9C DUP2 PUSH2 0xF63 JUMP JUMPDEST SWAP1 POP SWAP2 SWAP1 POP JUMP JUMPDEST PUSH32 0x53656E64206D6F72652045544800000000000000000000000000000000000000 PUSH0 DUP3 ADD MSTORE POP JUMP JUMPDEST PUSH0 PUSH2 0xFD7 PUSH1 0xD DUP4 PUSH2 0xC5C JUMP JUMPDEST SWAP2 POP PUSH2 0xFE2 DUP3 PUSH2 0xFA3 JUMP JUMPDEST PUSH1 0x20 DUP3 ADD SWAP1 POP SWAP2 SWAP1 POP JUMP JUMPDEST PUSH0 PUSH1 0x20 DUP3 ADD SWAP1 POP DUP2 DUP2 SUB PUSH0 DUP4 ADD MSTORE PUSH2 0x1004 DUP2 PUSH2 0xFCB JUMP JUMPDEST SWAP1 POP SWAP2 SWAP1 POP JUMP JUMPDEST PUSH0 PUSH10 0xFFFFFFFFFFFFFFFFFFFF DUP3 AND SWAP1 POP SWAP2 SWAP1 POP JUMP JUMPDEST PUSH2 0x1029 DUP2 PUSH2 0x100B JUMP JUMPDEST DUP2 EQ PUSH2 0x1033 JUMPI PUSH0 DUP1 REVERT JUMPDEST POP JUMP JUMPDEST PUSH0 DUP2 MLOAD SWAP1 POP PUSH2 0x1044 DUP2 PUSH2 0x1020 JUMP JUMPDEST SWAP3 SWAP2 POP POP JUMP JUMPDEST PUSH2 0x1053 DUP2 PUSH2 0xB90 JUMP JUMPDEST DUP2 EQ PUSH2 0x105D JUMPI PUSH0 DUP1 REVERT JUMPDEST POP JUMP JUMPDEST PUSH0 DUP2 MLOAD SWAP1 POP PUSH2 0x106E DUP2 PUSH2 0x104A JUMP JUMPDEST SWAP3 SWAP2 POP POP JUMP JUMPDEST PUSH0 DUP2 MLOAD SWAP1 POP PUSH2 0x1082 DUP2 PUSH2 0xBC1 JUMP JUMPDEST SWAP3 SWAP2 POP POP JUMP JUMPDEST PUSH0 DUP1 PUSH0 DUP1 PUSH0 PUSH1 0xA0 DUP7 DUP9 SUB SLT ISZERO PUSH2 0x10A1 JUMPI PUSH2 0x10A0 PUSH2 0xAAE JUMP JUMPDEST JUMPDEST PUSH0 PUSH2 0x10AE DUP9 DUP3 DUP10 ADD PUSH2 0x1036 JUMP JUMPDEST SWAP6 POP POP PUSH1 0x20 PUSH2 0x10BF DUP9 DUP3 DUP10 ADD PUSH2 0x1060 JUMP JUMPDEST SWAP5 POP POP PUSH1 0x40 PUSH2 0x10D0 DUP9 DUP3 DUP10 ADD PUSH2 0x1074 JUMP JUMPDEST SWAP4 POP POP PUSH1 0x60 PUSH2 0x10E1 DUP9 DUP3 DUP10 ADD PUSH2 0x1074 JUMP JUMPDEST SWAP3 POP POP PUSH1 0x80 PUSH2 0x10F2 DUP9 DUP3 DUP10 ADD PUSH2 0x1036 JUMP JUMPDEST SWAP2 POP POP SWAP3 SWAP6 POP SWAP3 SWAP6 SWAP1 SWAP4 POP JUMP JUMPDEST PUSH32 0x796F7520646F206E6F742068617665207065726D697373696F6E20746F206361 PUSH0 DUP3 ADD MSTORE PUSH32 0x6C6C20746869732066756E74696F6E0000000000000000000000000000000000 PUSH1 0x20 DUP3 ADD MSTORE POP JUMP JUMPDEST PUSH0 PUSH2 0x1159 PUSH1 0x2F DUP4 PUSH2 0xC5C JUMP JUMPDEST SWAP2 POP PUSH2 0x1164 DUP3 PUSH2 0x10FF JUMP JUMPDEST PUSH1 0x40 DUP3 ADD SWAP1 POP SWAP2 SWAP1 POP JUMP JUMPDEST PUSH0 PUSH1 0x20 DUP3 ADD SWAP1 POP DUP2 DUP2 SUB PUSH0 DUP4 ADD MSTORE PUSH2 0x1186 DUP2 PUSH2 0x114D JUMP JUMPDEST SWAP1 POP SWAP2 SWAP1 POP JUMP JUMPDEST PUSH0 PUSH2 0x1197 DUP3 PUSH2 0xB5F JUMP JUMPDEST SWAP2 POP PUSH2 0x11A2 DUP4 PUSH2 0xB5F JUMP JUMPDEST SWAP3 POP DUP3 DUP3 MUL PUSH2 0x11B0 DUP2 PUSH2 0xB5F JUMP JUMPDEST SWAP2 POP DUP3 DUP3 DIV DUP5 EQ DUP4 ISZERO OR PUSH2 0x11C7 JUMPI PUSH2 0x11C6 PUSH2 0xCFA JUMP JUMPDEST JUMPDEST POP SWAP3 SWAP2 POP POP JUMP JUMPDEST PUSH32 0x4E487B7100000000000000000000000000000000000000000000000000000000 PUSH0 MSTORE PUSH1 0x12 PUSH1 0x4 MSTORE PUSH1 0x24 PUSH0 REVERT JUMPDEST PUSH0 PUSH2 0x1205 DUP3 PUSH2 0xB5F JUMP JUMPDEST SWAP2 POP PUSH2 0x1210 DUP4 PUSH2 0xB5F JUMP JUMPDEST SWAP3 POP DUP3 PUSH2 0x1220 JUMPI PUSH2 0x121F PUSH2 0x11CE JUMP JUMPDEST JUMPDEST DUP3 DUP3 DIV SWAP1 POP SWAP3 SWAP2 POP POP JUMP INVALID LOG2 PUSH5 0x6970667358 0x22 SLT KECCAK256 0xD5 0xA6 DUP14 0xBA 0xBB DUP2 ORIGIN SMOD 0xD5 OR PUSH3 0x9EF416 PREVRANDAO PUSH29 0xE1D3C2ED5BC3D56A6EBF56B9811CD3B364736F6C634300081A00330000 "
				},
				"gasEstimates": {
					"creation": {
						"codeDepositCost": "941000",
						"executionCost": "infinite",
						"totalCost": "infinite"
					},
					"external": {
						"fund()": "infinite",
						"fundersToAmount(address)": "2890",
						"getChainlinkDataFeedLatestAnswer()": "infinite",
						"getFund()": "infinite",
						"getFundSuccess()": "2583",
						"owner()": "2553",
						"refund()": "infinite",
						"setErc20Addr(address)": "26885",
						"setFunderToAmount(address,uint256)": "25035",
						"transferOwnership(address)": "26972"
					},
					"internal": {
						"convertEthToUSD(uint256)": "infinite"
					}
				},
				"methodIdentifiers": {
					"fund()": "b60d4288",
					"fundersToAmount(address)": "9f883a05",
					"getChainlinkDataFeedLatestAnswer()": "bea4dfb5",
					"getFund()": "8edd6eb6",
					"getFundSuccess()": "da4658e0",
					"owner()": "8da5cb5b",
					"refund()": "590e1ae3",
					"setErc20Addr(address)": "13ffff01",
					"setFunderToAmount(address,uint256)": "d39cf006",
					"transferOwnership(address)": "f2fde38b"
				}
			},
			"storageLayout": {
				"storage": [
					{
						"astId": 839,
						"contract": "lesson - 3/FundMe.sol:FundMe",
						"label": "fundersToAmount",
						"offset": 0,
						"slot": "0",
						"type": "t_mapping(t_address,t_uint256)"
					},
					{
						"astId": 849,
						"contract": "lesson - 3/FundMe.sol:FundMe",
						"label": "dataFeed",
						"offset": 0,
						"slot": "1",
						"type": "t_contract(AggregatorV3Interface)45"
					},
					{
						"astId": 858,
						"contract": "lesson - 3/FundMe.sol:FundMe",
						"label": "owner",
						"offset": 0,
						"slot": "2",
						"type": "t_address"
					},
					{
						"astId": 860,
						"contract": "lesson - 3/FundMe.sol:FundMe",
						"label": "deploymentTimestamp",
						"offset": 0,
						"slot": "3",
						"type": "t_uint256"
					},
					{
						"astId": 862,
						"contract": "lesson - 3/FundMe.sol:FundMe",
						"label": "lockTime",
						"offset": 0,
						"slot": "4",
						"type": "t_uint256"
					},
					{
						"astId": 864,
						"contract": "lesson - 3/FundMe.sol:FundMe",
						"label": "erc20Addr",
						"offset": 0,
						"slot": "5",
						"type": "t_address"
					},
					{
						"astId": 867,
						"contract": "lesson - 3/FundMe.sol:FundMe",
						"label": "getFundSuccess",
						"offset": 20,
						"slot": "5",
						"type": "t_bool"
					}
				],
				"types": {
					"t_address": {
						"encoding": "inplace",
						"label": "address",
						"numberOfBytes": "20"
					},
					"t_bool": {
						"encoding": "inplace",
						"label": "bool",
						"numberOfBytes": "1"
					},
					"t_contract(AggregatorV3Interface)45": {
						"encoding": "inplace",
						"label": "contract AggregatorV3Interface",
						"numberOfBytes": "20"
					},
					"t_mapping(t_address,t_uint256)": {
						"encoding": "mapping",
						"key": "t_address",
						"label": "mapping(address => uint256)",
						"numberOfBytes": "32",
						"value": "t_uint256"
					},
					"t_uint256": {
						"encoding": "inplace",
						"label": "uint256",
						"numberOfBytes": "32"
					}
				}
			},
			"userdoc": {
				"kind": "user",
				"methods": {},
				"version": 1
			}
		}
	}
}