{
  "_format": "hh-sol-artifact-1",
  "contractName": "FundMe",
  "sourceName": "contracts/FundMe.sol",
  "abi": [
    {
      "inputs": [
        {
          "internalType": "uint256",
          "name": "_lockTime",
          "type": "uint256"
        },
        {
          "internalType": "address",
          "name": "dataFeedAddr",
          "type": "address"
        }
      ],
      "stateMutability": "nonpayable",
      "type": "constructor"
    },
    {
      "anonymous": false,
      "inputs": [
        {
          "indexed": false,
          "internalType": "uint256",
          "name": "",
          "type": "uint256"
        }
      ],
      "name": "FundWithdrawByOwner",
      "type": "event"
    },
    {
      "anonymous": false,
      "inputs": [
        {
          "indexed": false,
          "internalType": "address",
          "name": "",
          "type": "address"
        },
        {
          "indexed": false,
          "internalType": "uint256",
          "name": "",
          "type": "uint256"
        }
      ],
      "name": "RefundByFunder",
      "type": "event"
    },
    {
      "inputs": [],
      "name": "dataFeed",
      "outputs": [
        {
          "internalType": "contract AggregatorV3Interface",
          "name": "",
          "type": "address"
        }
      ],
      "stateMutability": "view",
      "type": "function"
    },
    {
      "inputs": [],
      "name": "fund",
      "outputs": [],
      "stateMutability": "payable",
      "type": "function"
    },
    {
      "inputs": [
        {
          "internalType": "address",
          "name": "",
          "type": "address"
        }
      ],
      "name": "fundersToAmount",
      "outputs": [
        {
          "internalType": "uint256",
          "name": "",
          "type": "uint256"
        }
      ],
      "stateMutability": "view",
      "type": "function"
    },
    {
      "inputs": [],
      "name": "getChainlinkDataFeedLatestAnswer",
      "outputs": [
        {
          "internalType": "int256",
          "name": "",
          "type": "int256"
        }
      ],
      "stateMutability": "view",
      "type": "function"
    },
    {
      "inputs": [],
      "name": "getFund",
      "outputs": [],
      "stateMutability": "nonpayable",
      "type": "function"
    },
    {
      "inputs": [],
      "name": "getFundSuccess",
      "outputs": [
        {
          "internalType": "bool",
          "name": "",
          "type": "bool"
        }
      ],
      "stateMutability": "view",
      "type": "function"
    },
    {
      "inputs": [],
      "name": "owner",
      "outputs": [
        {
          "internalType": "address",
          "name": "",
          "type": "address"
        }
      ],
      "stateMutability": "view",
      "type": "function"
    },
    {
      "inputs": [],
      "name": "refund",
      "outputs": [],
      "stateMutability": "nonpayable",
      "type": "function"
    },
    {
      "inputs": [
        {
          "internalType": "address",
          "name": "_erc20Addr",
          "type": "address"
        }
      ],
      "name": "setErc20Addr",
      "outputs": [],
      "stateMutability": "nonpayable",
      "type": "function"
    },
    {
      "inputs": [
        {
          "internalType": "address",
          "name": "funder",
          "type": "address"
        },
        {
          "internalType": "uint256",
          "name": "amountToUpdate",
          "type": "uint256"
        }
      ],
      "name": "setFunderToAmount",
      "outputs": [],
      "stateMutability": "nonpayable",
      "type": "function"
    },
    {
      "inputs": [
        {
          "internalType": "address",
          "name": "newOwner",
          "type": "address"
        }
      ],
      "name": "transferOwnership",
      "outputs": [],
      "stateMutability": "nonpayable",
      "type": "function"
    }
  ],
  "bytecode": "0x60806040526000600560146101000a81548160ff0219169083151502179055503480156200002c57600080fd5b50604051620020143803806200201483398181016040528101906200005291906200021e565b6200006e67d8f6bba7c114d85a60c01b6200017660201b60201c565b6200008a6737d1b5662eb87ce860c01b6200017660201b60201c565b80600160006101000a81548173ffffffffffffffffffffffffffffffffffffffff021916908373ffffffffffffffffffffffffffffffffffffffff160217905550620000e767f262b82f1007ea4d60c01b6200017660201b60201c565b33600260006101000a81548173ffffffffffffffffffffffffffffffffffffffff021916908373ffffffffffffffffffffffffffffffffffffffff16021790555062000144671d2a7cc101b5552b60c01b6200017660201b60201c565b4260038190555062000167674ea77c008dbbd3f760c01b6200017660201b60201c565b81600481905550505062000265565b50565b600080fd5b6000819050919050565b62000193816200017e565b81146200019f57600080fd5b50565b600081519050620001b38162000188565b92915050565b600073ffffffffffffffffffffffffffffffffffffffff82169050919050565b6000620001e682620001b9565b9050919050565b620001f881620001d9565b81146200020457600080fd5b50565b6000815190506200021881620001ed565b92915050565b6000806040838503121562000238576200023762000179565b5b60006200024885828601620001a2565b92505060206200025b8582860162000207565b9150509250929050565b611d9f80620002756000396000f3fe60806040526004361061009c5760003560e01c80639f883a05116100645780639f883a051461014e578063b60d42881461018b578063bea4dfb514610195578063d39cf006146101c0578063da4658e0146101e9578063f2fde38b146102145761009c565b806313ffff01146100a1578063590e1ae3146100ca5780638da5cb5b146100e15780638edd6eb61461010c5780639e42ff9014610123575b600080fd5b3480156100ad57600080fd5b506100c860048036038101906100c391906114f3565b61023d565b005b3480156100d657600080fd5b506100df6103d9565b005b3480156100ed57600080fd5b506100f66108b4565b604051610103919061152f565b60405180910390f35b34801561011857600080fd5b506101216108da565b005b34801561012f57600080fd5b50610138610e05565b60405161014591906115a9565b60405180910390f35b34801561015a57600080fd5b50610175600480360381019061017091906114f3565b610e2b565b60405161018291906115dd565b60405180910390f35b610193610e43565b005b3480156101a157600080fd5b506101aa610ff5565b6040516101b79190611611565b60405180910390f35b3480156101cc57600080fd5b506101e760048036038101906101e29190611658565b6110fb565b005b3480156101f557600080fd5b506101fe61124a565b60405161020b91906116b3565b60405180910390f35b34801561022057600080fd5b5061023b600480360381019061023691906114f3565b61125d565b005b61025167d2f64ef30ed1ab8360c01b6113f9565b61026567b29435bfe6f4d73e60c01b6113f9565b610279675ebc28cfa4dc568360c01b6113f9565b61028d6745c4f652e2462ed860c01b6113f9565b6102a1676ef7d944e82d72cb60c01b6113f9565b600260009054906101000a900473ffffffffffffffffffffffffffffffffffffffff1673ffffffffffffffffffffffffffffffffffffffff163373ffffffffffffffffffffffffffffffffffffffff1614610331576040517f08c379a000000000000000000000000000000000000000000000000000000000815260040161032890611751565b60405180910390fd5b61034567abee07ad83f4cc8060c01b6113f9565b6103596744d7a8b9cefc34f160c01b6113f9565b61036d673f9722893dc15c0860c01b6113f9565b610381675eacf214cac4658d60c01b6113f9565b61039567a0e94f34efbd2a3d60c01b6113f9565b80600560006101000a81548173ffffffffffffffffffffffffffffffffffffffff021916908373ffffffffffffffffffffffffffffffffffffffff16021790555050565b6103ec662223878803eed960c01b6113f9565b610400676344b785bff1334a60c01b6113f9565b6104146773b521aeaf4e2e7360c01b6113f9565b61042867a1209d18f86536ed60c01b6113f9565b61043c67302b142191c3c70260c01b6113f9565b60045460035461044c91906117a0565b42101561048e576040517f08c379a000000000000000000000000000000000000000000000000000000000815260040161048590611820565b60405180910390fd5b6104a2676a8f47e3da4103e860c01b6113f9565b6104b667d47cfc37d31a247760c01b6113f9565b6104ca670d5a6c8962e4ccae60c01b6113f9565b6104de67b27cbd784fddc64660c01b6113f9565b6104f267c3813db303e961b360c01b6113f9565b6105066788713368bf011d2c60c01b6113f9565b61051a671fef47459e871d1e60c01b6113f9565b683635c9adc5dea0000061052d476113fc565b1061056d576040517f08c379a00000000000000000000000000000000000000000000000000000000081526004016105649061188c565b60405180910390fd5b6105816708c08230f6f114ef60c01b6113f9565b61059567a874d6edc7f937c460c01b6113f9565b6105a967784fd528a94d39e660c01b6113f9565b6105bd677995d9d2efe404d460c01b6113f9565b60008060003373ffffffffffffffffffffffffffffffffffffffff1673ffffffffffffffffffffffffffffffffffffffff168152602001908152602001600020540361063e576040517f08c379a0000000000000000000000000000000000000000000000000000000008152600401610635906118f8565b60405180910390fd5b6106526739aac6ee19d122bf60c01b6113f9565b610666677dfb8a2f564170ce60c01b6113f9565b61067a67447d6ba37ce63b8260c01b6113f9565b6000610690673fbcbf0f168274bb60c01b6113f9565b6106a467251a6a227a20459860c01b6113f9565b60008060003373ffffffffffffffffffffffffffffffffffffffff1673ffffffffffffffffffffffffffffffffffffffff1681526020019081526020016000205490506106fb670e3e782e368e1a2860c01b6113f9565b3373ffffffffffffffffffffffffffffffffffffffff168160405161071f90611949565b60006040518083038185875af1925050503d806000811461075c576040519150601f19603f3d011682016040523d82523d6000602084013e610761565b606091505b50508092505061077b67bc9f8e4f45fae48560c01b6113f9565b61078f671549c2701ab3519a60c01b6113f9565b6107a367059caac2e06c554060c01b6113f9565b816107e3576040517f08c379a00000000000000000000000000000000000000000000000000000000081526004016107da906119aa565b60405180910390fd5b6107f76778e157f43b79021d60c01b6113f9565b61080b678718aba183c5a51760c01b6113f9565b60008060003373ffffffffffffffffffffffffffffffffffffffff1673ffffffffffffffffffffffffffffffffffffffff1681526020019081526020016000208190555061086367c66ff3cd4e18ba0e60c01b6113f9565b61087767a96c95a9549bb6dd60c01b6113f9565b7fc69be1ee5ac2aec580fb0927d8d940555d6f0a7bd11eed94b5b597056113da5f33826040516108a89291906119ca565b60405180910390a15050565b600260009054906101000a900473ffffffffffffffffffffffffffffffffffffffff1681565b6108ee671a699fa719b969b160c01b6113f9565b610902676344b785bff1334a60c01b6113f9565b6109166773b521aeaf4e2e7360c01b6113f9565b61092a67a1209d18f86536ed60c01b6113f9565b61093e67302b142191c3c70260c01b6113f9565b60045460035461094e91906117a0565b421015610990576040517f08c379a000000000000000000000000000000000000000000000000000000000815260040161098790611820565b60405180910390fd5b6109a4676a8f47e3da4103e860c01b6113f9565b6109b867d47cfc37d31a247760c01b6113f9565b6109cc67945dbc10f336659d60c01b6113f9565b6109e0677a63169bde3d077760c01b6113f9565b6109f467b29435bfe6f4d73e60c01b6113f9565b610a08675ebc28cfa4dc568360c01b6113f9565b610a1c6745c4f652e2462ed860c01b6113f9565b610a30676ef7d944e82d72cb60c01b6113f9565b600260009054906101000a900473ffffffffffffffffffffffffffffffffffffffff1673ffffffffffffffffffffffffffffffffffffffff163373ffffffffffffffffffffffffffffffffffffffff1614610ac0576040517f08c379a0000000000000000000000000000000000000000000000000000000008152600401610ab790611751565b60405180910390fd5b610ad467abee07ad83f4cc8060c01b6113f9565b610ae86744d7a8b9cefc34f160c01b6113f9565b610afc67249ae4ff4b1fd3e860c01b6113f9565b610b10673012cec10942078160c01b6113f9565b610b24673f976d33910d6ddf60c01b6113f9565b610b38672f9daa505cef0dfa60c01b6113f9565b610b4c67123096962dc00bf360c01b6113f9565b683635c9adc5dea00000610b5f476113fc565b1015610ba0576040517f08c379a0000000000000000000000000000000000000000000000000000000008152600401610b9790611a3f565b60405180910390fd5b610bb467df301cf899db3be860c01b6113f9565b610bc8674b475861fc774c1760c01b6113f9565b610bdc673e63576f5f17bea960c01b6113f9565b6000610bf267b2972bdcf67aa0a460c01b6113f9565b610c066797c14c816f0ef7ff60c01b6113f9565b6000479050610c1f67fa17a724737e213c60c01b6113f9565b3373ffffffffffffffffffffffffffffffffffffffff1681604051610c4390611949565b60006040518083038185875af1925050503d8060008114610c80576040519150601f19603f3d011682016040523d82523d6000602084013e610c85565b606091505b505080925050610c9f67571327c35746671260c01b6113f9565b610cb367122d209b51def21d60c01b6113f9565b610cc767c82d5c5e28ffd42560c01b6113f9565b81610d07576040517f08c379a0000000000000000000000000000000000000000000000000000000008152600401610cfe906119aa565b60405180910390fd5b610d1b6709916eac4aefe55f60c01b6113f9565b610d2f67b06dbc0fbee0e74860c01b6113f9565b60008060003373ffffffffffffffffffffffffffffffffffffffff1673ffffffffffffffffffffffffffffffffffffffff16815260200190815260200160002081905550610d87679e6a2e519683421160c01b6113f9565b6001600560146101000a81548160ff021916908315150217905550610db6674af5b69e6cd681f760c01b6113f9565b610dca6732fe6c559a4b6d4d60c01b6113f9565b7f2413e9342f4545ed6b87ad890930d6affc4c1914b742a3fad66c49d6d507c73b81604051610df991906115dd565b60405180910390a15050565b600160009054906101000a900473ffffffffffffffffffffffffffffffffffffffff1681565b60006020528060005260406000206000915090505481565b610e5767d368705a740f557360c01b6113f9565b610e6b673ddcb819b3431a0360c01b6113f9565b610e7f67dd3bc9a5274eeca660c01b6113f9565b610e9367f868645f22a08a8360c01b6113f9565b68056bc75e2d63100000610ea6346113fc565b1015610ee7576040517f08c379a0000000000000000000000000000000000000000000000000000000008152600401610ede90611aab565b60405180910390fd5b610efb67663fc7a37fe7e6c560c01b6113f9565b610f0f67772926edafdc9de260c01b6113f9565b610f2367dee5457f1ecf86f260c01b6113f9565b610f3767a320bb72bcfddb3160c01b6113f9565b600454600354610f4791906117a0565b4210610f88576040517f08c379a0000000000000000000000000000000000000000000000000000000008152600401610f7f90611b17565b60405180910390fd5b610f9c670517e45894f42b5660c01b6113f9565b610fb0674ad0166f3606ee7760c01b6113f9565b346000803373ffffffffffffffffffffffffffffffffffffffff1673ffffffffffffffffffffffffffffffffffffffff16815260200190815260200160002081905550565b600061100b67a3784e17b6e5d85960c01b6113f9565b61101f675c3cad7ba178edb260c01b6113f9565b6110336766b13ef4901ae27c60c01b6113f9565b6000600160009054906101000a900473ffffffffffffffffffffffffffffffffffffffff1673ffffffffffffffffffffffffffffffffffffffff1663feaf968c6040518163ffffffff1660e01b815260040160a060405180830381865afa1580156110a2573d6000803e3d6000fd5b505050506040513d601f19601f820116820180604052508101906110c69190611bba565b5050509150506110e0676fbb78b2a32242ff60c01b6113f9565b6110f46792f3c2ed0cbbce5c60c01b6113f9565b8091505090565b61110f675455e27a43577d4360c01b6113f9565b611123678533a04dbb21a9f560c01b6113f9565b611137671698a27c1e71b5fb60c01b6113f9565b61114b67af002c00e6400a8d60c01b6113f9565b600560009054906101000a900473ffffffffffffffffffffffffffffffffffffffff1673ffffffffffffffffffffffffffffffffffffffff163373ffffffffffffffffffffffffffffffffffffffff16146111db576040517f08c379a00000000000000000000000000000000000000000000000000000000081526004016111d290611ca7565b60405180910390fd5b6111ef6753d6acf97537d49e60c01b6113f9565b61120367dca3dde60a72f6d060c01b6113f9565b806000808473ffffffffffffffffffffffffffffffffffffffff1673ffffffffffffffffffffffffffffffffffffffff168152602001908152602001600020819055505050565b600560149054906101000a900460ff1681565b611271679ecc5985ec3e9bb760c01b6113f9565b61128567b29435bfe6f4d73e60c01b6113f9565b611299675ebc28cfa4dc568360c01b6113f9565b6112ad6745c4f652e2462ed860c01b6113f9565b6112c1676ef7d944e82d72cb60c01b6113f9565b600260009054906101000a900473ffffffffffffffffffffffffffffffffffffffff1673ffffffffffffffffffffffffffffffffffffffff163373ffffffffffffffffffffffffffffffffffffffff1614611351576040517f08c379a000000000000000000000000000000000000000000000000000000000815260040161134890611751565b60405180910390fd5b61136567abee07ad83f4cc8060c01b6113f9565b6113796744d7a8b9cefc34f160c01b6113f9565b61138d679991af7de0dec67060c01b6113f9565b6113a167ab3deeea471935e760c01b6113f9565b6113b5677905ef3df3f85e3d60c01b6113f9565b80600260006101000a81548173ffffffffffffffffffffffffffffffffffffffff021916908373ffffffffffffffffffffffffffffffffffffffff16021790555050565b50565b60006114116677013552917b8660c01b6113f9565b61142567e2c9dabd2accd51d60c01b6113f9565b61143967782d4635862f91c360c01b6113f9565b6000611443610ff5565b905061145967ec12262754b1724060c01b6113f9565b61146d673e316a3e53af1a8d60c01b6113f9565b6305f5e100818461147e9190611cc7565b6114889190611d38565b915050919050565b600080fd5b600073ffffffffffffffffffffffffffffffffffffffff82169050919050565b60006114c082611495565b9050919050565b6114d0816114b5565b81146114db57600080fd5b50565b6000813590506114ed816114c7565b92915050565b60006020828403121561150957611508611490565b5b6000611517848285016114de565b91505092915050565b611529816114b5565b82525050565b60006020820190506115446000830184611520565b92915050565b6000819050919050565b600061156f61156a61156584611495565b61154a565b611495565b9050919050565b600061158182611554565b9050919050565b600061159382611576565b9050919050565b6115a381611588565b82525050565b60006020820190506115be600083018461159a565b92915050565b6000819050919050565b6115d7816115c4565b82525050565b60006020820190506115f260008301846115ce565b92915050565b6000819050919050565b61160b816115f8565b82525050565b60006020820190506116266000830184611602565b92915050565b611635816115c4565b811461164057600080fd5b50565b6000813590506116528161162c565b92915050565b6000806040838503121561166f5761166e611490565b5b600061167d858286016114de565b925050602061168e85828601611643565b9150509250929050565b60008115159050919050565b6116ad81611698565b82525050565b60006020820190506116c860008301846116a4565b92915050565b600082825260208201905092915050565b7f746869732066756e6374696f6e2063616e206f6e6c792062652063616c6c656460008201527f206279206f776e65720000000000000000000000000000000000000000000000602082015250565b600061173b6029836116ce565b9150611746826116df565b604082019050919050565b6000602082019050818103600083015261176a8161172e565b9050919050565b7f4e487b7100000000000000000000000000000000000000000000000000000000600052601160045260246000fd5b60006117ab826115c4565b91506117b6836115c4565b92508282019050808211156117ce576117cd611771565b5b92915050565b7f77696e646f77206973206e6f7420636c6f736564000000000000000000000000600082015250565b600061180a6014836116ce565b9150611815826117d4565b602082019050919050565b60006020820190508181036000830152611839816117fd565b9050919050565b7f5461726765742069732072656163686564000000000000000000000000000000600082015250565b60006118766011836116ce565b915061188182611840565b602082019050919050565b600060208201905081810360008301526118a581611869565b9050919050565b7f7468657265206973206e6f2066756e6420666f7220796f750000000000000000600082015250565b60006118e26018836116ce565b91506118ed826118ac565b602082019050919050565b60006020820190508181036000830152611911816118d5565b9050919050565b600081905092915050565b50565b6000611933600083611918565b915061193e82611923565b600082019050919050565b600061195482611926565b9150819050919050565b7f7472616e73666572207478206661696c65640000000000000000000000000000600082015250565b60006119946012836116ce565b915061199f8261195e565b602082019050919050565b600060208201905081810360008301526119c381611987565b9050919050565b60006040820190506119df6000830185611520565b6119ec60208301846115ce565b9392505050565b7f546172676574206973206e6f7420726561636865640000000000000000000000600082015250565b6000611a296015836116ce565b9150611a34826119f3565b602082019050919050565b60006020820190508181036000830152611a5881611a1c565b9050919050565b7f53656e64206d6f72652045544800000000000000000000000000000000000000600082015250565b6000611a95600d836116ce565b9150611aa082611a5f565b602082019050919050565b60006020820190508181036000830152611ac481611a88565b9050919050565b7f77696e646f7720697320636c6f73656400000000000000000000000000000000600082015250565b6000611b016010836116ce565b9150611b0c82611acb565b602082019050919050565b60006020820190508181036000830152611b3081611af4565b9050919050565b600069ffffffffffffffffffff82169050919050565b611b5681611b37565b8114611b6157600080fd5b50565b600081519050611b7381611b4d565b92915050565b611b82816115f8565b8114611b8d57600080fd5b50565b600081519050611b9f81611b79565b92915050565b600081519050611bb48161162c565b92915050565b600080600080600060a08688031215611bd657611bd5611490565b5b6000611be488828901611b64565b9550506020611bf588828901611b90565b9450506040611c0688828901611ba5565b9350506060611c1788828901611ba5565b9250506080611c2888828901611b64565b9150509295509295909350565b7f796f7520646f206e6f742068617665207065726d697373696f6e20746f20636160008201527f6c6c20746869732066756e74696f6e0000000000000000000000000000000000602082015250565b6000611c91602f836116ce565b9150611c9c82611c35565b604082019050919050565b60006020820190508181036000830152611cc081611c84565b9050919050565b6000611cd2826115c4565b9150611cdd836115c4565b9250828202611ceb816115c4565b91508282048414831517611d0257611d01611771565b5b5092915050565b7f4e487b7100000000000000000000000000000000000000000000000000000000600052601260045260246000fd5b6000611d43826115c4565b9150611d4e836115c4565b925082611d5e57611d5d611d09565b5b82820490509291505056fea264697066735822122062b0ea7185c342dfa8dd653647cee2d7414f927047f272c72cfbdfd48dc08f9a64736f6c63430008180033",
  "linkReferences": {},
  "deployedLinkReferences": {}
}