{
	"lesson - 3/FundMe2.sol": {
		"FundMe": {
			"abi": [
				{
					"inputs": [
						{
							"internalType": "uint256",
							"name": "_lockTime",
							"type": "uint256"
						}
					],
					"stateMutability": "nonpayable",
					"type": "constructor"
				},
				{
					"inputs": [],
					"name": "fund",
					"outputs": [],
					"stateMutability": "payable",
					"type": "function"
				},
				{
					"inputs": [
						{
							"internalType": "address",
							"name": "",
							"type": "address"
						}
					],
					"name": "fundersToAmount",
					"outputs": [
						{
							"internalType": "uint256",
							"name": "",
							"type": "uint256"
						}
					],
					"stateMutability": "view",
					"type": "function"
				},
				{
					"inputs": [],
					"name": "getChainlinkDataFeedLatestAnswer",
					"outputs": [
						{
							"internalType": "int256",
							"name": "",
							"type": "int256"
						}
					],
					"stateMutability": "view",
					"type": "function"
				},
				{
					"inputs": [],
					"name": "getFund",
					"outputs": [],
					"stateMutability": "nonpayable",
					"type": "function"
				},
				{
					"inputs": [],
					"name": "owner",
					"outputs": [
						{
							"internalType": "address",
							"name": "",
							"type": "address"
						}
					],
					"stateMutability": "view",
					"type": "function"
				},
				{
					"inputs": [],
					"name": "refund",
					"outputs": [],
					"stateMutability": "nonpayable",
					"type": "function"
				},
				{
					"inputs": [
						{
							"internalType": "address",
							"name": "newOwner",
							"type": "address"
						}
					],
					"name": "transferOwnership",
					"outputs": [],
					"stateMutability": "nonpayable",
					"type": "function"
				}
			],
			"devdoc": {
				"kind": "dev",
				"methods": {},
				"version": 1
			},
			"evm": {
				"assembly": "    /* \"lesson - 3/FundMe2.sol\":457:3888  contract FundMe {... */\n  mstore(0x40, 0x80)\n    /* \"lesson - 3/FundMe2.sol\":805:1151  constructor(uint256 _lockTime) {... */\n  callvalue\n  dup1\n  iszero\n  tag_1\n  jumpi\n  0x00\n  dup1\n  revert\ntag_1:\n  pop\n  mload(0x40)\n  sub(codesize, bytecodeSize)\n  dup1\n  bytecodeSize\n  dup4\n  codecopy\n  dup2\n  dup2\n  add\n  0x40\n  mstore\n  dup2\n  add\n  swap1\n  tag_2\n  swap2\n  swap1\n  tag_3\n  jump\t// in\ntag_2:\n    /* \"lesson - 3/FundMe2.sol\":995:1037  0x1AC55d145062C48ddda47f1AB2C5b7B0129842d5 */\n  0x1ac55d145062c48ddda47f1ab2c5b7b0129842d5\n    /* \"lesson - 3/FundMe2.sol\":962:970  dataFeed */\n  0x01\n  0x00\n    /* \"lesson - 3/FundMe2.sol\":962:1038  dataFeed = AggregatorV3Interface(0x1AC55d145062C48ddda47f1AB2C5b7B0129842d5) */\n  0x0100\n  exp\n  dup2\n  sload\n  dup2\n  0xffffffffffffffffffffffffffffffffffffffff\n  mul\n  not\n  and\n  swap1\n  dup4\n  0xffffffffffffffffffffffffffffffffffffffff\n  and\n  mul\n  or\n  swap1\n  sstore\n  pop\n    /* \"lesson - 3/FundMe2.sol\":1056:1066  msg.sender */\n  caller\n    /* \"lesson - 3/FundMe2.sol\":1048:1053  owner */\n  0x02\n  0x00\n    /* \"lesson - 3/FundMe2.sol\":1048:1066  owner = msg.sender */\n  0x0100\n  exp\n  dup2\n  sload\n  dup2\n  0xffffffffffffffffffffffffffffffffffffffff\n  mul\n  not\n  and\n  swap1\n  dup4\n  0xffffffffffffffffffffffffffffffffffffffff\n  and\n  mul\n  or\n  swap1\n  sstore\n  pop\n    /* \"lesson - 3/FundMe2.sol\":1099:1114  block.timestamp */\n  timestamp\n    /* \"lesson - 3/FundMe2.sol\":1077:1096  deploymentTimestamp */\n  0x03\n    /* \"lesson - 3/FundMe2.sol\":1077:1114  deploymentTimestamp = block.timestamp */\n  dup2\n  swap1\n  sstore\n  pop\n    /* \"lesson - 3/FundMe2.sol\":1135:1144  _lockTime */\n  dup1\n    /* \"lesson - 3/FundMe2.sol\":1124:1132  lockTime */\n  0x04\n    /* \"lesson - 3/FundMe2.sol\":1124:1144  lockTime = _lockTime */\n  dup2\n  swap1\n  sstore\n  pop\n    /* \"lesson - 3/FundMe2.sol\":805:1151  constructor(uint256 _lockTime) {... */\n  pop\n    /* \"lesson - 3/FundMe2.sol\":457:3888  contract FundMe {... */\n  jump(tag_6)\n    /* \"#utility.yul\":88:205   */\ntag_8:\n    /* \"#utility.yul\":197:198   */\n  0x00\n    /* \"#utility.yul\":194:195   */\n  dup1\n    /* \"#utility.yul\":187:199   */\n  revert\n    /* \"#utility.yul\":334:411   */\ntag_10:\n    /* \"#utility.yul\":371:378   */\n  0x00\n    /* \"#utility.yul\":400:405   */\n  dup2\n    /* \"#utility.yul\":389:405   */\n  swap1\n  pop\n    /* \"#utility.yul\":334:411   */\n  swap2\n  swap1\n  pop\n  jump\t// out\n    /* \"#utility.yul\":417:539   */\ntag_11:\n    /* \"#utility.yul\":490:514   */\n  tag_19\n    /* \"#utility.yul\":508:513   */\n  dup2\n    /* \"#utility.yul\":490:514   */\n  tag_10\n  jump\t// in\ntag_19:\n    /* \"#utility.yul\":483:488   */\n  dup2\n    /* \"#utility.yul\":480:515   */\n  eq\n    /* \"#utility.yul\":470:533   */\n  tag_20\n  jumpi\n    /* \"#utility.yul\":529:530   */\n  0x00\n    /* \"#utility.yul\":526:527   */\n  dup1\n    /* \"#utility.yul\":519:531   */\n  revert\n    /* \"#utility.yul\":470:533   */\ntag_20:\n    /* \"#utility.yul\":417:539   */\n  pop\n  jump\t// out\n    /* \"#utility.yul\":545:688   */\ntag_12:\n    /* \"#utility.yul\":602:607   */\n  0x00\n    /* \"#utility.yul\":633:639   */\n  dup2\n    /* \"#utility.yul\":627:640   */\n  mload\n    /* \"#utility.yul\":618:640   */\n  swap1\n  pop\n    /* \"#utility.yul\":649:682   */\n  tag_22\n    /* \"#utility.yul\":676:681   */\n  dup2\n    /* \"#utility.yul\":649:682   */\n  tag_11\n  jump\t// in\ntag_22:\n    /* \"#utility.yul\":545:688   */\n  swap3\n  swap2\n  pop\n  pop\n  jump\t// out\n    /* \"#utility.yul\":694:1045   */\ntag_3:\n    /* \"#utility.yul\":764:770   */\n  0x00\n    /* \"#utility.yul\":813:815   */\n  0x20\n    /* \"#utility.yul\":801:810   */\n  dup3\n    /* \"#utility.yul\":792:799   */\n  dup5\n    /* \"#utility.yul\":788:811   */\n  sub\n    /* \"#utility.yul\":784:816   */\n  slt\n    /* \"#utility.yul\":781:900   */\n  iszero\n  tag_24\n  jumpi\n    /* \"#utility.yul\":819:898   */\n  tag_25\n  tag_8\n  jump\t// in\ntag_25:\n    /* \"#utility.yul\":781:900   */\ntag_24:\n    /* \"#utility.yul\":939:940   */\n  0x00\n    /* \"#utility.yul\":964:1028   */\n  tag_26\n    /* \"#utility.yul\":1020:1027   */\n  dup5\n    /* \"#utility.yul\":1011:1017   */\n  dup3\n    /* \"#utility.yul\":1000:1009   */\n  dup6\n    /* \"#utility.yul\":996:1018   */\n  add\n    /* \"#utility.yul\":964:1028   */\n  tag_12\n  jump\t// in\ntag_26:\n    /* \"#utility.yul\":954:1028   */\n  swap2\n  pop\n    /* \"#utility.yul\":910:1038   */\n  pop\n    /* \"#utility.yul\":694:1045   */\n  swap3\n  swap2\n  pop\n  pop\n  jump\t// out\n    /* \"lesson - 3/FundMe2.sol\":457:3888  contract FundMe {... */\ntag_6:\n  dataSize(sub_0)\n  dup1\n  dataOffset(sub_0)\n  0x00\n  codecopy\n  0x00\n  return\nstop\n\nsub_0: assembly {\n        /* \"lesson - 3/FundMe2.sol\":457:3888  contract FundMe {... */\n      mstore(0x40, 0x80)\n      jumpi(tag_1, lt(calldatasize, 0x04))\n      shr(0xe0, calldataload(0x00))\n      dup1\n      0x9f883a05\n      gt\n      tag_9\n      jumpi\n      dup1\n      0x9f883a05\n      eq\n      tag_5\n      jumpi\n      dup1\n      0xb60d4288\n      eq\n      tag_6\n      jumpi\n      dup1\n      0xbea4dfb5\n      eq\n      tag_7\n      jumpi\n      dup1\n      0xf2fde38b\n      eq\n      tag_8\n      jumpi\n      jump(tag_1)\n    tag_9:\n      dup1\n      0x590e1ae3\n      eq\n      tag_2\n      jumpi\n      dup1\n      0x8da5cb5b\n      eq\n      tag_3\n      jumpi\n      dup1\n      0x8edd6eb6\n      eq\n      tag_4\n      jumpi\n    tag_1:\n      0x00\n      dup1\n      revert\n        /* \"lesson - 3/FundMe2.sol\":3055:3621  function refund() external windowClose{... */\n    tag_2:\n      callvalue\n      dup1\n      iszero\n      tag_10\n      jumpi\n      0x00\n      dup1\n      revert\n    tag_10:\n      pop\n      tag_11\n      tag_12\n      jump\t// in\n    tag_11:\n      stop\n        /* \"lesson - 3/FundMe2.sol\":697:717  address public owner */\n    tag_3:\n      callvalue\n      dup1\n      iszero\n      tag_13\n      jumpi\n      0x00\n      dup1\n      revert\n    tag_13:\n      pop\n      tag_14\n      tag_15\n      jump\t// in\n    tag_14:\n      mload(0x40)\n      tag_16\n      swap2\n      swap1\n      tag_17\n      jump\t// in\n    tag_16:\n      mload(0x40)\n      dup1\n      swap2\n      sub\n      swap1\n      return\n        /* \"lesson - 3/FundMe2.sol\":2196:3045  function getFund() external windowClose onlyOwner{... */\n    tag_4:\n      callvalue\n      dup1\n      iszero\n      tag_18\n      jumpi\n      0x00\n      dup1\n      revert\n    tag_18:\n      pop\n      tag_19\n      tag_20\n      jump\t// in\n    tag_19:\n      stop\n        /* \"lesson - 3/FundMe2.sol\":479:529  mapping(address => uint256) public fundersToAmount */\n    tag_5:\n      callvalue\n      dup1\n      iszero\n      tag_21\n      jumpi\n      0x00\n      dup1\n      revert\n    tag_21:\n      pop\n      tag_22\n      0x04\n      dup1\n      calldatasize\n      sub\n      dup2\n      add\n      swap1\n      tag_23\n      swap2\n      swap1\n      tag_24\n      jump\t// in\n    tag_23:\n      tag_25\n      jump\t// in\n    tag_22:\n      mload(0x40)\n      tag_26\n      swap2\n      swap1\n      tag_27\n      jump\t// in\n    tag_26:\n      mload(0x40)\n      dup1\n      swap2\n      sub\n      swap1\n      return\n        /* \"lesson - 3/FundMe2.sol\":1157:1415  function fund() external  payable {... */\n    tag_6:\n      tag_28\n      tag_29\n      jump\t// in\n    tag_28:\n      stop\n        /* \"lesson - 3/FundMe2.sol\":1421:1759  function getChainlinkDataFeedLatestAnswer() public view returns (int) {... */\n    tag_7:\n      callvalue\n      dup1\n      iszero\n      tag_30\n      jumpi\n      0x00\n      dup1\n      revert\n    tag_30:\n      pop\n      tag_31\n      tag_32\n      jump\t// in\n    tag_31:\n      mload(0x40)\n      tag_33\n      swap2\n      swap1\n      tag_34\n      jump\t// in\n    tag_33:\n      mload(0x40)\n      dup1\n      swap2\n      sub\n      swap1\n      return\n        /* \"lesson - 3/FundMe2.sol\":2009:2189  function transferOwnership(address newOwner) public onlyOwner{... */\n    tag_8:\n      callvalue\n      dup1\n      iszero\n      tag_35\n      jumpi\n      0x00\n      dup1\n      revert\n    tag_35:\n      pop\n      tag_36\n      0x04\n      dup1\n      calldatasize\n      sub\n      dup2\n      add\n      swap1\n      tag_37\n      swap2\n      swap1\n      tag_24\n      jump\t// in\n    tag_37:\n      tag_38\n      jump\t// in\n    tag_36:\n      stop\n        /* \"lesson - 3/FundMe2.sol\":3055:3621  function refund() external windowClose{... */\n    tag_12:\n        /* \"lesson - 3/FundMe2.sol\":3708:3716  lockTime */\n      sload(0x04)\n        /* \"lesson - 3/FundMe2.sol\":3686:3705  deploymentTimestamp */\n      sload(0x03)\n        /* \"lesson - 3/FundMe2.sol\":3686:3716  deploymentTimestamp + lockTime */\n      tag_40\n      swap2\n      swap1\n      tag_41\n      jump\t// in\n    tag_40:\n        /* \"lesson - 3/FundMe2.sol\":3667:3682  block.timestamp */\n      timestamp\n        /* \"lesson - 3/FundMe2.sol\":3667:3716  block.timestamp >= deploymentTimestamp + lockTime */\n      lt\n      iszero\n        /* \"lesson - 3/FundMe2.sol\":3659:3740  require(block.timestamp >= deploymentTimestamp + lockTime, \"window is not close\") */\n      tag_42\n      jumpi\n      mload(0x40)\n      0x08c379a000000000000000000000000000000000000000000000000000000000\n      dup2\n      mstore\n      0x04\n      add\n      tag_43\n      swap1\n      tag_44\n      jump\t// in\n    tag_43:\n      mload(0x40)\n      dup1\n      swap2\n      sub\n      swap1\n      revert\n    tag_42:\n        /* \"lesson - 3/FundMe2.sol\":675:690  1000 * 10 ** 18 */\n      0x3635c9adc5dea00000\n        /* \"lesson - 3/FundMe2.sol\":3111:3149  convertEthToUSD(address(this).balance) */\n      tag_46\n        /* \"lesson - 3/FundMe2.sol\":3127:3148  address(this).balance */\n      selfbalance\n        /* \"lesson - 3/FundMe2.sol\":3111:3126  convertEthToUSD */\n      tag_47\n        /* \"lesson - 3/FundMe2.sol\":3111:3149  convertEthToUSD(address(this).balance) */\n      jump\t// in\n    tag_46:\n        /* \"lesson - 3/FundMe2.sol\":3111:3158  convertEthToUSD(address(this).balance) < TARGET */\n      lt\n        /* \"lesson - 3/FundMe2.sol\":3103:3180  require(convertEthToUSD(address(this).balance) < TARGET, \"Target is reached\") */\n      tag_48\n      jumpi\n      mload(0x40)\n      0x08c379a000000000000000000000000000000000000000000000000000000000\n      dup2\n      mstore\n      0x04\n      add\n      tag_49\n      swap1\n      tag_50\n      jump\t// in\n    tag_49:\n      mload(0x40)\n      dup1\n      swap2\n      sub\n      swap1\n      revert\n    tag_48:\n        /* \"lesson - 3/FundMe2.sol\":3286:3287  0 */\n      0x00\n        /* \"lesson - 3/FundMe2.sol\":3255:3270  fundersToAmount */\n      dup1\n        /* \"lesson - 3/FundMe2.sol\":3255:3282  fundersToAmount[msg.sender] */\n      0x00\n        /* \"lesson - 3/FundMe2.sol\":3271:3281  msg.sender */\n      caller\n        /* \"lesson - 3/FundMe2.sol\":3255:3282  fundersToAmount[msg.sender] */\n      0xffffffffffffffffffffffffffffffffffffffff\n      and\n      0xffffffffffffffffffffffffffffffffffffffff\n      and\n      dup2\n      mstore\n      0x20\n      add\n      swap1\n      dup2\n      mstore\n      0x20\n      add\n      0x00\n      keccak256\n      sload\n        /* \"lesson - 3/FundMe2.sol\":3255:3287  fundersToAmount[msg.sender] != 0 */\n      sub\n        /* \"lesson - 3/FundMe2.sol\":3247:3317  require(fundersToAmount[msg.sender] != 0, \"there is no fund for you \") */\n      tag_51\n      jumpi\n      mload(0x40)\n      0x08c379a000000000000000000000000000000000000000000000000000000000\n      dup2\n      mstore\n      0x04\n      add\n      tag_52\n      swap1\n      tag_53\n      jump\t// in\n    tag_52:\n      mload(0x40)\n      dup1\n      swap2\n      sub\n      swap1\n      revert\n    tag_51:\n        /* \"lesson - 3/FundMe2.sol\":3423:3435  bool success */\n      0x00\n        /* \"lesson - 3/FundMe2.sol\":3467:3477  msg.sender */\n      caller\n        /* \"lesson - 3/FundMe2.sol\":3459:3483  payable(msg.sender).call */\n      0xffffffffffffffffffffffffffffffffffffffff\n      and\n        /* \"lesson - 3/FundMe2.sol\":3491:3506  fundersToAmount */\n      0x00\n        /* \"lesson - 3/FundMe2.sol\":3491:3518  fundersToAmount[msg.sender] */\n      dup1\n        /* \"lesson - 3/FundMe2.sol\":3507:3517  msg.sender */\n      caller\n        /* \"lesson - 3/FundMe2.sol\":3491:3518  fundersToAmount[msg.sender] */\n      0xffffffffffffffffffffffffffffffffffffffff\n      and\n      0xffffffffffffffffffffffffffffffffffffffff\n      and\n      dup2\n      mstore\n      0x20\n      add\n      swap1\n      dup2\n      mstore\n      0x20\n      add\n      0x00\n      keccak256\n      sload\n        /* \"lesson - 3/FundMe2.sol\":3459:3524  payable(msg.sender).call{value: fundersToAmount[msg.sender] }(\"\") */\n      mload(0x40)\n      tag_54\n      swap1\n      tag_55\n      jump\t// in\n    tag_54:\n      0x00\n      mload(0x40)\n      dup1\n      dup4\n      sub\n      dup2\n      dup6\n      dup8\n      gas\n      call\n      swap3\n      pop\n      pop\n      pop\n      returndatasize\n      dup1\n      0x00\n      dup2\n      eq\n      tag_58\n      jumpi\n      mload(0x40)\n      swap2\n      pop\n      and(add(returndatasize, 0x3f), not(0x1f))\n      dup3\n      add\n      0x40\n      mstore\n      returndatasize\n      dup3\n      mstore\n      returndatasize\n      0x00\n      0x20\n      dup5\n      add\n      returndatacopy\n      jump(tag_57)\n    tag_58:\n      0x60\n      swap2\n      pop\n    tag_57:\n      pop\n        /* \"lesson - 3/FundMe2.sol\":3445:3524  (success, ) = payable(msg.sender).call{value: fundersToAmount[msg.sender] }(\"\") */\n      pop\n      dup1\n      swap2\n      pop\n      pop\n        /* \"lesson - 3/FundMe2.sol\":3542:3549  success */\n      dup1\n        /* \"lesson - 3/FundMe2.sol\":3534:3572  require(success, \"transfer tx failed\") */\n      tag_59\n      jumpi\n      mload(0x40)\n      0x08c379a000000000000000000000000000000000000000000000000000000000\n      dup2\n      mstore\n      0x04\n      add\n      tag_60\n      swap1\n      tag_61\n      jump\t// in\n    tag_60:\n      mload(0x40)\n      dup1\n      swap2\n      sub\n      swap1\n      revert\n    tag_59:\n        /* \"lesson - 3/FundMe2.sol\":3612:3613  0 */\n      0x00\n        /* \"lesson - 3/FundMe2.sol\":3582:3597  fundersToAmount */\n      dup1\n        /* \"lesson - 3/FundMe2.sol\":3582:3609  fundersToAmount[msg.sender] */\n      0x00\n        /* \"lesson - 3/FundMe2.sol\":3598:3608  msg.sender */\n      caller\n        /* \"lesson - 3/FundMe2.sol\":3582:3609  fundersToAmount[msg.sender] */\n      0xffffffffffffffffffffffffffffffffffffffff\n      and\n      0xffffffffffffffffffffffffffffffffffffffff\n      and\n      dup2\n      mstore\n      0x20\n      add\n      swap1\n      dup2\n      mstore\n      0x20\n      add\n      0x00\n      keccak256\n        /* \"lesson - 3/FundMe2.sol\":3582:3613  fundersToAmount[msg.sender] = 0 */\n      dup2\n      swap1\n      sstore\n      pop\n        /* \"lesson - 3/FundMe2.sol\":3093:3621  {... */\n      pop\n        /* \"lesson - 3/FundMe2.sol\":3055:3621  function refund() external windowClose{... */\n      jump\t// out\n        /* \"lesson - 3/FundMe2.sol\":697:717  address public owner */\n    tag_15:\n      0x02\n      0x00\n      swap1\n      sload\n      swap1\n      0x0100\n      exp\n      swap1\n      div\n      0xffffffffffffffffffffffffffffffffffffffff\n      and\n      dup2\n      jump\t// out\n        /* \"lesson - 3/FundMe2.sol\":2196:3045  function getFund() external windowClose onlyOwner{... */\n    tag_20:\n        /* \"lesson - 3/FundMe2.sol\":3708:3716  lockTime */\n      sload(0x04)\n        /* \"lesson - 3/FundMe2.sol\":3686:3705  deploymentTimestamp */\n      sload(0x03)\n        /* \"lesson - 3/FundMe2.sol\":3686:3716  deploymentTimestamp + lockTime */\n      tag_63\n      swap2\n      swap1\n      tag_41\n      jump\t// in\n    tag_63:\n        /* \"lesson - 3/FundMe2.sol\":3667:3682  block.timestamp */\n      timestamp\n        /* \"lesson - 3/FundMe2.sol\":3667:3716  block.timestamp >= deploymentTimestamp + lockTime */\n      lt\n      iszero\n        /* \"lesson - 3/FundMe2.sol\":3659:3740  require(block.timestamp >= deploymentTimestamp + lockTime, \"window is not close\") */\n      tag_64\n      jumpi\n      mload(0x40)\n      0x08c379a000000000000000000000000000000000000000000000000000000000\n      dup2\n      mstore\n      0x04\n      add\n      tag_65\n      swap1\n      tag_44\n      jump\t// in\n    tag_65:\n      mload(0x40)\n      dup1\n      swap2\n      sub\n      swap1\n      revert\n    tag_64:\n        /* \"lesson - 3/FundMe2.sol\":3817:3822  owner */\n      0x02\n      0x00\n      swap1\n      sload\n      swap1\n      0x0100\n      exp\n      swap1\n      div\n      0xffffffffffffffffffffffffffffffffffffffff\n      and\n        /* \"lesson - 3/FundMe2.sol\":3803:3822  msg.sender == owner */\n      0xffffffffffffffffffffffffffffffffffffffff\n      and\n        /* \"lesson - 3/FundMe2.sol\":3803:3813  msg.sender */\n      caller\n        /* \"lesson - 3/FundMe2.sol\":3803:3822  msg.sender == owner */\n      0xffffffffffffffffffffffffffffffffffffffff\n      and\n      eq\n        /* \"lesson - 3/FundMe2.sol\":3795:3868  require(msg.sender == owner, \"this function can only be called by owner\") */\n      tag_67\n      jumpi\n      mload(0x40)\n      0x08c379a000000000000000000000000000000000000000000000000000000000\n      dup2\n      mstore\n      0x04\n      add\n      tag_68\n      swap1\n      tag_69\n      jump\t// in\n    tag_68:\n      mload(0x40)\n      dup1\n      swap2\n      sub\n      swap1\n      revert\n    tag_67:\n        /* \"lesson - 3/FundMe2.sol\":675:690  1000 * 10 ** 18 */\n      0x3635c9adc5dea00000\n        /* \"lesson - 3/FundMe2.sol\":2263:2301  convertEthToUSD(address(this).balance) */\n      tag_71\n        /* \"lesson - 3/FundMe2.sol\":2279:2300  address(this).balance */\n      selfbalance\n        /* \"lesson - 3/FundMe2.sol\":2263:2278  convertEthToUSD */\n      tag_47\n        /* \"lesson - 3/FundMe2.sol\":2263:2301  convertEthToUSD(address(this).balance) */\n      jump\t// in\n    tag_71:\n        /* \"lesson - 3/FundMe2.sol\":2263:2311  convertEthToUSD(address(this).balance) >= TARGET */\n      lt\n      iszero\n        /* \"lesson - 3/FundMe2.sol\":2255:2337  require(convertEthToUSD(address(this).balance) >= TARGET, \"Target is not reached\") */\n      tag_72\n      jumpi\n      mload(0x40)\n      0x08c379a000000000000000000000000000000000000000000000000000000000\n      dup2\n      mstore\n      0x04\n      add\n      tag_73\n      swap1\n      tag_74\n      jump\t// in\n    tag_73:\n      mload(0x40)\n      dup1\n      swap2\n      sub\n      swap1\n      revert\n    tag_72:\n        /* \"lesson - 3/FundMe2.sol\":2854:2866  bool success */\n      0x00\n        /* \"lesson - 3/FundMe2.sol\":2898:2908  msg.sender */\n      caller\n        /* \"lesson - 3/FundMe2.sol\":2890:2914  payable(msg.sender).call */\n      0xffffffffffffffffffffffffffffffffffffffff\n      and\n        /* \"lesson - 3/FundMe2.sol\":2922:2943  address(this).balance */\n      selfbalance\n        /* \"lesson - 3/FundMe2.sol\":2890:2948  payable(msg.sender).call{value: address(this).balance}(\"\") */\n      mload(0x40)\n      tag_75\n      swap1\n      tag_55\n      jump\t// in\n    tag_75:\n      0x00\n      mload(0x40)\n      dup1\n      dup4\n      sub\n      dup2\n      dup6\n      dup8\n      gas\n      call\n      swap3\n      pop\n      pop\n      pop\n      returndatasize\n      dup1\n      0x00\n      dup2\n      eq\n      tag_78\n      jumpi\n      mload(0x40)\n      swap2\n      pop\n      and(add(returndatasize, 0x3f), not(0x1f))\n      dup3\n      add\n      0x40\n      mstore\n      returndatasize\n      dup3\n      mstore\n      returndatasize\n      0x00\n      0x20\n      dup5\n      add\n      returndatacopy\n      jump(tag_77)\n    tag_78:\n      0x60\n      swap2\n      pop\n    tag_77:\n      pop\n        /* \"lesson - 3/FundMe2.sol\":2876:2948  (success, ) = payable(msg.sender).call{value: address(this).balance}(\"\") */\n      pop\n      dup1\n      swap2\n      pop\n      pop\n        /* \"lesson - 3/FundMe2.sol\":2966:2973  success */\n      dup1\n        /* \"lesson - 3/FundMe2.sol\":2958:2996  require(success, \"transfer tx failed\") */\n      tag_79\n      jumpi\n      mload(0x40)\n      0x08c379a000000000000000000000000000000000000000000000000000000000\n      dup2\n      mstore\n      0x04\n      add\n      tag_80\n      swap1\n      tag_61\n      jump\t// in\n    tag_80:\n      mload(0x40)\n      dup1\n      swap2\n      sub\n      swap1\n      revert\n    tag_79:\n        /* \"lesson - 3/FundMe2.sol\":3036:3037  0 */\n      0x00\n        /* \"lesson - 3/FundMe2.sol\":3006:3021  fundersToAmount */\n      dup1\n        /* \"lesson - 3/FundMe2.sol\":3006:3033  fundersToAmount[msg.sender] */\n      0x00\n        /* \"lesson - 3/FundMe2.sol\":3022:3032  msg.sender */\n      caller\n        /* \"lesson - 3/FundMe2.sol\":3006:3033  fundersToAmount[msg.sender] */\n      0xffffffffffffffffffffffffffffffffffffffff\n      and\n      0xffffffffffffffffffffffffffffffffffffffff\n      and\n      dup2\n      mstore\n      0x20\n      add\n      swap1\n      dup2\n      mstore\n      0x20\n      add\n      0x00\n      keccak256\n        /* \"lesson - 3/FundMe2.sol\":3006:3037  fundersToAmount[msg.sender] = 0 */\n      dup2\n      swap1\n      sstore\n      pop\n        /* \"lesson - 3/FundMe2.sol\":2245:3045  {... */\n      pop\n        /* \"lesson - 3/FundMe2.sol\":2196:3045  function getFund() external windowClose onlyOwner{... */\n      jump\t// out\n        /* \"lesson - 3/FundMe2.sol\":479:529  mapping(address => uint256) public fundersToAmount */\n    tag_25:\n      mstore(0x20, 0x00)\n      dup1\n      0x00\n      mstore\n      keccak256(0x00, 0x40)\n      0x00\n      swap2\n      pop\n      swap1\n      pop\n      sload\n      dup2\n      jump\t// out\n        /* \"lesson - 3/FundMe2.sol\":1157:1415  function fund() external  payable {... */\n    tag_29:\n        /* \"lesson - 3/FundMe2.sol\":569:583  100 * 10 ** 18 */\n      0x056bc75e2d63100000\n        /* \"lesson - 3/FundMe2.sol\":1209:1235  convertEthToUSD(msg.value) */\n      tag_82\n        /* \"lesson - 3/FundMe2.sol\":1225:1234  msg.value */\n      callvalue\n        /* \"lesson - 3/FundMe2.sol\":1209:1224  convertEthToUSD */\n      tag_47\n        /* \"lesson - 3/FundMe2.sol\":1209:1235  convertEthToUSD(msg.value) */\n      jump\t// in\n    tag_82:\n        /* \"lesson - 3/FundMe2.sol\":1209:1252  convertEthToUSD(msg.value) >= MINIMUN_VALUE */\n      lt\n      iszero\n        /* \"lesson - 3/FundMe2.sol\":1201:1270  require(convertEthToUSD(msg.value) >= MINIMUN_VALUE, \"Send more ETH\") */\n      tag_83\n      jumpi\n      mload(0x40)\n      0x08c379a000000000000000000000000000000000000000000000000000000000\n      dup2\n      mstore\n      0x04\n      add\n      tag_84\n      swap1\n      tag_85\n      jump\t// in\n    tag_84:\n      mload(0x40)\n      dup1\n      swap2\n      sub\n      swap1\n      revert\n    tag_83:\n        /* \"lesson - 3/FundMe2.sol\":1399:1408  msg.value */\n      callvalue\n        /* \"lesson - 3/FundMe2.sol\":1369:1384  fundersToAmount */\n      0x00\n        /* \"lesson - 3/FundMe2.sol\":1369:1396  fundersToAmount[msg.sender] */\n      dup1\n        /* \"lesson - 3/FundMe2.sol\":1385:1395  msg.sender */\n      caller\n        /* \"lesson - 3/FundMe2.sol\":1369:1396  fundersToAmount[msg.sender] */\n      0xffffffffffffffffffffffffffffffffffffffff\n      and\n      0xffffffffffffffffffffffffffffffffffffffff\n      and\n      dup2\n      mstore\n      0x20\n      add\n      swap1\n      dup2\n      mstore\n      0x20\n      add\n      0x00\n      keccak256\n        /* \"lesson - 3/FundMe2.sol\":1369:1408  fundersToAmount[msg.sender] = msg.value */\n      dup2\n      swap1\n      sstore\n      pop\n        /* \"lesson - 3/FundMe2.sol\":1157:1415  function fund() external  payable {... */\n      jump\t// out\n        /* \"lesson - 3/FundMe2.sol\":1421:1759  function getChainlinkDataFeedLatestAnswer() public view returns (int) {... */\n    tag_32:\n        /* \"lesson - 3/FundMe2.sol\":1486:1489  int */\n      0x00\n        /* \"lesson - 3/FundMe2.sol\":1576:1586  int answer */\n      dup1\n        /* \"lesson - 3/FundMe2.sol\":1703:1711  dataFeed */\n      0x01\n      0x00\n      swap1\n      sload\n      swap1\n      0x0100\n      exp\n      swap1\n      div\n      0xffffffffffffffffffffffffffffffffffffffff\n      and\n        /* \"lesson - 3/FundMe2.sol\":1703:1727  dataFeed.latestRoundData */\n      0xffffffffffffffffffffffffffffffffffffffff\n      and\n      0xfeaf968c\n        /* \"lesson - 3/FundMe2.sol\":1703:1729  dataFeed.latestRoundData() */\n      mload(0x40)\n      dup2\n      0xffffffff\n      and\n      0xe0\n      shl\n      dup2\n      mstore\n      0x04\n      add\n      0xa0\n      mload(0x40)\n      dup1\n      dup4\n      sub\n      dup2\n      dup7\n      gas\n      staticcall\n      iszero\n      dup1\n      iszero\n      tag_88\n      jumpi\n      returndatasize\n      0x00\n      dup1\n      returndatacopy\n      revert(0x00, returndatasize)\n    tag_88:\n      pop\n      pop\n      pop\n      pop\n      mload(0x40)\n      returndatasize\n      not(0x1f)\n      0x1f\n      dup3\n      add\n      and\n      dup3\n      add\n      dup1\n      0x40\n      mstore\n      pop\n      dup2\n      add\n      swap1\n      tag_89\n      swap2\n      swap1\n      tag_90\n      jump\t// in\n    tag_89:\n        /* \"lesson - 3/FundMe2.sol\":1528:1729  (... */\n      pop\n      pop\n      pop\n      swap2\n      pop\n      pop\n        /* \"lesson - 3/FundMe2.sol\":1746:1752  answer */\n      dup1\n        /* \"lesson - 3/FundMe2.sol\":1739:1752  return answer */\n      swap2\n      pop\n      pop\n        /* \"lesson - 3/FundMe2.sol\":1421:1759  function getChainlinkDataFeedLatestAnswer() public view returns (int) {... */\n      swap1\n      jump\t// out\n        /* \"lesson - 3/FundMe2.sol\":2009:2189  function transferOwnership(address newOwner) public onlyOwner{... */\n    tag_38:\n        /* \"lesson - 3/FundMe2.sol\":3817:3822  owner */\n      0x02\n      0x00\n      swap1\n      sload\n      swap1\n      0x0100\n      exp\n      swap1\n      div\n      0xffffffffffffffffffffffffffffffffffffffff\n      and\n        /* \"lesson - 3/FundMe2.sol\":3803:3822  msg.sender == owner */\n      0xffffffffffffffffffffffffffffffffffffffff\n      and\n        /* \"lesson - 3/FundMe2.sol\":3803:3813  msg.sender */\n      caller\n        /* \"lesson - 3/FundMe2.sol\":3803:3822  msg.sender == owner */\n      0xffffffffffffffffffffffffffffffffffffffff\n      and\n      eq\n        /* \"lesson - 3/FundMe2.sol\":3795:3868  require(msg.sender == owner, \"this function can only be called by owner\") */\n      tag_92\n      jumpi\n      mload(0x40)\n      0x08c379a000000000000000000000000000000000000000000000000000000000\n      dup2\n      mstore\n      0x04\n      add\n      tag_93\n      swap1\n      tag_69\n      jump\t// in\n    tag_93:\n      mload(0x40)\n      dup1\n      swap2\n      sub\n      swap1\n      revert\n    tag_92:\n        /* \"lesson - 3/FundMe2.sol\":2174:2182  newOwner */\n      dup1\n        /* \"lesson - 3/FundMe2.sol\":2166:2171  owner */\n      0x02\n      0x00\n        /* \"lesson - 3/FundMe2.sol\":2166:2182  owner = newOwner */\n      0x0100\n      exp\n      dup2\n      sload\n      dup2\n      0xffffffffffffffffffffffffffffffffffffffff\n      mul\n      not\n      and\n      swap1\n      dup4\n      0xffffffffffffffffffffffffffffffffffffffff\n      and\n      mul\n      or\n      swap1\n      sstore\n      pop\n        /* \"lesson - 3/FundMe2.sol\":2009:2189  function transferOwnership(address newOwner) public onlyOwner{... */\n      pop\n      jump\t// out\n        /* \"lesson - 3/FundMe2.sol\":1765:2003  function convertEthToUSD(uint256 ethAmount) ... */\n    tag_47:\n        /* \"lesson - 3/FundMe2.sol\":1858:1865  uint256 */\n      0x00\n        /* \"lesson - 3/FundMe2.sol\":1881:1897  uint256 ethPrice */\n      dup1\n        /* \"lesson - 3/FundMe2.sol\":1908:1942  getChainlinkDataFeedLatestAnswer() */\n      tag_96\n        /* \"lesson - 3/FundMe2.sol\":1908:1940  getChainlinkDataFeedLatestAnswer */\n      tag_32\n        /* \"lesson - 3/FundMe2.sol\":1908:1942  getChainlinkDataFeedLatestAnswer() */\n      jump\t// in\n    tag_96:\n        /* \"lesson - 3/FundMe2.sol\":1881:1943  uint256 ethPrice = uint256(getChainlinkDataFeedLatestAnswer()) */\n      swap1\n      pop\n        /* \"lesson - 3/FundMe2.sol\":1988:1995  10 ** 8 */\n      0x05f5e100\n        /* \"lesson - 3/FundMe2.sol\":1976:1984  ethPrice */\n      dup2\n        /* \"lesson - 3/FundMe2.sol\":1964:1973  ethAmount */\n      dup5\n        /* \"lesson - 3/FundMe2.sol\":1964:1984  ethAmount * ethPrice */\n      tag_97\n      swap2\n      swap1\n      tag_98\n      jump\t// in\n    tag_97:\n        /* \"lesson - 3/FundMe2.sol\":1964:1996  ethAmount * ethPrice / (10 ** 8) */\n      tag_99\n      swap2\n      swap1\n      tag_100\n      jump\t// in\n    tag_99:\n        /* \"lesson - 3/FundMe2.sol\":1957:1996  return ethAmount * ethPrice / (10 ** 8) */\n      swap2\n      pop\n      pop\n        /* \"lesson - 3/FundMe2.sol\":1765:2003  function convertEthToUSD(uint256 ethAmount) ... */\n      swap2\n      swap1\n      pop\n      jump\t// out\n        /* \"#utility.yul\":7:133   */\n    tag_101:\n        /* \"#utility.yul\":44:51   */\n      0x00\n        /* \"#utility.yul\":84:126   */\n      0xffffffffffffffffffffffffffffffffffffffff\n        /* \"#utility.yul\":77:82   */\n      dup3\n        /* \"#utility.yul\":73:127   */\n      and\n        /* \"#utility.yul\":62:127   */\n      swap1\n      pop\n        /* \"#utility.yul\":7:133   */\n      swap2\n      swap1\n      pop\n      jump\t// out\n        /* \"#utility.yul\":139:235   */\n    tag_102:\n        /* \"#utility.yul\":176:183   */\n      0x00\n        /* \"#utility.yul\":205:229   */\n      tag_143\n        /* \"#utility.yul\":223:228   */\n      dup3\n        /* \"#utility.yul\":205:229   */\n      tag_101\n      jump\t// in\n    tag_143:\n        /* \"#utility.yul\":194:229   */\n      swap1\n      pop\n        /* \"#utility.yul\":139:235   */\n      swap2\n      swap1\n      pop\n      jump\t// out\n        /* \"#utility.yul\":241:359   */\n    tag_103:\n        /* \"#utility.yul\":328:352   */\n      tag_145\n        /* \"#utility.yul\":346:351   */\n      dup2\n        /* \"#utility.yul\":328:352   */\n      tag_102\n      jump\t// in\n    tag_145:\n        /* \"#utility.yul\":323:326   */\n      dup3\n        /* \"#utility.yul\":316:353   */\n      mstore\n        /* \"#utility.yul\":241:359   */\n      pop\n      pop\n      jump\t// out\n        /* \"#utility.yul\":365:587   */\n    tag_17:\n        /* \"#utility.yul\":458:462   */\n      0x00\n        /* \"#utility.yul\":496:498   */\n      0x20\n        /* \"#utility.yul\":485:494   */\n      dup3\n        /* \"#utility.yul\":481:499   */\n      add\n        /* \"#utility.yul\":473:499   */\n      swap1\n      pop\n        /* \"#utility.yul\":509:580   */\n      tag_147\n        /* \"#utility.yul\":577:578   */\n      0x00\n        /* \"#utility.yul\":566:575   */\n      dup4\n        /* \"#utility.yul\":562:579   */\n      add\n        /* \"#utility.yul\":553:559   */\n      dup5\n        /* \"#utility.yul\":509:580   */\n      tag_103\n      jump\t// in\n    tag_147:\n        /* \"#utility.yul\":365:587   */\n      swap3\n      swap2\n      pop\n      pop\n      jump\t// out\n        /* \"#utility.yul\":674:791   */\n    tag_105:\n        /* \"#utility.yul\":783:784   */\n      0x00\n        /* \"#utility.yul\":780:781   */\n      dup1\n        /* \"#utility.yul\":773:785   */\n      revert\n        /* \"#utility.yul\":920:1042   */\n    tag_107:\n        /* \"#utility.yul\":993:1017   */\n      tag_152\n        /* \"#utility.yul\":1011:1016   */\n      dup2\n        /* \"#utility.yul\":993:1017   */\n      tag_102\n      jump\t// in\n    tag_152:\n        /* \"#utility.yul\":986:991   */\n      dup2\n        /* \"#utility.yul\":983:1018   */\n      eq\n        /* \"#utility.yul\":973:1036   */\n      tag_153\n      jumpi\n        /* \"#utility.yul\":1032:1033   */\n      0x00\n        /* \"#utility.yul\":1029:1030   */\n      dup1\n        /* \"#utility.yul\":1022:1034   */\n      revert\n        /* \"#utility.yul\":973:1036   */\n    tag_153:\n        /* \"#utility.yul\":920:1042   */\n      pop\n      jump\t// out\n        /* \"#utility.yul\":1048:1187   */\n    tag_108:\n        /* \"#utility.yul\":1094:1099   */\n      0x00\n        /* \"#utility.yul\":1132:1138   */\n      dup2\n        /* \"#utility.yul\":1119:1139   */\n      calldataload\n        /* \"#utility.yul\":1110:1139   */\n      swap1\n      pop\n        /* \"#utility.yul\":1148:1181   */\n      tag_155\n        /* \"#utility.yul\":1175:1180   */\n      dup2\n        /* \"#utility.yul\":1148:1181   */\n      tag_107\n      jump\t// in\n    tag_155:\n        /* \"#utility.yul\":1048:1187   */\n      swap3\n      swap2\n      pop\n      pop\n      jump\t// out\n        /* \"#utility.yul\":1193:1522   */\n    tag_24:\n        /* \"#utility.yul\":1252:1258   */\n      0x00\n        /* \"#utility.yul\":1301:1303   */\n      0x20\n        /* \"#utility.yul\":1289:1298   */\n      dup3\n        /* \"#utility.yul\":1280:1287   */\n      dup5\n        /* \"#utility.yul\":1276:1299   */\n      sub\n        /* \"#utility.yul\":1272:1304   */\n      slt\n        /* \"#utility.yul\":1269:1388   */\n      iszero\n      tag_157\n      jumpi\n        /* \"#utility.yul\":1307:1386   */\n      tag_158\n      tag_105\n      jump\t// in\n    tag_158:\n        /* \"#utility.yul\":1269:1388   */\n    tag_157:\n        /* \"#utility.yul\":1427:1428   */\n      0x00\n        /* \"#utility.yul\":1452:1505   */\n      tag_159\n        /* \"#utility.yul\":1497:1504   */\n      dup5\n        /* \"#utility.yul\":1488:1494   */\n      dup3\n        /* \"#utility.yul\":1477:1486   */\n      dup6\n        /* \"#utility.yul\":1473:1495   */\n      add\n        /* \"#utility.yul\":1452:1505   */\n      tag_108\n      jump\t// in\n    tag_159:\n        /* \"#utility.yul\":1442:1505   */\n      swap2\n      pop\n        /* \"#utility.yul\":1398:1515   */\n      pop\n        /* \"#utility.yul\":1193:1522   */\n      swap3\n      swap2\n      pop\n      pop\n      jump\t// out\n        /* \"#utility.yul\":1528:1605   */\n    tag_109:\n        /* \"#utility.yul\":1565:1572   */\n      0x00\n        /* \"#utility.yul\":1594:1599   */\n      dup2\n        /* \"#utility.yul\":1583:1599   */\n      swap1\n      pop\n        /* \"#utility.yul\":1528:1605   */\n      swap2\n      swap1\n      pop\n      jump\t// out\n        /* \"#utility.yul\":1611:1729   */\n    tag_110:\n        /* \"#utility.yul\":1698:1722   */\n      tag_162\n        /* \"#utility.yul\":1716:1721   */\n      dup2\n        /* \"#utility.yul\":1698:1722   */\n      tag_109\n      jump\t// in\n    tag_162:\n        /* \"#utility.yul\":1693:1696   */\n      dup3\n        /* \"#utility.yul\":1686:1723   */\n      mstore\n        /* \"#utility.yul\":1611:1729   */\n      pop\n      pop\n      jump\t// out\n        /* \"#utility.yul\":1735:1957   */\n    tag_27:\n        /* \"#utility.yul\":1828:1832   */\n      0x00\n        /* \"#utility.yul\":1866:1868   */\n      0x20\n        /* \"#utility.yul\":1855:1864   */\n      dup3\n        /* \"#utility.yul\":1851:1869   */\n      add\n        /* \"#utility.yul\":1843:1869   */\n      swap1\n      pop\n        /* \"#utility.yul\":1879:1950   */\n      tag_164\n        /* \"#utility.yul\":1947:1948   */\n      0x00\n        /* \"#utility.yul\":1936:1945   */\n      dup4\n        /* \"#utility.yul\":1932:1949   */\n      add\n        /* \"#utility.yul\":1923:1929   */\n      dup5\n        /* \"#utility.yul\":1879:1950   */\n      tag_110\n      jump\t// in\n    tag_164:\n        /* \"#utility.yul\":1735:1957   */\n      swap3\n      swap2\n      pop\n      pop\n      jump\t// out\n        /* \"#utility.yul\":1963:2039   */\n    tag_111:\n        /* \"#utility.yul\":1999:2006   */\n      0x00\n        /* \"#utility.yul\":2028:2033   */\n      dup2\n        /* \"#utility.yul\":2017:2033   */\n      swap1\n      pop\n        /* \"#utility.yul\":1963:2039   */\n      swap2\n      swap1\n      pop\n      jump\t// out\n        /* \"#utility.yul\":2045:2160   */\n    tag_112:\n        /* \"#utility.yul\":2130:2153   */\n      tag_167\n        /* \"#utility.yul\":2147:2152   */\n      dup2\n        /* \"#utility.yul\":2130:2153   */\n      tag_111\n      jump\t// in\n    tag_167:\n        /* \"#utility.yul\":2125:2128   */\n      dup3\n        /* \"#utility.yul\":2118:2154   */\n      mstore\n        /* \"#utility.yul\":2045:2160   */\n      pop\n      pop\n      jump\t// out\n        /* \"#utility.yul\":2166:2384   */\n    tag_34:\n        /* \"#utility.yul\":2257:2261   */\n      0x00\n        /* \"#utility.yul\":2295:2297   */\n      0x20\n        /* \"#utility.yul\":2284:2293   */\n      dup3\n        /* \"#utility.yul\":2280:2298   */\n      add\n        /* \"#utility.yul\":2272:2298   */\n      swap1\n      pop\n        /* \"#utility.yul\":2308:2377   */\n      tag_169\n        /* \"#utility.yul\":2374:2375   */\n      0x00\n        /* \"#utility.yul\":2363:2372   */\n      dup4\n        /* \"#utility.yul\":2359:2376   */\n      add\n        /* \"#utility.yul\":2350:2356   */\n      dup5\n        /* \"#utility.yul\":2308:2377   */\n      tag_112\n      jump\t// in\n    tag_169:\n        /* \"#utility.yul\":2166:2384   */\n      swap3\n      swap2\n      pop\n      pop\n      jump\t// out\n        /* \"#utility.yul\":2390:2570   */\n    tag_113:\n        /* \"#utility.yul\":2438:2515   */\n      0x4e487b7100000000000000000000000000000000000000000000000000000000\n        /* \"#utility.yul\":2435:2436   */\n      0x00\n        /* \"#utility.yul\":2428:2516   */\n      mstore\n        /* \"#utility.yul\":2535:2539   */\n      0x11\n        /* \"#utility.yul\":2532:2533   */\n      0x04\n        /* \"#utility.yul\":2525:2540   */\n      mstore\n        /* \"#utility.yul\":2559:2563   */\n      0x24\n        /* \"#utility.yul\":2556:2557   */\n      0x00\n        /* \"#utility.yul\":2549:2564   */\n      revert\n        /* \"#utility.yul\":2576:2767   */\n    tag_41:\n        /* \"#utility.yul\":2616:2619   */\n      0x00\n        /* \"#utility.yul\":2635:2655   */\n      tag_172\n        /* \"#utility.yul\":2653:2654   */\n      dup3\n        /* \"#utility.yul\":2635:2655   */\n      tag_109\n      jump\t// in\n    tag_172:\n        /* \"#utility.yul\":2630:2655   */\n      swap2\n      pop\n        /* \"#utility.yul\":2669:2689   */\n      tag_173\n        /* \"#utility.yul\":2687:2688   */\n      dup4\n        /* \"#utility.yul\":2669:2689   */\n      tag_109\n      jump\t// in\n    tag_173:\n        /* \"#utility.yul\":2664:2689   */\n      swap3\n      pop\n        /* \"#utility.yul\":2712:2713   */\n      dup3\n        /* \"#utility.yul\":2709:2710   */\n      dup3\n        /* \"#utility.yul\":2705:2714   */\n      add\n        /* \"#utility.yul\":2698:2714   */\n      swap1\n      pop\n        /* \"#utility.yul\":2733:2736   */\n      dup1\n        /* \"#utility.yul\":2730:2731   */\n      dup3\n        /* \"#utility.yul\":2727:2737   */\n      gt\n        /* \"#utility.yul\":2724:2760   */\n      iszero\n      tag_174\n      jumpi\n        /* \"#utility.yul\":2740:2758   */\n      tag_175\n      tag_113\n      jump\t// in\n    tag_175:\n        /* \"#utility.yul\":2724:2760   */\n    tag_174:\n        /* \"#utility.yul\":2576:2767   */\n      swap3\n      swap2\n      pop\n      pop\n      jump\t// out\n        /* \"#utility.yul\":2773:2942   */\n    tag_114:\n        /* \"#utility.yul\":2857:2868   */\n      0x00\n        /* \"#utility.yul\":2891:2897   */\n      dup3\n        /* \"#utility.yul\":2886:2889   */\n      dup3\n        /* \"#utility.yul\":2879:2898   */\n      mstore\n        /* \"#utility.yul\":2931:2935   */\n      0x20\n        /* \"#utility.yul\":2926:2929   */\n      dup3\n        /* \"#utility.yul\":2922:2936   */\n      add\n        /* \"#utility.yul\":2907:2936   */\n      swap1\n      pop\n        /* \"#utility.yul\":2773:2942   */\n      swap3\n      swap2\n      pop\n      pop\n      jump\t// out\n        /* \"#utility.yul\":2948:3117   */\n    tag_115:\n        /* \"#utility.yul\":3088:3109   */\n      0x77696e646f77206973206e6f7420636c6f736500000000000000000000000000\n        /* \"#utility.yul\":3084:3085   */\n      0x00\n        /* \"#utility.yul\":3076:3082   */\n      dup3\n        /* \"#utility.yul\":3072:3086   */\n      add\n        /* \"#utility.yul\":3065:3110   */\n      mstore\n        /* \"#utility.yul\":2948:3117   */\n      pop\n      jump\t// out\n        /* \"#utility.yul\":3123:3489   */\n    tag_116:\n        /* \"#utility.yul\":3265:3268   */\n      0x00\n        /* \"#utility.yul\":3286:3353   */\n      tag_179\n        /* \"#utility.yul\":3350:3352   */\n      0x13\n        /* \"#utility.yul\":3345:3348   */\n      dup4\n        /* \"#utility.yul\":3286:3353   */\n      tag_114\n      jump\t// in\n    tag_179:\n        /* \"#utility.yul\":3279:3353   */\n      swap2\n      pop\n        /* \"#utility.yul\":3362:3455   */\n      tag_180\n        /* \"#utility.yul\":3451:3454   */\n      dup3\n        /* \"#utility.yul\":3362:3455   */\n      tag_115\n      jump\t// in\n    tag_180:\n        /* \"#utility.yul\":3480:3482   */\n      0x20\n        /* \"#utility.yul\":3475:3478   */\n      dup3\n        /* \"#utility.yul\":3471:3483   */\n      add\n        /* \"#utility.yul\":3464:3483   */\n      swap1\n      pop\n        /* \"#utility.yul\":3123:3489   */\n      swap2\n      swap1\n      pop\n      jump\t// out\n        /* \"#utility.yul\":3495:3914   */\n    tag_44:\n        /* \"#utility.yul\":3661:3665   */\n      0x00\n        /* \"#utility.yul\":3699:3701   */\n      0x20\n        /* \"#utility.yul\":3688:3697   */\n      dup3\n        /* \"#utility.yul\":3684:3702   */\n      add\n        /* \"#utility.yul\":3676:3702   */\n      swap1\n      pop\n        /* \"#utility.yul\":3748:3757   */\n      dup2\n        /* \"#utility.yul\":3742:3746   */\n      dup2\n        /* \"#utility.yul\":3738:3758   */\n      sub\n        /* \"#utility.yul\":3734:3735   */\n      0x00\n        /* \"#utility.yul\":3723:3732   */\n      dup4\n        /* \"#utility.yul\":3719:3736   */\n      add\n        /* \"#utility.yul\":3712:3759   */\n      mstore\n        /* \"#utility.yul\":3776:3907   */\n      tag_182\n        /* \"#utility.yul\":3902:3906   */\n      dup2\n        /* \"#utility.yul\":3776:3907   */\n      tag_116\n      jump\t// in\n    tag_182:\n        /* \"#utility.yul\":3768:3907   */\n      swap1\n      pop\n        /* \"#utility.yul\":3495:3914   */\n      swap2\n      swap1\n      pop\n      jump\t// out\n        /* \"#utility.yul\":3920:4087   */\n    tag_117:\n        /* \"#utility.yul\":4060:4079   */\n      0x5461726765742069732072656163686564000000000000000000000000000000\n        /* \"#utility.yul\":4056:4057   */\n      0x00\n        /* \"#utility.yul\":4048:4054   */\n      dup3\n        /* \"#utility.yul\":4044:4058   */\n      add\n        /* \"#utility.yul\":4037:4080   */\n      mstore\n        /* \"#utility.yul\":3920:4087   */\n      pop\n      jump\t// out\n        /* \"#utility.yul\":4093:4459   */\n    tag_118:\n        /* \"#utility.yul\":4235:4238   */\n      0x00\n        /* \"#utility.yul\":4256:4323   */\n      tag_185\n        /* \"#utility.yul\":4320:4322   */\n      0x11\n        /* \"#utility.yul\":4315:4318   */\n      dup4\n        /* \"#utility.yul\":4256:4323   */\n      tag_114\n      jump\t// in\n    tag_185:\n        /* \"#utility.yul\":4249:4323   */\n      swap2\n      pop\n        /* \"#utility.yul\":4332:4425   */\n      tag_186\n        /* \"#utility.yul\":4421:4424   */\n      dup3\n        /* \"#utility.yul\":4332:4425   */\n      tag_117\n      jump\t// in\n    tag_186:\n        /* \"#utility.yul\":4450:4452   */\n      0x20\n        /* \"#utility.yul\":4445:4448   */\n      dup3\n        /* \"#utility.yul\":4441:4453   */\n      add\n        /* \"#utility.yul\":4434:4453   */\n      swap1\n      pop\n        /* \"#utility.yul\":4093:4459   */\n      swap2\n      swap1\n      pop\n      jump\t// out\n        /* \"#utility.yul\":4465:4884   */\n    tag_50:\n        /* \"#utility.yul\":4631:4635   */\n      0x00\n        /* \"#utility.yul\":4669:4671   */\n      0x20\n        /* \"#utility.yul\":4658:4667   */\n      dup3\n        /* \"#utility.yul\":4654:4672   */\n      add\n        /* \"#utility.yul\":4646:4672   */\n      swap1\n      pop\n        /* \"#utility.yul\":4718:4727   */\n      dup2\n        /* \"#utility.yul\":4712:4716   */\n      dup2\n        /* \"#utility.yul\":4708:4728   */\n      sub\n        /* \"#utility.yul\":4704:4705   */\n      0x00\n        /* \"#utility.yul\":4693:4702   */\n      dup4\n        /* \"#utility.yul\":4689:4706   */\n      add\n        /* \"#utility.yul\":4682:4729   */\n      mstore\n        /* \"#utility.yul\":4746:4877   */\n      tag_188\n        /* \"#utility.yul\":4872:4876   */\n      dup2\n        /* \"#utility.yul\":4746:4877   */\n      tag_118\n      jump\t// in\n    tag_188:\n        /* \"#utility.yul\":4738:4877   */\n      swap1\n      pop\n        /* \"#utility.yul\":4465:4884   */\n      swap2\n      swap1\n      pop\n      jump\t// out\n        /* \"#utility.yul\":4890:5065   */\n    tag_119:\n        /* \"#utility.yul\":5030:5057   */\n      0x7468657265206973206e6f2066756e6420666f7220796f752000000000000000\n        /* \"#utility.yul\":5026:5027   */\n      0x00\n        /* \"#utility.yul\":5018:5024   */\n      dup3\n        /* \"#utility.yul\":5014:5028   */\n      add\n        /* \"#utility.yul\":5007:5058   */\n      mstore\n        /* \"#utility.yul\":4890:5065   */\n      pop\n      jump\t// out\n        /* \"#utility.yul\":5071:5437   */\n    tag_120:\n        /* \"#utility.yul\":5213:5216   */\n      0x00\n        /* \"#utility.yul\":5234:5301   */\n      tag_191\n        /* \"#utility.yul\":5298:5300   */\n      0x19\n        /* \"#utility.yul\":5293:5296   */\n      dup4\n        /* \"#utility.yul\":5234:5301   */\n      tag_114\n      jump\t// in\n    tag_191:\n        /* \"#utility.yul\":5227:5301   */\n      swap2\n      pop\n        /* \"#utility.yul\":5310:5403   */\n      tag_192\n        /* \"#utility.yul\":5399:5402   */\n      dup3\n        /* \"#utility.yul\":5310:5403   */\n      tag_119\n      jump\t// in\n    tag_192:\n        /* \"#utility.yul\":5428:5430   */\n      0x20\n        /* \"#utility.yul\":5423:5426   */\n      dup3\n        /* \"#utility.yul\":5419:5431   */\n      add\n        /* \"#utility.yul\":5412:5431   */\n      swap1\n      pop\n        /* \"#utility.yul\":5071:5437   */\n      swap2\n      swap1\n      pop\n      jump\t// out\n        /* \"#utility.yul\":5443:5862   */\n    tag_53:\n        /* \"#utility.yul\":5609:5613   */\n      0x00\n        /* \"#utility.yul\":5647:5649   */\n      0x20\n        /* \"#utility.yul\":5636:5645   */\n      dup3\n        /* \"#utility.yul\":5632:5650   */\n      add\n        /* \"#utility.yul\":5624:5650   */\n      swap1\n      pop\n        /* \"#utility.yul\":5696:5705   */\n      dup2\n        /* \"#utility.yul\":5690:5694   */\n      dup2\n        /* \"#utility.yul\":5686:5706   */\n      sub\n        /* \"#utility.yul\":5682:5683   */\n      0x00\n        /* \"#utility.yul\":5671:5680   */\n      dup4\n        /* \"#utility.yul\":5667:5684   */\n      add\n        /* \"#utility.yul\":5660:5707   */\n      mstore\n        /* \"#utility.yul\":5724:5855   */\n      tag_194\n        /* \"#utility.yul\":5850:5854   */\n      dup2\n        /* \"#utility.yul\":5724:5855   */\n      tag_120\n      jump\t// in\n    tag_194:\n        /* \"#utility.yul\":5716:5855   */\n      swap1\n      pop\n        /* \"#utility.yul\":5443:5862   */\n      swap2\n      swap1\n      pop\n      jump\t// out\n        /* \"#utility.yul\":5868:6015   */\n    tag_121:\n        /* \"#utility.yul\":5969:5980   */\n      0x00\n        /* \"#utility.yul\":6006:6009   */\n      dup2\n        /* \"#utility.yul\":5991:6009   */\n      swap1\n      pop\n        /* \"#utility.yul\":5868:6015   */\n      swap3\n      swap2\n      pop\n      pop\n      jump\t// out\n        /* \"#utility.yul\":6021:6135   */\n    tag_122:\n      pop\n      jump\t// out\n        /* \"#utility.yul\":6141:6539   */\n    tag_123:\n        /* \"#utility.yul\":6300:6303   */\n      0x00\n        /* \"#utility.yul\":6321:6404   */\n      tag_198\n        /* \"#utility.yul\":6402:6403   */\n      0x00\n        /* \"#utility.yul\":6397:6400   */\n      dup4\n        /* \"#utility.yul\":6321:6404   */\n      tag_121\n      jump\t// in\n    tag_198:\n        /* \"#utility.yul\":6314:6404   */\n      swap2\n      pop\n        /* \"#utility.yul\":6413:6506   */\n      tag_199\n        /* \"#utility.yul\":6502:6505   */\n      dup3\n        /* \"#utility.yul\":6413:6506   */\n      tag_122\n      jump\t// in\n    tag_199:\n        /* \"#utility.yul\":6531:6532   */\n      0x00\n        /* \"#utility.yul\":6526:6529   */\n      dup3\n        /* \"#utility.yul\":6522:6533   */\n      add\n        /* \"#utility.yul\":6515:6533   */\n      swap1\n      pop\n        /* \"#utility.yul\":6141:6539   */\n      swap2\n      swap1\n      pop\n      jump\t// out\n        /* \"#utility.yul\":6545:6924   */\n    tag_55:\n        /* \"#utility.yul\":6729:6732   */\n      0x00\n        /* \"#utility.yul\":6751:6898   */\n      tag_201\n        /* \"#utility.yul\":6894:6897   */\n      dup3\n        /* \"#utility.yul\":6751:6898   */\n      tag_123\n      jump\t// in\n    tag_201:\n        /* \"#utility.yul\":6744:6898   */\n      swap2\n      pop\n        /* \"#utility.yul\":6915:6918   */\n      dup2\n        /* \"#utility.yul\":6908:6918   */\n      swap1\n      pop\n        /* \"#utility.yul\":6545:6924   */\n      swap2\n      swap1\n      pop\n      jump\t// out\n        /* \"#utility.yul\":6930:7098   */\n    tag_124:\n        /* \"#utility.yul\":7070:7090   */\n      0x7472616e73666572207478206661696c65640000000000000000000000000000\n        /* \"#utility.yul\":7066:7067   */\n      0x00\n        /* \"#utility.yul\":7058:7064   */\n      dup3\n        /* \"#utility.yul\":7054:7068   */\n      add\n        /* \"#utility.yul\":7047:7091   */\n      mstore\n        /* \"#utility.yul\":6930:7098   */\n      pop\n      jump\t// out\n        /* \"#utility.yul\":7104:7470   */\n    tag_125:\n        /* \"#utility.yul\":7246:7249   */\n      0x00\n        /* \"#utility.yul\":7267:7334   */\n      tag_204\n        /* \"#utility.yul\":7331:7333   */\n      0x12\n        /* \"#utility.yul\":7326:7329   */\n      dup4\n        /* \"#utility.yul\":7267:7334   */\n      tag_114\n      jump\t// in\n    tag_204:\n        /* \"#utility.yul\":7260:7334   */\n      swap2\n      pop\n        /* \"#utility.yul\":7343:7436   */\n      tag_205\n        /* \"#utility.yul\":7432:7435   */\n      dup3\n        /* \"#utility.yul\":7343:7436   */\n      tag_124\n      jump\t// in\n    tag_205:\n        /* \"#utility.yul\":7461:7463   */\n      0x20\n        /* \"#utility.yul\":7456:7459   */\n      dup3\n        /* \"#utility.yul\":7452:7464   */\n      add\n        /* \"#utility.yul\":7445:7464   */\n      swap1\n      pop\n        /* \"#utility.yul\":7104:7470   */\n      swap2\n      swap1\n      pop\n      jump\t// out\n        /* \"#utility.yul\":7476:7895   */\n    tag_61:\n        /* \"#utility.yul\":7642:7646   */\n      0x00\n        /* \"#utility.yul\":7680:7682   */\n      0x20\n        /* \"#utility.yul\":7669:7678   */\n      dup3\n        /* \"#utility.yul\":7665:7683   */\n      add\n        /* \"#utility.yul\":7657:7683   */\n      swap1\n      pop\n        /* \"#utility.yul\":7729:7738   */\n      dup2\n        /* \"#utility.yul\":7723:7727   */\n      dup2\n        /* \"#utility.yul\":7719:7739   */\n      sub\n        /* \"#utility.yul\":7715:7716   */\n      0x00\n        /* \"#utility.yul\":7704:7713   */\n      dup4\n        /* \"#utility.yul\":7700:7717   */\n      add\n        /* \"#utility.yul\":7693:7740   */\n      mstore\n        /* \"#utility.yul\":7757:7888   */\n      tag_207\n        /* \"#utility.yul\":7883:7887   */\n      dup2\n        /* \"#utility.yul\":7757:7888   */\n      tag_125\n      jump\t// in\n    tag_207:\n        /* \"#utility.yul\":7749:7888   */\n      swap1\n      pop\n        /* \"#utility.yul\":7476:7895   */\n      swap2\n      swap1\n      pop\n      jump\t// out\n        /* \"#utility.yul\":7901:8129   */\n    tag_126:\n        /* \"#utility.yul\":8041:8075   */\n      0x746869732066756e6374696f6e2063616e206f6e6c792062652063616c6c6564\n        /* \"#utility.yul\":8037:8038   */\n      0x00\n        /* \"#utility.yul\":8029:8035   */\n      dup3\n        /* \"#utility.yul\":8025:8039   */\n      add\n        /* \"#utility.yul\":8018:8076   */\n      mstore\n        /* \"#utility.yul\":8110:8121   */\n      0x206279206f776e65720000000000000000000000000000000000000000000000\n        /* \"#utility.yul\":8105:8107   */\n      0x20\n        /* \"#utility.yul\":8097:8103   */\n      dup3\n        /* \"#utility.yul\":8093:8108   */\n      add\n        /* \"#utility.yul\":8086:8122   */\n      mstore\n        /* \"#utility.yul\":7901:8129   */\n      pop\n      jump\t// out\n        /* \"#utility.yul\":8135:8501   */\n    tag_127:\n        /* \"#utility.yul\":8277:8280   */\n      0x00\n        /* \"#utility.yul\":8298:8365   */\n      tag_210\n        /* \"#utility.yul\":8362:8364   */\n      0x29\n        /* \"#utility.yul\":8357:8360   */\n      dup4\n        /* \"#utility.yul\":8298:8365   */\n      tag_114\n      jump\t// in\n    tag_210:\n        /* \"#utility.yul\":8291:8365   */\n      swap2\n      pop\n        /* \"#utility.yul\":8374:8467   */\n      tag_211\n        /* \"#utility.yul\":8463:8466   */\n      dup3\n        /* \"#utility.yul\":8374:8467   */\n      tag_126\n      jump\t// in\n    tag_211:\n        /* \"#utility.yul\":8492:8494   */\n      0x40\n        /* \"#utility.yul\":8487:8490   */\n      dup3\n        /* \"#utility.yul\":8483:8495   */\n      add\n        /* \"#utility.yul\":8476:8495   */\n      swap1\n      pop\n        /* \"#utility.yul\":8135:8501   */\n      swap2\n      swap1\n      pop\n      jump\t// out\n        /* \"#utility.yul\":8507:8926   */\n    tag_69:\n        /* \"#utility.yul\":8673:8677   */\n      0x00\n        /* \"#utility.yul\":8711:8713   */\n      0x20\n        /* \"#utility.yul\":8700:8709   */\n      dup3\n        /* \"#utility.yul\":8696:8714   */\n      add\n        /* \"#utility.yul\":8688:8714   */\n      swap1\n      pop\n        /* \"#utility.yul\":8760:8769   */\n      dup2\n        /* \"#utility.yul\":8754:8758   */\n      dup2\n        /* \"#utility.yul\":8750:8770   */\n      sub\n        /* \"#utility.yul\":8746:8747   */\n      0x00\n        /* \"#utility.yul\":8735:8744   */\n      dup4\n        /* \"#utility.yul\":8731:8748   */\n      add\n        /* \"#utility.yul\":8724:8771   */\n      mstore\n        /* \"#utility.yul\":8788:8919   */\n      tag_213\n        /* \"#utility.yul\":8914:8918   */\n      dup2\n        /* \"#utility.yul\":8788:8919   */\n      tag_127\n      jump\t// in\n    tag_213:\n        /* \"#utility.yul\":8780:8919   */\n      swap1\n      pop\n        /* \"#utility.yul\":8507:8926   */\n      swap2\n      swap1\n      pop\n      jump\t// out\n        /* \"#utility.yul\":8932:9103   */\n    tag_128:\n        /* \"#utility.yul\":9072:9095   */\n      0x546172676574206973206e6f7420726561636865640000000000000000000000\n        /* \"#utility.yul\":9068:9069   */\n      0x00\n        /* \"#utility.yul\":9060:9066   */\n      dup3\n        /* \"#utility.yul\":9056:9070   */\n      add\n        /* \"#utility.yul\":9049:9096   */\n      mstore\n        /* \"#utility.yul\":8932:9103   */\n      pop\n      jump\t// out\n        /* \"#utility.yul\":9109:9475   */\n    tag_129:\n        /* \"#utility.yul\":9251:9254   */\n      0x00\n        /* \"#utility.yul\":9272:9339   */\n      tag_216\n        /* \"#utility.yul\":9336:9338   */\n      0x15\n        /* \"#utility.yul\":9331:9334   */\n      dup4\n        /* \"#utility.yul\":9272:9339   */\n      tag_114\n      jump\t// in\n    tag_216:\n        /* \"#utility.yul\":9265:9339   */\n      swap2\n      pop\n        /* \"#utility.yul\":9348:9441   */\n      tag_217\n        /* \"#utility.yul\":9437:9440   */\n      dup3\n        /* \"#utility.yul\":9348:9441   */\n      tag_128\n      jump\t// in\n    tag_217:\n        /* \"#utility.yul\":9466:9468   */\n      0x20\n        /* \"#utility.yul\":9461:9464   */\n      dup3\n        /* \"#utility.yul\":9457:9469   */\n      add\n        /* \"#utility.yul\":9450:9469   */\n      swap1\n      pop\n        /* \"#utility.yul\":9109:9475   */\n      swap2\n      swap1\n      pop\n      jump\t// out\n        /* \"#utility.yul\":9481:9900   */\n    tag_74:\n        /* \"#utility.yul\":9647:9651   */\n      0x00\n        /* \"#utility.yul\":9685:9687   */\n      0x20\n        /* \"#utility.yul\":9674:9683   */\n      dup3\n        /* \"#utility.yul\":9670:9688   */\n      add\n        /* \"#utility.yul\":9662:9688   */\n      swap1\n      pop\n        /* \"#utility.yul\":9734:9743   */\n      dup2\n        /* \"#utility.yul\":9728:9732   */\n      dup2\n        /* \"#utility.yul\":9724:9744   */\n      sub\n        /* \"#utility.yul\":9720:9721   */\n      0x00\n        /* \"#utility.yul\":9709:9718   */\n      dup4\n        /* \"#utility.yul\":9705:9722   */\n      add\n        /* \"#utility.yul\":9698:9745   */\n      mstore\n        /* \"#utility.yul\":9762:9893   */\n      tag_219\n        /* \"#utility.yul\":9888:9892   */\n      dup2\n        /* \"#utility.yul\":9762:9893   */\n      tag_129\n      jump\t// in\n    tag_219:\n        /* \"#utility.yul\":9754:9893   */\n      swap1\n      pop\n        /* \"#utility.yul\":9481:9900   */\n      swap2\n      swap1\n      pop\n      jump\t// out\n        /* \"#utility.yul\":9906:10069   */\n    tag_130:\n        /* \"#utility.yul\":10046:10061   */\n      0x53656e64206d6f72652045544800000000000000000000000000000000000000\n        /* \"#utility.yul\":10042:10043   */\n      0x00\n        /* \"#utility.yul\":10034:10040   */\n      dup3\n        /* \"#utility.yul\":10030:10044   */\n      add\n        /* \"#utility.yul\":10023:10062   */\n      mstore\n        /* \"#utility.yul\":9906:10069   */\n      pop\n      jump\t// out\n        /* \"#utility.yul\":10075:10441   */\n    tag_131:\n        /* \"#utility.yul\":10217:10220   */\n      0x00\n        /* \"#utility.yul\":10238:10305   */\n      tag_222\n        /* \"#utility.yul\":10302:10304   */\n      0x0d\n        /* \"#utility.yul\":10297:10300   */\n      dup4\n        /* \"#utility.yul\":10238:10305   */\n      tag_114\n      jump\t// in\n    tag_222:\n        /* \"#utility.yul\":10231:10305   */\n      swap2\n      pop\n        /* \"#utility.yul\":10314:10407   */\n      tag_223\n        /* \"#utility.yul\":10403:10406   */\n      dup3\n        /* \"#utility.yul\":10314:10407   */\n      tag_130\n      jump\t// in\n    tag_223:\n        /* \"#utility.yul\":10432:10434   */\n      0x20\n        /* \"#utility.yul\":10427:10430   */\n      dup3\n        /* \"#utility.yul\":10423:10435   */\n      add\n        /* \"#utility.yul\":10416:10435   */\n      swap1\n      pop\n        /* \"#utility.yul\":10075:10441   */\n      swap2\n      swap1\n      pop\n      jump\t// out\n        /* \"#utility.yul\":10447:10866   */\n    tag_85:\n        /* \"#utility.yul\":10613:10617   */\n      0x00\n        /* \"#utility.yul\":10651:10653   */\n      0x20\n        /* \"#utility.yul\":10640:10649   */\n      dup3\n        /* \"#utility.yul\":10636:10654   */\n      add\n        /* \"#utility.yul\":10628:10654   */\n      swap1\n      pop\n        /* \"#utility.yul\":10700:10709   */\n      dup2\n        /* \"#utility.yul\":10694:10698   */\n      dup2\n        /* \"#utility.yul\":10690:10710   */\n      sub\n        /* \"#utility.yul\":10686:10687   */\n      0x00\n        /* \"#utility.yul\":10675:10684   */\n      dup4\n        /* \"#utility.yul\":10671:10688   */\n      add\n        /* \"#utility.yul\":10664:10711   */\n      mstore\n        /* \"#utility.yul\":10728:10859   */\n      tag_225\n        /* \"#utility.yul\":10854:10858   */\n      dup2\n        /* \"#utility.yul\":10728:10859   */\n      tag_131\n      jump\t// in\n    tag_225:\n        /* \"#utility.yul\":10720:10859   */\n      swap1\n      pop\n        /* \"#utility.yul\":10447:10866   */\n      swap2\n      swap1\n      pop\n      jump\t// out\n        /* \"#utility.yul\":10872:10977   */\n    tag_132:\n        /* \"#utility.yul\":10908:10915   */\n      0x00\n        /* \"#utility.yul\":10948:10970   */\n      0xffffffffffffffffffff\n        /* \"#utility.yul\":10941:10946   */\n      dup3\n        /* \"#utility.yul\":10937:10971   */\n      and\n        /* \"#utility.yul\":10926:10971   */\n      swap1\n      pop\n        /* \"#utility.yul\":10872:10977   */\n      swap2\n      swap1\n      pop\n      jump\t// out\n        /* \"#utility.yul\":10983:11103   */\n    tag_133:\n        /* \"#utility.yul\":11055:11078   */\n      tag_228\n        /* \"#utility.yul\":11072:11077   */\n      dup2\n        /* \"#utility.yul\":11055:11078   */\n      tag_132\n      jump\t// in\n    tag_228:\n        /* \"#utility.yul\":11048:11053   */\n      dup2\n        /* \"#utility.yul\":11045:11079   */\n      eq\n        /* \"#utility.yul\":11035:11097   */\n      tag_229\n      jumpi\n        /* \"#utility.yul\":11093:11094   */\n      0x00\n        /* \"#utility.yul\":11090:11091   */\n      dup1\n        /* \"#utility.yul\":11083:11095   */\n      revert\n        /* \"#utility.yul\":11035:11097   */\n    tag_229:\n        /* \"#utility.yul\":10983:11103   */\n      pop\n      jump\t// out\n        /* \"#utility.yul\":11109:11250   */\n    tag_134:\n        /* \"#utility.yul\":11165:11170   */\n      0x00\n        /* \"#utility.yul\":11196:11202   */\n      dup2\n        /* \"#utility.yul\":11190:11203   */\n      mload\n        /* \"#utility.yul\":11181:11203   */\n      swap1\n      pop\n        /* \"#utility.yul\":11212:11244   */\n      tag_231\n        /* \"#utility.yul\":11238:11243   */\n      dup2\n        /* \"#utility.yul\":11212:11244   */\n      tag_133\n      jump\t// in\n    tag_231:\n        /* \"#utility.yul\":11109:11250   */\n      swap3\n      swap2\n      pop\n      pop\n      jump\t// out\n        /* \"#utility.yul\":11256:11376   */\n    tag_135:\n        /* \"#utility.yul\":11328:11351   */\n      tag_233\n        /* \"#utility.yul\":11345:11350   */\n      dup2\n        /* \"#utility.yul\":11328:11351   */\n      tag_111\n      jump\t// in\n    tag_233:\n        /* \"#utility.yul\":11321:11326   */\n      dup2\n        /* \"#utility.yul\":11318:11352   */\n      eq\n        /* \"#utility.yul\":11308:11370   */\n      tag_234\n      jumpi\n        /* \"#utility.yul\":11366:11367   */\n      0x00\n        /* \"#utility.yul\":11363:11364   */\n      dup1\n        /* \"#utility.yul\":11356:11368   */\n      revert\n        /* \"#utility.yul\":11308:11370   */\n    tag_234:\n        /* \"#utility.yul\":11256:11376   */\n      pop\n      jump\t// out\n        /* \"#utility.yul\":11382:11523   */\n    tag_136:\n        /* \"#utility.yul\":11438:11443   */\n      0x00\n        /* \"#utility.yul\":11469:11475   */\n      dup2\n        /* \"#utility.yul\":11463:11476   */\n      mload\n        /* \"#utility.yul\":11454:11476   */\n      swap1\n      pop\n        /* \"#utility.yul\":11485:11517   */\n      tag_236\n        /* \"#utility.yul\":11511:11516   */\n      dup2\n        /* \"#utility.yul\":11485:11517   */\n      tag_135\n      jump\t// in\n    tag_236:\n        /* \"#utility.yul\":11382:11523   */\n      swap3\n      swap2\n      pop\n      pop\n      jump\t// out\n        /* \"#utility.yul\":11529:11651   */\n    tag_137:\n        /* \"#utility.yul\":11602:11626   */\n      tag_238\n        /* \"#utility.yul\":11620:11625   */\n      dup2\n        /* \"#utility.yul\":11602:11626   */\n      tag_109\n      jump\t// in\n    tag_238:\n        /* \"#utility.yul\":11595:11600   */\n      dup2\n        /* \"#utility.yul\":11592:11627   */\n      eq\n        /* \"#utility.yul\":11582:11645   */\n      tag_239\n      jumpi\n        /* \"#utility.yul\":11641:11642   */\n      0x00\n        /* \"#utility.yul\":11638:11639   */\n      dup1\n        /* \"#utility.yul\":11631:11643   */\n      revert\n        /* \"#utility.yul\":11582:11645   */\n    tag_239:\n        /* \"#utility.yul\":11529:11651   */\n      pop\n      jump\t// out\n        /* \"#utility.yul\":11657:11800   */\n    tag_138:\n        /* \"#utility.yul\":11714:11719   */\n      0x00\n        /* \"#utility.yul\":11745:11751   */\n      dup2\n        /* \"#utility.yul\":11739:11752   */\n      mload\n        /* \"#utility.yul\":11730:11752   */\n      swap1\n      pop\n        /* \"#utility.yul\":11761:11794   */\n      tag_241\n        /* \"#utility.yul\":11788:11793   */\n      dup2\n        /* \"#utility.yul\":11761:11794   */\n      tag_137\n      jump\t// in\n    tag_241:\n        /* \"#utility.yul\":11657:11800   */\n      swap3\n      swap2\n      pop\n      pop\n      jump\t// out\n        /* \"#utility.yul\":11806:12777   */\n    tag_90:\n        /* \"#utility.yul\":11909:11915   */\n      0x00\n        /* \"#utility.yul\":11917:11923   */\n      dup1\n        /* \"#utility.yul\":11925:11931   */\n      0x00\n        /* \"#utility.yul\":11933:11939   */\n      dup1\n        /* \"#utility.yul\":11941:11947   */\n      0x00\n        /* \"#utility.yul\":11990:11993   */\n      0xa0\n        /* \"#utility.yul\":11978:11987   */\n      dup7\n        /* \"#utility.yul\":11969:11976   */\n      dup9\n        /* \"#utility.yul\":11965:11988   */\n      sub\n        /* \"#utility.yul\":11961:11994   */\n      slt\n        /* \"#utility.yul\":11958:12078   */\n      iszero\n      tag_243\n      jumpi\n        /* \"#utility.yul\":11997:12076   */\n      tag_244\n      tag_105\n      jump\t// in\n    tag_244:\n        /* \"#utility.yul\":11958:12078   */\n    tag_243:\n        /* \"#utility.yul\":12117:12118   */\n      0x00\n        /* \"#utility.yul\":12142:12205   */\n      tag_245\n        /* \"#utility.yul\":12197:12204   */\n      dup9\n        /* \"#utility.yul\":12188:12194   */\n      dup3\n        /* \"#utility.yul\":12177:12186   */\n      dup10\n        /* \"#utility.yul\":12173:12195   */\n      add\n        /* \"#utility.yul\":12142:12205   */\n      tag_134\n      jump\t// in\n    tag_245:\n        /* \"#utility.yul\":12132:12205   */\n      swap6\n      pop\n        /* \"#utility.yul\":12088:12215   */\n      pop\n        /* \"#utility.yul\":12254:12256   */\n      0x20\n        /* \"#utility.yul\":12280:12343   */\n      tag_246\n        /* \"#utility.yul\":12335:12342   */\n      dup9\n        /* \"#utility.yul\":12326:12332   */\n      dup3\n        /* \"#utility.yul\":12315:12324   */\n      dup10\n        /* \"#utility.yul\":12311:12333   */\n      add\n        /* \"#utility.yul\":12280:12343   */\n      tag_136\n      jump\t// in\n    tag_246:\n        /* \"#utility.yul\":12270:12343   */\n      swap5\n      pop\n        /* \"#utility.yul\":12225:12353   */\n      pop\n        /* \"#utility.yul\":12392:12394   */\n      0x40\n        /* \"#utility.yul\":12418:12482   */\n      tag_247\n        /* \"#utility.yul\":12474:12481   */\n      dup9\n        /* \"#utility.yul\":12465:12471   */\n      dup3\n        /* \"#utility.yul\":12454:12463   */\n      dup10\n        /* \"#utility.yul\":12450:12472   */\n      add\n        /* \"#utility.yul\":12418:12482   */\n      tag_138\n      jump\t// in\n    tag_247:\n        /* \"#utility.yul\":12408:12482   */\n      swap4\n      pop\n        /* \"#utility.yul\":12363:12492   */\n      pop\n        /* \"#utility.yul\":12531:12533   */\n      0x60\n        /* \"#utility.yul\":12557:12621   */\n      tag_248\n        /* \"#utility.yul\":12613:12620   */\n      dup9\n        /* \"#utility.yul\":12604:12610   */\n      dup3\n        /* \"#utility.yul\":12593:12602   */\n      dup10\n        /* \"#utility.yul\":12589:12611   */\n      add\n        /* \"#utility.yul\":12557:12621   */\n      tag_138\n      jump\t// in\n    tag_248:\n        /* \"#utility.yul\":12547:12621   */\n      swap3\n      pop\n        /* \"#utility.yul\":12502:12631   */\n      pop\n        /* \"#utility.yul\":12670:12673   */\n      0x80\n        /* \"#utility.yul\":12697:12760   */\n      tag_249\n        /* \"#utility.yul\":12752:12759   */\n      dup9\n        /* \"#utility.yul\":12743:12749   */\n      dup3\n        /* \"#utility.yul\":12732:12741   */\n      dup10\n        /* \"#utility.yul\":12728:12750   */\n      add\n        /* \"#utility.yul\":12697:12760   */\n      tag_134\n      jump\t// in\n    tag_249:\n        /* \"#utility.yul\":12687:12760   */\n      swap2\n      pop\n        /* \"#utility.yul\":12641:12770   */\n      pop\n        /* \"#utility.yul\":11806:12777   */\n      swap3\n      swap6\n      pop\n      swap3\n      swap6\n      swap1\n      swap4\n      pop\n      jump\t// out\n        /* \"#utility.yul\":12783:13193   */\n    tag_98:\n        /* \"#utility.yul\":12823:12830   */\n      0x00\n        /* \"#utility.yul\":12846:12866   */\n      tag_251\n        /* \"#utility.yul\":12864:12865   */\n      dup3\n        /* \"#utility.yul\":12846:12866   */\n      tag_109\n      jump\t// in\n    tag_251:\n        /* \"#utility.yul\":12841:12866   */\n      swap2\n      pop\n        /* \"#utility.yul\":12880:12900   */\n      tag_252\n        /* \"#utility.yul\":12898:12899   */\n      dup4\n        /* \"#utility.yul\":12880:12900   */\n      tag_109\n      jump\t// in\n    tag_252:\n        /* \"#utility.yul\":12875:12900   */\n      swap3\n      pop\n        /* \"#utility.yul\":12935:12936   */\n      dup3\n        /* \"#utility.yul\":12932:12933   */\n      dup3\n        /* \"#utility.yul\":12928:12937   */\n      mul\n        /* \"#utility.yul\":12957:12987   */\n      tag_253\n        /* \"#utility.yul\":12975:12986   */\n      dup2\n        /* \"#utility.yul\":12957:12987   */\n      tag_109\n      jump\t// in\n    tag_253:\n        /* \"#utility.yul\":12946:12987   */\n      swap2\n      pop\n        /* \"#utility.yul\":13136:13137   */\n      dup3\n        /* \"#utility.yul\":13127:13134   */\n      dup3\n        /* \"#utility.yul\":13123:13138   */\n      div\n        /* \"#utility.yul\":13120:13121   */\n      dup5\n        /* \"#utility.yul\":13117:13139   */\n      eq\n        /* \"#utility.yul\":13097:13098   */\n      dup4\n        /* \"#utility.yul\":13090:13099   */\n      iszero\n        /* \"#utility.yul\":13070:13153   */\n      or\n        /* \"#utility.yul\":13047:13186   */\n      tag_254\n      jumpi\n        /* \"#utility.yul\":13166:13184   */\n      tag_255\n      tag_113\n      jump\t// in\n    tag_255:\n        /* \"#utility.yul\":13047:13186   */\n    tag_254:\n        /* \"#utility.yul\":12831:13193   */\n      pop\n        /* \"#utility.yul\":12783:13193   */\n      swap3\n      swap2\n      pop\n      pop\n      jump\t// out\n        /* \"#utility.yul\":13199:13379   */\n    tag_139:\n        /* \"#utility.yul\":13247:13324   */\n      0x4e487b7100000000000000000000000000000000000000000000000000000000\n        /* \"#utility.yul\":13244:13245   */\n      0x00\n        /* \"#utility.yul\":13237:13325   */\n      mstore\n        /* \"#utility.yul\":13344:13348   */\n      0x12\n        /* \"#utility.yul\":13341:13342   */\n      0x04\n        /* \"#utility.yul\":13334:13349   */\n      mstore\n        /* \"#utility.yul\":13368:13372   */\n      0x24\n        /* \"#utility.yul\":13365:13366   */\n      0x00\n        /* \"#utility.yul\":13358:13373   */\n      revert\n        /* \"#utility.yul\":13385:13570   */\n    tag_100:\n        /* \"#utility.yul\":13425:13426   */\n      0x00\n        /* \"#utility.yul\":13442:13462   */\n      tag_258\n        /* \"#utility.yul\":13460:13461   */\n      dup3\n        /* \"#utility.yul\":13442:13462   */\n      tag_109\n      jump\t// in\n    tag_258:\n        /* \"#utility.yul\":13437:13462   */\n      swap2\n      pop\n        /* \"#utility.yul\":13476:13496   */\n      tag_259\n        /* \"#utility.yul\":13494:13495   */\n      dup4\n        /* \"#utility.yul\":13476:13496   */\n      tag_109\n      jump\t// in\n    tag_259:\n        /* \"#utility.yul\":13471:13496   */\n      swap3\n      pop\n        /* \"#utility.yul\":13515:13516   */\n      dup3\n        /* \"#utility.yul\":13505:13540   */\n      tag_260\n      jumpi\n        /* \"#utility.yul\":13520:13538   */\n      tag_261\n      tag_139\n      jump\t// in\n    tag_261:\n        /* \"#utility.yul\":13505:13540   */\n    tag_260:\n        /* \"#utility.yul\":13562:13563   */\n      dup3\n        /* \"#utility.yul\":13559:13560   */\n      dup3\n        /* \"#utility.yul\":13555:13564   */\n      div\n        /* \"#utility.yul\":13550:13564   */\n      swap1\n      pop\n        /* \"#utility.yul\":13385:13570   */\n      swap3\n      swap2\n      pop\n      pop\n      jump\t// out\n\n    auxdata: 0xa2646970667358221220088bcad39347f714dedbcc7436b51047b00db859a53dddaddbafd87e1814077364736f6c634300081a0033\n}\n",
				"bytecode": {
					"linkReferences": {},
					"object": "608060405234801561000f575f80fd5b5060405161102738038061102783398181016040528101906100319190610110565b731ac55d145062c48ddda47f1ab2c5b7b0129842d560015f6101000a81548173ffffffffffffffffffffffffffffffffffffffff021916908373ffffffffffffffffffffffffffffffffffffffff1602179055503360025f6101000a81548173ffffffffffffffffffffffffffffffffffffffff021916908373ffffffffffffffffffffffffffffffffffffffff16021790555042600381905550806004819055505061013b565b5f80fd5b5f819050919050565b6100ef816100dd565b81146100f9575f80fd5b50565b5f8151905061010a816100e6565b92915050565b5f60208284031215610125576101246100d9565b5b5f610132848285016100fc565b91505092915050565b610edf806101485f395ff3fe60806040526004361061006f575f3560e01c80639f883a051161004d5780639f883a05146100c9578063b60d428814610105578063bea4dfb51461010f578063f2fde38b146101395761006f565b8063590e1ae3146100735780638da5cb5b146100895780638edd6eb6146100b3575b5f80fd5b34801561007e575f80fd5b50610087610161565b005b348015610094575f80fd5b5061009d6103ae565b6040516100aa919061087e565b60405180910390f35b3480156100be575f80fd5b506100c76103d3565b005b3480156100d4575f80fd5b506100ef60048036038101906100ea91906108c5565b6105f6565b6040516100fc9190610908565b60405180910390f35b61010d61060a565b005b34801561011a575f80fd5b506101236106a1565b6040516101309190610939565b60405180910390f35b348015610144575f80fd5b5061015f600480360381019061015a91906108c5565b61073e565b005b600454600354610171919061097f565b4210156101b3576040517f08c379a00000000000000000000000000000000000000000000000000000000081526004016101aa90610a0c565b60405180910390fd5b683635c9adc5dea000006101c647610810565b10610206576040517f08c379a00000000000000000000000000000000000000000000000000000000081526004016101fd90610a74565b60405180910390fd5b5f805f3373ffffffffffffffffffffffffffffffffffffffff1673ffffffffffffffffffffffffffffffffffffffff1681526020019081526020015f205403610284576040517f08c379a000000000000000000000000000000000000000000000000000000000815260040161027b90610adc565b60405180910390fd5b5f3373ffffffffffffffffffffffffffffffffffffffff165f803373ffffffffffffffffffffffffffffffffffffffff1673ffffffffffffffffffffffffffffffffffffffff1681526020019081526020015f20546040516102e590610b27565b5f6040518083038185875af1925050503d805f811461031f576040519150601f19603f3d011682016040523d82523d5f602084013e610324565b606091505b5050809150508061036a576040517f08c379a000000000000000000000000000000000000000000000000000000000815260040161036190610b85565b60405180910390fd5b5f805f3373ffffffffffffffffffffffffffffffffffffffff1673ffffffffffffffffffffffffffffffffffffffff1681526020019081526020015f208190555050565b60025f9054906101000a900473ffffffffffffffffffffffffffffffffffffffff1681565b6004546003546103e3919061097f565b421015610425576040517f08c379a000000000000000000000000000000000000000000000000000000000815260040161041c90610a0c565b60405180910390fd5b60025f9054906101000a900473ffffffffffffffffffffffffffffffffffffffff1673ffffffffffffffffffffffffffffffffffffffff163373ffffffffffffffffffffffffffffffffffffffff16146104b4576040517f08c379a00000000000000000000000000000000000000000000000000000000081526004016104ab90610c13565b60405180910390fd5b683635c9adc5dea000006104c747610810565b1015610508576040517f08c379a00000000000000000000000000000000000000000000000000000000081526004016104ff90610c7b565b60405180910390fd5b5f3373ffffffffffffffffffffffffffffffffffffffff164760405161052d90610b27565b5f6040518083038185875af1925050503d805f8114610567576040519150601f19603f3d011682016040523d82523d5f602084013e61056c565b606091505b505080915050806105b2576040517f08c379a00000000000000000000000000000000000000000000000000000000081526004016105a990610b85565b60405180910390fd5b5f805f3373ffffffffffffffffffffffffffffffffffffffff1673ffffffffffffffffffffffffffffffffffffffff1681526020019081526020015f208190555050565b5f602052805f5260405f205f915090505481565b68056bc75e2d6310000061061d34610810565b101561065e576040517f08c379a000000000000000000000000000000000000000000000000000000000815260040161065590610ce3565b60405180910390fd5b345f803373ffffffffffffffffffffffffffffffffffffffff1673ffffffffffffffffffffffffffffffffffffffff1681526020019081526020015f2081905550565b5f8060015f9054906101000a900473ffffffffffffffffffffffffffffffffffffffff1673ffffffffffffffffffffffffffffffffffffffff1663feaf968c6040518163ffffffff1660e01b815260040160a060405180830381865afa15801561070d573d5f803e3d5ffd5b505050506040513d601f19601f820116820180604052508101906107319190610d94565b5050509150508091505090565b60025f9054906101000a900473ffffffffffffffffffffffffffffffffffffffff1673ffffffffffffffffffffffffffffffffffffffff163373ffffffffffffffffffffffffffffffffffffffff16146107cd576040517f08c379a00000000000000000000000000000000000000000000000000000000081526004016107c490610c13565b60405180910390fd5b8060025f6101000a81548173ffffffffffffffffffffffffffffffffffffffff021916908373ffffffffffffffffffffffffffffffffffffffff16021790555050565b5f8061081a6106a1565b90506305f5e100818461082d9190610e0b565b6108379190610e79565b915050919050565b5f73ffffffffffffffffffffffffffffffffffffffff82169050919050565b5f6108688261083f565b9050919050565b6108788161085e565b82525050565b5f6020820190506108915f83018461086f565b92915050565b5f80fd5b6108a48161085e565b81146108ae575f80fd5b50565b5f813590506108bf8161089b565b92915050565b5f602082840312156108da576108d9610897565b5b5f6108e7848285016108b1565b91505092915050565b5f819050919050565b610902816108f0565b82525050565b5f60208201905061091b5f8301846108f9565b92915050565b5f819050919050565b61093381610921565b82525050565b5f60208201905061094c5f83018461092a565b92915050565b7f4e487b71000000000000000000000000000000000000000000000000000000005f52601160045260245ffd5b5f610989826108f0565b9150610994836108f0565b92508282019050808211156109ac576109ab610952565b5b92915050565b5f82825260208201905092915050565b7f77696e646f77206973206e6f7420636c6f7365000000000000000000000000005f82015250565b5f6109f66013836109b2565b9150610a01826109c2565b602082019050919050565b5f6020820190508181035f830152610a23816109ea565b9050919050565b7f54617267657420697320726561636865640000000000000000000000000000005f82015250565b5f610a5e6011836109b2565b9150610a6982610a2a565b602082019050919050565b5f6020820190508181035f830152610a8b81610a52565b9050919050565b7f7468657265206973206e6f2066756e6420666f7220796f7520000000000000005f82015250565b5f610ac66019836109b2565b9150610ad182610a92565b602082019050919050565b5f6020820190508181035f830152610af381610aba565b9050919050565b5f81905092915050565b50565b5f610b125f83610afa565b9150610b1d82610b04565b5f82019050919050565b5f610b3182610b07565b9150819050919050565b7f7472616e73666572207478206661696c656400000000000000000000000000005f82015250565b5f610b6f6012836109b2565b9150610b7a82610b3b565b602082019050919050565b5f6020820190508181035f830152610b9c81610b63565b9050919050565b7f746869732066756e6374696f6e2063616e206f6e6c792062652063616c6c65645f8201527f206279206f776e65720000000000000000000000000000000000000000000000602082015250565b5f610bfd6029836109b2565b9150610c0882610ba3565b604082019050919050565b5f6020820190508181035f830152610c2a81610bf1565b9050919050565b7f546172676574206973206e6f74207265616368656400000000000000000000005f82015250565b5f610c656015836109b2565b9150610c7082610c31565b602082019050919050565b5f6020820190508181035f830152610c9281610c59565b9050919050565b7f53656e64206d6f726520455448000000000000000000000000000000000000005f82015250565b5f610ccd600d836109b2565b9150610cd882610c99565b602082019050919050565b5f6020820190508181035f830152610cfa81610cc1565b9050919050565b5f69ffffffffffffffffffff82169050919050565b610d1f81610d01565b8114610d29575f80fd5b50565b5f81519050610d3a81610d16565b92915050565b610d4981610921565b8114610d53575f80fd5b50565b5f81519050610d6481610d40565b92915050565b610d73816108f0565b8114610d7d575f80fd5b50565b5f81519050610d8e81610d6a565b92915050565b5f805f805f60a08688031215610dad57610dac610897565b5b5f610dba88828901610d2c565b9550506020610dcb88828901610d56565b9450506040610ddc88828901610d80565b9350506060610ded88828901610d80565b9250506080610dfe88828901610d2c565b9150509295509295909350565b5f610e15826108f0565b9150610e20836108f0565b9250828202610e2e816108f0565b91508282048414831517610e4557610e44610952565b5b5092915050565b7f4e487b71000000000000000000000000000000000000000000000000000000005f52601260045260245ffd5b5f610e83826108f0565b9150610e8e836108f0565b925082610e9e57610e9d610e4c565b5b82820490509291505056fea2646970667358221220088bcad39347f714dedbcc7436b51047b00db859a53dddaddbafd87e1814077364736f6c634300081a0033",
					"opcodes": "PUSH1 0x80 PUSH1 0x40 MSTORE CALLVALUE DUP1 ISZERO PUSH2 0xF JUMPI PUSH0 DUP1 REVERT JUMPDEST POP PUSH1 0x40 MLOAD PUSH2 0x1027 CODESIZE SUB DUP1 PUSH2 0x1027 DUP4 CODECOPY DUP2 DUP2 ADD PUSH1 0x40 MSTORE DUP2 ADD SWAP1 PUSH2 0x31 SWAP2 SWAP1 PUSH2 0x110 JUMP JUMPDEST PUSH20 0x1AC55D145062C48DDDA47F1AB2C5B7B0129842D5 PUSH1 0x1 PUSH0 PUSH2 0x100 EXP DUP2 SLOAD DUP2 PUSH20 0xFFFFFFFFFFFFFFFFFFFFFFFFFFFFFFFFFFFFFFFF MUL NOT AND SWAP1 DUP4 PUSH20 0xFFFFFFFFFFFFFFFFFFFFFFFFFFFFFFFFFFFFFFFF AND MUL OR SWAP1 SSTORE POP CALLER PUSH1 0x2 PUSH0 PUSH2 0x100 EXP DUP2 SLOAD DUP2 PUSH20 0xFFFFFFFFFFFFFFFFFFFFFFFFFFFFFFFFFFFFFFFF MUL NOT AND SWAP1 DUP4 PUSH20 0xFFFFFFFFFFFFFFFFFFFFFFFFFFFFFFFFFFFFFFFF AND MUL OR SWAP1 SSTORE POP TIMESTAMP PUSH1 0x3 DUP2 SWAP1 SSTORE POP DUP1 PUSH1 0x4 DUP2 SWAP1 SSTORE POP POP PUSH2 0x13B JUMP JUMPDEST PUSH0 DUP1 REVERT JUMPDEST PUSH0 DUP2 SWAP1 POP SWAP2 SWAP1 POP JUMP JUMPDEST PUSH2 0xEF DUP2 PUSH2 0xDD JUMP JUMPDEST DUP2 EQ PUSH2 0xF9 JUMPI PUSH0 DUP1 REVERT JUMPDEST POP JUMP JUMPDEST PUSH0 DUP2 MLOAD SWAP1 POP PUSH2 0x10A DUP2 PUSH2 0xE6 JUMP JUMPDEST SWAP3 SWAP2 POP POP JUMP JUMPDEST PUSH0 PUSH1 0x20 DUP3 DUP5 SUB SLT ISZERO PUSH2 0x125 JUMPI PUSH2 0x124 PUSH2 0xD9 JUMP JUMPDEST JUMPDEST PUSH0 PUSH2 0x132 DUP5 DUP3 DUP6 ADD PUSH2 0xFC JUMP JUMPDEST SWAP2 POP POP SWAP3 SWAP2 POP POP JUMP JUMPDEST PUSH2 0xEDF DUP1 PUSH2 0x148 PUSH0 CODECOPY PUSH0 RETURN INVALID PUSH1 0x80 PUSH1 0x40 MSTORE PUSH1 0x4 CALLDATASIZE LT PUSH2 0x6F JUMPI PUSH0 CALLDATALOAD PUSH1 0xE0 SHR DUP1 PUSH4 0x9F883A05 GT PUSH2 0x4D JUMPI DUP1 PUSH4 0x9F883A05 EQ PUSH2 0xC9 JUMPI DUP1 PUSH4 0xB60D4288 EQ PUSH2 0x105 JUMPI DUP1 PUSH4 0xBEA4DFB5 EQ PUSH2 0x10F JUMPI DUP1 PUSH4 0xF2FDE38B EQ PUSH2 0x139 JUMPI PUSH2 0x6F JUMP JUMPDEST DUP1 PUSH4 0x590E1AE3 EQ PUSH2 0x73 JUMPI DUP1 PUSH4 0x8DA5CB5B EQ PUSH2 0x89 JUMPI DUP1 PUSH4 0x8EDD6EB6 EQ PUSH2 0xB3 JUMPI JUMPDEST PUSH0 DUP1 REVERT JUMPDEST CALLVALUE DUP1 ISZERO PUSH2 0x7E JUMPI PUSH0 DUP1 REVERT JUMPDEST POP PUSH2 0x87 PUSH2 0x161 JUMP JUMPDEST STOP JUMPDEST CALLVALUE DUP1 ISZERO PUSH2 0x94 JUMPI PUSH0 DUP1 REVERT JUMPDEST POP PUSH2 0x9D PUSH2 0x3AE JUMP JUMPDEST PUSH1 0x40 MLOAD PUSH2 0xAA SWAP2 SWAP1 PUSH2 0x87E JUMP JUMPDEST PUSH1 0x40 MLOAD DUP1 SWAP2 SUB SWAP1 RETURN JUMPDEST CALLVALUE DUP1 ISZERO PUSH2 0xBE JUMPI PUSH0 DUP1 REVERT JUMPDEST POP PUSH2 0xC7 PUSH2 0x3D3 JUMP JUMPDEST STOP JUMPDEST CALLVALUE DUP1 ISZERO PUSH2 0xD4 JUMPI PUSH0 DUP1 REVERT JUMPDEST POP PUSH2 0xEF PUSH1 0x4 DUP1 CALLDATASIZE SUB DUP2 ADD SWAP1 PUSH2 0xEA SWAP2 SWAP1 PUSH2 0x8C5 JUMP JUMPDEST PUSH2 0x5F6 JUMP JUMPDEST PUSH1 0x40 MLOAD PUSH2 0xFC SWAP2 SWAP1 PUSH2 0x908 JUMP JUMPDEST PUSH1 0x40 MLOAD DUP1 SWAP2 SUB SWAP1 RETURN JUMPDEST PUSH2 0x10D PUSH2 0x60A JUMP JUMPDEST STOP JUMPDEST CALLVALUE DUP1 ISZERO PUSH2 0x11A JUMPI PUSH0 DUP1 REVERT JUMPDEST POP PUSH2 0x123 PUSH2 0x6A1 JUMP JUMPDEST PUSH1 0x40 MLOAD PUSH2 0x130 SWAP2 SWAP1 PUSH2 0x939 JUMP JUMPDEST PUSH1 0x40 MLOAD DUP1 SWAP2 SUB SWAP1 RETURN JUMPDEST CALLVALUE DUP1 ISZERO PUSH2 0x144 JUMPI PUSH0 DUP1 REVERT JUMPDEST POP PUSH2 0x15F PUSH1 0x4 DUP1 CALLDATASIZE SUB DUP2 ADD SWAP1 PUSH2 0x15A SWAP2 SWAP1 PUSH2 0x8C5 JUMP JUMPDEST PUSH2 0x73E JUMP JUMPDEST STOP JUMPDEST PUSH1 0x4 SLOAD PUSH1 0x3 SLOAD PUSH2 0x171 SWAP2 SWAP1 PUSH2 0x97F JUMP JUMPDEST TIMESTAMP LT ISZERO PUSH2 0x1B3 JUMPI PUSH1 0x40 MLOAD PUSH32 0x8C379A000000000000000000000000000000000000000000000000000000000 DUP2 MSTORE PUSH1 0x4 ADD PUSH2 0x1AA SWAP1 PUSH2 0xA0C JUMP JUMPDEST PUSH1 0x40 MLOAD DUP1 SWAP2 SUB SWAP1 REVERT JUMPDEST PUSH9 0x3635C9ADC5DEA00000 PUSH2 0x1C6 SELFBALANCE PUSH2 0x810 JUMP JUMPDEST LT PUSH2 0x206 JUMPI PUSH1 0x40 MLOAD PUSH32 0x8C379A000000000000000000000000000000000000000000000000000000000 DUP2 MSTORE PUSH1 0x4 ADD PUSH2 0x1FD SWAP1 PUSH2 0xA74 JUMP JUMPDEST PUSH1 0x40 MLOAD DUP1 SWAP2 SUB SWAP1 REVERT JUMPDEST PUSH0 DUP1 PUSH0 CALLER PUSH20 0xFFFFFFFFFFFFFFFFFFFFFFFFFFFFFFFFFFFFFFFF AND PUSH20 0xFFFFFFFFFFFFFFFFFFFFFFFFFFFFFFFFFFFFFFFF AND DUP2 MSTORE PUSH1 0x20 ADD SWAP1 DUP2 MSTORE PUSH1 0x20 ADD PUSH0 KECCAK256 SLOAD SUB PUSH2 0x284 JUMPI PUSH1 0x40 MLOAD PUSH32 0x8C379A000000000000000000000000000000000000000000000000000000000 DUP2 MSTORE PUSH1 0x4 ADD PUSH2 0x27B SWAP1 PUSH2 0xADC JUMP JUMPDEST PUSH1 0x40 MLOAD DUP1 SWAP2 SUB SWAP1 REVERT JUMPDEST PUSH0 CALLER PUSH20 0xFFFFFFFFFFFFFFFFFFFFFFFFFFFFFFFFFFFFFFFF AND PUSH0 DUP1 CALLER PUSH20 0xFFFFFFFFFFFFFFFFFFFFFFFFFFFFFFFFFFFFFFFF AND PUSH20 0xFFFFFFFFFFFFFFFFFFFFFFFFFFFFFFFFFFFFFFFF AND DUP2 MSTORE PUSH1 0x20 ADD SWAP1 DUP2 MSTORE PUSH1 0x20 ADD PUSH0 KECCAK256 SLOAD PUSH1 0x40 MLOAD PUSH2 0x2E5 SWAP1 PUSH2 0xB27 JUMP JUMPDEST PUSH0 PUSH1 0x40 MLOAD DUP1 DUP4 SUB DUP2 DUP6 DUP8 GAS CALL SWAP3 POP POP POP RETURNDATASIZE DUP1 PUSH0 DUP2 EQ PUSH2 0x31F JUMPI PUSH1 0x40 MLOAD SWAP2 POP PUSH1 0x1F NOT PUSH1 0x3F RETURNDATASIZE ADD AND DUP3 ADD PUSH1 0x40 MSTORE RETURNDATASIZE DUP3 MSTORE RETURNDATASIZE PUSH0 PUSH1 0x20 DUP5 ADD RETURNDATACOPY PUSH2 0x324 JUMP JUMPDEST PUSH1 0x60 SWAP2 POP JUMPDEST POP POP DUP1 SWAP2 POP POP DUP1 PUSH2 0x36A JUMPI PUSH1 0x40 MLOAD PUSH32 0x8C379A000000000000000000000000000000000000000000000000000000000 DUP2 MSTORE PUSH1 0x4 ADD PUSH2 0x361 SWAP1 PUSH2 0xB85 JUMP JUMPDEST PUSH1 0x40 MLOAD DUP1 SWAP2 SUB SWAP1 REVERT JUMPDEST PUSH0 DUP1 PUSH0 CALLER PUSH20 0xFFFFFFFFFFFFFFFFFFFFFFFFFFFFFFFFFFFFFFFF AND PUSH20 0xFFFFFFFFFFFFFFFFFFFFFFFFFFFFFFFFFFFFFFFF AND DUP2 MSTORE PUSH1 0x20 ADD SWAP1 DUP2 MSTORE PUSH1 0x20 ADD PUSH0 KECCAK256 DUP2 SWAP1 SSTORE POP POP JUMP JUMPDEST PUSH1 0x2 PUSH0 SWAP1 SLOAD SWAP1 PUSH2 0x100 EXP SWAP1 DIV PUSH20 0xFFFFFFFFFFFFFFFFFFFFFFFFFFFFFFFFFFFFFFFF AND DUP2 JUMP JUMPDEST PUSH1 0x4 SLOAD PUSH1 0x3 SLOAD PUSH2 0x3E3 SWAP2 SWAP1 PUSH2 0x97F JUMP JUMPDEST TIMESTAMP LT ISZERO PUSH2 0x425 JUMPI PUSH1 0x40 MLOAD PUSH32 0x8C379A000000000000000000000000000000000000000000000000000000000 DUP2 MSTORE PUSH1 0x4 ADD PUSH2 0x41C SWAP1 PUSH2 0xA0C JUMP JUMPDEST PUSH1 0x40 MLOAD DUP1 SWAP2 SUB SWAP1 REVERT JUMPDEST PUSH1 0x2 PUSH0 SWAP1 SLOAD SWAP1 PUSH2 0x100 EXP SWAP1 DIV PUSH20 0xFFFFFFFFFFFFFFFFFFFFFFFFFFFFFFFFFFFFFFFF AND PUSH20 0xFFFFFFFFFFFFFFFFFFFFFFFFFFFFFFFFFFFFFFFF AND CALLER PUSH20 0xFFFFFFFFFFFFFFFFFFFFFFFFFFFFFFFFFFFFFFFF AND EQ PUSH2 0x4B4 JUMPI PUSH1 0x40 MLOAD PUSH32 0x8C379A000000000000000000000000000000000000000000000000000000000 DUP2 MSTORE PUSH1 0x4 ADD PUSH2 0x4AB SWAP1 PUSH2 0xC13 JUMP JUMPDEST PUSH1 0x40 MLOAD DUP1 SWAP2 SUB SWAP1 REVERT JUMPDEST PUSH9 0x3635C9ADC5DEA00000 PUSH2 0x4C7 SELFBALANCE PUSH2 0x810 JUMP JUMPDEST LT ISZERO PUSH2 0x508 JUMPI PUSH1 0x40 MLOAD PUSH32 0x8C379A000000000000000000000000000000000000000000000000000000000 DUP2 MSTORE PUSH1 0x4 ADD PUSH2 0x4FF SWAP1 PUSH2 0xC7B JUMP JUMPDEST PUSH1 0x40 MLOAD DUP1 SWAP2 SUB SWAP1 REVERT JUMPDEST PUSH0 CALLER PUSH20 0xFFFFFFFFFFFFFFFFFFFFFFFFFFFFFFFFFFFFFFFF AND SELFBALANCE PUSH1 0x40 MLOAD PUSH2 0x52D SWAP1 PUSH2 0xB27 JUMP JUMPDEST PUSH0 PUSH1 0x40 MLOAD DUP1 DUP4 SUB DUP2 DUP6 DUP8 GAS CALL SWAP3 POP POP POP RETURNDATASIZE DUP1 PUSH0 DUP2 EQ PUSH2 0x567 JUMPI PUSH1 0x40 MLOAD SWAP2 POP PUSH1 0x1F NOT PUSH1 0x3F RETURNDATASIZE ADD AND DUP3 ADD PUSH1 0x40 MSTORE RETURNDATASIZE DUP3 MSTORE RETURNDATASIZE PUSH0 PUSH1 0x20 DUP5 ADD RETURNDATACOPY PUSH2 0x56C JUMP JUMPDEST PUSH1 0x60 SWAP2 POP JUMPDEST POP POP DUP1 SWAP2 POP POP DUP1 PUSH2 0x5B2 JUMPI PUSH1 0x40 MLOAD PUSH32 0x8C379A000000000000000000000000000000000000000000000000000000000 DUP2 MSTORE PUSH1 0x4 ADD PUSH2 0x5A9 SWAP1 PUSH2 0xB85 JUMP JUMPDEST PUSH1 0x40 MLOAD DUP1 SWAP2 SUB SWAP1 REVERT JUMPDEST PUSH0 DUP1 PUSH0 CALLER PUSH20 0xFFFFFFFFFFFFFFFFFFFFFFFFFFFFFFFFFFFFFFFF AND PUSH20 0xFFFFFFFFFFFFFFFFFFFFFFFFFFFFFFFFFFFFFFFF AND DUP2 MSTORE PUSH1 0x20 ADD SWAP1 DUP2 MSTORE PUSH1 0x20 ADD PUSH0 KECCAK256 DUP2 SWAP1 SSTORE POP POP JUMP JUMPDEST PUSH0 PUSH1 0x20 MSTORE DUP1 PUSH0 MSTORE PUSH1 0x40 PUSH0 KECCAK256 PUSH0 SWAP2 POP SWAP1 POP SLOAD DUP2 JUMP JUMPDEST PUSH9 0x56BC75E2D63100000 PUSH2 0x61D CALLVALUE PUSH2 0x810 JUMP JUMPDEST LT ISZERO PUSH2 0x65E JUMPI PUSH1 0x40 MLOAD PUSH32 0x8C379A000000000000000000000000000000000000000000000000000000000 DUP2 MSTORE PUSH1 0x4 ADD PUSH2 0x655 SWAP1 PUSH2 0xCE3 JUMP JUMPDEST PUSH1 0x40 MLOAD DUP1 SWAP2 SUB SWAP1 REVERT JUMPDEST CALLVALUE PUSH0 DUP1 CALLER PUSH20 0xFFFFFFFFFFFFFFFFFFFFFFFFFFFFFFFFFFFFFFFF AND PUSH20 0xFFFFFFFFFFFFFFFFFFFFFFFFFFFFFFFFFFFFFFFF AND DUP2 MSTORE PUSH1 0x20 ADD SWAP1 DUP2 MSTORE PUSH1 0x20 ADD PUSH0 KECCAK256 DUP2 SWAP1 SSTORE POP JUMP JUMPDEST PUSH0 DUP1 PUSH1 0x1 PUSH0 SWAP1 SLOAD SWAP1 PUSH2 0x100 EXP SWAP1 DIV PUSH20 0xFFFFFFFFFFFFFFFFFFFFFFFFFFFFFFFFFFFFFFFF AND PUSH20 0xFFFFFFFFFFFFFFFFFFFFFFFFFFFFFFFFFFFFFFFF AND PUSH4 0xFEAF968C PUSH1 0x40 MLOAD DUP2 PUSH4 0xFFFFFFFF AND PUSH1 0xE0 SHL DUP2 MSTORE PUSH1 0x4 ADD PUSH1 0xA0 PUSH1 0x40 MLOAD DUP1 DUP4 SUB DUP2 DUP7 GAS STATICCALL ISZERO DUP1 ISZERO PUSH2 0x70D JUMPI RETURNDATASIZE PUSH0 DUP1 RETURNDATACOPY RETURNDATASIZE PUSH0 REVERT JUMPDEST POP POP POP POP PUSH1 0x40 MLOAD RETURNDATASIZE PUSH1 0x1F NOT PUSH1 0x1F DUP3 ADD AND DUP3 ADD DUP1 PUSH1 0x40 MSTORE POP DUP2 ADD SWAP1 PUSH2 0x731 SWAP2 SWAP1 PUSH2 0xD94 JUMP JUMPDEST POP POP POP SWAP2 POP POP DUP1 SWAP2 POP POP SWAP1 JUMP JUMPDEST PUSH1 0x2 PUSH0 SWAP1 SLOAD SWAP1 PUSH2 0x100 EXP SWAP1 DIV PUSH20 0xFFFFFFFFFFFFFFFFFFFFFFFFFFFFFFFFFFFFFFFF AND PUSH20 0xFFFFFFFFFFFFFFFFFFFFFFFFFFFFFFFFFFFFFFFF AND CALLER PUSH20 0xFFFFFFFFFFFFFFFFFFFFFFFFFFFFFFFFFFFFFFFF AND EQ PUSH2 0x7CD JUMPI PUSH1 0x40 MLOAD PUSH32 0x8C379A000000000000000000000000000000000000000000000000000000000 DUP2 MSTORE PUSH1 0x4 ADD PUSH2 0x7C4 SWAP1 PUSH2 0xC13 JUMP JUMPDEST PUSH1 0x40 MLOAD DUP1 SWAP2 SUB SWAP1 REVERT JUMPDEST DUP1 PUSH1 0x2 PUSH0 PUSH2 0x100 EXP DUP2 SLOAD DUP2 PUSH20 0xFFFFFFFFFFFFFFFFFFFFFFFFFFFFFFFFFFFFFFFF MUL NOT AND SWAP1 DUP4 PUSH20 0xFFFFFFFFFFFFFFFFFFFFFFFFFFFFFFFFFFFFFFFF AND MUL OR SWAP1 SSTORE POP POP JUMP JUMPDEST PUSH0 DUP1 PUSH2 0x81A PUSH2 0x6A1 JUMP JUMPDEST SWAP1 POP PUSH4 0x5F5E100 DUP2 DUP5 PUSH2 0x82D SWAP2 SWAP1 PUSH2 0xE0B JUMP JUMPDEST PUSH2 0x837 SWAP2 SWAP1 PUSH2 0xE79 JUMP JUMPDEST SWAP2 POP POP SWAP2 SWAP1 POP JUMP JUMPDEST PUSH0 PUSH20 0xFFFFFFFFFFFFFFFFFFFFFFFFFFFFFFFFFFFFFFFF DUP3 AND SWAP1 POP SWAP2 SWAP1 POP JUMP JUMPDEST PUSH0 PUSH2 0x868 DUP3 PUSH2 0x83F JUMP JUMPDEST SWAP1 POP SWAP2 SWAP1 POP JUMP JUMPDEST PUSH2 0x878 DUP2 PUSH2 0x85E JUMP JUMPDEST DUP3 MSTORE POP POP JUMP JUMPDEST PUSH0 PUSH1 0x20 DUP3 ADD SWAP1 POP PUSH2 0x891 PUSH0 DUP4 ADD DUP5 PUSH2 0x86F JUMP JUMPDEST SWAP3 SWAP2 POP POP JUMP JUMPDEST PUSH0 DUP1 REVERT JUMPDEST PUSH2 0x8A4 DUP2 PUSH2 0x85E JUMP JUMPDEST DUP2 EQ PUSH2 0x8AE JUMPI PUSH0 DUP1 REVERT JUMPDEST POP JUMP JUMPDEST PUSH0 DUP2 CALLDATALOAD SWAP1 POP PUSH2 0x8BF DUP2 PUSH2 0x89B JUMP JUMPDEST SWAP3 SWAP2 POP POP JUMP JUMPDEST PUSH0 PUSH1 0x20 DUP3 DUP5 SUB SLT ISZERO PUSH2 0x8DA JUMPI PUSH2 0x8D9 PUSH2 0x897 JUMP JUMPDEST JUMPDEST PUSH0 PUSH2 0x8E7 DUP5 DUP3 DUP6 ADD PUSH2 0x8B1 JUMP JUMPDEST SWAP2 POP POP SWAP3 SWAP2 POP POP JUMP JUMPDEST PUSH0 DUP2 SWAP1 POP SWAP2 SWAP1 POP JUMP JUMPDEST PUSH2 0x902 DUP2 PUSH2 0x8F0 JUMP JUMPDEST DUP3 MSTORE POP POP JUMP JUMPDEST PUSH0 PUSH1 0x20 DUP3 ADD SWAP1 POP PUSH2 0x91B PUSH0 DUP4 ADD DUP5 PUSH2 0x8F9 JUMP JUMPDEST SWAP3 SWAP2 POP POP JUMP JUMPDEST PUSH0 DUP2 SWAP1 POP SWAP2 SWAP1 POP JUMP JUMPDEST PUSH2 0x933 DUP2 PUSH2 0x921 JUMP JUMPDEST DUP3 MSTORE POP POP JUMP JUMPDEST PUSH0 PUSH1 0x20 DUP3 ADD SWAP1 POP PUSH2 0x94C PUSH0 DUP4 ADD DUP5 PUSH2 0x92A JUMP JUMPDEST SWAP3 SWAP2 POP POP JUMP JUMPDEST PUSH32 0x4E487B7100000000000000000000000000000000000000000000000000000000 PUSH0 MSTORE PUSH1 0x11 PUSH1 0x4 MSTORE PUSH1 0x24 PUSH0 REVERT JUMPDEST PUSH0 PUSH2 0x989 DUP3 PUSH2 0x8F0 JUMP JUMPDEST SWAP2 POP PUSH2 0x994 DUP4 PUSH2 0x8F0 JUMP JUMPDEST SWAP3 POP DUP3 DUP3 ADD SWAP1 POP DUP1 DUP3 GT ISZERO PUSH2 0x9AC JUMPI PUSH2 0x9AB PUSH2 0x952 JUMP JUMPDEST JUMPDEST SWAP3 SWAP2 POP POP JUMP JUMPDEST PUSH0 DUP3 DUP3 MSTORE PUSH1 0x20 DUP3 ADD SWAP1 POP SWAP3 SWAP2 POP POP JUMP JUMPDEST PUSH32 0x77696E646F77206973206E6F7420636C6F736500000000000000000000000000 PUSH0 DUP3 ADD MSTORE POP JUMP JUMPDEST PUSH0 PUSH2 0x9F6 PUSH1 0x13 DUP4 PUSH2 0x9B2 JUMP JUMPDEST SWAP2 POP PUSH2 0xA01 DUP3 PUSH2 0x9C2 JUMP JUMPDEST PUSH1 0x20 DUP3 ADD SWAP1 POP SWAP2 SWAP1 POP JUMP JUMPDEST PUSH0 PUSH1 0x20 DUP3 ADD SWAP1 POP DUP2 DUP2 SUB PUSH0 DUP4 ADD MSTORE PUSH2 0xA23 DUP2 PUSH2 0x9EA JUMP JUMPDEST SWAP1 POP SWAP2 SWAP1 POP JUMP JUMPDEST PUSH32 0x5461726765742069732072656163686564000000000000000000000000000000 PUSH0 DUP3 ADD MSTORE POP JUMP JUMPDEST PUSH0 PUSH2 0xA5E PUSH1 0x11 DUP4 PUSH2 0x9B2 JUMP JUMPDEST SWAP2 POP PUSH2 0xA69 DUP3 PUSH2 0xA2A JUMP JUMPDEST PUSH1 0x20 DUP3 ADD SWAP1 POP SWAP2 SWAP1 POP JUMP JUMPDEST PUSH0 PUSH1 0x20 DUP3 ADD SWAP1 POP DUP2 DUP2 SUB PUSH0 DUP4 ADD MSTORE PUSH2 0xA8B DUP2 PUSH2 0xA52 JUMP JUMPDEST SWAP1 POP SWAP2 SWAP1 POP JUMP JUMPDEST PUSH32 0x7468657265206973206E6F2066756E6420666F7220796F752000000000000000 PUSH0 DUP3 ADD MSTORE POP JUMP JUMPDEST PUSH0 PUSH2 0xAC6 PUSH1 0x19 DUP4 PUSH2 0x9B2 JUMP JUMPDEST SWAP2 POP PUSH2 0xAD1 DUP3 PUSH2 0xA92 JUMP JUMPDEST PUSH1 0x20 DUP3 ADD SWAP1 POP SWAP2 SWAP1 POP JUMP JUMPDEST PUSH0 PUSH1 0x20 DUP3 ADD SWAP1 POP DUP2 DUP2 SUB PUSH0 DUP4 ADD MSTORE PUSH2 0xAF3 DUP2 PUSH2 0xABA JUMP JUMPDEST SWAP1 POP SWAP2 SWAP1 POP JUMP JUMPDEST PUSH0 DUP2 SWAP1 POP SWAP3 SWAP2 POP POP JUMP JUMPDEST POP JUMP JUMPDEST PUSH0 PUSH2 0xB12 PUSH0 DUP4 PUSH2 0xAFA JUMP JUMPDEST SWAP2 POP PUSH2 0xB1D DUP3 PUSH2 0xB04 JUMP JUMPDEST PUSH0 DUP3 ADD SWAP1 POP SWAP2 SWAP1 POP JUMP JUMPDEST PUSH0 PUSH2 0xB31 DUP3 PUSH2 0xB07 JUMP JUMPDEST SWAP2 POP DUP2 SWAP1 POP SWAP2 SWAP1 POP JUMP JUMPDEST PUSH32 0x7472616E73666572207478206661696C65640000000000000000000000000000 PUSH0 DUP3 ADD MSTORE POP JUMP JUMPDEST PUSH0 PUSH2 0xB6F PUSH1 0x12 DUP4 PUSH2 0x9B2 JUMP JUMPDEST SWAP2 POP PUSH2 0xB7A DUP3 PUSH2 0xB3B JUMP JUMPDEST PUSH1 0x20 DUP3 ADD SWAP1 POP SWAP2 SWAP1 POP JUMP JUMPDEST PUSH0 PUSH1 0x20 DUP3 ADD SWAP1 POP DUP2 DUP2 SUB PUSH0 DUP4 ADD MSTORE PUSH2 0xB9C DUP2 PUSH2 0xB63 JUMP JUMPDEST SWAP1 POP SWAP2 SWAP1 POP JUMP JUMPDEST PUSH32 0x746869732066756E6374696F6E2063616E206F6E6C792062652063616C6C6564 PUSH0 DUP3 ADD MSTORE PUSH32 0x206279206F776E65720000000000000000000000000000000000000000000000 PUSH1 0x20 DUP3 ADD MSTORE POP JUMP JUMPDEST PUSH0 PUSH2 0xBFD PUSH1 0x29 DUP4 PUSH2 0x9B2 JUMP JUMPDEST SWAP2 POP PUSH2 0xC08 DUP3 PUSH2 0xBA3 JUMP JUMPDEST PUSH1 0x40 DUP3 ADD SWAP1 POP SWAP2 SWAP1 POP JUMP JUMPDEST PUSH0 PUSH1 0x20 DUP3 ADD SWAP1 POP DUP2 DUP2 SUB PUSH0 DUP4 ADD MSTORE PUSH2 0xC2A DUP2 PUSH2 0xBF1 JUMP JUMPDEST SWAP1 POP SWAP2 SWAP1 POP JUMP JUMPDEST PUSH32 0x546172676574206973206E6F7420726561636865640000000000000000000000 PUSH0 DUP3 ADD MSTORE POP JUMP JUMPDEST PUSH0 PUSH2 0xC65 PUSH1 0x15 DUP4 PUSH2 0x9B2 JUMP JUMPDEST SWAP2 POP PUSH2 0xC70 DUP3 PUSH2 0xC31 JUMP JUMPDEST PUSH1 0x20 DUP3 ADD SWAP1 POP SWAP2 SWAP1 POP JUMP JUMPDEST PUSH0 PUSH1 0x20 DUP3 ADD SWAP1 POP DUP2 DUP2 SUB PUSH0 DUP4 ADD MSTORE PUSH2 0xC92 DUP2 PUSH2 0xC59 JUMP JUMPDEST SWAP1 POP SWAP2 SWAP1 POP JUMP JUMPDEST PUSH32 0x53656E64206D6F72652045544800000000000000000000000000000000000000 PUSH0 DUP3 ADD MSTORE POP JUMP JUMPDEST PUSH0 PUSH2 0xCCD PUSH1 0xD DUP4 PUSH2 0x9B2 JUMP JUMPDEST SWAP2 POP PUSH2 0xCD8 DUP3 PUSH2 0xC99 JUMP JUMPDEST PUSH1 0x20 DUP3 ADD SWAP1 POP SWAP2 SWAP1 POP JUMP JUMPDEST PUSH0 PUSH1 0x20 DUP3 ADD SWAP1 POP DUP2 DUP2 SUB PUSH0 DUP4 ADD MSTORE PUSH2 0xCFA DUP2 PUSH2 0xCC1 JUMP JUMPDEST SWAP1 POP SWAP2 SWAP1 POP JUMP JUMPDEST PUSH0 PUSH10 0xFFFFFFFFFFFFFFFFFFFF DUP3 AND SWAP1 POP SWAP2 SWAP1 POP JUMP JUMPDEST PUSH2 0xD1F DUP2 PUSH2 0xD01 JUMP JUMPDEST DUP2 EQ PUSH2 0xD29 JUMPI PUSH0 DUP1 REVERT JUMPDEST POP JUMP JUMPDEST PUSH0 DUP2 MLOAD SWAP1 POP PUSH2 0xD3A DUP2 PUSH2 0xD16 JUMP JUMPDEST SWAP3 SWAP2 POP POP JUMP JUMPDEST PUSH2 0xD49 DUP2 PUSH2 0x921 JUMP JUMPDEST DUP2 EQ PUSH2 0xD53 JUMPI PUSH0 DUP1 REVERT JUMPDEST POP JUMP JUMPDEST PUSH0 DUP2 MLOAD SWAP1 POP PUSH2 0xD64 DUP2 PUSH2 0xD40 JUMP JUMPDEST SWAP3 SWAP2 POP POP JUMP JUMPDEST PUSH2 0xD73 DUP2 PUSH2 0x8F0 JUMP JUMPDEST DUP2 EQ PUSH2 0xD7D JUMPI PUSH0 DUP1 REVERT JUMPDEST POP JUMP JUMPDEST PUSH0 DUP2 MLOAD SWAP1 POP PUSH2 0xD8E DUP2 PUSH2 0xD6A JUMP JUMPDEST SWAP3 SWAP2 POP POP JUMP JUMPDEST PUSH0 DUP1 PUSH0 DUP1 PUSH0 PUSH1 0xA0 DUP7 DUP9 SUB SLT ISZERO PUSH2 0xDAD JUMPI PUSH2 0xDAC PUSH2 0x897 JUMP JUMPDEST JUMPDEST PUSH0 PUSH2 0xDBA DUP9 DUP3 DUP10 ADD PUSH2 0xD2C JUMP JUMPDEST SWAP6 POP POP PUSH1 0x20 PUSH2 0xDCB DUP9 DUP3 DUP10 ADD PUSH2 0xD56 JUMP JUMPDEST SWAP5 POP POP PUSH1 0x40 PUSH2 0xDDC DUP9 DUP3 DUP10 ADD PUSH2 0xD80 JUMP JUMPDEST SWAP4 POP POP PUSH1 0x60 PUSH2 0xDED DUP9 DUP3 DUP10 ADD PUSH2 0xD80 JUMP JUMPDEST SWAP3 POP POP PUSH1 0x80 PUSH2 0xDFE DUP9 DUP3 DUP10 ADD PUSH2 0xD2C JUMP JUMPDEST SWAP2 POP POP SWAP3 SWAP6 POP SWAP3 SWAP6 SWAP1 SWAP4 POP JUMP JUMPDEST PUSH0 PUSH2 0xE15 DUP3 PUSH2 0x8F0 JUMP JUMPDEST SWAP2 POP PUSH2 0xE20 DUP4 PUSH2 0x8F0 JUMP JUMPDEST SWAP3 POP DUP3 DUP3 MUL PUSH2 0xE2E DUP2 PUSH2 0x8F0 JUMP JUMPDEST SWAP2 POP DUP3 DUP3 DIV DUP5 EQ DUP4 ISZERO OR PUSH2 0xE45 JUMPI PUSH2 0xE44 PUSH2 0x952 JUMP JUMPDEST JUMPDEST POP SWAP3 SWAP2 POP POP JUMP JUMPDEST PUSH32 0x4E487B7100000000000000000000000000000000000000000000000000000000 PUSH0 MSTORE PUSH1 0x12 PUSH1 0x4 MSTORE PUSH1 0x24 PUSH0 REVERT JUMPDEST PUSH0 PUSH2 0xE83 DUP3 PUSH2 0x8F0 JUMP JUMPDEST SWAP2 POP PUSH2 0xE8E DUP4 PUSH2 0x8F0 JUMP JUMPDEST SWAP3 POP DUP3 PUSH2 0xE9E JUMPI PUSH2 0xE9D PUSH2 0xE4C JUMP JUMPDEST JUMPDEST DUP3 DUP3 DIV SWAP1 POP SWAP3 SWAP2 POP POP JUMP INVALID LOG2 PUSH5 0x6970667358 0x22 SLT KECCAK256 ADDMOD DUP12 0xCA 0xD3 SWAP4 SELFBALANCE 0xF7 EQ 0xDE 0xDB 0xCC PUSH21 0x36B51047B00DB859A53DDDADDBAFD87E1814077364 PUSH20 0x6F6C634300081A00330000000000000000000000 "
				},
				"gasEstimates": {
					"creation": {
						"codeDepositCost": "761400",
						"executionCost": "infinite",
						"totalCost": "infinite"
					},
					"external": {
						"fund()": "infinite",
						"fundersToAmount(address)": "2801",
						"getChainlinkDataFeedLatestAnswer()": "infinite",
						"getFund()": "infinite",
						"owner()": "2531",
						"refund()": "infinite",
						"transferOwnership(address)": "26950"
					},
					"internal": {
						"convertEthToUSD(uint256)": "infinite"
					}
				},
				"methodIdentifiers": {
					"fund()": "b60d4288",
					"fundersToAmount(address)": "9f883a05",
					"getChainlinkDataFeedLatestAnswer()": "bea4dfb5",
					"getFund()": "8edd6eb6",
					"owner()": "8da5cb5b",
					"refund()": "590e1ae3",
					"transferOwnership(address)": "f2fde38b"
				}
			},
			"storageLayout": {
				"storage": [
					{
						"astId": 53,
						"contract": "lesson - 3/FundMe2.sol:FundMe",
						"label": "fundersToAmount",
						"offset": 0,
						"slot": "0",
						"type": "t_mapping(t_address,t_uint256)"
					},
					{
						"astId": 63,
						"contract": "lesson - 3/FundMe2.sol:FundMe",
						"label": "dataFeed",
						"offset": 0,
						"slot": "1",
						"type": "t_contract(AggregatorV3Interface)45"
					},
					{
						"astId": 72,
						"contract": "lesson - 3/FundMe2.sol:FundMe",
						"label": "owner",
						"offset": 0,
						"slot": "2",
						"type": "t_address"
					},
					{
						"astId": 74,
						"contract": "lesson - 3/FundMe2.sol:FundMe",
						"label": "deploymentTimestamp",
						"offset": 0,
						"slot": "3",
						"type": "t_uint256"
					},
					{
						"astId": 76,
						"contract": "lesson - 3/FundMe2.sol:FundMe",
						"label": "lockTime",
						"offset": 0,
						"slot": "4",
						"type": "t_uint256"
					}
				],
				"types": {
					"t_address": {
						"encoding": "inplace",
						"label": "address",
						"numberOfBytes": "20"
					},
					"t_contract(AggregatorV3Interface)45": {
						"encoding": "inplace",
						"label": "contract AggregatorV3Interface",
						"numberOfBytes": "20"
					},
					"t_mapping(t_address,t_uint256)": {
						"encoding": "mapping",
						"key": "t_address",
						"label": "mapping(address => uint256)",
						"numberOfBytes": "32",
						"value": "t_uint256"
					},
					"t_uint256": {
						"encoding": "inplace",
						"label": "uint256",
						"numberOfBytes": "32"
					}
				}
			},
			"userdoc": {
				"kind": "user",
				"methods": {},
				"version": 1
			}
		}
	}
}