{
  "_format": "hh-sol-artifact-1",
  "contractName": "WrappedNFT",
  "sourceName": "contracts/WrappedNFT.sol",
  "abi": [
    {
      "inputs": [
        {
          "internalType": "string",
          "name": "tokenName",
          "type": "string"
        },
        {
          "internalType": "string",
          "name": "tokenSymbol",
          "type": "string"
        }
      ],
      "stateMutability": "nonpayable",
      "type": "constructor"
    },
    {
      "inputs": [],
      "name": "ERC721EnumerableForbiddenBatchMint",
      "type": "error"
    },
    {
      "inputs": [
        {
          "internalType": "address",
          "name": "sender",
          "type": "address"
        },
        {
          "internalType": "uint256",
          "name": "tokenId",
          "type": "uint256"
        },
        {
          "internalType": "address",
          "name": "owner",
          "type": "address"
        }
      ],
      "name": "ERC721IncorrectOwner",
      "type": "error"
    },
    {
      "inputs": [
        {
          "internalType": "address",
          "name": "operator",
          "type": "address"
        },
        {
          "internalType": "uint256",
          "name": "tokenId",
          "type": "uint256"
        }
      ],
      "name": "ERC721InsufficientApproval",
      "type": "error"
    },
    {
      "inputs": [
        {
          "internalType": "address",
          "name": "approver",
          "type": "address"
        }
      ],
      "name": "ERC721InvalidApprover",
      "type": "error"
    },
    {
      "inputs": [
        {
          "internalType": "address",
          "name": "operator",
          "type": "address"
        }
      ],
      "name": "ERC721InvalidOperator",
      "type": "error"
    },
    {
      "inputs": [
        {
          "internalType": "address",
          "name": "owner",
          "type": "address"
        }
      ],
      "name": "ERC721InvalidOwner",
      "type": "error"
    },
    {
      "inputs": [
        {
          "internalType": "address",
          "name": "receiver",
          "type": "address"
        }
      ],
      "name": "ERC721InvalidReceiver",
      "type": "error"
    },
    {
      "inputs": [
        {
          "internalType": "address",
          "name": "sender",
          "type": "address"
        }
      ],
      "name": "ERC721InvalidSender",
      "type": "error"
    },
    {
      "inputs": [
        {
          "internalType": "uint256",
          "name": "tokenId",
          "type": "uint256"
        }
      ],
      "name": "ERC721NonexistentToken",
      "type": "error"
    },
    {
      "inputs": [
        {
          "internalType": "address",
          "name": "owner",
          "type": "address"
        },
        {
          "internalType": "uint256",
          "name": "index",
          "type": "uint256"
        }
      ],
      "name": "ERC721OutOfBoundsIndex",
      "type": "error"
    },
    {
      "inputs": [
        {
          "internalType": "address",
          "name": "owner",
          "type": "address"
        }
      ],
      "name": "OwnableInvalidOwner",
      "type": "error"
    },
    {
      "inputs": [
        {
          "internalType": "address",
          "name": "account",
          "type": "address"
        }
      ],
      "name": "OwnableUnauthorizedAccount",
      "type": "error"
    },
    {
      "anonymous": false,
      "inputs": [
        {
          "indexed": true,
          "internalType": "address",
          "name": "owner",
          "type": "address"
        },
        {
          "indexed": true,
          "internalType": "address",
          "name": "approved",
          "type": "address"
        },
        {
          "indexed": true,
          "internalType": "uint256",
          "name": "tokenId",
          "type": "uint256"
        }
      ],
      "name": "Approval",
      "type": "event"
    },
    {
      "anonymous": false,
      "inputs": [
        {
          "indexed": true,
          "internalType": "address",
          "name": "owner",
          "type": "address"
        },
        {
          "indexed": true,
          "internalType": "address",
          "name": "operator",
          "type": "address"
        },
        {
          "indexed": false,
          "internalType": "bool",
          "name": "approved",
          "type": "bool"
        }
      ],
      "name": "ApprovalForAll",
      "type": "event"
    },
    {
      "anonymous": false,
      "inputs": [
        {
          "indexed": false,
          "internalType": "uint256",
          "name": "_fromTokenId",
          "type": "uint256"
        },
        {
          "indexed": false,
          "internalType": "uint256",
          "name": "_toTokenId",
          "type": "uint256"
        }
      ],
      "name": "BatchMetadataUpdate",
      "type": "event"
    },
    {
      "anonymous": false,
      "inputs": [
        {
          "indexed": false,
          "internalType": "uint256",
          "name": "_tokenId",
          "type": "uint256"
        }
      ],
      "name": "MetadataUpdate",
      "type": "event"
    },
    {
      "anonymous": false,
      "inputs": [
        {
          "indexed": true,
          "internalType": "address",
          "name": "previousOwner",
          "type": "address"
        },
        {
          "indexed": true,
          "internalType": "address",
          "name": "newOwner",
          "type": "address"
        }
      ],
      "name": "OwnershipTransferred",
      "type": "event"
    },
    {
      "anonymous": false,
      "inputs": [
        {
          "indexed": true,
          "internalType": "address",
          "name": "from",
          "type": "address"
        },
        {
          "indexed": true,
          "internalType": "address",
          "name": "to",
          "type": "address"
        },
        {
          "indexed": true,
          "internalType": "uint256",
          "name": "tokenId",
          "type": "uint256"
        }
      ],
      "name": "Transfer",
      "type": "event"
    },
    {
      "inputs": [],
      "name": "METADATA_URI",
      "outputs": [
        {
          "internalType": "string",
          "name": "",
          "type": "string"
        }
      ],
      "stateMutability": "view",
      "type": "function"
    },
    {
      "inputs": [
        {
          "internalType": "address",
          "name": "to",
          "type": "address"
        },
        {
          "internalType": "uint256",
          "name": "tokenId",
          "type": "uint256"
        }
      ],
      "name": "approve",
      "outputs": [],
      "stateMutability": "nonpayable",
      "type": "function"
    },
    {
      "inputs": [
        {
          "internalType": "address",
          "name": "owner",
          "type": "address"
        }
      ],
      "name": "balanceOf",
      "outputs": [
        {
          "internalType": "uint256",
          "name": "",
          "type": "uint256"
        }
      ],
      "stateMutability": "view",
      "type": "function"
    },
    {
      "inputs": [
        {
          "internalType": "uint256",
          "name": "tokenId",
          "type": "uint256"
        }
      ],
      "name": "burn",
      "outputs": [],
      "stateMutability": "nonpayable",
      "type": "function"
    },
    {
      "inputs": [
        {
          "internalType": "uint256",
          "name": "tokenId",
          "type": "uint256"
        }
      ],
      "name": "getApproved",
      "outputs": [
        {
          "internalType": "address",
          "name": "",
          "type": "address"
        }
      ],
      "stateMutability": "view",
      "type": "function"
    },
    {
      "inputs": [
        {
          "internalType": "address",
          "name": "owner",
          "type": "address"
        },
        {
          "internalType": "address",
          "name": "operator",
          "type": "address"
        }
      ],
      "name": "isApprovedForAll",
      "outputs": [
        {
          "internalType": "bool",
          "name": "",
          "type": "bool"
        }
      ],
      "stateMutability": "view",
      "type": "function"
    },
    {
      "inputs": [
        {
          "internalType": "address",
          "name": "to",
          "type": "address"
        },
        {
          "internalType": "uint256",
          "name": "_tokenId",
          "type": "uint256"
        }
      ],
      "name": "mintWithSpecificTokenId",
      "outputs": [],
      "stateMutability": "nonpayable",
      "type": "function"
    },
    {
      "inputs": [],
      "name": "name",
      "outputs": [
        {
          "internalType": "string",
          "name": "",
          "type": "string"
        }
      ],
      "stateMutability": "view",
      "type": "function"
    },
    {
      "inputs": [],
      "name": "owner",
      "outputs": [
        {
          "internalType": "address",
          "name": "",
          "type": "address"
        }
      ],
      "stateMutability": "view",
      "type": "function"
    },
    {
      "inputs": [
        {
          "internalType": "uint256",
          "name": "tokenId",
          "type": "uint256"
        }
      ],
      "name": "ownerOf",
      "outputs": [
        {
          "internalType": "address",
          "name": "",
          "type": "address"
        }
      ],
      "stateMutability": "view",
      "type": "function"
    },
    {
      "inputs": [],
      "name": "renounceOwnership",
      "outputs": [],
      "stateMutability": "nonpayable",
      "type": "function"
    },
    {
      "inputs": [
        {
          "internalType": "address",
          "name": "to",
          "type": "address"
        }
      ],
      "name": "safeMint",
      "outputs": [],
      "stateMutability": "nonpayable",
      "type": "function"
    },
    {
      "inputs": [
        {
          "internalType": "address",
          "name": "from",
          "type": "address"
        },
        {
          "internalType": "address",
          "name": "to",
          "type": "address"
        },
        {
          "internalType": "uint256",
          "name": "tokenId",
          "type": "uint256"
        }
      ],
      "name": "safeTransferFrom",
      "outputs": [],
      "stateMutability": "nonpayable",
      "type": "function"
    },
    {
      "inputs": [
        {
          "internalType": "address",
          "name": "from",
          "type": "address"
        },
        {
          "internalType": "address",
          "name": "to",
          "type": "address"
        },
        {
          "internalType": "uint256",
          "name": "tokenId",
          "type": "uint256"
        },
        {
          "internalType": "bytes",
          "name": "data",
          "type": "bytes"
        }
      ],
      "name": "safeTransferFrom",
      "outputs": [],
      "stateMutability": "nonpayable",
      "type": "function"
    },
    {
      "inputs": [
        {
          "internalType": "address",
          "name": "operator",
          "type": "address"
        },
        {
          "internalType": "bool",
          "name": "approved",
          "type": "bool"
        }
      ],
      "name": "setApprovalForAll",
      "outputs": [],
      "stateMutability": "nonpayable",
      "type": "function"
    },
    {
      "inputs": [
        {
          "internalType": "bytes4",
          "name": "interfaceId",
          "type": "bytes4"
        }
      ],
      "name": "supportsInterface",
      "outputs": [
        {
          "internalType": "bool",
          "name": "",
          "type": "bool"
        }
      ],
      "stateMutability": "view",
      "type": "function"
    },
    {
      "inputs": [],
      "name": "symbol",
      "outputs": [
        {
          "internalType": "string",
          "name": "",
          "type": "string"
        }
      ],
      "stateMutability": "view",
      "type": "function"
    },
    {
      "inputs": [
        {
          "internalType": "uint256",
          "name": "index",
          "type": "uint256"
        }
      ],
      "name": "tokenByIndex",
      "outputs": [
        {
          "internalType": "uint256",
          "name": "",
          "type": "uint256"
        }
      ],
      "stateMutability": "view",
      "type": "function"
    },
    {
      "inputs": [
        {
          "internalType": "address",
          "name": "owner",
          "type": "address"
        },
        {
          "internalType": "uint256",
          "name": "index",
          "type": "uint256"
        }
      ],
      "name": "tokenOfOwnerByIndex",
      "outputs": [
        {
          "internalType": "uint256",
          "name": "",
          "type": "uint256"
        }
      ],
      "stateMutability": "view",
      "type": "function"
    },
    {
      "inputs": [
        {
          "internalType": "uint256",
          "name": "tokenId",
          "type": "uint256"
        }
      ],
      "name": "tokenURI",
      "outputs": [
        {
          "internalType": "string",
          "name": "",
          "type": "string"
        }
      ],
      "stateMutability": "view",
      "type": "function"
    },
    {
      "inputs": [],
      "name": "totalSupply",
      "outputs": [
        {
          "internalType": "uint256",
          "name": "",
          "type": "uint256"
        }
      ],
      "stateMutability": "view",
      "type": "function"
    },
    {
      "inputs": [
        {
          "internalType": "address",
          "name": "from",
          "type": "address"
        },
        {
          "internalType": "address",
          "name": "to",
          "type": "address"
        },
        {
          "internalType": "uint256",
          "name": "tokenId",
          "type": "uint256"
        }
      ],
      "name": "transferFrom",
      "outputs": [],
      "stateMutability": "nonpayable",
      "type": "function"
    },
    {
      "inputs": [
        {
          "internalType": "address",
          "name": "newOwner",
          "type": "address"
        }
      ],
      "name": "transferOwnership",
      "outputs": [],
      "stateMutability": "nonpayable",
      "type": "function"
    }
  ],
  "bytecode": "0x60806040523480156200001157600080fd5b50604051620035023803806200350283398181016040528101906200003791906200034c565b818133828281600090816200004d91906200061c565b5080600190816200005f91906200061c565b505050600073ffffffffffffffffffffffffffffffffffffffff168173ffffffffffffffffffffffffffffffffffffffff1603620000d75760006040517f1e4fbdf7000000000000000000000000000000000000000000000000000000008152600401620000ce919062000748565b60405180910390fd5b620000e881620000f360201b60201c565b505050505062000765565b6000600b60009054906101000a900473ffffffffffffffffffffffffffffffffffffffff16905081600b60006101000a81548173ffffffffffffffffffffffffffffffffffffffff021916908373ffffffffffffffffffffffffffffffffffffffff1602179055508173ffffffffffffffffffffffffffffffffffffffff168173ffffffffffffffffffffffffffffffffffffffff167f8be0079c531659141344cd1fd0a4f28419497f9722a3daafe3b4186f6b6457e060405160405180910390a35050565b6000604051905090565b600080fd5b600080fd5b600080fd5b600080fd5b6000601f19601f8301169050919050565b7f4e487b7100000000000000000000000000000000000000000000000000000000600052604160045260246000fd5b6200022282620001d7565b810181811067ffffffffffffffff82111715620002445762000243620001e8565b5b80604052505050565b600062000259620001b9565b905062000267828262000217565b919050565b600067ffffffffffffffff8211156200028a5762000289620001e8565b5b6200029582620001d7565b9050602081019050919050565b60005b83811015620002c2578082015181840152602081019050620002a5565b60008484015250505050565b6000620002e5620002df846200026c565b6200024d565b905082815260208101848484011115620003045762000303620001d2565b5b62000311848285620002a2565b509392505050565b600082601f830112620003315762000330620001cd565b5b815162000343848260208601620002ce565b91505092915050565b60008060408385031215620003665762000365620001c3565b5b600083015167ffffffffffffffff811115620003875762000386620001c8565b5b620003958582860162000319565b925050602083015167ffffffffffffffff811115620003b957620003b8620001c8565b5b620003c78582860162000319565b9150509250929050565b600081519050919050565b7f4e487b7100000000000000000000000000000000000000000000000000000000600052602260045260246000fd5b600060028204905060018216806200042457607f821691505b6020821081036200043a5762000439620003dc565b5b50919050565b60008190508160005260206000209050919050565b60006020601f8301049050919050565b600082821b905092915050565b600060088302620004a47fffffffffffffffffffffffffffffffffffffffffffffffffffffffffffffffff8262000465565b620004b0868362000465565b95508019841693508086168417925050509392505050565b6000819050919050565b6000819050919050565b6000620004fd620004f7620004f184620004c8565b620004d2565b620004c8565b9050919050565b6000819050919050565b6200051983620004dc565b62000531620005288262000504565b84845462000472565b825550505050565b600090565b6200054862000539565b620005558184846200050e565b505050565b5b818110156200057d57620005716000826200053e565b6001810190506200055b565b5050565b601f821115620005cc57620005968162000440565b620005a18462000455565b81016020851015620005b1578190505b620005c9620005c08562000455565b8301826200055a565b50505b505050565b600082821c905092915050565b6000620005f160001984600802620005d1565b1980831691505092915050565b60006200060c8383620005de565b9150826002028217905092915050565b6200062782620003d1565b67ffffffffffffffff811115620006435762000642620001e8565b5b6200064f82546200040b565b6200065c82828562000581565b600060209050601f8311600181146200069457600084156200067f578287015190505b6200068b8582620005fe565b865550620006fb565b601f198416620006a48662000440565b60005b82811015620006ce57848901518255600182019150602085019450602081019050620006a7565b86831015620006ee5784890151620006ea601f891682620005de565b8355505b6001600288020188555050505b505050505050565b600073ffffffffffffffffffffffffffffffffffffffff82169050919050565b6000620007308262000703565b9050919050565b620007428162000723565b82525050565b60006020820190506200075f600083018462000737565b92915050565b612d8d80620007756000396000f3fe608060405234801561001057600080fd5b506004361061014d5760003560e01c80634f6ccce7116100c3578063a22cb4651161007c578063a22cb4651461039c578063b88d4fde146103b8578063c020a547146103d4578063c87b56dd146103f2578063e985e9c514610422578063f2fde38b146104525761014d565b80634f6ccce7146102c65780636352211e146102f657806370a0823114610326578063715018a6146103565780638da5cb5b1461036057806395d89b411461037e5761014d565b806323b872dd1161011557806323b872dd1461020a5780632f745c591461022657806330b2c5961461025657806340d097c31461027257806342842e0e1461028e57806342966c68146102aa5761014d565b806301ffc9a71461015257806306fdde0314610182578063081812fc146101a0578063095ea7b3146101d057806318160ddd146101ec575b600080fd5b61016c6004803603810190610167919061221b565b61046e565b6040516101799190612263565b60405180910390f35b61018a610480565b604051610197919061230e565b60405180910390f35b6101ba60048036038101906101b59190612366565b610512565b6040516101c791906123d4565b60405180910390f35b6101ea60048036038101906101e5919061241b565b61052e565b005b6101f4610544565b604051610201919061246a565b60405180910390f35b610224600480360381019061021f9190612485565b610551565b005b610240600480360381019061023b919061241b565b610653565b60405161024d919061246a565b60405180910390f35b610270600480360381019061026b919061241b565b6106fc565b005b61028c600480360381019061028791906124d8565b61070a565b005b6102a860048036038101906102a39190612485565b610755565b005b6102c460048036038101906102bf9190612366565b610775565b005b6102e060048036038101906102db9190612366565b61078c565b6040516102ed919061246a565b60405180910390f35b610310600480360381019061030b9190612366565b610802565b60405161031d91906123d4565b60405180910390f35b610340600480360381019061033b91906124d8565b610814565b60405161034d919061246a565b60405180910390f35b61035e6108ce565b005b6103686108e2565b60405161037591906123d4565b60405180910390f35b61038661090c565b604051610393919061230e565b60405180910390f35b6103b660048036038101906103b19190612531565b61099e565b005b6103d260048036038101906103cd91906126a6565b6109b4565b005b6103dc6109d1565b6040516103e9919061230e565b60405180910390f35b61040c60048036038101906104079190612366565b6109ed565b604051610419919061230e565b60405180910390f35b61043c60048036038101906104379190612729565b6109ff565b6040516104499190612263565b60405180910390f35b61046c600480360381019061046791906124d8565b610a93565b005b600061047982610b19565b9050919050565b60606000805461048f90612798565b80601f01602080910402602001604051908101604052809291908181526020018280546104bb90612798565b80156105085780601f106104dd57610100808354040283529160200191610508565b820191906000526020600020905b8154815290600101906020018083116104eb57829003601f168201915b5050505050905090565b600061051d82610b7a565b5061052782610c02565b9050919050565b610540828261053b610c3f565b610c47565b5050565b6000600880549050905090565b600073ffffffffffffffffffffffffffffffffffffffff168273ffffffffffffffffffffffffffffffffffffffff16036105c35760006040517f64a0ae920000000000000000000000000000000000000000000000000000000081526004016105ba91906123d4565b60405180910390fd5b60006105d783836105d2610c3f565b610c59565b90508373ffffffffffffffffffffffffffffffffffffffff168173ffffffffffffffffffffffffffffffffffffffff161461064d578382826040517f64283d7b000000000000000000000000000000000000000000000000000000008152600401610644939291906127c9565b60405180910390fd5b50505050565b600061065e83610814565b82106106a35782826040517fa57d13dc00000000000000000000000000000000000000000000000000000000815260040161069a929190612800565b60405180910390fd5b600660008473ffffffffffffffffffffffffffffffffffffffff1673ffffffffffffffffffffffffffffffffffffffff168152602001908152602001600020600083815260200190815260200160002054905092915050565b6107068282610c6f565b5050565b6000600c600081548092919061071f90612858565b91905055905061072f8282610c6f565b61075181604051806060016040528060358152602001612d2360359139610c8d565b5050565b610770838383604051806020016040528060008152506109b4565b505050565b610788600082610783610c3f565b610c59565b5050565b6000610796610544565b82106107dc576000826040517fa57d13dc0000000000000000000000000000000000000000000000000000000081526004016107d3929190612800565b60405180910390fd5b600882815481106107f0576107ef6128a0565b5b90600052602060002001549050919050565b600061080d82610b7a565b9050919050565b60008073ffffffffffffffffffffffffffffffffffffffff168273ffffffffffffffffffffffffffffffffffffffff16036108875760006040517f89c62b6400000000000000000000000000000000000000000000000000000000815260040161087e91906123d4565b60405180910390fd5b600360008373ffffffffffffffffffffffffffffffffffffffff1673ffffffffffffffffffffffffffffffffffffffff168152602001908152602001600020549050919050565b6108d6610ce9565b6108e06000610d70565b565b6000600b60009054906101000a900473ffffffffffffffffffffffffffffffffffffffff16905090565b60606001805461091b90612798565b80601f016020809104026020016040519081016040528092919081815260200182805461094790612798565b80156109945780601f1061096957610100808354040283529160200191610994565b820191906000526020600020905b81548152906001019060200180831161097757829003601f168201915b5050505050905090565b6109b06109a9610c3f565b8383610e36565b5050565b6109bf848484610551565b6109cb84848484610fa5565b50505050565b604051806060016040528060358152602001612d236035913981565b60606109f88261115c565b9050919050565b6000600560008473ffffffffffffffffffffffffffffffffffffffff1673ffffffffffffffffffffffffffffffffffffffff16815260200190815260200160002060008373ffffffffffffffffffffffffffffffffffffffff1673ffffffffffffffffffffffffffffffffffffffff16815260200190815260200160002060009054906101000a900460ff16905092915050565b610a9b610ce9565b600073ffffffffffffffffffffffffffffffffffffffff168173ffffffffffffffffffffffffffffffffffffffff1603610b0d5760006040517f1e4fbdf7000000000000000000000000000000000000000000000000000000008152600401610b0491906123d4565b60405180910390fd5b610b1681610d70565b50565b6000634906490660e01b7bffffffffffffffffffffffffffffffffffffffffffffffffffffffff1916827bffffffffffffffffffffffffffffffffffffffffffffffffffffffff19161480610b735750610b728261126f565b5b9050919050565b600080610b86836112e9565b9050600073ffffffffffffffffffffffffffffffffffffffff168173ffffffffffffffffffffffffffffffffffffffff1603610bf957826040517f7e273289000000000000000000000000000000000000000000000000000000008152600401610bf0919061246a565b60405180910390fd5b80915050919050565b60006004600083815260200190815260200160002060009054906101000a900473ffffffffffffffffffffffffffffffffffffffff169050919050565b600033905090565b610c548383836001611326565b505050565b6000610c668484846114eb565b90509392505050565b610c89828260405180602001604052806000815250611608565b5050565b80600a60008481526020019081526020016000209081610cad9190612a7b565b507ff8e1a15aba9398e019f0b49df1a4fde98ee17ae345cb5f6b5e2c27f5033e8ce782604051610cdd919061246a565b60405180910390a15050565b610cf1610c3f565b73ffffffffffffffffffffffffffffffffffffffff16610d0f6108e2565b73ffffffffffffffffffffffffffffffffffffffff1614610d6e57610d32610c3f565b6040517f118cdaa7000000000000000000000000000000000000000000000000000000008152600401610d6591906123d4565b60405180910390fd5b565b6000600b60009054906101000a900473ffffffffffffffffffffffffffffffffffffffff16905081600b60006101000a81548173ffffffffffffffffffffffffffffffffffffffff021916908373ffffffffffffffffffffffffffffffffffffffff1602179055508173ffffffffffffffffffffffffffffffffffffffff168173ffffffffffffffffffffffffffffffffffffffff167f8be0079c531659141344cd1fd0a4f28419497f9722a3daafe3b4186f6b6457e060405160405180910390a35050565b600073ffffffffffffffffffffffffffffffffffffffff168273ffffffffffffffffffffffffffffffffffffffff1603610ea757816040517f5b08ba18000000000000000000000000000000000000000000000000000000008152600401610e9e91906123d4565b60405180910390fd5b80600560008573ffffffffffffffffffffffffffffffffffffffff1673ffffffffffffffffffffffffffffffffffffffff16815260200190815260200160002060008473ffffffffffffffffffffffffffffffffffffffff1673ffffffffffffffffffffffffffffffffffffffff16815260200190815260200160002060006101000a81548160ff0219169083151502179055508173ffffffffffffffffffffffffffffffffffffffff168373ffffffffffffffffffffffffffffffffffffffff167f17307eab39ab6107e8899845ad3d59bd9653f200f220920489ca2b5937696c3183604051610f989190612263565b60405180910390a3505050565b60008373ffffffffffffffffffffffffffffffffffffffff163b1115611156578273ffffffffffffffffffffffffffffffffffffffff1663150b7a02610fe9610c3f565b8685856040518563ffffffff1660e01b815260040161100b9493929190612ba2565b6020604051808303816000875af192505050801561104757506040513d601f19601f820116820180604052508101906110449190612c03565b60015b6110cb573d8060008114611077576040519150601f19603f3d011682016040523d82523d6000602084013e61107c565b606091505b5060008151036110c357836040517f64a0ae920000000000000000000000000000000000000000000000000000000081526004016110ba91906123d4565b60405180910390fd5b805181602001fd5b63150b7a0260e01b7bffffffffffffffffffffffffffffffffffffffffffffffffffffffff1916817bffffffffffffffffffffffffffffffffffffffffffffffffffffffff19161461115457836040517f64a0ae9200000000000000000000000000000000000000000000000000000000815260040161114b91906123d4565b60405180910390fd5b505b50505050565b606061116782610b7a565b506000600a6000848152602001908152602001600020805461118890612798565b80601f01602080910402602001604051908101604052809291908181526020018280546111b490612798565b80156112015780601f106111d657610100808354040283529160200191611201565b820191906000526020600020905b8154815290600101906020018083116111e457829003601f168201915b505050505090506000611212611624565b9050600081510361122757819250505061126a565b60008251111561125c578082604051602001611244929190612c6c565b6040516020818303038152906040529250505061126a565b6112658461163b565b925050505b919050565b60007f780e9d63000000000000000000000000000000000000000000000000000000007bffffffffffffffffffffffffffffffffffffffffffffffffffffffff1916827bffffffffffffffffffffffffffffffffffffffffffffffffffffffff191614806112e257506112e1826116a4565b5b9050919050565b60006002600083815260200190815260200160002060009054906101000a900473ffffffffffffffffffffffffffffffffffffffff169050919050565b808061135f5750600073ffffffffffffffffffffffffffffffffffffffff168273ffffffffffffffffffffffffffffffffffffffff1614155b1561149357600061136f84610b7a565b9050600073ffffffffffffffffffffffffffffffffffffffff168373ffffffffffffffffffffffffffffffffffffffff16141580156113da57508273ffffffffffffffffffffffffffffffffffffffff168173ffffffffffffffffffffffffffffffffffffffff1614155b80156113ed57506113eb81846109ff565b155b1561142f57826040517fa9fbf51f00000000000000000000000000000000000000000000000000000000815260040161142691906123d4565b60405180910390fd5b811561149157838573ffffffffffffffffffffffffffffffffffffffff168273ffffffffffffffffffffffffffffffffffffffff167f8c5be1e5ebec7d5bd14f71427d1e84f3dd0314c0f7b2291e5b200ac8c7c3b92560405160405180910390a45b505b836004600085815260200190815260200160002060006101000a81548173ffffffffffffffffffffffffffffffffffffffff021916908373ffffffffffffffffffffffffffffffffffffffff16021790555050505050565b6000806114f9858585611786565b9050600073ffffffffffffffffffffffffffffffffffffffff168173ffffffffffffffffffffffffffffffffffffffff160361153d57611538846119a0565b61157c565b8473ffffffffffffffffffffffffffffffffffffffff168173ffffffffffffffffffffffffffffffffffffffff161461157b5761157a81856119e9565b5b5b600073ffffffffffffffffffffffffffffffffffffffff168573ffffffffffffffffffffffffffffffffffffffff16036115be576115b984611b4a565b6115fd565b8473ffffffffffffffffffffffffffffffffffffffff168173ffffffffffffffffffffffffffffffffffffffff16146115fc576115fb8585611c1b565b5b5b809150509392505050565b6116128383611ca6565b61161f6000848484610fa5565b505050565b606060405180602001604052806000815250905090565b606061164682610b7a565b506000611651611624565b90506000815111611671576040518060200160405280600081525061169c565b8061167b84611d9f565b60405160200161168c929190612c6c565b6040516020818303038152906040525b915050919050565b60007f80ac58cd000000000000000000000000000000000000000000000000000000007bffffffffffffffffffffffffffffffffffffffffffffffffffffffff1916827bffffffffffffffffffffffffffffffffffffffffffffffffffffffff1916148061176f57507f5b5e139f000000000000000000000000000000000000000000000000000000007bffffffffffffffffffffffffffffffffffffffffffffffffffffffff1916827bffffffffffffffffffffffffffffffffffffffffffffffffffffffff1916145b8061177f575061177e82611e6d565b5b9050919050565b600080611792846112e9565b9050600073ffffffffffffffffffffffffffffffffffffffff168373ffffffffffffffffffffffffffffffffffffffff16146117d4576117d3818486611ed7565b5b600073ffffffffffffffffffffffffffffffffffffffff168173ffffffffffffffffffffffffffffffffffffffff161461186557611816600085600080611326565b6001600360008373ffffffffffffffffffffffffffffffffffffffff1673ffffffffffffffffffffffffffffffffffffffff168152602001908152602001600020600082825403925050819055505b600073ffffffffffffffffffffffffffffffffffffffff168573ffffffffffffffffffffffffffffffffffffffff16146118e8576001600360008773ffffffffffffffffffffffffffffffffffffffff1673ffffffffffffffffffffffffffffffffffffffff168152602001908152602001600020600082825401925050819055505b846002600086815260200190815260200160002060006101000a81548173ffffffffffffffffffffffffffffffffffffffff021916908373ffffffffffffffffffffffffffffffffffffffff160217905550838573ffffffffffffffffffffffffffffffffffffffff168273ffffffffffffffffffffffffffffffffffffffff167fddf252ad1be2c89b69c2b068fc378daa952ba7f163c4a11628f55a4df523b3ef60405160405180910390a4809150509392505050565b6008805490506009600083815260200190815260200160002081905550600881908060018154018082558091505060019003906000526020600020016000909190919091505550565b60006119f483610814565b9050600060076000848152602001908152602001600020549050818114611ad9576000600660008673ffffffffffffffffffffffffffffffffffffffff1673ffffffffffffffffffffffffffffffffffffffff168152602001908152602001600020600084815260200190815260200160002054905080600660008773ffffffffffffffffffffffffffffffffffffffff1673ffffffffffffffffffffffffffffffffffffffff168152602001908152602001600020600084815260200190815260200160002081905550816007600083815260200190815260200160002081905550505b6007600084815260200190815260200160002060009055600660008573ffffffffffffffffffffffffffffffffffffffff1673ffffffffffffffffffffffffffffffffffffffff16815260200190815260200160002060008381526020019081526020016000206000905550505050565b60006001600880549050611b5e9190612c90565b9050600060096000848152602001908152602001600020549050600060088381548110611b8e57611b8d6128a0565b5b906000526020600020015490508060088381548110611bb057611baf6128a0565b5b906000526020600020018190555081600960008381526020019081526020016000208190555060096000858152602001908152602001600020600090556008805480611bff57611bfe612cc4565b5b6001900381819060005260206000200160009055905550505050565b60006001611c2884610814565b611c329190612c90565b905081600660008573ffffffffffffffffffffffffffffffffffffffff1673ffffffffffffffffffffffffffffffffffffffff168152602001908152602001600020600083815260200190815260200160002081905550806007600084815260200190815260200160002081905550505050565b600073ffffffffffffffffffffffffffffffffffffffff168273ffffffffffffffffffffffffffffffffffffffff1603611d185760006040517f64a0ae92000000000000000000000000000000000000000000000000000000008152600401611d0f91906123d4565b60405180910390fd5b6000611d2683836000610c59565b9050600073ffffffffffffffffffffffffffffffffffffffff168173ffffffffffffffffffffffffffffffffffffffff1614611d9a5760006040517f73c6ac6e000000000000000000000000000000000000000000000000000000008152600401611d9191906123d4565b60405180910390fd5b505050565b606060006001611dae84611f9b565b01905060008167ffffffffffffffff811115611dcd57611dcc61257b565b5b6040519080825280601f01601f191660200182016040528015611dff5781602001600182028036833780820191505090505b509050600082602001820190505b600115611e62578080600190039150507f3031323334353637383961626364656600000000000000000000000000000000600a86061a8153600a8581611e5657611e55612cf3565b5b04945060008503611e0d575b819350505050919050565b60007f01ffc9a7000000000000000000000000000000000000000000000000000000007bffffffffffffffffffffffffffffffffffffffffffffffffffffffff1916827bffffffffffffffffffffffffffffffffffffffffffffffffffffffff1916149050919050565b611ee28383836120ee565b611f9657600073ffffffffffffffffffffffffffffffffffffffff168373ffffffffffffffffffffffffffffffffffffffff1603611f5757806040517f7e273289000000000000000000000000000000000000000000000000000000008152600401611f4e919061246a565b60405180910390fd5b81816040517f177e802f000000000000000000000000000000000000000000000000000000008152600401611f8d929190612800565b60405180910390fd5b505050565b600080600090507a184f03e93ff9f4daa797ed6e38ed64bf6a1f0100000000000000008310611ff9577a184f03e93ff9f4daa797ed6e38ed64bf6a1f0100000000000000008381611fef57611fee612cf3565b5b0492506040810190505b6d04ee2d6d415b85acef81000000008310612036576d04ee2d6d415b85acef8100000000838161202c5761202b612cf3565b5b0492506020810190505b662386f26fc10000831061206557662386f26fc10000838161205b5761205a612cf3565b5b0492506010810190505b6305f5e100831061208e576305f5e100838161208457612083612cf3565b5b0492506008810190505b61271083106120b35761271083816120a9576120a8612cf3565b5b0492506004810190505b606483106120d657606483816120cc576120cb612cf3565b5b0492506002810190505b600a83106120e5576001810190505b80915050919050565b60008073ffffffffffffffffffffffffffffffffffffffff168373ffffffffffffffffffffffffffffffffffffffff16141580156121a657508273ffffffffffffffffffffffffffffffffffffffff168473ffffffffffffffffffffffffffffffffffffffff161480612167575061216684846109ff565b5b806121a557508273ffffffffffffffffffffffffffffffffffffffff1661218d83610c02565b73ffffffffffffffffffffffffffffffffffffffff16145b5b90509392505050565b6000604051905090565b600080fd5b600080fd5b60007fffffffff0000000000000000000000000000000000000000000000000000000082169050919050565b6121f8816121c3565b811461220357600080fd5b50565b600081359050612215816121ef565b92915050565b600060208284031215612231576122306121b9565b5b600061223f84828501612206565b91505092915050565b60008115159050919050565b61225d81612248565b82525050565b60006020820190506122786000830184612254565b92915050565b600081519050919050565b600082825260208201905092915050565b60005b838110156122b857808201518184015260208101905061229d565b60008484015250505050565b6000601f19601f8301169050919050565b60006122e08261227e565b6122ea8185612289565b93506122fa81856020860161229a565b612303816122c4565b840191505092915050565b6000602082019050818103600083015261232881846122d5565b905092915050565b6000819050919050565b61234381612330565b811461234e57600080fd5b50565b6000813590506123608161233a565b92915050565b60006020828403121561237c5761237b6121b9565b5b600061238a84828501612351565b91505092915050565b600073ffffffffffffffffffffffffffffffffffffffff82169050919050565b60006123be82612393565b9050919050565b6123ce816123b3565b82525050565b60006020820190506123e960008301846123c5565b92915050565b6123f8816123b3565b811461240357600080fd5b50565b600081359050612415816123ef565b92915050565b60008060408385031215612432576124316121b9565b5b600061244085828601612406565b925050602061245185828601612351565b9150509250929050565b61246481612330565b82525050565b600060208201905061247f600083018461245b565b92915050565b60008060006060848603121561249e5761249d6121b9565b5b60006124ac86828701612406565b93505060206124bd86828701612406565b92505060406124ce86828701612351565b9150509250925092565b6000602082840312156124ee576124ed6121b9565b5b60006124fc84828501612406565b91505092915050565b61250e81612248565b811461251957600080fd5b50565b60008135905061252b81612505565b92915050565b60008060408385031215612548576125476121b9565b5b600061255685828601612406565b92505060206125678582860161251c565b9150509250929050565b600080fd5b600080fd5b7f4e487b7100000000000000000000000000000000000000000000000000000000600052604160045260246000fd5b6125b3826122c4565b810181811067ffffffffffffffff821117156125d2576125d161257b565b5b80604052505050565b60006125e56121af565b90506125f182826125aa565b919050565b600067ffffffffffffffff8211156126115761261061257b565b5b61261a826122c4565b9050602081019050919050565b82818337600083830152505050565b6000612649612644846125f6565b6125db565b90508281526020810184848401111561266557612664612576565b5b612670848285612627565b509392505050565b600082601f83011261268d5761268c612571565b5b813561269d848260208601612636565b91505092915050565b600080600080608085870312156126c0576126bf6121b9565b5b60006126ce87828801612406565b94505060206126df87828801612406565b93505060406126f087828801612351565b925050606085013567ffffffffffffffff811115612711576127106121be565b5b61271d87828801612678565b91505092959194509250565b600080604083850312156127405761273f6121b9565b5b600061274e85828601612406565b925050602061275f85828601612406565b9150509250929050565b7f4e487b7100000000000000000000000000000000000000000000000000000000600052602260045260246000fd5b600060028204905060018216806127b057607f821691505b6020821081036127c3576127c2612769565b5b50919050565b60006060820190506127de60008301866123c5565b6127eb602083018561245b565b6127f860408301846123c5565b949350505050565b600060408201905061281560008301856123c5565b612822602083018461245b565b9392505050565b7f4e487b7100000000000000000000000000000000000000000000000000000000600052601160045260246000fd5b600061286382612330565b91507fffffffffffffffffffffffffffffffffffffffffffffffffffffffffffffffff820361289557612894612829565b5b600182019050919050565b7f4e487b7100000000000000000000000000000000000000000000000000000000600052603260045260246000fd5b60008190508160005260206000209050919050565b60006020601f8301049050919050565b600082821b905092915050565b6000600883026129317fffffffffffffffffffffffffffffffffffffffffffffffffffffffffffffffff826128f4565b61293b86836128f4565b95508019841693508086168417925050509392505050565b6000819050919050565b600061297861297361296e84612330565b612953565b612330565b9050919050565b6000819050919050565b6129928361295d565b6129a661299e8261297f565b848454612901565b825550505050565b600090565b6129bb6129ae565b6129c6818484612989565b505050565b5b818110156129ea576129df6000826129b3565b6001810190506129cc565b5050565b601f821115612a2f57612a00816128cf565b612a09846128e4565b81016020851015612a18578190505b612a2c612a24856128e4565b8301826129cb565b50505b505050565b600082821c905092915050565b6000612a5260001984600802612a34565b1980831691505092915050565b6000612a6b8383612a41565b9150826002028217905092915050565b612a848261227e565b67ffffffffffffffff811115612a9d57612a9c61257b565b5b612aa78254612798565b612ab28282856129ee565b600060209050601f831160018114612ae55760008415612ad3578287015190505b612add8582612a5f565b865550612b45565b601f198416612af3866128cf565b60005b82811015612b1b57848901518255600182019150602085019450602081019050612af6565b86831015612b385784890151612b34601f891682612a41565b8355505b6001600288020188555050505b505050505050565b600081519050919050565b600082825260208201905092915050565b6000612b7482612b4d565b612b7e8185612b58565b9350612b8e81856020860161229a565b612b97816122c4565b840191505092915050565b6000608082019050612bb760008301876123c5565b612bc460208301866123c5565b612bd1604083018561245b565b8181036060830152612be38184612b69565b905095945050505050565b600081519050612bfd816121ef565b92915050565b600060208284031215612c1957612c186121b9565b5b6000612c2784828501612bee565b91505092915050565b600081905092915050565b6000612c468261227e565b612c508185612c30565b9350612c6081856020860161229a565b80840191505092915050565b6000612c788285612c3b565b9150612c848284612c3b565b91508190509392505050565b6000612c9b82612330565b9150612ca683612330565b9250828203905081811115612cbe57612cbd612829565b5b92915050565b7f4e487b7100000000000000000000000000000000000000000000000000000000600052603160045260246000fd5b7f4e487b7100000000000000000000000000000000000000000000000000000000600052601260045260246000fdfe697066733a2f2f516d5877375445414a574b6a4b6966764c4532355a39796a766f77576b324e57593357676e5a5055746f39586f41a264697066735822122013ddc59304c45aba93bce01a0cfe5881d3a081162b833b2380f3d235bcd1a37464736f6c63430008140033",
  "linkReferences": {},
  "deployedLinkReferences": {}
}