{
  "_format": "hh-sol-artifact-1",
  "contractName": "MyToken",
  "sourceName": "contracts/MyNFT.sol",
  "abi": [
    {
      "inputs": [
        {
          "internalType": "string",
          "name": "tokenName",
          "type": "string"
        },
        {
          "internalType": "string",
          "name": "tokenSymbol",
          "type": "string"
        }
      ],
      "stateMutability": "nonpayable",
      "type": "constructor"
    },
    {
      "inputs": [],
      "name": "ERC721EnumerableForbiddenBatchMint",
      "type": "error"
    },
    {
      "inputs": [
        {
          "internalType": "address",
          "name": "sender",
          "type": "address"
        },
        {
          "internalType": "uint256",
          "name": "tokenId",
          "type": "uint256"
        },
        {
          "internalType": "address",
          "name": "owner",
          "type": "address"
        }
      ],
      "name": "ERC721IncorrectOwner",
      "type": "error"
    },
    {
      "inputs": [
        {
          "internalType": "address",
          "name": "operator",
          "type": "address"
        },
        {
          "internalType": "uint256",
          "name": "tokenId",
          "type": "uint256"
        }
      ],
      "name": "ERC721InsufficientApproval",
      "type": "error"
    },
    {
      "inputs": [
        {
          "internalType": "address",
          "name": "approver",
          "type": "address"
        }
      ],
      "name": "ERC721InvalidApprover",
      "type": "error"
    },
    {
      "inputs": [
        {
          "internalType": "address",
          "name": "operator",
          "type": "address"
        }
      ],
      "name": "ERC721InvalidOperator",
      "type": "error"
    },
    {
      "inputs": [
        {
          "internalType": "address",
          "name": "owner",
          "type": "address"
        }
      ],
      "name": "ERC721InvalidOwner",
      "type": "error"
    },
    {
      "inputs": [
        {
          "internalType": "address",
          "name": "receiver",
          "type": "address"
        }
      ],
      "name": "ERC721InvalidReceiver",
      "type": "error"
    },
    {
      "inputs": [
        {
          "internalType": "address",
          "name": "sender",
          "type": "address"
        }
      ],
      "name": "ERC721InvalidSender",
      "type": "error"
    },
    {
      "inputs": [
        {
          "internalType": "uint256",
          "name": "tokenId",
          "type": "uint256"
        }
      ],
      "name": "ERC721NonexistentToken",
      "type": "error"
    },
    {
      "inputs": [
        {
          "internalType": "address",
          "name": "owner",
          "type": "address"
        },
        {
          "internalType": "uint256",
          "name": "index",
          "type": "uint256"
        }
      ],
      "name": "ERC721OutOfBoundsIndex",
      "type": "error"
    },
    {
      "inputs": [
        {
          "internalType": "address",
          "name": "owner",
          "type": "address"
        }
      ],
      "name": "OwnableInvalidOwner",
      "type": "error"
    },
    {
      "inputs": [
        {
          "internalType": "address",
          "name": "account",
          "type": "address"
        }
      ],
      "name": "OwnableUnauthorizedAccount",
      "type": "error"
    },
    {
      "anonymous": false,
      "inputs": [
        {
          "indexed": true,
          "internalType": "address",
          "name": "owner",
          "type": "address"
        },
        {
          "indexed": true,
          "internalType": "address",
          "name": "approved",
          "type": "address"
        },
        {
          "indexed": true,
          "internalType": "uint256",
          "name": "tokenId",
          "type": "uint256"
        }
      ],
      "name": "Approval",
      "type": "event"
    },
    {
      "anonymous": false,
      "inputs": [
        {
          "indexed": true,
          "internalType": "address",
          "name": "owner",
          "type": "address"
        },
        {
          "indexed": true,
          "internalType": "address",
          "name": "operator",
          "type": "address"
        },
        {
          "indexed": false,
          "internalType": "bool",
          "name": "approved",
          "type": "bool"
        }
      ],
      "name": "ApprovalForAll",
      "type": "event"
    },
    {
      "anonymous": false,
      "inputs": [
        {
          "indexed": false,
          "internalType": "uint256",
          "name": "_fromTokenId",
          "type": "uint256"
        },
        {
          "indexed": false,
          "internalType": "uint256",
          "name": "_toTokenId",
          "type": "uint256"
        }
      ],
      "name": "BatchMetadataUpdate",
      "type": "event"
    },
    {
      "anonymous": false,
      "inputs": [
        {
          "indexed": false,
          "internalType": "uint256",
          "name": "_tokenId",
          "type": "uint256"
        }
      ],
      "name": "MetadataUpdate",
      "type": "event"
    },
    {
      "anonymous": false,
      "inputs": [
        {
          "indexed": true,
          "internalType": "address",
          "name": "previousOwner",
          "type": "address"
        },
        {
          "indexed": true,
          "internalType": "address",
          "name": "newOwner",
          "type": "address"
        }
      ],
      "name": "OwnershipTransferred",
      "type": "event"
    },
    {
      "anonymous": false,
      "inputs": [
        {
          "indexed": true,
          "internalType": "address",
          "name": "from",
          "type": "address"
        },
        {
          "indexed": true,
          "internalType": "address",
          "name": "to",
          "type": "address"
        },
        {
          "indexed": true,
          "internalType": "uint256",
          "name": "tokenId",
          "type": "uint256"
        }
      ],
      "name": "Transfer",
      "type": "event"
    },
    {
      "inputs": [],
      "name": "METADATA_URI",
      "outputs": [
        {
          "internalType": "string",
          "name": "",
          "type": "string"
        }
      ],
      "stateMutability": "view",
      "type": "function"
    },
    {
      "inputs": [
        {
          "internalType": "address",
          "name": "to",
          "type": "address"
        },
        {
          "internalType": "uint256",
          "name": "tokenId",
          "type": "uint256"
        }
      ],
      "name": "approve",
      "outputs": [],
      "stateMutability": "nonpayable",
      "type": "function"
    },
    {
      "inputs": [
        {
          "internalType": "address",
          "name": "owner",
          "type": "address"
        }
      ],
      "name": "balanceOf",
      "outputs": [
        {
          "internalType": "uint256",
          "name": "",
          "type": "uint256"
        }
      ],
      "stateMutability": "view",
      "type": "function"
    },
    {
      "inputs": [
        {
          "internalType": "uint256",
          "name": "tokenId",
          "type": "uint256"
        }
      ],
      "name": "burn",
      "outputs": [],
      "stateMutability": "nonpayable",
      "type": "function"
    },
    {
      "inputs": [
        {
          "internalType": "uint256",
          "name": "tokenId",
          "type": "uint256"
        }
      ],
      "name": "getApproved",
      "outputs": [
        {
          "internalType": "address",
          "name": "",
          "type": "address"
        }
      ],
      "stateMutability": "view",
      "type": "function"
    },
    {
      "inputs": [
        {
          "internalType": "address",
          "name": "owner",
          "type": "address"
        },
        {
          "internalType": "address",
          "name": "operator",
          "type": "address"
        }
      ],
      "name": "isApprovedForAll",
      "outputs": [
        {
          "internalType": "bool",
          "name": "",
          "type": "bool"
        }
      ],
      "stateMutability": "view",
      "type": "function"
    },
    {
      "inputs": [],
      "name": "name",
      "outputs": [
        {
          "internalType": "string",
          "name": "",
          "type": "string"
        }
      ],
      "stateMutability": "view",
      "type": "function"
    },
    {
      "inputs": [],
      "name": "owner",
      "outputs": [
        {
          "internalType": "address",
          "name": "",
          "type": "address"
        }
      ],
      "stateMutability": "view",
      "type": "function"
    },
    {
      "inputs": [
        {
          "internalType": "uint256",
          "name": "tokenId",
          "type": "uint256"
        }
      ],
      "name": "ownerOf",
      "outputs": [
        {
          "internalType": "address",
          "name": "",
          "type": "address"
        }
      ],
      "stateMutability": "view",
      "type": "function"
    },
    {
      "inputs": [],
      "name": "renounceOwnership",
      "outputs": [],
      "stateMutability": "nonpayable",
      "type": "function"
    },
    {
      "inputs": [
        {
          "internalType": "address",
          "name": "to",
          "type": "address"
        }
      ],
      "name": "safeMint",
      "outputs": [],
      "stateMutability": "nonpayable",
      "type": "function"
    },
    {
      "inputs": [
        {
          "internalType": "address",
          "name": "from",
          "type": "address"
        },
        {
          "internalType": "address",
          "name": "to",
          "type": "address"
        },
        {
          "internalType": "uint256",
          "name": "tokenId",
          "type": "uint256"
        }
      ],
      "name": "safeTransferFrom",
      "outputs": [],
      "stateMutability": "nonpayable",
      "type": "function"
    },
    {
      "inputs": [
        {
          "internalType": "address",
          "name": "from",
          "type": "address"
        },
        {
          "internalType": "address",
          "name": "to",
          "type": "address"
        },
        {
          "internalType": "uint256",
          "name": "tokenId",
          "type": "uint256"
        },
        {
          "internalType": "bytes",
          "name": "data",
          "type": "bytes"
        }
      ],
      "name": "safeTransferFrom",
      "outputs": [],
      "stateMutability": "nonpayable",
      "type": "function"
    },
    {
      "inputs": [
        {
          "internalType": "address",
          "name": "operator",
          "type": "address"
        },
        {
          "internalType": "bool",
          "name": "approved",
          "type": "bool"
        }
      ],
      "name": "setApprovalForAll",
      "outputs": [],
      "stateMutability": "nonpayable",
      "type": "function"
    },
    {
      "inputs": [
        {
          "internalType": "bytes4",
          "name": "interfaceId",
          "type": "bytes4"
        }
      ],
      "name": "supportsInterface",
      "outputs": [
        {
          "internalType": "bool",
          "name": "",
          "type": "bool"
        }
      ],
      "stateMutability": "view",
      "type": "function"
    },
    {
      "inputs": [],
      "name": "symbol",
      "outputs": [
        {
          "internalType": "string",
          "name": "",
          "type": "string"
        }
      ],
      "stateMutability": "view",
      "type": "function"
    },
    {
      "inputs": [
        {
          "internalType": "uint256",
          "name": "index",
          "type": "uint256"
        }
      ],
      "name": "tokenByIndex",
      "outputs": [
        {
          "internalType": "uint256",
          "name": "",
          "type": "uint256"
        }
      ],
      "stateMutability": "view",
      "type": "function"
    },
    {
      "inputs": [
        {
          "internalType": "address",
          "name": "owner",
          "type": "address"
        },
        {
          "internalType": "uint256",
          "name": "index",
          "type": "uint256"
        }
      ],
      "name": "tokenOfOwnerByIndex",
      "outputs": [
        {
          "internalType": "uint256",
          "name": "",
          "type": "uint256"
        }
      ],
      "stateMutability": "view",
      "type": "function"
    },
    {
      "inputs": [
        {
          "internalType": "uint256",
          "name": "tokenId",
          "type": "uint256"
        }
      ],
      "name": "tokenURI",
      "outputs": [
        {
          "internalType": "string",
          "name": "",
          "type": "string"
        }
      ],
      "stateMutability": "view",
      "type": "function"
    },
    {
      "inputs": [],
      "name": "totalSupply",
      "outputs": [
        {
          "internalType": "uint256",
          "name": "",
          "type": "uint256"
        }
      ],
      "stateMutability": "view",
      "type": "function"
    },
    {
      "inputs": [
        {
          "internalType": "address",
          "name": "from",
          "type": "address"
        },
        {
          "internalType": "address",
          "name": "to",
          "type": "address"
        },
        {
          "internalType": "uint256",
          "name": "tokenId",
          "type": "uint256"
        }
      ],
      "name": "transferFrom",
      "outputs": [],
      "stateMutability": "nonpayable",
      "type": "function"
    },
    {
      "inputs": [
        {
          "internalType": "address",
          "name": "newOwner",
          "type": "address"
        }
      ],
      "name": "transferOwnership",
      "outputs": [],
      "stateMutability": "nonpayable",
      "type": "function"
    }
  ],
  "bytecode": "0x60806040523480156200001157600080fd5b50604051620034c9380380620034c9833981810160405281019062000037919062000348565b33828281600090816200004b919062000618565b5080600190816200005d919062000618565b505050600073ffffffffffffffffffffffffffffffffffffffff168173ffffffffffffffffffffffffffffffffffffffff1603620000d55760006040517f1e4fbdf7000000000000000000000000000000000000000000000000000000008152600401620000cc919062000744565b60405180910390fd5b620000e681620000ef60201b60201c565b50505062000761565b6000600b60009054906101000a900473ffffffffffffffffffffffffffffffffffffffff16905081600b60006101000a81548173ffffffffffffffffffffffffffffffffffffffff021916908373ffffffffffffffffffffffffffffffffffffffff1602179055508173ffffffffffffffffffffffffffffffffffffffff168173ffffffffffffffffffffffffffffffffffffffff167f8be0079c531659141344cd1fd0a4f28419497f9722a3daafe3b4186f6b6457e060405160405180910390a35050565b6000604051905090565b600080fd5b600080fd5b600080fd5b600080fd5b6000601f19601f8301169050919050565b7f4e487b7100000000000000000000000000000000000000000000000000000000600052604160045260246000fd5b6200021e82620001d3565b810181811067ffffffffffffffff8211171562000240576200023f620001e4565b5b80604052505050565b600062000255620001b5565b905062000263828262000213565b919050565b600067ffffffffffffffff821115620002865762000285620001e4565b5b6200029182620001d3565b9050602081019050919050565b60005b83811015620002be578082015181840152602081019050620002a1565b60008484015250505050565b6000620002e1620002db8462000268565b62000249565b9050828152602081018484840111156200030057620002ff620001ce565b5b6200030d8482856200029e565b509392505050565b600082601f8301126200032d576200032c620001c9565b5b81516200033f848260208601620002ca565b91505092915050565b60008060408385031215620003625762000361620001bf565b5b600083015167ffffffffffffffff811115620003835762000382620001c4565b5b620003918582860162000315565b925050602083015167ffffffffffffffff811115620003b557620003b4620001c4565b5b620003c38582860162000315565b9150509250929050565b600081519050919050565b7f4e487b7100000000000000000000000000000000000000000000000000000000600052602260045260246000fd5b600060028204905060018216806200042057607f821691505b602082108103620004365762000435620003d8565b5b50919050565b60008190508160005260206000209050919050565b60006020601f8301049050919050565b600082821b905092915050565b600060088302620004a07fffffffffffffffffffffffffffffffffffffffffffffffffffffffffffffffff8262000461565b620004ac868362000461565b95508019841693508086168417925050509392505050565b6000819050919050565b6000819050919050565b6000620004f9620004f3620004ed84620004c4565b620004ce565b620004c4565b9050919050565b6000819050919050565b6200051583620004d8565b6200052d620005248262000500565b8484546200046e565b825550505050565b600090565b6200054462000535565b620005518184846200050a565b505050565b5b8181101562000579576200056d6000826200053a565b60018101905062000557565b5050565b601f821115620005c85762000592816200043c565b6200059d8462000451565b81016020851015620005ad578190505b620005c5620005bc8562000451565b83018262000556565b50505b505050565b600082821c905092915050565b6000620005ed60001984600802620005cd565b1980831691505092915050565b6000620006088383620005da565b9150826002028217905092915050565b6200062382620003cd565b67ffffffffffffffff8111156200063f576200063e620001e4565b5b6200064b825462000407565b620006588282856200057d565b600060209050601f8311600181146200069057600084156200067b578287015190505b620006878582620005fa565b865550620006f7565b601f198416620006a0866200043c565b60005b82811015620006ca57848901518255600182019150602085019450602081019050620006a3565b86831015620006ea5784890151620006e6601f891682620005da565b8355505b6001600288020188555050505b505050505050565b600073ffffffffffffffffffffffffffffffffffffffff82169050919050565b60006200072c82620006ff565b9050919050565b6200073e816200071f565b82525050565b60006020820190506200075b600083018462000733565b92915050565b612d5880620007716000396000f3fe608060405234801561001057600080fd5b50600436106101425760003560e01c80636352211e116100b8578063a22cb4651161007c578063a22cb46514610375578063b88d4fde14610391578063c020a547146103ad578063c87b56dd146103cb578063e985e9c5146103fb578063f2fde38b1461042b57610142565b80636352211e146102cf57806370a08231146102ff578063715018a61461032f5780638da5cb5b1461033957806395d89b411461035757610142565b806323b872dd1161010a57806323b872dd146101ff5780632f745c591461021b57806340d097c31461024b57806342842e0e1461026757806342966c68146102835780634f6ccce71461029f57610142565b806301ffc9a71461014757806306fdde0314610177578063081812fc14610195578063095ea7b3146101c557806318160ddd146101e1575b600080fd5b610161600480360381019061015c91906121e6565b610447565b60405161016e919061222e565b60405180910390f35b61017f610459565b60405161018c91906122d9565b60405180910390f35b6101af60048036038101906101aa9190612331565b6104eb565b6040516101bc919061239f565b60405180910390f35b6101df60048036038101906101da91906123e6565b610507565b005b6101e961051d565b6040516101f69190612435565b60405180910390f35b61021960048036038101906102149190612450565b61052a565b005b610235600480360381019061023091906123e6565b61062c565b6040516102429190612435565b60405180910390f35b610265600480360381019061026091906124a3565b6106d5565b005b610281600480360381019061027c9190612450565b610720565b005b61029d60048036038101906102989190612331565b610740565b005b6102b960048036038101906102b49190612331565b610757565b6040516102c69190612435565b60405180910390f35b6102e960048036038101906102e49190612331565b6107cd565b6040516102f6919061239f565b60405180910390f35b610319600480360381019061031491906124a3565b6107df565b6040516103269190612435565b60405180910390f35b610337610899565b005b6103416108ad565b60405161034e919061239f565b60405180910390f35b61035f6108d7565b60405161036c91906122d9565b60405180910390f35b61038f600480360381019061038a91906124fc565b610969565b005b6103ab60048036038101906103a69190612671565b61097f565b005b6103b561099c565b6040516103c291906122d9565b60405180910390f35b6103e560048036038101906103e09190612331565b6109b8565b6040516103f291906122d9565b60405180910390f35b610415600480360381019061041091906126f4565b6109ca565b604051610422919061222e565b60405180910390f35b610445600480360381019061044091906124a3565b610a5e565b005b600061045282610ae4565b9050919050565b60606000805461046890612763565b80601f016020809104026020016040519081016040528092919081815260200182805461049490612763565b80156104e15780601f106104b6576101008083540402835291602001916104e1565b820191906000526020600020905b8154815290600101906020018083116104c457829003601f168201915b5050505050905090565b60006104f682610b45565b5061050082610bcd565b9050919050565b6105198282610514610c0a565b610c12565b5050565b6000600880549050905090565b600073ffffffffffffffffffffffffffffffffffffffff168273ffffffffffffffffffffffffffffffffffffffff160361059c5760006040517f64a0ae92000000000000000000000000000000000000000000000000000000008152600401610593919061239f565b60405180910390fd5b60006105b083836105ab610c0a565b610c24565b90508373ffffffffffffffffffffffffffffffffffffffff168173ffffffffffffffffffffffffffffffffffffffff1614610626578382826040517f64283d7b00000000000000000000000000000000000000000000000000000000815260040161061d93929190612794565b60405180910390fd5b50505050565b6000610637836107df565b821061067c5782826040517fa57d13dc0000000000000000000000000000000000000000000000000000000081526004016106739291906127cb565b60405180910390fd5b600660008473ffffffffffffffffffffffffffffffffffffffff1673ffffffffffffffffffffffffffffffffffffffff168152602001908152602001600020600083815260200190815260200160002054905092915050565b6000600c60008154809291906106ea90612823565b9190505590506106fa8282610c3a565b61071c81604051806060016040528060358152602001612cee60359139610c58565b5050565b61073b8383836040518060200160405280600081525061097f565b505050565b61075360008261074e610c0a565b610c24565b5050565b600061076161051d565b82106107a7576000826040517fa57d13dc00000000000000000000000000000000000000000000000000000000815260040161079e9291906127cb565b60405180910390fd5b600882815481106107bb576107ba61286b565b5b90600052602060002001549050919050565b60006107d882610b45565b9050919050565b60008073ffffffffffffffffffffffffffffffffffffffff168273ffffffffffffffffffffffffffffffffffffffff16036108525760006040517f89c62b64000000000000000000000000000000000000000000000000000000008152600401610849919061239f565b60405180910390fd5b600360008373ffffffffffffffffffffffffffffffffffffffff1673ffffffffffffffffffffffffffffffffffffffff168152602001908152602001600020549050919050565b6108a1610cb4565b6108ab6000610d3b565b565b6000600b60009054906101000a900473ffffffffffffffffffffffffffffffffffffffff16905090565b6060600180546108e690612763565b80601f016020809104026020016040519081016040528092919081815260200182805461091290612763565b801561095f5780601f106109345761010080835404028352916020019161095f565b820191906000526020600020905b81548152906001019060200180831161094257829003601f168201915b5050505050905090565b61097b610974610c0a565b8383610e01565b5050565b61098a84848461052a565b61099684848484610f70565b50505050565b604051806060016040528060358152602001612cee6035913981565b60606109c382611127565b9050919050565b6000600560008473ffffffffffffffffffffffffffffffffffffffff1673ffffffffffffffffffffffffffffffffffffffff16815260200190815260200160002060008373ffffffffffffffffffffffffffffffffffffffff1673ffffffffffffffffffffffffffffffffffffffff16815260200190815260200160002060009054906101000a900460ff16905092915050565b610a66610cb4565b600073ffffffffffffffffffffffffffffffffffffffff168173ffffffffffffffffffffffffffffffffffffffff1603610ad85760006040517f1e4fbdf7000000000000000000000000000000000000000000000000000000008152600401610acf919061239f565b60405180910390fd5b610ae181610d3b565b50565b6000634906490660e01b7bffffffffffffffffffffffffffffffffffffffffffffffffffffffff1916827bffffffffffffffffffffffffffffffffffffffffffffffffffffffff19161480610b3e5750610b3d8261123a565b5b9050919050565b600080610b51836112b4565b9050600073ffffffffffffffffffffffffffffffffffffffff168173ffffffffffffffffffffffffffffffffffffffff1603610bc457826040517f7e273289000000000000000000000000000000000000000000000000000000008152600401610bbb9190612435565b60405180910390fd5b80915050919050565b60006004600083815260200190815260200160002060009054906101000a900473ffffffffffffffffffffffffffffffffffffffff169050919050565b600033905090565b610c1f83838360016112f1565b505050565b6000610c318484846114b6565b90509392505050565b610c548282604051806020016040528060008152506115d3565b5050565b80600a60008481526020019081526020016000209081610c789190612a46565b507ff8e1a15aba9398e019f0b49df1a4fde98ee17ae345cb5f6b5e2c27f5033e8ce782604051610ca89190612435565b60405180910390a15050565b610cbc610c0a565b73ffffffffffffffffffffffffffffffffffffffff16610cda6108ad565b73ffffffffffffffffffffffffffffffffffffffff1614610d3957610cfd610c0a565b6040517f118cdaa7000000000000000000000000000000000000000000000000000000008152600401610d30919061239f565b60405180910390fd5b565b6000600b60009054906101000a900473ffffffffffffffffffffffffffffffffffffffff16905081600b60006101000a81548173ffffffffffffffffffffffffffffffffffffffff021916908373ffffffffffffffffffffffffffffffffffffffff1602179055508173ffffffffffffffffffffffffffffffffffffffff168173ffffffffffffffffffffffffffffffffffffffff167f8be0079c531659141344cd1fd0a4f28419497f9722a3daafe3b4186f6b6457e060405160405180910390a35050565b600073ffffffffffffffffffffffffffffffffffffffff168273ffffffffffffffffffffffffffffffffffffffff1603610e7257816040517f5b08ba18000000000000000000000000000000000000000000000000000000008152600401610e69919061239f565b60405180910390fd5b80600560008573ffffffffffffffffffffffffffffffffffffffff1673ffffffffffffffffffffffffffffffffffffffff16815260200190815260200160002060008473ffffffffffffffffffffffffffffffffffffffff1673ffffffffffffffffffffffffffffffffffffffff16815260200190815260200160002060006101000a81548160ff0219169083151502179055508173ffffffffffffffffffffffffffffffffffffffff168373ffffffffffffffffffffffffffffffffffffffff167f17307eab39ab6107e8899845ad3d59bd9653f200f220920489ca2b5937696c3183604051610f63919061222e565b60405180910390a3505050565b60008373ffffffffffffffffffffffffffffffffffffffff163b1115611121578273ffffffffffffffffffffffffffffffffffffffff1663150b7a02610fb4610c0a565b8685856040518563ffffffff1660e01b8152600401610fd69493929190612b6d565b6020604051808303816000875af192505050801561101257506040513d601f19601f8201168201806040525081019061100f9190612bce565b60015b611096573d8060008114611042576040519150601f19603f3d011682016040523d82523d6000602084013e611047565b606091505b50600081510361108e57836040517f64a0ae92000000000000000000000000000000000000000000000000000000008152600401611085919061239f565b60405180910390fd5b805181602001fd5b63150b7a0260e01b7bffffffffffffffffffffffffffffffffffffffffffffffffffffffff1916817bffffffffffffffffffffffffffffffffffffffffffffffffffffffff19161461111f57836040517f64a0ae92000000000000000000000000000000000000000000000000000000008152600401611116919061239f565b60405180910390fd5b505b50505050565b606061113282610b45565b506000600a6000848152602001908152602001600020805461115390612763565b80601f016020809104026020016040519081016040528092919081815260200182805461117f90612763565b80156111cc5780601f106111a1576101008083540402835291602001916111cc565b820191906000526020600020905b8154815290600101906020018083116111af57829003601f168201915b5050505050905060006111dd6115ef565b905060008151036111f2578192505050611235565b60008251111561122757808260405160200161120f929190612c37565b60405160208183030381529060405292505050611235565b61123084611606565b925050505b919050565b60007f780e9d63000000000000000000000000000000000000000000000000000000007bffffffffffffffffffffffffffffffffffffffffffffffffffffffff1916827bffffffffffffffffffffffffffffffffffffffffffffffffffffffff191614806112ad57506112ac8261166f565b5b9050919050565b60006002600083815260200190815260200160002060009054906101000a900473ffffffffffffffffffffffffffffffffffffffff169050919050565b808061132a5750600073ffffffffffffffffffffffffffffffffffffffff168273ffffffffffffffffffffffffffffffffffffffff1614155b1561145e57600061133a84610b45565b9050600073ffffffffffffffffffffffffffffffffffffffff168373ffffffffffffffffffffffffffffffffffffffff16141580156113a557508273ffffffffffffffffffffffffffffffffffffffff168173ffffffffffffffffffffffffffffffffffffffff1614155b80156113b857506113b681846109ca565b155b156113fa57826040517fa9fbf51f0000000000000000000000000000000000000000000000000000000081526004016113f1919061239f565b60405180910390fd5b811561145c57838573ffffffffffffffffffffffffffffffffffffffff168273ffffffffffffffffffffffffffffffffffffffff167f8c5be1e5ebec7d5bd14f71427d1e84f3dd0314c0f7b2291e5b200ac8c7c3b92560405160405180910390a45b505b836004600085815260200190815260200160002060006101000a81548173ffffffffffffffffffffffffffffffffffffffff021916908373ffffffffffffffffffffffffffffffffffffffff16021790555050505050565b6000806114c4858585611751565b9050600073ffffffffffffffffffffffffffffffffffffffff168173ffffffffffffffffffffffffffffffffffffffff1603611508576115038461196b565b611547565b8473ffffffffffffffffffffffffffffffffffffffff168173ffffffffffffffffffffffffffffffffffffffff16146115465761154581856119b4565b5b5b600073ffffffffffffffffffffffffffffffffffffffff168573ffffffffffffffffffffffffffffffffffffffff16036115895761158484611b15565b6115c8565b8473ffffffffffffffffffffffffffffffffffffffff168173ffffffffffffffffffffffffffffffffffffffff16146115c7576115c68585611be6565b5b5b809150509392505050565b6115dd8383611c71565b6115ea6000848484610f70565b505050565b606060405180602001604052806000815250905090565b606061161182610b45565b50600061161c6115ef565b9050600081511161163c5760405180602001604052806000815250611667565b8061164684611d6a565b604051602001611657929190612c37565b6040516020818303038152906040525b915050919050565b60007f80ac58cd000000000000000000000000000000000000000000000000000000007bffffffffffffffffffffffffffffffffffffffffffffffffffffffff1916827bffffffffffffffffffffffffffffffffffffffffffffffffffffffff1916148061173a57507f5b5e139f000000000000000000000000000000000000000000000000000000007bffffffffffffffffffffffffffffffffffffffffffffffffffffffff1916827bffffffffffffffffffffffffffffffffffffffffffffffffffffffff1916145b8061174a575061174982611e38565b5b9050919050565b60008061175d846112b4565b9050600073ffffffffffffffffffffffffffffffffffffffff168373ffffffffffffffffffffffffffffffffffffffff161461179f5761179e818486611ea2565b5b600073ffffffffffffffffffffffffffffffffffffffff168173ffffffffffffffffffffffffffffffffffffffff1614611830576117e16000856000806112f1565b6001600360008373ffffffffffffffffffffffffffffffffffffffff1673ffffffffffffffffffffffffffffffffffffffff168152602001908152602001600020600082825403925050819055505b600073ffffffffffffffffffffffffffffffffffffffff168573ffffffffffffffffffffffffffffffffffffffff16146118b3576001600360008773ffffffffffffffffffffffffffffffffffffffff1673ffffffffffffffffffffffffffffffffffffffff168152602001908152602001600020600082825401925050819055505b846002600086815260200190815260200160002060006101000a81548173ffffffffffffffffffffffffffffffffffffffff021916908373ffffffffffffffffffffffffffffffffffffffff160217905550838573ffffffffffffffffffffffffffffffffffffffff168273ffffffffffffffffffffffffffffffffffffffff167fddf252ad1be2c89b69c2b068fc378daa952ba7f163c4a11628f55a4df523b3ef60405160405180910390a4809150509392505050565b6008805490506009600083815260200190815260200160002081905550600881908060018154018082558091505060019003906000526020600020016000909190919091505550565b60006119bf836107df565b9050600060076000848152602001908152602001600020549050818114611aa4576000600660008673ffffffffffffffffffffffffffffffffffffffff1673ffffffffffffffffffffffffffffffffffffffff168152602001908152602001600020600084815260200190815260200160002054905080600660008773ffffffffffffffffffffffffffffffffffffffff1673ffffffffffffffffffffffffffffffffffffffff168152602001908152602001600020600084815260200190815260200160002081905550816007600083815260200190815260200160002081905550505b6007600084815260200190815260200160002060009055600660008573ffffffffffffffffffffffffffffffffffffffff1673ffffffffffffffffffffffffffffffffffffffff16815260200190815260200160002060008381526020019081526020016000206000905550505050565b60006001600880549050611b299190612c5b565b9050600060096000848152602001908152602001600020549050600060088381548110611b5957611b5861286b565b5b906000526020600020015490508060088381548110611b7b57611b7a61286b565b5b906000526020600020018190555081600960008381526020019081526020016000208190555060096000858152602001908152602001600020600090556008805480611bca57611bc9612c8f565b5b6001900381819060005260206000200160009055905550505050565b60006001611bf3846107df565b611bfd9190612c5b565b905081600660008573ffffffffffffffffffffffffffffffffffffffff1673ffffffffffffffffffffffffffffffffffffffff168152602001908152602001600020600083815260200190815260200160002081905550806007600084815260200190815260200160002081905550505050565b600073ffffffffffffffffffffffffffffffffffffffff168273ffffffffffffffffffffffffffffffffffffffff1603611ce35760006040517f64a0ae92000000000000000000000000000000000000000000000000000000008152600401611cda919061239f565b60405180910390fd5b6000611cf183836000610c24565b9050600073ffffffffffffffffffffffffffffffffffffffff168173ffffffffffffffffffffffffffffffffffffffff1614611d655760006040517f73c6ac6e000000000000000000000000000000000000000000000000000000008152600401611d5c919061239f565b60405180910390fd5b505050565b606060006001611d7984611f66565b01905060008167ffffffffffffffff811115611d9857611d97612546565b5b6040519080825280601f01601f191660200182016040528015611dca5781602001600182028036833780820191505090505b509050600082602001820190505b600115611e2d578080600190039150507f3031323334353637383961626364656600000000000000000000000000000000600a86061a8153600a8581611e2157611e20612cbe565b5b04945060008503611dd8575b819350505050919050565b60007f01ffc9a7000000000000000000000000000000000000000000000000000000007bffffffffffffffffffffffffffffffffffffffffffffffffffffffff1916827bffffffffffffffffffffffffffffffffffffffffffffffffffffffff1916149050919050565b611ead8383836120b9565b611f6157600073ffffffffffffffffffffffffffffffffffffffff168373ffffffffffffffffffffffffffffffffffffffff1603611f2257806040517f7e273289000000000000000000000000000000000000000000000000000000008152600401611f199190612435565b60405180910390fd5b81816040517f177e802f000000000000000000000000000000000000000000000000000000008152600401611f589291906127cb565b60405180910390fd5b505050565b600080600090507a184f03e93ff9f4daa797ed6e38ed64bf6a1f0100000000000000008310611fc4577a184f03e93ff9f4daa797ed6e38ed64bf6a1f0100000000000000008381611fba57611fb9612cbe565b5b0492506040810190505b6d04ee2d6d415b85acef81000000008310612001576d04ee2d6d415b85acef81000000008381611ff757611ff6612cbe565b5b0492506020810190505b662386f26fc10000831061203057662386f26fc10000838161202657612025612cbe565b5b0492506010810190505b6305f5e1008310612059576305f5e100838161204f5761204e612cbe565b5b0492506008810190505b612710831061207e57612710838161207457612073612cbe565b5b0492506004810190505b606483106120a1576064838161209757612096612cbe565b5b0492506002810190505b600a83106120b0576001810190505b80915050919050565b60008073ffffffffffffffffffffffffffffffffffffffff168373ffffffffffffffffffffffffffffffffffffffff161415801561217157508273ffffffffffffffffffffffffffffffffffffffff168473ffffffffffffffffffffffffffffffffffffffff161480612132575061213184846109ca565b5b8061217057508273ffffffffffffffffffffffffffffffffffffffff1661215883610bcd565b73ffffffffffffffffffffffffffffffffffffffff16145b5b90509392505050565b6000604051905090565b600080fd5b600080fd5b60007fffffffff0000000000000000000000000000000000000000000000000000000082169050919050565b6121c38161218e565b81146121ce57600080fd5b50565b6000813590506121e0816121ba565b92915050565b6000602082840312156121fc576121fb612184565b5b600061220a848285016121d1565b91505092915050565b60008115159050919050565b61222881612213565b82525050565b6000602082019050612243600083018461221f565b92915050565b600081519050919050565b600082825260208201905092915050565b60005b83811015612283578082015181840152602081019050612268565b60008484015250505050565b6000601f19601f8301169050919050565b60006122ab82612249565b6122b58185612254565b93506122c5818560208601612265565b6122ce8161228f565b840191505092915050565b600060208201905081810360008301526122f381846122a0565b905092915050565b6000819050919050565b61230e816122fb565b811461231957600080fd5b50565b60008135905061232b81612305565b92915050565b60006020828403121561234757612346612184565b5b60006123558482850161231c565b91505092915050565b600073ffffffffffffffffffffffffffffffffffffffff82169050919050565b60006123898261235e565b9050919050565b6123998161237e565b82525050565b60006020820190506123b46000830184612390565b92915050565b6123c38161237e565b81146123ce57600080fd5b50565b6000813590506123e0816123ba565b92915050565b600080604083850312156123fd576123fc612184565b5b600061240b858286016123d1565b925050602061241c8582860161231c565b9150509250929050565b61242f816122fb565b82525050565b600060208201905061244a6000830184612426565b92915050565b60008060006060848603121561246957612468612184565b5b6000612477868287016123d1565b9350506020612488868287016123d1565b92505060406124998682870161231c565b9150509250925092565b6000602082840312156124b9576124b8612184565b5b60006124c7848285016123d1565b91505092915050565b6124d981612213565b81146124e457600080fd5b50565b6000813590506124f6816124d0565b92915050565b6000806040838503121561251357612512612184565b5b6000612521858286016123d1565b9250506020612532858286016124e7565b9150509250929050565b600080fd5b600080fd5b7f4e487b7100000000000000000000000000000000000000000000000000000000600052604160045260246000fd5b61257e8261228f565b810181811067ffffffffffffffff8211171561259d5761259c612546565b5b80604052505050565b60006125b061217a565b90506125bc8282612575565b919050565b600067ffffffffffffffff8211156125dc576125db612546565b5b6125e58261228f565b9050602081019050919050565b82818337600083830152505050565b600061261461260f846125c1565b6125a6565b9050828152602081018484840111156126305761262f612541565b5b61263b8482856125f2565b509392505050565b600082601f8301126126585761265761253c565b5b8135612668848260208601612601565b91505092915050565b6000806000806080858703121561268b5761268a612184565b5b6000612699878288016123d1565b94505060206126aa878288016123d1565b93505060406126bb8782880161231c565b925050606085013567ffffffffffffffff8111156126dc576126db612189565b5b6126e887828801612643565b91505092959194509250565b6000806040838503121561270b5761270a612184565b5b6000612719858286016123d1565b925050602061272a858286016123d1565b9150509250929050565b7f4e487b7100000000000000000000000000000000000000000000000000000000600052602260045260246000fd5b6000600282049050600182168061277b57607f821691505b60208210810361278e5761278d612734565b5b50919050565b60006060820190506127a96000830186612390565b6127b66020830185612426565b6127c36040830184612390565b949350505050565b60006040820190506127e06000830185612390565b6127ed6020830184612426565b9392505050565b7f4e487b7100000000000000000000000000000000000000000000000000000000600052601160045260246000fd5b600061282e826122fb565b91507fffffffffffffffffffffffffffffffffffffffffffffffffffffffffffffffff82036128605761285f6127f4565b5b600182019050919050565b7f4e487b7100000000000000000000000000000000000000000000000000000000600052603260045260246000fd5b60008190508160005260206000209050919050565b60006020601f8301049050919050565b600082821b905092915050565b6000600883026128fc7fffffffffffffffffffffffffffffffffffffffffffffffffffffffffffffffff826128bf565b61290686836128bf565b95508019841693508086168417925050509392505050565b6000819050919050565b600061294361293e612939846122fb565b61291e565b6122fb565b9050919050565b6000819050919050565b61295d83612928565b6129716129698261294a565b8484546128cc565b825550505050565b600090565b612986612979565b612991818484612954565b505050565b5b818110156129b5576129aa60008261297e565b600181019050612997565b5050565b601f8211156129fa576129cb8161289a565b6129d4846128af565b810160208510156129e3578190505b6129f76129ef856128af565b830182612996565b50505b505050565b600082821c905092915050565b6000612a1d600019846008026129ff565b1980831691505092915050565b6000612a368383612a0c565b9150826002028217905092915050565b612a4f82612249565b67ffffffffffffffff811115612a6857612a67612546565b5b612a728254612763565b612a7d8282856129b9565b600060209050601f831160018114612ab05760008415612a9e578287015190505b612aa88582612a2a565b865550612b10565b601f198416612abe8661289a565b60005b82811015612ae657848901518255600182019150602085019450602081019050612ac1565b86831015612b035784890151612aff601f891682612a0c565b8355505b6001600288020188555050505b505050505050565b600081519050919050565b600082825260208201905092915050565b6000612b3f82612b18565b612b498185612b23565b9350612b59818560208601612265565b612b628161228f565b840191505092915050565b6000608082019050612b826000830187612390565b612b8f6020830186612390565b612b9c6040830185612426565b8181036060830152612bae8184612b34565b905095945050505050565b600081519050612bc8816121ba565b92915050565b600060208284031215612be457612be3612184565b5b6000612bf284828501612bb9565b91505092915050565b600081905092915050565b6000612c1182612249565b612c1b8185612bfb565b9350612c2b818560208601612265565b80840191505092915050565b6000612c438285612c06565b9150612c4f8284612c06565b91508190509392505050565b6000612c66826122fb565b9150612c71836122fb565b9250828203905081811115612c8957612c886127f4565b5b92915050565b7f4e487b7100000000000000000000000000000000000000000000000000000000600052603160045260246000fd5b7f4e487b7100000000000000000000000000000000000000000000000000000000600052601260045260246000fdfe697066733a2f2f516d5877375445414a574b6a4b6966764c4532355a39796a766f77576b324e57593357676e5a5055746f39586f41a2646970667358221220442569a06473052783259d21f27f574241daa702ede4e1af9fd346edc7e06b5064736f6c63430008140033",
  "linkReferences": {},
  "deployedLinkReferences": {}
}