{"contracts/FundMe.sol":{"FundMe":{"abi":[{"inputs":[{"internalType":"uint256","name":"_lockTime","type":"uint256"},{"internalType":"address","name":"dataFeedAddr","type":"address"}],"stateMutability":"nonpayable","type":"constructor"},{"anonymous":false,"inputs":[{"indexed":false,"internalType":"uint256","name":"","type":"uint256"}],"name":"FundWithdrawByOwner","type":"event"},{"anonymous":false,"inputs":[{"indexed":false,"internalType":"address","name":"","type":"address"},{"indexed":false,"internalType":"uint256","name":"","type":"uint256"}],"name":"RefundByFunder","type":"event"},{"inputs":[],"name":"dataFeed","outputs":[{"internalType":"contract AggregatorV3Interface","name":"","type":"address"}],"stateMutability":"view","type":"function"},{"inputs":[],"name":"fund","outputs":[],"stateMutability":"payable","type":"function"},{"inputs":[{"internalType":"address","name":"","type":"address"}],"name":"fundersToAmount","outputs":[{"internalType":"uint256","name":"","type":"uint256"}],"stateMutability":"view","type":"function"},{"inputs":[],"name":"getChainlinkDataFeedLatestAnswer","outputs":[{"internalType":"int256","name":"","type":"int256"}],"stateMutability":"view","type":"function"},{"inputs":[],"name":"getFund","outputs":[],"stateMutability":"nonpayable","type":"function"},{"inputs":[],"name":"getFundSuccess","outputs":[{"internalType":"bool","name":"","type":"bool"}],"stateMutability":"view","type":"function"},{"inputs":[],"name":"owner","outputs":[{"internalType":"address","name":"","type":"address"}],"stateMutability":"view","type":"function"},{"inputs":[],"name":"refund","outputs":[],"stateMutability":"nonpayable","type":"function"},{"inputs":[{"internalType":"address","name":"_erc20Addr","type":"address"}],"name":"setErc20Addr","outputs":[],"stateMutability":"nonpayable","type":"function"},{"inputs":[{"internalType":"address","name":"funder","type":"address"},{"internalType":"uint256","name":"amountToUpdate","type":"uint256"}],"name":"setFunderToAmount","outputs":[],"stateMutability":"nonpayable","type":"function"},{"inputs":[{"internalType":"address","name":"newOwner","type":"address"}],"name":"transferOwnership","outputs":[],"stateMutability":"nonpayable","type":"function"}],"devdoc":{"kind":"dev","methods":{},"version":1},"evm":{"bytecode":{"linkReferences":{},"object":"60806040526000600560146101000a81548160ff0219169083151502179055503480156200002c57600080fd5b50604051620020143803806200201483398181016040528101906200005291906200021e565b6200006e67d8f6bba7c114d85a60c01b6200017660201b60201c565b6200008a6737d1b5662eb87ce860c01b6200017660201b60201c565b80600160006101000a81548173ffffffffffffffffffffffffffffffffffffffff021916908373ffffffffffffffffffffffffffffffffffffffff160217905550620000e767f262b82f1007ea4d60c01b6200017660201b60201c565b33600260006101000a81548173ffffffffffffffffffffffffffffffffffffffff021916908373ffffffffffffffffffffffffffffffffffffffff16021790555062000144671d2a7cc101b5552b60c01b6200017660201b60201c565b4260038190555062000167674ea77c008dbbd3f760c01b6200017660201b60201c565b81600481905550505062000265565b50565b600080fd5b6000819050919050565b62000193816200017e565b81146200019f57600080fd5b50565b600081519050620001b38162000188565b92915050565b600073ffffffffffffffffffffffffffffffffffffffff82169050919050565b6000620001e682620001b9565b9050919050565b620001f881620001d9565b81146200020457600080fd5b50565b6000815190506200021881620001ed565b92915050565b6000806040838503121562000238576200023762000179565b5b60006200024885828601620001a2565b92505060206200025b8582860162000207565b9150509250929050565b611d9f80620002756000396000f3fe60806040526004361061009c5760003560e01c80639f883a05116100645780639f883a051461014e578063b60d42881461018b578063bea4dfb514610195578063d39cf006146101c0578063da4658e0146101e9578063f2fde38b146102145761009c565b806313ffff01146100a1578063590e1ae3146100ca5780638da5cb5b146100e15780638edd6eb61461010c5780639e42ff9014610123575b600080fd5b3480156100ad57600080fd5b506100c860048036038101906100c391906114f3565b61023d565b005b3480156100d657600080fd5b506100df6103d9565b005b3480156100ed57600080fd5b506100f66108b4565b604051610103919061152f565b60405180910390f35b34801561011857600080fd5b506101216108da565b005b34801561012f57600080fd5b50610138610e05565b60405161014591906115a9565b60405180910390f35b34801561015a57600080fd5b50610175600480360381019061017091906114f3565b610e2b565b60405161018291906115dd565b60405180910390f35b610193610e43565b005b3480156101a157600080fd5b506101aa610ff5565b6040516101b79190611611565b60405180910390f35b3480156101cc57600080fd5b506101e760048036038101906101e29190611658565b6110fb565b005b3480156101f557600080fd5b506101fe61124a565b60405161020b91906116b3565b60405180910390f35b34801561022057600080fd5b5061023b600480360381019061023691906114f3565b61125d565b005b61025167d2f64ef30ed1ab8360c01b6113f9565b61026567b29435bfe6f4d73e60c01b6113f9565b610279675ebc28cfa4dc568360c01b6113f9565b61028d6745c4f652e2462ed860c01b6113f9565b6102a1676ef7d944e82d72cb60c01b6113f9565b600260009054906101000a900473ffffffffffffffffffffffffffffffffffffffff1673ffffffffffffffffffffffffffffffffffffffff163373ffffffffffffffffffffffffffffffffffffffff1614610331576040517f08c379a000000000000000000000000000000000000000000000000000000000815260040161032890611751565b60405180910390fd5b61034567abee07ad83f4cc8060c01b6113f9565b6103596744d7a8b9cefc34f160c01b6113f9565b61036d673f9722893dc15c0860c01b6113f9565b610381675eacf214cac4658d60c01b6113f9565b61039567a0e94f34efbd2a3d60c01b6113f9565b80600560006101000a81548173ffffffffffffffffffffffffffffffffffffffff021916908373ffffffffffffffffffffffffffffffffffffffff16021790555050565b6103ec662223878803eed960c01b6113f9565b610400676344b785bff1334a60c01b6113f9565b6104146773b521aeaf4e2e7360c01b6113f9565b61042867a1209d18f86536ed60c01b6113f9565b61043c67302b142191c3c70260c01b6113f9565b60045460035461044c91906117a0565b42101561048e576040517f08c379a000000000000000000000000000000000000000000000000000000000815260040161048590611820565b60405180910390fd5b6104a2676a8f47e3da4103e860c01b6113f9565b6104b667d47cfc37d31a247760c01b6113f9565b6104ca670d5a6c8962e4ccae60c01b6113f9565b6104de67b27cbd784fddc64660c01b6113f9565b6104f267c3813db303e961b360c01b6113f9565b6105066788713368bf011d2c60c01b6113f9565b61051a671fef47459e871d1e60c01b6113f9565b683635c9adc5dea0000061052d476113fc565b1061056d576040517f08c379a00000000000000000000000000000000000000000000000000000000081526004016105649061188c565b60405180910390fd5b6105816708c08230f6f114ef60c01b6113f9565b61059567a874d6edc7f937c460c01b6113f9565b6105a967784fd528a94d39e660c01b6113f9565b6105bd677995d9d2efe404d460c01b6113f9565b60008060003373ffffffffffffffffffffffffffffffffffffffff1673ffffffffffffffffffffffffffffffffffffffff168152602001908152602001600020540361063e576040517f08c379a0000000000000000000000000000000000000000000000000000000008152600401610635906118f8565b60405180910390fd5b6106526739aac6ee19d122bf60c01b6113f9565b610666677dfb8a2f564170ce60c01b6113f9565b61067a67447d6ba37ce63b8260c01b6113f9565b6000610690673fbcbf0f168274bb60c01b6113f9565b6106a467251a6a227a20459860c01b6113f9565b60008060003373ffffffffffffffffffffffffffffffffffffffff1673ffffffffffffffffffffffffffffffffffffffff1681526020019081526020016000205490506106fb670e3e782e368e1a2860c01b6113f9565b3373ffffffffffffffffffffffffffffffffffffffff168160405161071f90611949565b60006040518083038185875af1925050503d806000811461075c576040519150601f19603f3d011682016040523d82523d6000602084013e610761565b606091505b50508092505061077b67bc9f8e4f45fae48560c01b6113f9565b61078f671549c2701ab3519a60c01b6113f9565b6107a367059caac2e06c554060c01b6113f9565b816107e3576040517f08c379a00000000000000000000000000000000000000000000000000000000081526004016107da906119aa565b60405180910390fd5b6107f76778e157f43b79021d60c01b6113f9565b61080b678718aba183c5a51760c01b6113f9565b60008060003373ffffffffffffffffffffffffffffffffffffffff1673ffffffffffffffffffffffffffffffffffffffff1681526020019081526020016000208190555061086367c66ff3cd4e18ba0e60c01b6113f9565b61087767a96c95a9549bb6dd60c01b6113f9565b7fc69be1ee5ac2aec580fb0927d8d940555d6f0a7bd11eed94b5b597056113da5f33826040516108a89291906119ca565b60405180910390a15050565b600260009054906101000a900473ffffffffffffffffffffffffffffffffffffffff1681565b6108ee671a699fa719b969b160c01b6113f9565b610902676344b785bff1334a60c01b6113f9565b6109166773b521aeaf4e2e7360c01b6113f9565b61092a67a1209d18f86536ed60c01b6113f9565b61093e67302b142191c3c70260c01b6113f9565b60045460035461094e91906117a0565b421015610990576040517f08c379a000000000000000000000000000000000000000000000000000000000815260040161098790611820565b60405180910390fd5b6109a4676a8f47e3da4103e860c01b6113f9565b6109b867d47cfc37d31a247760c01b6113f9565b6109cc67945dbc10f336659d60c01b6113f9565b6109e0677a63169bde3d077760c01b6113f9565b6109f467b29435bfe6f4d73e60c01b6113f9565b610a08675ebc28cfa4dc568360c01b6113f9565b610a1c6745c4f652e2462ed860c01b6113f9565b610a30676ef7d944e82d72cb60c01b6113f9565b600260009054906101000a900473ffffffffffffffffffffffffffffffffffffffff1673ffffffffffffffffffffffffffffffffffffffff163373ffffffffffffffffffffffffffffffffffffffff1614610ac0576040517f08c379a0000000000000000000000000000000000000000000000000000000008152600401610ab790611751565b60405180910390fd5b610ad467abee07ad83f4cc8060c01b6113f9565b610ae86744d7a8b9cefc34f160c01b6113f9565b610afc67249ae4ff4b1fd3e860c01b6113f9565b610b10673012cec10942078160c01b6113f9565b610b24673f976d33910d6ddf60c01b6113f9565b610b38672f9daa505cef0dfa60c01b6113f9565b610b4c67123096962dc00bf360c01b6113f9565b683635c9adc5dea00000610b5f476113fc565b1015610ba0576040517f08c379a0000000000000000000000000000000000000000000000000000000008152600401610b9790611a3f565b60405180910390fd5b610bb467df301cf899db3be860c01b6113f9565b610bc8674b475861fc774c1760c01b6113f9565b610bdc673e63576f5f17bea960c01b6113f9565b6000610bf267b2972bdcf67aa0a460c01b6113f9565b610c066797c14c816f0ef7ff60c01b6113f9565b6000479050610c1f67fa17a724737e213c60c01b6113f9565b3373ffffffffffffffffffffffffffffffffffffffff1681604051610c4390611949565b60006040518083038185875af1925050503d8060008114610c80576040519150601f19603f3d011682016040523d82523d6000602084013e610c85565b606091505b505080925050610c9f67571327c35746671260c01b6113f9565b610cb367122d209b51def21d60c01b6113f9565b610cc767c82d5c5e28ffd42560c01b6113f9565b81610d07576040517f08c379a0000000000000000000000000000000000000000000000000000000008152600401610cfe906119aa565b60405180910390fd5b610d1b6709916eac4aefe55f60c01b6113f9565b610d2f67b06dbc0fbee0e74860c01b6113f9565b60008060003373ffffffffffffffffffffffffffffffffffffffff1673ffffffffffffffffffffffffffffffffffffffff16815260200190815260200160002081905550610d87679e6a2e519683421160c01b6113f9565b6001600560146101000a81548160ff021916908315150217905550610db6674af5b69e6cd681f760c01b6113f9565b610dca6732fe6c559a4b6d4d60c01b6113f9565b7f2413e9342f4545ed6b87ad890930d6affc4c1914b742a3fad66c49d6d507c73b81604051610df991906115dd565b60405180910390a15050565b600160009054906101000a900473ffffffffffffffffffffffffffffffffffffffff1681565b60006020528060005260406000206000915090505481565b610e5767d368705a740f557360c01b6113f9565b610e6b673ddcb819b3431a0360c01b6113f9565b610e7f67dd3bc9a5274eeca660c01b6113f9565b610e9367f868645f22a08a8360c01b6113f9565b68056bc75e2d63100000610ea6346113fc565b1015610ee7576040517f08c379a0000000000000000000000000000000000000000000000000000000008152600401610ede90611aab565b60405180910390fd5b610efb67663fc7a37fe7e6c560c01b6113f9565b610f0f67772926edafdc9de260c01b6113f9565b610f2367dee5457f1ecf86f260c01b6113f9565b610f3767a320bb72bcfddb3160c01b6113f9565b600454600354610f4791906117a0565b4210610f88576040517f08c379a0000000000000000000000000000000000000000000000000000000008152600401610f7f90611b17565b60405180910390fd5b610f9c670517e45894f42b5660c01b6113f9565b610fb0674ad0166f3606ee7760c01b6113f9565b346000803373ffffffffffffffffffffffffffffffffffffffff1673ffffffffffffffffffffffffffffffffffffffff16815260200190815260200160002081905550565b600061100b67a3784e17b6e5d85960c01b6113f9565b61101f675c3cad7ba178edb260c01b6113f9565b6110336766b13ef4901ae27c60c01b6113f9565b6000600160009054906101000a900473ffffffffffffffffffffffffffffffffffffffff1673ffffffffffffffffffffffffffffffffffffffff1663feaf968c6040518163ffffffff1660e01b815260040160a060405180830381865afa1580156110a2573d6000803e3d6000fd5b505050506040513d601f19601f820116820180604052508101906110c69190611bba565b5050509150506110e0676fbb78b2a32242ff60c01b6113f9565b6110f46792f3c2ed0cbbce5c60c01b6113f9565b8091505090565b61110f675455e27a43577d4360c01b6113f9565b611123678533a04dbb21a9f560c01b6113f9565b611137671698a27c1e71b5fb60c01b6113f9565b61114b67af002c00e6400a8d60c01b6113f9565b600560009054906101000a900473ffffffffffffffffffffffffffffffffffffffff1673ffffffffffffffffffffffffffffffffffffffff163373ffffffffffffffffffffffffffffffffffffffff16146111db576040517f08c379a00000000000000000000000000000000000000000000000000000000081526004016111d290611ca7565b60405180910390fd5b6111ef6753d6acf97537d49e60c01b6113f9565b61120367dca3dde60a72f6d060c01b6113f9565b806000808473ffffffffffffffffffffffffffffffffffffffff1673ffffffffffffffffffffffffffffffffffffffff168152602001908152602001600020819055505050565b600560149054906101000a900460ff1681565b611271679ecc5985ec3e9bb760c01b6113f9565b61128567b29435bfe6f4d73e60c01b6113f9565b611299675ebc28cfa4dc568360c01b6113f9565b6112ad6745c4f652e2462ed860c01b6113f9565b6112c1676ef7d944e82d72cb60c01b6113f9565b600260009054906101000a900473ffffffffffffffffffffffffffffffffffffffff1673ffffffffffffffffffffffffffffffffffffffff163373ffffffffffffffffffffffffffffffffffffffff1614611351576040517f08c379a000000000000000000000000000000000000000000000000000000000815260040161134890611751565b60405180910390fd5b61136567abee07ad83f4cc8060c01b6113f9565b6113796744d7a8b9cefc34f160c01b6113f9565b61138d679991af7de0dec67060c01b6113f9565b6113a167ab3deeea471935e760c01b6113f9565b6113b5677905ef3df3f85e3d60c01b6113f9565b80600260006101000a81548173ffffffffffffffffffffffffffffffffffffffff021916908373ffffffffffffffffffffffffffffffffffffffff16021790555050565b50565b60006114116677013552917b8660c01b6113f9565b61142567e2c9dabd2accd51d60c01b6113f9565b61143967782d4635862f91c360c01b6113f9565b6000611443610ff5565b905061145967ec12262754b1724060c01b6113f9565b61146d673e316a3e53af1a8d60c01b6113f9565b6305f5e100818461147e9190611cc7565b6114889190611d38565b915050919050565b600080fd5b600073ffffffffffffffffffffffffffffffffffffffff82169050919050565b60006114c082611495565b9050919050565b6114d0816114b5565b81146114db57600080fd5b50565b6000813590506114ed816114c7565b92915050565b60006020828403121561150957611508611490565b5b6000611517848285016114de565b91505092915050565b611529816114b5565b82525050565b60006020820190506115446000830184611520565b92915050565b6000819050919050565b600061156f61156a61156584611495565b61154a565b611495565b9050919050565b600061158182611554565b9050919050565b600061159382611576565b9050919050565b6115a381611588565b82525050565b60006020820190506115be600083018461159a565b92915050565b6000819050919050565b6115d7816115c4565b82525050565b60006020820190506115f260008301846115ce565b92915050565b6000819050919050565b61160b816115f8565b82525050565b60006020820190506116266000830184611602565b92915050565b611635816115c4565b811461164057600080fd5b50565b6000813590506116528161162c565b92915050565b6000806040838503121561166f5761166e611490565b5b600061167d858286016114de565b925050602061168e85828601611643565b9150509250929050565b60008115159050919050565b6116ad81611698565b82525050565b60006020820190506116c860008301846116a4565b92915050565b600082825260208201905092915050565b7f746869732066756e6374696f6e2063616e206f6e6c792062652063616c6c656460008201527f206279206f776e65720000000000000000000000000000000000000000000000602082015250565b600061173b6029836116ce565b9150611746826116df565b604082019050919050565b6000602082019050818103600083015261176a8161172e565b9050919050565b7f4e487b7100000000000000000000000000000000000000000000000000000000600052601160045260246000fd5b60006117ab826115c4565b91506117b6836115c4565b92508282019050808211156117ce576117cd611771565b5b92915050565b7f77696e646f77206973206e6f7420636c6f736564000000000000000000000000600082015250565b600061180a6014836116ce565b9150611815826117d4565b602082019050919050565b60006020820190508181036000830152611839816117fd565b9050919050565b7f5461726765742069732072656163686564000000000000000000000000000000600082015250565b60006118766011836116ce565b915061188182611840565b602082019050919050565b600060208201905081810360008301526118a581611869565b9050919050565b7f7468657265206973206e6f2066756e6420666f7220796f750000000000000000600082015250565b60006118e26018836116ce565b91506118ed826118ac565b602082019050919050565b60006020820190508181036000830152611911816118d5565b9050919050565b600081905092915050565b50565b6000611933600083611918565b915061193e82611923565b600082019050919050565b600061195482611926565b9150819050919050565b7f7472616e73666572207478206661696c65640000000000000000000000000000600082015250565b60006119946012836116ce565b915061199f8261195e565b602082019050919050565b600060208201905081810360008301526119c381611987565b9050919050565b60006040820190506119df6000830185611520565b6119ec60208301846115ce565b9392505050565b7f546172676574206973206e6f7420726561636865640000000000000000000000600082015250565b6000611a296015836116ce565b9150611a34826119f3565b602082019050919050565b60006020820190508181036000830152611a5881611a1c565b9050919050565b7f53656e64206d6f72652045544800000000000000000000000000000000000000600082015250565b6000611a95600d836116ce565b9150611aa082611a5f565b602082019050919050565b60006020820190508181036000830152611ac481611a88565b9050919050565b7f77696e646f7720697320636c6f73656400000000000000000000000000000000600082015250565b6000611b016010836116ce565b9150611b0c82611acb565b602082019050919050565b60006020820190508181036000830152611b3081611af4565b9050919050565b600069ffffffffffffffffffff82169050919050565b611b5681611b37565b8114611b6157600080fd5b50565b600081519050611b7381611b4d565b92915050565b611b82816115f8565b8114611b8d57600080fd5b50565b600081519050611b9f81611b79565b92915050565b600081519050611bb48161162c565b92915050565b600080600080600060a08688031215611bd657611bd5611490565b5b6000611be488828901611b64565b9550506020611bf588828901611b90565b9450506040611c0688828901611ba5565b9350506060611c1788828901611ba5565b9250506080611c2888828901611b64565b9150509295509295909350565b7f796f7520646f206e6f742068617665207065726d697373696f6e20746f20636160008201527f6c6c20746869732066756e74696f6e0000000000000000000000000000000000602082015250565b6000611c91602f836116ce565b9150611c9c82611c35565b604082019050919050565b60006020820190508181036000830152611cc081611c84565b9050919050565b6000611cd2826115c4565b9150611cdd836115c4565b9250828202611ceb816115c4565b91508282048414831517611d0257611d01611771565b5b5092915050565b7f4e487b7100000000000000000000000000000000000000000000000000000000600052601260045260246000fd5b6000611d43826115c4565b9150611d4e836115c4565b925082611d5e57611d5d611d09565b5b82820490509291505056fea264697066735822122062b0ea7185c342dfa8dd653647cee2d7414f927047f272c72cfbdfd48dc08f9a64736f6c63430008180033","opcodes":"PUSH1 0x80 PUSH1 0x40 MSTORE PUSH1 0x0 PUSH1 0x5 PUSH1 0x14 PUSH2 0x100 EXP DUP2 SLOAD DUP2 PUSH1 0xFF MUL NOT AND SWAP1 DUP4 ISZERO ISZERO MUL OR SWAP1 SSTORE POP CALLVALUE DUP1 ISZERO PUSH3 0x2C JUMPI PUSH1 0x0 DUP1 REVERT JUMPDEST POP PUSH1 0x40 MLOAD PUSH3 0x2014 CODESIZE SUB DUP1 PUSH3 0x2014 DUP4 CODECOPY DUP2 DUP2 ADD PUSH1 0x40 MSTORE DUP2 ADD SWAP1 PUSH3 0x52 SWAP2 SWAP1 PUSH3 0x21E JUMP JUMPDEST PUSH3 0x6E PUSH8 0xD8F6BBA7C114D85A PUSH1 0xC0 SHL PUSH3 0x176 PUSH1 0x20 SHL PUSH1 0x20 SHR JUMP JUMPDEST PUSH3 0x8A PUSH8 0x37D1B5662EB87CE8 PUSH1 0xC0 SHL PUSH3 0x176 PUSH1 0x20 SHL PUSH1 0x20 SHR JUMP JUMPDEST DUP1 PUSH1 0x1 PUSH1 0x0 PUSH2 0x100 EXP DUP2 SLOAD DUP2 PUSH20 0xFFFFFFFFFFFFFFFFFFFFFFFFFFFFFFFFFFFFFFFF MUL NOT AND SWAP1 DUP4 PUSH20 0xFFFFFFFFFFFFFFFFFFFFFFFFFFFFFFFFFFFFFFFF AND MUL OR SWAP1 SSTORE POP PUSH3 0xE7 PUSH8 0xF262B82F1007EA4D PUSH1 0xC0 SHL PUSH3 0x176 PUSH1 0x20 SHL PUSH1 0x20 SHR JUMP JUMPDEST CALLER PUSH1 0x2 PUSH1 0x0 PUSH2 0x100 EXP DUP2 SLOAD DUP2 PUSH20 0xFFFFFFFFFFFFFFFFFFFFFFFFFFFFFFFFFFFFFFFF MUL NOT AND SWAP1 DUP4 PUSH20 0xFFFFFFFFFFFFFFFFFFFFFFFFFFFFFFFFFFFFFFFF AND MUL OR SWAP1 SSTORE POP PUSH3 0x144 PUSH8 0x1D2A7CC101B5552B PUSH1 0xC0 SHL PUSH3 0x176 PUSH1 0x20 SHL PUSH1 0x20 SHR JUMP JUMPDEST TIMESTAMP PUSH1 0x3 DUP2 SWAP1 SSTORE POP PUSH3 0x167 PUSH8 0x4EA77C008DBBD3F7 PUSH1 0xC0 SHL PUSH3 0x176 PUSH1 0x20 SHL PUSH1 0x20 SHR JUMP JUMPDEST DUP2 PUSH1 0x4 DUP2 SWAP1 SSTORE POP POP POP PUSH3 0x265 JUMP JUMPDEST POP JUMP JUMPDEST PUSH1 0x0 DUP1 REVERT JUMPDEST PUSH1 0x0 DUP2 SWAP1 POP SWAP2 SWAP1 POP JUMP JUMPDEST PUSH3 0x193 DUP2 PUSH3 0x17E JUMP JUMPDEST DUP2 EQ PUSH3 0x19F JUMPI PUSH1 0x0 DUP1 REVERT JUMPDEST POP JUMP JUMPDEST PUSH1 0x0 DUP2 MLOAD SWAP1 POP PUSH3 0x1B3 DUP2 PUSH3 0x188 JUMP JUMPDEST SWAP3 SWAP2 POP POP JUMP JUMPDEST PUSH1 0x0 PUSH20 0xFFFFFFFFFFFFFFFFFFFFFFFFFFFFFFFFFFFFFFFF DUP3 AND SWAP1 POP SWAP2 SWAP1 POP JUMP JUMPDEST PUSH1 0x0 PUSH3 0x1E6 DUP3 PUSH3 0x1B9 JUMP JUMPDEST SWAP1 POP SWAP2 SWAP1 POP JUMP JUMPDEST PUSH3 0x1F8 DUP2 PUSH3 0x1D9 JUMP JUMPDEST DUP2 EQ PUSH3 0x204 JUMPI PUSH1 0x0 DUP1 REVERT JUMPDEST POP JUMP JUMPDEST PUSH1 0x0 DUP2 MLOAD SWAP1 POP PUSH3 0x218 DUP2 PUSH3 0x1ED JUMP JUMPDEST SWAP3 SWAP2 POP POP JUMP JUMPDEST PUSH1 0x0 DUP1 PUSH1 0x40 DUP4 DUP6 SUB SLT ISZERO PUSH3 0x238 JUMPI PUSH3 0x237 PUSH3 0x179 JUMP JUMPDEST JUMPDEST PUSH1 0x0 PUSH3 0x248 DUP6 DUP3 DUP7 ADD PUSH3 0x1A2 JUMP JUMPDEST SWAP3 POP POP PUSH1 0x20 PUSH3 0x25B DUP6 DUP3 DUP7 ADD PUSH3 0x207 JUMP JUMPDEST SWAP2 POP POP SWAP3 POP SWAP3 SWAP1 POP JUMP JUMPDEST PUSH2 0x1D9F DUP1 PUSH3 0x275 PUSH1 0x0 CODECOPY PUSH1 0x0 RETURN INVALID PUSH1 0x80 PUSH1 0x40 MSTORE PUSH1 0x4 CALLDATASIZE LT PUSH2 0x9C JUMPI PUSH1 0x0 CALLDATALOAD PUSH1 0xE0 SHR DUP1 PUSH4 0x9F883A05 GT PUSH2 0x64 JUMPI DUP1 PUSH4 0x9F883A05 EQ PUSH2 0x14E JUMPI DUP1 PUSH4 0xB60D4288 EQ PUSH2 0x18B JUMPI DUP1 PUSH4 0xBEA4DFB5 EQ PUSH2 0x195 JUMPI DUP1 PUSH4 0xD39CF006 EQ PUSH2 0x1C0 JUMPI DUP1 PUSH4 0xDA4658E0 EQ PUSH2 0x1E9 JUMPI DUP1 PUSH4 0xF2FDE38B EQ PUSH2 0x214 JUMPI PUSH2 0x9C JUMP JUMPDEST DUP1 PUSH4 0x13FFFF01 EQ PUSH2 0xA1 JUMPI DUP1 PUSH4 0x590E1AE3 EQ PUSH2 0xCA JUMPI DUP1 PUSH4 0x8DA5CB5B EQ PUSH2 0xE1 JUMPI DUP1 PUSH4 0x8EDD6EB6 EQ PUSH2 0x10C JUMPI DUP1 PUSH4 0x9E42FF90 EQ PUSH2 0x123 JUMPI JUMPDEST PUSH1 0x0 DUP1 REVERT JUMPDEST CALLVALUE DUP1 ISZERO PUSH2 0xAD JUMPI PUSH1 0x0 DUP1 REVERT JUMPDEST POP PUSH2 0xC8 PUSH1 0x4 DUP1 CALLDATASIZE SUB DUP2 ADD SWAP1 PUSH2 0xC3 SWAP2 SWAP1 PUSH2 0x14F3 JUMP JUMPDEST PUSH2 0x23D JUMP JUMPDEST STOP JUMPDEST CALLVALUE DUP1 ISZERO PUSH2 0xD6 JUMPI PUSH1 0x0 DUP1 REVERT JUMPDEST POP PUSH2 0xDF PUSH2 0x3D9 JUMP JUMPDEST STOP JUMPDEST CALLVALUE DUP1 ISZERO PUSH2 0xED JUMPI PUSH1 0x0 DUP1 REVERT JUMPDEST POP PUSH2 0xF6 PUSH2 0x8B4 JUMP JUMPDEST PUSH1 0x40 MLOAD PUSH2 0x103 SWAP2 SWAP1 PUSH2 0x152F JUMP JUMPDEST PUSH1 0x40 MLOAD DUP1 SWAP2 SUB SWAP1 RETURN JUMPDEST CALLVALUE DUP1 ISZERO PUSH2 0x118 JUMPI PUSH1 0x0 DUP1 REVERT JUMPDEST POP PUSH2 0x121 PUSH2 0x8DA JUMP JUMPDEST STOP JUMPDEST CALLVALUE DUP1 ISZERO PUSH2 0x12F JUMPI PUSH1 0x0 DUP1 REVERT JUMPDEST POP PUSH2 0x138 PUSH2 0xE05 JUMP JUMPDEST PUSH1 0x40 MLOAD PUSH2 0x145 SWAP2 SWAP1 PUSH2 0x15A9 JUMP JUMPDEST PUSH1 0x40 MLOAD DUP1 SWAP2 SUB SWAP1 RETURN JUMPDEST CALLVALUE DUP1 ISZERO PUSH2 0x15A JUMPI PUSH1 0x0 DUP1 REVERT JUMPDEST POP PUSH2 0x175 PUSH1 0x4 DUP1 CALLDATASIZE SUB DUP2 ADD SWAP1 PUSH2 0x170 SWAP2 SWAP1 PUSH2 0x14F3 JUMP JUMPDEST PUSH2 0xE2B JUMP JUMPDEST PUSH1 0x40 MLOAD PUSH2 0x182 SWAP2 SWAP1 PUSH2 0x15DD JUMP JUMPDEST PUSH1 0x40 MLOAD DUP1 SWAP2 SUB SWAP1 RETURN JUMPDEST PUSH2 0x193 PUSH2 0xE43 JUMP JUMPDEST STOP JUMPDEST CALLVALUE DUP1 ISZERO PUSH2 0x1A1 JUMPI PUSH1 0x0 DUP1 REVERT JUMPDEST POP PUSH2 0x1AA PUSH2 0xFF5 JUMP JUMPDEST PUSH1 0x40 MLOAD PUSH2 0x1B7 SWAP2 SWAP1 PUSH2 0x1611 JUMP JUMPDEST PUSH1 0x40 MLOAD DUP1 SWAP2 SUB SWAP1 RETURN JUMPDEST CALLVALUE DUP1 ISZERO PUSH2 0x1CC JUMPI PUSH1 0x0 DUP1 REVERT JUMPDEST POP PUSH2 0x1E7 PUSH1 0x4 DUP1 CALLDATASIZE SUB DUP2 ADD SWAP1 PUSH2 0x1E2 SWAP2 SWAP1 PUSH2 0x1658 JUMP JUMPDEST PUSH2 0x10FB JUMP JUMPDEST STOP JUMPDEST CALLVALUE DUP1 ISZERO PUSH2 0x1F5 JUMPI PUSH1 0x0 DUP1 REVERT JUMPDEST POP PUSH2 0x1FE PUSH2 0x124A JUMP JUMPDEST PUSH1 0x40 MLOAD PUSH2 0x20B SWAP2 SWAP1 PUSH2 0x16B3 JUMP JUMPDEST PUSH1 0x40 MLOAD DUP1 SWAP2 SUB SWAP1 RETURN JUMPDEST CALLVALUE DUP1 ISZERO PUSH2 0x220 JUMPI PUSH1 0x0 DUP1 REVERT JUMPDEST POP PUSH2 0x23B PUSH1 0x4 DUP1 CALLDATASIZE SUB DUP2 ADD SWAP1 PUSH2 0x236 SWAP2 SWAP1 PUSH2 0x14F3 JUMP JUMPDEST PUSH2 0x125D JUMP JUMPDEST STOP JUMPDEST PUSH2 0x251 PUSH8 0xD2F64EF30ED1AB83 PUSH1 0xC0 SHL PUSH2 0x13F9 JUMP JUMPDEST PUSH2 0x265 PUSH8 0xB29435BFE6F4D73E PUSH1 0xC0 SHL PUSH2 0x13F9 JUMP JUMPDEST PUSH2 0x279 PUSH8 0x5EBC28CFA4DC5683 PUSH1 0xC0 SHL PUSH2 0x13F9 JUMP JUMPDEST PUSH2 0x28D PUSH8 0x45C4F652E2462ED8 PUSH1 0xC0 SHL PUSH2 0x13F9 JUMP JUMPDEST PUSH2 0x2A1 PUSH8 0x6EF7D944E82D72CB PUSH1 0xC0 SHL PUSH2 0x13F9 JUMP JUMPDEST PUSH1 0x2 PUSH1 0x0 SWAP1 SLOAD SWAP1 PUSH2 0x100 EXP SWAP1 DIV PUSH20 0xFFFFFFFFFFFFFFFFFFFFFFFFFFFFFFFFFFFFFFFF AND PUSH20 0xFFFFFFFFFFFFFFFFFFFFFFFFFFFFFFFFFFFFFFFF AND CALLER PUSH20 0xFFFFFFFFFFFFFFFFFFFFFFFFFFFFFFFFFFFFFFFF AND EQ PUSH2 0x331 JUMPI PUSH1 0x40 MLOAD PUSH32 0x8C379A000000000000000000000000000000000000000000000000000000000 DUP2 MSTORE PUSH1 0x4 ADD PUSH2 0x328 SWAP1 PUSH2 0x1751 JUMP JUMPDEST PUSH1 0x40 MLOAD DUP1 SWAP2 SUB SWAP1 REVERT JUMPDEST PUSH2 0x345 PUSH8 0xABEE07AD83F4CC80 PUSH1 0xC0 SHL PUSH2 0x13F9 JUMP JUMPDEST PUSH2 0x359 PUSH8 0x44D7A8B9CEFC34F1 PUSH1 0xC0 SHL PUSH2 0x13F9 JUMP JUMPDEST PUSH2 0x36D PUSH8 0x3F9722893DC15C08 PUSH1 0xC0 SHL PUSH2 0x13F9 JUMP JUMPDEST PUSH2 0x381 PUSH8 0x5EACF214CAC4658D PUSH1 0xC0 SHL PUSH2 0x13F9 JUMP JUMPDEST PUSH2 0x395 PUSH8 0xA0E94F34EFBD2A3D PUSH1 0xC0 SHL PUSH2 0x13F9 JUMP JUMPDEST DUP1 PUSH1 0x5 PUSH1 0x0 PUSH2 0x100 EXP DUP2 SLOAD DUP2 PUSH20 0xFFFFFFFFFFFFFFFFFFFFFFFFFFFFFFFFFFFFFFFF MUL NOT AND SWAP1 DUP4 PUSH20 0xFFFFFFFFFFFFFFFFFFFFFFFFFFFFFFFFFFFFFFFF AND MUL OR SWAP1 SSTORE POP POP JUMP JUMPDEST PUSH2 0x3EC PUSH7 0x2223878803EED9 PUSH1 0xC0 SHL PUSH2 0x13F9 JUMP JUMPDEST PUSH2 0x400 PUSH8 0x6344B785BFF1334A PUSH1 0xC0 SHL PUSH2 0x13F9 JUMP JUMPDEST PUSH2 0x414 PUSH8 0x73B521AEAF4E2E73 PUSH1 0xC0 SHL PUSH2 0x13F9 JUMP JUMPDEST PUSH2 0x428 PUSH8 0xA1209D18F86536ED PUSH1 0xC0 SHL PUSH2 0x13F9 JUMP JUMPDEST PUSH2 0x43C PUSH8 0x302B142191C3C702 PUSH1 0xC0 SHL PUSH2 0x13F9 JUMP JUMPDEST PUSH1 0x4 SLOAD PUSH1 0x3 SLOAD PUSH2 0x44C SWAP2 SWAP1 PUSH2 0x17A0 JUMP JUMPDEST TIMESTAMP LT ISZERO PUSH2 0x48E JUMPI PUSH1 0x40 MLOAD PUSH32 0x8C379A000000000000000000000000000000000000000000000000000000000 DUP2 MSTORE PUSH1 0x4 ADD PUSH2 0x485 SWAP1 PUSH2 0x1820 JUMP JUMPDEST PUSH1 0x40 MLOAD DUP1 SWAP2 SUB SWAP1 REVERT JUMPDEST PUSH2 0x4A2 PUSH8 0x6A8F47E3DA4103E8 PUSH1 0xC0 SHL PUSH2 0x13F9 JUMP JUMPDEST PUSH2 0x4B6 PUSH8 0xD47CFC37D31A2477 PUSH1 0xC0 SHL PUSH2 0x13F9 JUMP JUMPDEST PUSH2 0x4CA PUSH8 0xD5A6C8962E4CCAE PUSH1 0xC0 SHL PUSH2 0x13F9 JUMP JUMPDEST PUSH2 0x4DE PUSH8 0xB27CBD784FDDC646 PUSH1 0xC0 SHL PUSH2 0x13F9 JUMP JUMPDEST PUSH2 0x4F2 PUSH8 0xC3813DB303E961B3 PUSH1 0xC0 SHL PUSH2 0x13F9 JUMP JUMPDEST PUSH2 0x506 PUSH8 0x88713368BF011D2C PUSH1 0xC0 SHL PUSH2 0x13F9 JUMP JUMPDEST PUSH2 0x51A PUSH8 0x1FEF47459E871D1E PUSH1 0xC0 SHL PUSH2 0x13F9 JUMP JUMPDEST PUSH9 0x3635C9ADC5DEA00000 PUSH2 0x52D SELFBALANCE PUSH2 0x13FC JUMP JUMPDEST LT PUSH2 0x56D JUMPI PUSH1 0x40 MLOAD PUSH32 0x8C379A000000000000000000000000000000000000000000000000000000000 DUP2 MSTORE PUSH1 0x4 ADD PUSH2 0x564 SWAP1 PUSH2 0x188C JUMP JUMPDEST PUSH1 0x40 MLOAD DUP1 SWAP2 SUB SWAP1 REVERT JUMPDEST PUSH2 0x581 PUSH8 0x8C08230F6F114EF PUSH1 0xC0 SHL PUSH2 0x13F9 JUMP JUMPDEST PUSH2 0x595 PUSH8 0xA874D6EDC7F937C4 PUSH1 0xC0 SHL PUSH2 0x13F9 JUMP JUMPDEST PUSH2 0x5A9 PUSH8 0x784FD528A94D39E6 PUSH1 0xC0 SHL PUSH2 0x13F9 JUMP JUMPDEST PUSH2 0x5BD PUSH8 0x7995D9D2EFE404D4 PUSH1 0xC0 SHL PUSH2 0x13F9 JUMP JUMPDEST PUSH1 0x0 DUP1 PUSH1 0x0 CALLER PUSH20 0xFFFFFFFFFFFFFFFFFFFFFFFFFFFFFFFFFFFFFFFF AND PUSH20 0xFFFFFFFFFFFFFFFFFFFFFFFFFFFFFFFFFFFFFFFF AND DUP2 MSTORE PUSH1 0x20 ADD SWAP1 DUP2 MSTORE PUSH1 0x20 ADD PUSH1 0x0 KECCAK256 SLOAD SUB PUSH2 0x63E JUMPI PUSH1 0x40 MLOAD PUSH32 0x8C379A000000000000000000000000000000000000000000000000000000000 DUP2 MSTORE PUSH1 0x4 ADD PUSH2 0x635 SWAP1 PUSH2 0x18F8 JUMP JUMPDEST PUSH1 0x40 MLOAD DUP1 SWAP2 SUB SWAP1 REVERT JUMPDEST PUSH2 0x652 PUSH8 0x39AAC6EE19D122BF PUSH1 0xC0 SHL PUSH2 0x13F9 JUMP JUMPDEST PUSH2 0x666 PUSH8 0x7DFB8A2F564170CE PUSH1 0xC0 SHL PUSH2 0x13F9 JUMP JUMPDEST PUSH2 0x67A PUSH8 0x447D6BA37CE63B82 PUSH1 0xC0 SHL PUSH2 0x13F9 JUMP JUMPDEST PUSH1 0x0 PUSH2 0x690 PUSH8 0x3FBCBF0F168274BB PUSH1 0xC0 SHL PUSH2 0x13F9 JUMP JUMPDEST PUSH2 0x6A4 PUSH8 0x251A6A227A204598 PUSH1 0xC0 SHL PUSH2 0x13F9 JUMP JUMPDEST PUSH1 0x0 DUP1 PUSH1 0x0 CALLER PUSH20 0xFFFFFFFFFFFFFFFFFFFFFFFFFFFFFFFFFFFFFFFF AND PUSH20 0xFFFFFFFFFFFFFFFFFFFFFFFFFFFFFFFFFFFFFFFF AND DUP2 MSTORE PUSH1 0x20 ADD SWAP1 DUP2 MSTORE PUSH1 0x20 ADD PUSH1 0x0 KECCAK256 SLOAD SWAP1 POP PUSH2 0x6FB PUSH8 0xE3E782E368E1A28 PUSH1 0xC0 SHL PUSH2 0x13F9 JUMP JUMPDEST CALLER PUSH20 0xFFFFFFFFFFFFFFFFFFFFFFFFFFFFFFFFFFFFFFFF AND DUP2 PUSH1 0x40 MLOAD PUSH2 0x71F SWAP1 PUSH2 0x1949 JUMP JUMPDEST PUSH1 0x0 PUSH1 0x40 MLOAD DUP1 DUP4 SUB DUP2 DUP6 DUP8 GAS CALL SWAP3 POP POP POP RETURNDATASIZE DUP1 PUSH1 0x0 DUP2 EQ PUSH2 0x75C JUMPI PUSH1 0x40 MLOAD SWAP2 POP PUSH1 0x1F NOT PUSH1 0x3F RETURNDATASIZE ADD AND DUP3 ADD PUSH1 0x40 MSTORE RETURNDATASIZE DUP3 MSTORE RETURNDATASIZE PUSH1 0x0 PUSH1 0x20 DUP5 ADD RETURNDATACOPY PUSH2 0x761 JUMP JUMPDEST PUSH1 0x60 SWAP2 POP JUMPDEST POP POP DUP1 SWAP3 POP POP PUSH2 0x77B PUSH8 0xBC9F8E4F45FAE485 PUSH1 0xC0 SHL PUSH2 0x13F9 JUMP JUMPDEST PUSH2 0x78F PUSH8 0x1549C2701AB3519A PUSH1 0xC0 SHL PUSH2 0x13F9 JUMP JUMPDEST PUSH2 0x7A3 PUSH8 0x59CAAC2E06C5540 PUSH1 0xC0 SHL PUSH2 0x13F9 JUMP JUMPDEST DUP2 PUSH2 0x7E3 JUMPI PUSH1 0x40 MLOAD PUSH32 0x8C379A000000000000000000000000000000000000000000000000000000000 DUP2 MSTORE PUSH1 0x4 ADD PUSH2 0x7DA SWAP1 PUSH2 0x19AA JUMP JUMPDEST PUSH1 0x40 MLOAD DUP1 SWAP2 SUB SWAP1 REVERT JUMPDEST PUSH2 0x7F7 PUSH8 0x78E157F43B79021D PUSH1 0xC0 SHL PUSH2 0x13F9 JUMP JUMPDEST PUSH2 0x80B PUSH8 0x8718ABA183C5A517 PUSH1 0xC0 SHL PUSH2 0x13F9 JUMP JUMPDEST PUSH1 0x0 DUP1 PUSH1 0x0 CALLER PUSH20 0xFFFFFFFFFFFFFFFFFFFFFFFFFFFFFFFFFFFFFFFF AND PUSH20 0xFFFFFFFFFFFFFFFFFFFFFFFFFFFFFFFFFFFFFFFF AND DUP2 MSTORE PUSH1 0x20 ADD SWAP1 DUP2 MSTORE PUSH1 0x20 ADD PUSH1 0x0 KECCAK256 DUP2 SWAP1 SSTORE POP PUSH2 0x863 PUSH8 0xC66FF3CD4E18BA0E PUSH1 0xC0 SHL PUSH2 0x13F9 JUMP JUMPDEST PUSH2 0x877 PUSH8 0xA96C95A9549BB6DD PUSH1 0xC0 SHL PUSH2 0x13F9 JUMP JUMPDEST PUSH32 0xC69BE1EE5AC2AEC580FB0927D8D940555D6F0A7BD11EED94B5B597056113DA5F CALLER DUP3 PUSH1 0x40 MLOAD PUSH2 0x8A8 SWAP3 SWAP2 SWAP1 PUSH2 0x19CA JUMP JUMPDEST PUSH1 0x40 MLOAD DUP1 SWAP2 SUB SWAP1 LOG1 POP POP JUMP JUMPDEST PUSH1 0x2 PUSH1 0x0 SWAP1 SLOAD SWAP1 PUSH2 0x100 EXP SWAP1 DIV PUSH20 0xFFFFFFFFFFFFFFFFFFFFFFFFFFFFFFFFFFFFFFFF AND DUP2 JUMP JUMPDEST PUSH2 0x8EE PUSH8 0x1A699FA719B969B1 PUSH1 0xC0 SHL PUSH2 0x13F9 JUMP JUMPDEST PUSH2 0x902 PUSH8 0x6344B785BFF1334A PUSH1 0xC0 SHL PUSH2 0x13F9 JUMP JUMPDEST PUSH2 0x916 PUSH8 0x73B521AEAF4E2E73 PUSH1 0xC0 SHL PUSH2 0x13F9 JUMP JUMPDEST PUSH2 0x92A PUSH8 0xA1209D18F86536ED PUSH1 0xC0 SHL PUSH2 0x13F9 JUMP JUMPDEST PUSH2 0x93E PUSH8 0x302B142191C3C702 PUSH1 0xC0 SHL PUSH2 0x13F9 JUMP JUMPDEST PUSH1 0x4 SLOAD PUSH1 0x3 SLOAD PUSH2 0x94E SWAP2 SWAP1 PUSH2 0x17A0 JUMP JUMPDEST TIMESTAMP LT ISZERO PUSH2 0x990 JUMPI PUSH1 0x40 MLOAD PUSH32 0x8C379A000000000000000000000000000000000000000000000000000000000 DUP2 MSTORE PUSH1 0x4 ADD PUSH2 0x987 SWAP1 PUSH2 0x1820 JUMP JUMPDEST PUSH1 0x40 MLOAD DUP1 SWAP2 SUB SWAP1 REVERT JUMPDEST PUSH2 0x9A4 PUSH8 0x6A8F47E3DA4103E8 PUSH1 0xC0 SHL PUSH2 0x13F9 JUMP JUMPDEST PUSH2 0x9B8 PUSH8 0xD47CFC37D31A2477 PUSH1 0xC0 SHL PUSH2 0x13F9 JUMP JUMPDEST PUSH2 0x9CC PUSH8 0x945DBC10F336659D PUSH1 0xC0 SHL PUSH2 0x13F9 JUMP JUMPDEST PUSH2 0x9E0 PUSH8 0x7A63169BDE3D0777 PUSH1 0xC0 SHL PUSH2 0x13F9 JUMP JUMPDEST PUSH2 0x9F4 PUSH8 0xB29435BFE6F4D73E PUSH1 0xC0 SHL PUSH2 0x13F9 JUMP JUMPDEST PUSH2 0xA08 PUSH8 0x5EBC28CFA4DC5683 PUSH1 0xC0 SHL PUSH2 0x13F9 JUMP JUMPDEST PUSH2 0xA1C PUSH8 0x45C4F652E2462ED8 PUSH1 0xC0 SHL PUSH2 0x13F9 JUMP JUMPDEST PUSH2 0xA30 PUSH8 0x6EF7D944E82D72CB PUSH1 0xC0 SHL PUSH2 0x13F9 JUMP JUMPDEST PUSH1 0x2 PUSH1 0x0 SWAP1 SLOAD SWAP1 PUSH2 0x100 EXP SWAP1 DIV PUSH20 0xFFFFFFFFFFFFFFFFFFFFFFFFFFFFFFFFFFFFFFFF AND PUSH20 0xFFFFFFFFFFFFFFFFFFFFFFFFFFFFFFFFFFFFFFFF AND CALLER PUSH20 0xFFFFFFFFFFFFFFFFFFFFFFFFFFFFFFFFFFFFFFFF AND EQ PUSH2 0xAC0 JUMPI PUSH1 0x40 MLOAD PUSH32 0x8C379A000000000000000000000000000000000000000000000000000000000 DUP2 MSTORE PUSH1 0x4 ADD PUSH2 0xAB7 SWAP1 PUSH2 0x1751 JUMP JUMPDEST PUSH1 0x40 MLOAD DUP1 SWAP2 SUB SWAP1 REVERT JUMPDEST PUSH2 0xAD4 PUSH8 0xABEE07AD83F4CC80 PUSH1 0xC0 SHL PUSH2 0x13F9 JUMP JUMPDEST PUSH2 0xAE8 PUSH8 0x44D7A8B9CEFC34F1 PUSH1 0xC0 SHL PUSH2 0x13F9 JUMP JUMPDEST PUSH2 0xAFC PUSH8 0x249AE4FF4B1FD3E8 PUSH1 0xC0 SHL PUSH2 0x13F9 JUMP JUMPDEST PUSH2 0xB10 PUSH8 0x3012CEC109420781 PUSH1 0xC0 SHL PUSH2 0x13F9 JUMP JUMPDEST PUSH2 0xB24 PUSH8 0x3F976D33910D6DDF PUSH1 0xC0 SHL PUSH2 0x13F9 JUMP JUMPDEST PUSH2 0xB38 PUSH8 0x2F9DAA505CEF0DFA PUSH1 0xC0 SHL PUSH2 0x13F9 JUMP JUMPDEST PUSH2 0xB4C PUSH8 0x123096962DC00BF3 PUSH1 0xC0 SHL PUSH2 0x13F9 JUMP JUMPDEST PUSH9 0x3635C9ADC5DEA00000 PUSH2 0xB5F SELFBALANCE PUSH2 0x13FC JUMP JUMPDEST LT ISZERO PUSH2 0xBA0 JUMPI PUSH1 0x40 MLOAD PUSH32 0x8C379A000000000000000000000000000000000000000000000000000000000 DUP2 MSTORE PUSH1 0x4 ADD PUSH2 0xB97 SWAP1 PUSH2 0x1A3F JUMP JUMPDEST PUSH1 0x40 MLOAD DUP1 SWAP2 SUB SWAP1 REVERT JUMPDEST PUSH2 0xBB4 PUSH8 0xDF301CF899DB3BE8 PUSH1 0xC0 SHL PUSH2 0x13F9 JUMP JUMPDEST PUSH2 0xBC8 PUSH8 0x4B475861FC774C17 PUSH1 0xC0 SHL PUSH2 0x13F9 JUMP JUMPDEST PUSH2 0xBDC PUSH8 0x3E63576F5F17BEA9 PUSH1 0xC0 SHL PUSH2 0x13F9 JUMP JUMPDEST PUSH1 0x0 PUSH2 0xBF2 PUSH8 0xB2972BDCF67AA0A4 PUSH1 0xC0 SHL PUSH2 0x13F9 JUMP JUMPDEST PUSH2 0xC06 PUSH8 0x97C14C816F0EF7FF PUSH1 0xC0 SHL PUSH2 0x13F9 JUMP JUMPDEST PUSH1 0x0 SELFBALANCE SWAP1 POP PUSH2 0xC1F PUSH8 0xFA17A724737E213C PUSH1 0xC0 SHL PUSH2 0x13F9 JUMP JUMPDEST CALLER PUSH20 0xFFFFFFFFFFFFFFFFFFFFFFFFFFFFFFFFFFFFFFFF AND DUP2 PUSH1 0x40 MLOAD PUSH2 0xC43 SWAP1 PUSH2 0x1949 JUMP JUMPDEST PUSH1 0x0 PUSH1 0x40 MLOAD DUP1 DUP4 SUB DUP2 DUP6 DUP8 GAS CALL SWAP3 POP POP POP RETURNDATASIZE DUP1 PUSH1 0x0 DUP2 EQ PUSH2 0xC80 JUMPI PUSH1 0x40 MLOAD SWAP2 POP PUSH1 0x1F NOT PUSH1 0x3F RETURNDATASIZE ADD AND DUP3 ADD PUSH1 0x40 MSTORE RETURNDATASIZE DUP3 MSTORE RETURNDATASIZE PUSH1 0x0 PUSH1 0x20 DUP5 ADD RETURNDATACOPY PUSH2 0xC85 JUMP JUMPDEST PUSH1 0x60 SWAP2 POP JUMPDEST POP POP DUP1 SWAP3 POP POP PUSH2 0xC9F PUSH8 0x571327C357466712 PUSH1 0xC0 SHL PUSH2 0x13F9 JUMP JUMPDEST PUSH2 0xCB3 PUSH8 0x122D209B51DEF21D PUSH1 0xC0 SHL PUSH2 0x13F9 JUMP JUMPDEST PUSH2 0xCC7 PUSH8 0xC82D5C5E28FFD425 PUSH1 0xC0 SHL PUSH2 0x13F9 JUMP JUMPDEST DUP2 PUSH2 0xD07 JUMPI PUSH1 0x40 MLOAD PUSH32 0x8C379A000000000000000000000000000000000000000000000000000000000 DUP2 MSTORE PUSH1 0x4 ADD PUSH2 0xCFE SWAP1 PUSH2 0x19AA JUMP JUMPDEST PUSH1 0x40 MLOAD DUP1 SWAP2 SUB SWAP1 REVERT JUMPDEST PUSH2 0xD1B PUSH8 0x9916EAC4AEFE55F PUSH1 0xC0 SHL PUSH2 0x13F9 JUMP JUMPDEST PUSH2 0xD2F PUSH8 0xB06DBC0FBEE0E748 PUSH1 0xC0 SHL PUSH2 0x13F9 JUMP JUMPDEST PUSH1 0x0 DUP1 PUSH1 0x0 CALLER PUSH20 0xFFFFFFFFFFFFFFFFFFFFFFFFFFFFFFFFFFFFFFFF AND PUSH20 0xFFFFFFFFFFFFFFFFFFFFFFFFFFFFFFFFFFFFFFFF AND DUP2 MSTORE PUSH1 0x20 ADD SWAP1 DUP2 MSTORE PUSH1 0x20 ADD PUSH1 0x0 KECCAK256 DUP2 SWAP1 SSTORE POP PUSH2 0xD87 PUSH8 0x9E6A2E5196834211 PUSH1 0xC0 SHL PUSH2 0x13F9 JUMP JUMPDEST PUSH1 0x1 PUSH1 0x5 PUSH1 0x14 PUSH2 0x100 EXP DUP2 SLOAD DUP2 PUSH1 0xFF MUL NOT AND SWAP1 DUP4 ISZERO ISZERO MUL OR SWAP1 SSTORE POP PUSH2 0xDB6 PUSH8 0x4AF5B69E6CD681F7 PUSH1 0xC0 SHL PUSH2 0x13F9 JUMP JUMPDEST PUSH2 0xDCA PUSH8 0x32FE6C559A4B6D4D PUSH1 0xC0 SHL PUSH2 0x13F9 JUMP JUMPDEST PUSH32 0x2413E9342F4545ED6B87AD890930D6AFFC4C1914B742A3FAD66C49D6D507C73B DUP2 PUSH1 0x40 MLOAD PUSH2 0xDF9 SWAP2 SWAP1 PUSH2 0x15DD JUMP JUMPDEST PUSH1 0x40 MLOAD DUP1 SWAP2 SUB SWAP1 LOG1 POP POP JUMP JUMPDEST PUSH1 0x1 PUSH1 0x0 SWAP1 SLOAD SWAP1 PUSH2 0x100 EXP SWAP1 DIV PUSH20 0xFFFFFFFFFFFFFFFFFFFFFFFFFFFFFFFFFFFFFFFF AND DUP2 JUMP JUMPDEST PUSH1 0x0 PUSH1 0x20 MSTORE DUP1 PUSH1 0x0 MSTORE PUSH1 0x40 PUSH1 0x0 KECCAK256 PUSH1 0x0 SWAP2 POP SWAP1 POP SLOAD DUP2 JUMP JUMPDEST PUSH2 0xE57 PUSH8 0xD368705A740F5573 PUSH1 0xC0 SHL PUSH2 0x13F9 JUMP JUMPDEST PUSH2 0xE6B PUSH8 0x3DDCB819B3431A03 PUSH1 0xC0 SHL PUSH2 0x13F9 JUMP JUMPDEST PUSH2 0xE7F PUSH8 0xDD3BC9A5274EECA6 PUSH1 0xC0 SHL PUSH2 0x13F9 JUMP JUMPDEST PUSH2 0xE93 PUSH8 0xF868645F22A08A83 PUSH1 0xC0 SHL PUSH2 0x13F9 JUMP JUMPDEST PUSH9 0x56BC75E2D63100000 PUSH2 0xEA6 CALLVALUE PUSH2 0x13FC JUMP JUMPDEST LT ISZERO PUSH2 0xEE7 JUMPI PUSH1 0x40 MLOAD PUSH32 0x8C379A000000000000000000000000000000000000000000000000000000000 DUP2 MSTORE PUSH1 0x4 ADD PUSH2 0xEDE SWAP1 PUSH2 0x1AAB JUMP JUMPDEST PUSH1 0x40 MLOAD DUP1 SWAP2 SUB SWAP1 REVERT JUMPDEST PUSH2 0xEFB PUSH8 0x663FC7A37FE7E6C5 PUSH1 0xC0 SHL PUSH2 0x13F9 JUMP JUMPDEST PUSH2 0xF0F PUSH8 0x772926EDAFDC9DE2 PUSH1 0xC0 SHL PUSH2 0x13F9 JUMP JUMPDEST PUSH2 0xF23 PUSH8 0xDEE5457F1ECF86F2 PUSH1 0xC0 SHL PUSH2 0x13F9 JUMP JUMPDEST PUSH2 0xF37 PUSH8 0xA320BB72BCFDDB31 PUSH1 0xC0 SHL PUSH2 0x13F9 JUMP JUMPDEST PUSH1 0x4 SLOAD PUSH1 0x3 SLOAD PUSH2 0xF47 SWAP2 SWAP1 PUSH2 0x17A0 JUMP JUMPDEST TIMESTAMP LT PUSH2 0xF88 JUMPI PUSH1 0x40 MLOAD PUSH32 0x8C379A000000000000000000000000000000000000000000000000000000000 DUP2 MSTORE PUSH1 0x4 ADD PUSH2 0xF7F SWAP1 PUSH2 0x1B17 JUMP JUMPDEST PUSH1 0x40 MLOAD DUP1 SWAP2 SUB SWAP1 REVERT JUMPDEST PUSH2 0xF9C PUSH8 0x517E45894F42B56 PUSH1 0xC0 SHL PUSH2 0x13F9 JUMP JUMPDEST PUSH2 0xFB0 PUSH8 0x4AD0166F3606EE77 PUSH1 0xC0 SHL PUSH2 0x13F9 JUMP JUMPDEST CALLVALUE PUSH1 0x0 DUP1 CALLER PUSH20 0xFFFFFFFFFFFFFFFFFFFFFFFFFFFFFFFFFFFFFFFF AND PUSH20 0xFFFFFFFFFFFFFFFFFFFFFFFFFFFFFFFFFFFFFFFF AND DUP2 MSTORE PUSH1 0x20 ADD SWAP1 DUP2 MSTORE PUSH1 0x20 ADD PUSH1 0x0 KECCAK256 DUP2 SWAP1 SSTORE POP JUMP JUMPDEST PUSH1 0x0 PUSH2 0x100B PUSH8 0xA3784E17B6E5D859 PUSH1 0xC0 SHL PUSH2 0x13F9 JUMP JUMPDEST PUSH2 0x101F PUSH8 0x5C3CAD7BA178EDB2 PUSH1 0xC0 SHL PUSH2 0x13F9 JUMP JUMPDEST PUSH2 0x1033 PUSH8 0x66B13EF4901AE27C PUSH1 0xC0 SHL PUSH2 0x13F9 JUMP JUMPDEST PUSH1 0x0 PUSH1 0x1 PUSH1 0x0 SWAP1 SLOAD SWAP1 PUSH2 0x100 EXP SWAP1 DIV PUSH20 0xFFFFFFFFFFFFFFFFFFFFFFFFFFFFFFFFFFFFFFFF AND PUSH20 0xFFFFFFFFFFFFFFFFFFFFFFFFFFFFFFFFFFFFFFFF AND PUSH4 0xFEAF968C PUSH1 0x40 MLOAD DUP2 PUSH4 0xFFFFFFFF AND PUSH1 0xE0 SHL DUP2 MSTORE PUSH1 0x4 ADD PUSH1 0xA0 PUSH1 0x40 MLOAD DUP1 DUP4 SUB DUP2 DUP7 GAS STATICCALL ISZERO DUP1 ISZERO PUSH2 0x10A2 JUMPI RETURNDATASIZE PUSH1 0x0 DUP1 RETURNDATACOPY RETURNDATASIZE PUSH1 0x0 REVERT JUMPDEST POP POP POP POP PUSH1 0x40 MLOAD RETURNDATASIZE PUSH1 0x1F NOT PUSH1 0x1F DUP3 ADD AND DUP3 ADD DUP1 PUSH1 0x40 MSTORE POP DUP2 ADD SWAP1 PUSH2 0x10C6 SWAP2 SWAP1 PUSH2 0x1BBA JUMP JUMPDEST POP POP POP SWAP2 POP POP PUSH2 0x10E0 PUSH8 0x6FBB78B2A32242FF PUSH1 0xC0 SHL PUSH2 0x13F9 JUMP JUMPDEST PUSH2 0x10F4 PUSH8 0x92F3C2ED0CBBCE5C PUSH1 0xC0 SHL PUSH2 0x13F9 JUMP JUMPDEST DUP1 SWAP2 POP POP SWAP1 JUMP JUMPDEST PUSH2 0x110F PUSH8 0x5455E27A43577D43 PUSH1 0xC0 SHL PUSH2 0x13F9 JUMP JUMPDEST PUSH2 0x1123 PUSH8 0x8533A04DBB21A9F5 PUSH1 0xC0 SHL PUSH2 0x13F9 JUMP JUMPDEST PUSH2 0x1137 PUSH8 0x1698A27C1E71B5FB PUSH1 0xC0 SHL PUSH2 0x13F9 JUMP JUMPDEST PUSH2 0x114B PUSH8 0xAF002C00E6400A8D PUSH1 0xC0 SHL PUSH2 0x13F9 JUMP JUMPDEST PUSH1 0x5 PUSH1 0x0 SWAP1 SLOAD SWAP1 PUSH2 0x100 EXP SWAP1 DIV PUSH20 0xFFFFFFFFFFFFFFFFFFFFFFFFFFFFFFFFFFFFFFFF AND PUSH20 0xFFFFFFFFFFFFFFFFFFFFFFFFFFFFFFFFFFFFFFFF AND CALLER PUSH20 0xFFFFFFFFFFFFFFFFFFFFFFFFFFFFFFFFFFFFFFFF AND EQ PUSH2 0x11DB JUMPI PUSH1 0x40 MLOAD PUSH32 0x8C379A000000000000000000000000000000000000000000000000000000000 DUP2 MSTORE PUSH1 0x4 ADD PUSH2 0x11D2 SWAP1 PUSH2 0x1CA7 JUMP JUMPDEST PUSH1 0x40 MLOAD DUP1 SWAP2 SUB SWAP1 REVERT JUMPDEST PUSH2 0x11EF PUSH8 0x53D6ACF97537D49E PUSH1 0xC0 SHL PUSH2 0x13F9 JUMP JUMPDEST PUSH2 0x1203 PUSH8 0xDCA3DDE60A72F6D0 PUSH1 0xC0 SHL PUSH2 0x13F9 JUMP JUMPDEST DUP1 PUSH1 0x0 DUP1 DUP5 PUSH20 0xFFFFFFFFFFFFFFFFFFFFFFFFFFFFFFFFFFFFFFFF AND PUSH20 0xFFFFFFFFFFFFFFFFFFFFFFFFFFFFFFFFFFFFFFFF AND DUP2 MSTORE PUSH1 0x20 ADD SWAP1 DUP2 MSTORE PUSH1 0x20 ADD PUSH1 0x0 KECCAK256 DUP2 SWAP1 SSTORE POP POP POP JUMP JUMPDEST PUSH1 0x5 PUSH1 0x14 SWAP1 SLOAD SWAP1 PUSH2 0x100 EXP SWAP1 DIV PUSH1 0xFF AND DUP2 JUMP JUMPDEST PUSH2 0x1271 PUSH8 0x9ECC5985EC3E9BB7 PUSH1 0xC0 SHL PUSH2 0x13F9 JUMP JUMPDEST PUSH2 0x1285 PUSH8 0xB29435BFE6F4D73E PUSH1 0xC0 SHL PUSH2 0x13F9 JUMP JUMPDEST PUSH2 0x1299 PUSH8 0x5EBC28CFA4DC5683 PUSH1 0xC0 SHL PUSH2 0x13F9 JUMP JUMPDEST PUSH2 0x12AD PUSH8 0x45C4F652E2462ED8 PUSH1 0xC0 SHL PUSH2 0x13F9 JUMP JUMPDEST PUSH2 0x12C1 PUSH8 0x6EF7D944E82D72CB PUSH1 0xC0 SHL PUSH2 0x13F9 JUMP JUMPDEST PUSH1 0x2 PUSH1 0x0 SWAP1 SLOAD SWAP1 PUSH2 0x100 EXP SWAP1 DIV PUSH20 0xFFFFFFFFFFFFFFFFFFFFFFFFFFFFFFFFFFFFFFFF AND PUSH20 0xFFFFFFFFFFFFFFFFFFFFFFFFFFFFFFFFFFFFFFFF AND CALLER PUSH20 0xFFFFFFFFFFFFFFFFFFFFFFFFFFFFFFFFFFFFFFFF AND EQ PUSH2 0x1351 JUMPI PUSH1 0x40 MLOAD PUSH32 0x8C379A000000000000000000000000000000000000000000000000000000000 DUP2 MSTORE PUSH1 0x4 ADD PUSH2 0x1348 SWAP1 PUSH2 0x1751 JUMP JUMPDEST PUSH1 0x40 MLOAD DUP1 SWAP2 SUB SWAP1 REVERT JUMPDEST PUSH2 0x1365 PUSH8 0xABEE07AD83F4CC80 PUSH1 0xC0 SHL PUSH2 0x13F9 JUMP JUMPDEST PUSH2 0x1379 PUSH8 0x44D7A8B9CEFC34F1 PUSH1 0xC0 SHL PUSH2 0x13F9 JUMP JUMPDEST PUSH2 0x138D PUSH8 0x9991AF7DE0DEC670 PUSH1 0xC0 SHL PUSH2 0x13F9 JUMP JUMPDEST PUSH2 0x13A1 PUSH8 0xAB3DEEEA471935E7 PUSH1 0xC0 SHL PUSH2 0x13F9 JUMP JUMPDEST PUSH2 0x13B5 PUSH8 0x7905EF3DF3F85E3D PUSH1 0xC0 SHL PUSH2 0x13F9 JUMP JUMPDEST DUP1 PUSH1 0x2 PUSH1 0x0 PUSH2 0x100 EXP DUP2 SLOAD DUP2 PUSH20 0xFFFFFFFFFFFFFFFFFFFFFFFFFFFFFFFFFFFFFFFF MUL NOT AND SWAP1 DUP4 PUSH20 0xFFFFFFFFFFFFFFFFFFFFFFFFFFFFFFFFFFFFFFFF AND MUL OR SWAP1 SSTORE POP POP JUMP JUMPDEST POP JUMP JUMPDEST PUSH1 0x0 PUSH2 0x1411 PUSH7 0x77013552917B86 PUSH1 0xC0 SHL PUSH2 0x13F9 JUMP JUMPDEST PUSH2 0x1425 PUSH8 0xE2C9DABD2ACCD51D PUSH1 0xC0 SHL PUSH2 0x13F9 JUMP JUMPDEST PUSH2 0x1439 PUSH8 0x782D4635862F91C3 PUSH1 0xC0 SHL PUSH2 0x13F9 JUMP JUMPDEST PUSH1 0x0 PUSH2 0x1443 PUSH2 0xFF5 JUMP JUMPDEST SWAP1 POP PUSH2 0x1459 PUSH8 0xEC12262754B17240 PUSH1 0xC0 SHL PUSH2 0x13F9 JUMP JUMPDEST PUSH2 0x146D PUSH8 0x3E316A3E53AF1A8D PUSH1 0xC0 SHL PUSH2 0x13F9 JUMP JUMPDEST PUSH4 0x5F5E100 DUP2 DUP5 PUSH2 0x147E SWAP2 SWAP1 PUSH2 0x1CC7 JUMP JUMPDEST PUSH2 0x1488 SWAP2 SWAP1 PUSH2 0x1D38 JUMP JUMPDEST SWAP2 POP POP SWAP2 SWAP1 POP JUMP JUMPDEST PUSH1 0x0 DUP1 REVERT JUMPDEST PUSH1 0x0 PUSH20 0xFFFFFFFFFFFFFFFFFFFFFFFFFFFFFFFFFFFFFFFF DUP3 AND SWAP1 POP SWAP2 SWAP1 POP JUMP JUMPDEST PUSH1 0x0 PUSH2 0x14C0 DUP3 PUSH2 0x1495 JUMP JUMPDEST SWAP1 POP SWAP2 SWAP1 POP JUMP JUMPDEST PUSH2 0x14D0 DUP2 PUSH2 0x14B5 JUMP JUMPDEST DUP2 EQ PUSH2 0x14DB JUMPI PUSH1 0x0 DUP1 REVERT JUMPDEST POP JUMP JUMPDEST PUSH1 0x0 DUP2 CALLDATALOAD SWAP1 POP PUSH2 0x14ED DUP2 PUSH2 0x14C7 JUMP JUMPDEST SWAP3 SWAP2 POP POP JUMP JUMPDEST PUSH1 0x0 PUSH1 0x20 DUP3 DUP5 SUB SLT ISZERO PUSH2 0x1509 JUMPI PUSH2 0x1508 PUSH2 0x1490 JUMP JUMPDEST JUMPDEST PUSH1 0x0 PUSH2 0x1517 DUP5 DUP3 DUP6 ADD PUSH2 0x14DE JUMP JUMPDEST SWAP2 POP POP SWAP3 SWAP2 POP POP JUMP JUMPDEST PUSH2 0x1529 DUP2 PUSH2 0x14B5 JUMP JUMPDEST DUP3 MSTORE POP POP JUMP JUMPDEST PUSH1 0x0 PUSH1 0x20 DUP3 ADD SWAP1 POP PUSH2 0x1544 PUSH1 0x0 DUP4 ADD DUP5 PUSH2 0x1520 JUMP JUMPDEST SWAP3 SWAP2 POP POP JUMP JUMPDEST PUSH1 0x0 DUP2 SWAP1 POP SWAP2 SWAP1 POP JUMP JUMPDEST PUSH1 0x0 PUSH2 0x156F PUSH2 0x156A PUSH2 0x1565 DUP5 PUSH2 0x1495 JUMP JUMPDEST PUSH2 0x154A JUMP JUMPDEST PUSH2 0x1495 JUMP JUMPDEST SWAP1 POP SWAP2 SWAP1 POP JUMP JUMPDEST PUSH1 0x0 PUSH2 0x1581 DUP3 PUSH2 0x1554 JUMP JUMPDEST SWAP1 POP SWAP2 SWAP1 POP JUMP JUMPDEST PUSH1 0x0 PUSH2 0x1593 DUP3 PUSH2 0x1576 JUMP JUMPDEST SWAP1 POP SWAP2 SWAP1 POP JUMP JUMPDEST PUSH2 0x15A3 DUP2 PUSH2 0x1588 JUMP JUMPDEST DUP3 MSTORE POP POP JUMP JUMPDEST PUSH1 0x0 PUSH1 0x20 DUP3 ADD SWAP1 POP PUSH2 0x15BE PUSH1 0x0 DUP4 ADD DUP5 PUSH2 0x159A JUMP JUMPDEST SWAP3 SWAP2 POP POP JUMP JUMPDEST PUSH1 0x0 DUP2 SWAP1 POP SWAP2 SWAP1 POP JUMP JUMPDEST PUSH2 0x15D7 DUP2 PUSH2 0x15C4 JUMP JUMPDEST DUP3 MSTORE POP POP JUMP JUMPDEST PUSH1 0x0 PUSH1 0x20 DUP3 ADD SWAP1 POP PUSH2 0x15F2 PUSH1 0x0 DUP4 ADD DUP5 PUSH2 0x15CE JUMP JUMPDEST SWAP3 SWAP2 POP POP JUMP JUMPDEST PUSH1 0x0 DUP2 SWAP1 POP SWAP2 SWAP1 POP JUMP JUMPDEST PUSH2 0x160B DUP2 PUSH2 0x15F8 JUMP JUMPDEST DUP3 MSTORE POP POP JUMP JUMPDEST PUSH1 0x0 PUSH1 0x20 DUP3 ADD SWAP1 POP PUSH2 0x1626 PUSH1 0x0 DUP4 ADD DUP5 PUSH2 0x1602 JUMP JUMPDEST SWAP3 SWAP2 POP POP JUMP JUMPDEST PUSH2 0x1635 DUP2 PUSH2 0x15C4 JUMP JUMPDEST DUP2 EQ PUSH2 0x1640 JUMPI PUSH1 0x0 DUP1 REVERT JUMPDEST POP JUMP JUMPDEST PUSH1 0x0 DUP2 CALLDATALOAD SWAP1 POP PUSH2 0x1652 DUP2 PUSH2 0x162C JUMP JUMPDEST SWAP3 SWAP2 POP POP JUMP JUMPDEST PUSH1 0x0 DUP1 PUSH1 0x40 DUP4 DUP6 SUB SLT ISZERO PUSH2 0x166F JUMPI PUSH2 0x166E PUSH2 0x1490 JUMP JUMPDEST JUMPDEST PUSH1 0x0 PUSH2 0x167D DUP6 DUP3 DUP7 ADD PUSH2 0x14DE JUMP JUMPDEST SWAP3 POP POP PUSH1 0x20 PUSH2 0x168E DUP6 DUP3 DUP7 ADD PUSH2 0x1643 JUMP JUMPDEST SWAP2 POP POP SWAP3 POP SWAP3 SWAP1 POP JUMP JUMPDEST PUSH1 0x0 DUP2 ISZERO ISZERO SWAP1 POP SWAP2 SWAP1 POP JUMP JUMPDEST PUSH2 0x16AD DUP2 PUSH2 0x1698 JUMP JUMPDEST DUP3 MSTORE POP POP JUMP JUMPDEST PUSH1 0x0 PUSH1 0x20 DUP3 ADD SWAP1 POP PUSH2 0x16C8 PUSH1 0x0 DUP4 ADD DUP5 PUSH2 0x16A4 JUMP JUMPDEST SWAP3 SWAP2 POP POP JUMP JUMPDEST PUSH1 0x0 DUP3 DUP3 MSTORE PUSH1 0x20 DUP3 ADD SWAP1 POP SWAP3 SWAP2 POP POP JUMP JUMPDEST PUSH32 0x746869732066756E6374696F6E2063616E206F6E6C792062652063616C6C6564 PUSH1 0x0 DUP3 ADD MSTORE PUSH32 0x206279206F776E65720000000000000000000000000000000000000000000000 PUSH1 0x20 DUP3 ADD MSTORE POP JUMP JUMPDEST PUSH1 0x0 PUSH2 0x173B PUSH1 0x29 DUP4 PUSH2 0x16CE JUMP JUMPDEST SWAP2 POP PUSH2 0x1746 DUP3 PUSH2 0x16DF JUMP JUMPDEST PUSH1 0x40 DUP3 ADD SWAP1 POP SWAP2 SWAP1 POP JUMP JUMPDEST PUSH1 0x0 PUSH1 0x20 DUP3 ADD SWAP1 POP DUP2 DUP2 SUB PUSH1 0x0 DUP4 ADD MSTORE PUSH2 0x176A DUP2 PUSH2 0x172E JUMP JUMPDEST SWAP1 POP SWAP2 SWAP1 POP JUMP JUMPDEST PUSH32 0x4E487B7100000000000000000000000000000000000000000000000000000000 PUSH1 0x0 MSTORE PUSH1 0x11 PUSH1 0x4 MSTORE PUSH1 0x24 PUSH1 0x0 REVERT JUMPDEST PUSH1 0x0 PUSH2 0x17AB DUP3 PUSH2 0x15C4 JUMP JUMPDEST SWAP2 POP PUSH2 0x17B6 DUP4 PUSH2 0x15C4 JUMP JUMPDEST SWAP3 POP DUP3 DUP3 ADD SWAP1 POP DUP1 DUP3 GT ISZERO PUSH2 0x17CE JUMPI PUSH2 0x17CD PUSH2 0x1771 JUMP JUMPDEST JUMPDEST SWAP3 SWAP2 POP POP JUMP JUMPDEST PUSH32 0x77696E646F77206973206E6F7420636C6F736564000000000000000000000000 PUSH1 0x0 DUP3 ADD MSTORE POP JUMP JUMPDEST PUSH1 0x0 PUSH2 0x180A PUSH1 0x14 DUP4 PUSH2 0x16CE JUMP JUMPDEST SWAP2 POP PUSH2 0x1815 DUP3 PUSH2 0x17D4 JUMP JUMPDEST PUSH1 0x20 DUP3 ADD SWAP1 POP SWAP2 SWAP1 POP JUMP JUMPDEST PUSH1 0x0 PUSH1 0x20 DUP3 ADD SWAP1 POP DUP2 DUP2 SUB PUSH1 0x0 DUP4 ADD MSTORE PUSH2 0x1839 DUP2 PUSH2 0x17FD JUMP JUMPDEST SWAP1 POP SWAP2 SWAP1 POP JUMP JUMPDEST PUSH32 0x5461726765742069732072656163686564000000000000000000000000000000 PUSH1 0x0 DUP3 ADD MSTORE POP JUMP JUMPDEST PUSH1 0x0 PUSH2 0x1876 PUSH1 0x11 DUP4 PUSH2 0x16CE JUMP JUMPDEST SWAP2 POP PUSH2 0x1881 DUP3 PUSH2 0x1840 JUMP JUMPDEST PUSH1 0x20 DUP3 ADD SWAP1 POP SWAP2 SWAP1 POP JUMP JUMPDEST PUSH1 0x0 PUSH1 0x20 DUP3 ADD SWAP1 POP DUP2 DUP2 SUB PUSH1 0x0 DUP4 ADD MSTORE PUSH2 0x18A5 DUP2 PUSH2 0x1869 JUMP JUMPDEST SWAP1 POP SWAP2 SWAP1 POP JUMP JUMPDEST PUSH32 0x7468657265206973206E6F2066756E6420666F7220796F750000000000000000 PUSH1 0x0 DUP3 ADD MSTORE POP JUMP JUMPDEST PUSH1 0x0 PUSH2 0x18E2 PUSH1 0x18 DUP4 PUSH2 0x16CE JUMP JUMPDEST SWAP2 POP PUSH2 0x18ED DUP3 PUSH2 0x18AC JUMP JUMPDEST PUSH1 0x20 DUP3 ADD SWAP1 POP SWAP2 SWAP1 POP JUMP JUMPDEST PUSH1 0x0 PUSH1 0x20 DUP3 ADD SWAP1 POP DUP2 DUP2 SUB PUSH1 0x0 DUP4 ADD MSTORE PUSH2 0x1911 DUP2 PUSH2 0x18D5 JUMP JUMPDEST SWAP1 POP SWAP2 SWAP1 POP JUMP JUMPDEST PUSH1 0x0 DUP2 SWAP1 POP SWAP3 SWAP2 POP POP JUMP JUMPDEST POP JUMP JUMPDEST PUSH1 0x0 PUSH2 0x1933 PUSH1 0x0 DUP4 PUSH2 0x1918 JUMP JUMPDEST SWAP2 POP PUSH2 0x193E DUP3 PUSH2 0x1923 JUMP JUMPDEST PUSH1 0x0 DUP3 ADD SWAP1 POP SWAP2 SWAP1 POP JUMP JUMPDEST PUSH1 0x0 PUSH2 0x1954 DUP3 PUSH2 0x1926 JUMP JUMPDEST SWAP2 POP DUP2 SWAP1 POP SWAP2 SWAP1 POP JUMP JUMPDEST PUSH32 0x7472616E73666572207478206661696C65640000000000000000000000000000 PUSH1 0x0 DUP3 ADD MSTORE POP JUMP JUMPDEST PUSH1 0x0 PUSH2 0x1994 PUSH1 0x12 DUP4 PUSH2 0x16CE JUMP JUMPDEST SWAP2 POP PUSH2 0x199F DUP3 PUSH2 0x195E JUMP JUMPDEST PUSH1 0x20 DUP3 ADD SWAP1 POP SWAP2 SWAP1 POP JUMP JUMPDEST PUSH1 0x0 PUSH1 0x20 DUP3 ADD SWAP1 POP DUP2 DUP2 SUB PUSH1 0x0 DUP4 ADD MSTORE PUSH2 0x19C3 DUP2 PUSH2 0x1987 JUMP JUMPDEST SWAP1 POP SWAP2 SWAP1 POP JUMP JUMPDEST PUSH1 0x0 PUSH1 0x40 DUP3 ADD SWAP1 POP PUSH2 0x19DF PUSH1 0x0 DUP4 ADD DUP6 PUSH2 0x1520 JUMP JUMPDEST PUSH2 0x19EC PUSH1 0x20 DUP4 ADD DUP5 PUSH2 0x15CE JUMP JUMPDEST SWAP4 SWAP3 POP POP POP JUMP JUMPDEST PUSH32 0x546172676574206973206E6F7420726561636865640000000000000000000000 PUSH1 0x0 DUP3 ADD MSTORE POP JUMP JUMPDEST PUSH1 0x0 PUSH2 0x1A29 PUSH1 0x15 DUP4 PUSH2 0x16CE JUMP JUMPDEST SWAP2 POP PUSH2 0x1A34 DUP3 PUSH2 0x19F3 JUMP JUMPDEST PUSH1 0x20 DUP3 ADD SWAP1 POP SWAP2 SWAP1 POP JUMP JUMPDEST PUSH1 0x0 PUSH1 0x20 DUP3 ADD SWAP1 POP DUP2 DUP2 SUB PUSH1 0x0 DUP4 ADD MSTORE PUSH2 0x1A58 DUP2 PUSH2 0x1A1C JUMP JUMPDEST SWAP1 POP SWAP2 SWAP1 POP JUMP JUMPDEST PUSH32 0x53656E64206D6F72652045544800000000000000000000000000000000000000 PUSH1 0x0 DUP3 ADD MSTORE POP JUMP JUMPDEST PUSH1 0x0 PUSH2 0x1A95 PUSH1 0xD DUP4 PUSH2 0x16CE JUMP JUMPDEST SWAP2 POP PUSH2 0x1AA0 DUP3 PUSH2 0x1A5F JUMP JUMPDEST PUSH1 0x20 DUP3 ADD SWAP1 POP SWAP2 SWAP1 POP JUMP JUMPDEST PUSH1 0x0 PUSH1 0x20 DUP3 ADD SWAP1 POP DUP2 DUP2 SUB PUSH1 0x0 DUP4 ADD MSTORE PUSH2 0x1AC4 DUP2 PUSH2 0x1A88 JUMP JUMPDEST SWAP1 POP SWAP2 SWAP1 POP JUMP JUMPDEST PUSH32 0x77696E646F7720697320636C6F73656400000000000000000000000000000000 PUSH1 0x0 DUP3 ADD MSTORE POP JUMP JUMPDEST PUSH1 0x0 PUSH2 0x1B01 PUSH1 0x10 DUP4 PUSH2 0x16CE JUMP JUMPDEST SWAP2 POP PUSH2 0x1B0C DUP3 PUSH2 0x1ACB JUMP JUMPDEST PUSH1 0x20 DUP3 ADD SWAP1 POP SWAP2 SWAP1 POP JUMP JUMPDEST PUSH1 0x0 PUSH1 0x20 DUP3 ADD SWAP1 POP DUP2 DUP2 SUB PUSH1 0x0 DUP4 ADD MSTORE PUSH2 0x1B30 DUP2 PUSH2 0x1AF4 JUMP JUMPDEST SWAP1 POP SWAP2 SWAP1 POP JUMP JUMPDEST PUSH1 0x0 PUSH10 0xFFFFFFFFFFFFFFFFFFFF DUP3 AND SWAP1 POP SWAP2 SWAP1 POP JUMP JUMPDEST PUSH2 0x1B56 DUP2 PUSH2 0x1B37 JUMP JUMPDEST DUP2 EQ PUSH2 0x1B61 JUMPI PUSH1 0x0 DUP1 REVERT JUMPDEST POP JUMP JUMPDEST PUSH1 0x0 DUP2 MLOAD SWAP1 POP PUSH2 0x1B73 DUP2 PUSH2 0x1B4D JUMP JUMPDEST SWAP3 SWAP2 POP POP JUMP JUMPDEST PUSH2 0x1B82 DUP2 PUSH2 0x15F8 JUMP JUMPDEST DUP2 EQ PUSH2 0x1B8D JUMPI PUSH1 0x0 DUP1 REVERT JUMPDEST POP JUMP JUMPDEST PUSH1 0x0 DUP2 MLOAD SWAP1 POP PUSH2 0x1B9F DUP2 PUSH2 0x1B79 JUMP JUMPDEST SWAP3 SWAP2 POP POP JUMP JUMPDEST PUSH1 0x0 DUP2 MLOAD SWAP1 POP PUSH2 0x1BB4 DUP2 PUSH2 0x162C JUMP JUMPDEST SWAP3 SWAP2 POP POP JUMP JUMPDEST PUSH1 0x0 DUP1 PUSH1 0x0 DUP1 PUSH1 0x0 PUSH1 0xA0 DUP7 DUP9 SUB SLT ISZERO PUSH2 0x1BD6 JUMPI PUSH2 0x1BD5 PUSH2 0x1490 JUMP JUMPDEST JUMPDEST PUSH1 0x0 PUSH2 0x1BE4 DUP9 DUP3 DUP10 ADD PUSH2 0x1B64 JUMP JUMPDEST SWAP6 POP POP PUSH1 0x20 PUSH2 0x1BF5 DUP9 DUP3 DUP10 ADD PUSH2 0x1B90 JUMP JUMPDEST SWAP5 POP POP PUSH1 0x40 PUSH2 0x1C06 DUP9 DUP3 DUP10 ADD PUSH2 0x1BA5 JUMP JUMPDEST SWAP4 POP POP PUSH1 0x60 PUSH2 0x1C17 DUP9 DUP3 DUP10 ADD PUSH2 0x1BA5 JUMP JUMPDEST SWAP3 POP POP PUSH1 0x80 PUSH2 0x1C28 DUP9 DUP3 DUP10 ADD PUSH2 0x1B64 JUMP JUMPDEST SWAP2 POP POP SWAP3 SWAP6 POP SWAP3 SWAP6 SWAP1 SWAP4 POP JUMP JUMPDEST PUSH32 0x796F7520646F206E6F742068617665207065726D697373696F6E20746F206361 PUSH1 0x0 DUP3 ADD MSTORE PUSH32 0x6C6C20746869732066756E74696F6E0000000000000000000000000000000000 PUSH1 0x20 DUP3 ADD MSTORE POP JUMP JUMPDEST PUSH1 0x0 PUSH2 0x1C91 PUSH1 0x2F DUP4 PUSH2 0x16CE JUMP JUMPDEST SWAP2 POP PUSH2 0x1C9C DUP3 PUSH2 0x1C35 JUMP JUMPDEST PUSH1 0x40 DUP3 ADD SWAP1 POP SWAP2 SWAP1 POP JUMP JUMPDEST PUSH1 0x0 PUSH1 0x20 DUP3 ADD SWAP1 POP DUP2 DUP2 SUB PUSH1 0x0 DUP4 ADD MSTORE PUSH2 0x1CC0 DUP2 PUSH2 0x1C84 JUMP JUMPDEST SWAP1 POP SWAP2 SWAP1 POP JUMP JUMPDEST PUSH1 0x0 PUSH2 0x1CD2 DUP3 PUSH2 0x15C4 JUMP JUMPDEST SWAP2 POP PUSH2 0x1CDD DUP4 PUSH2 0x15C4 JUMP JUMPDEST SWAP3 POP DUP3 DUP3 MUL PUSH2 0x1CEB DUP2 PUSH2 0x15C4 JUMP JUMPDEST SWAP2 POP DUP3 DUP3 DIV DUP5 EQ DUP4 ISZERO OR PUSH2 0x1D02 JUMPI PUSH2 0x1D01 PUSH2 0x1771 JUMP JUMPDEST JUMPDEST POP SWAP3 SWAP2 POP POP JUMP JUMPDEST PUSH32 0x4E487B7100000000000000000000000000000000000000000000000000000000 PUSH1 0x0 MSTORE PUSH1 0x12 PUSH1 0x4 MSTORE PUSH1 0x24 PUSH1 0x0 REVERT JUMPDEST PUSH1 0x0 PUSH2 0x1D43 DUP3 PUSH2 0x15C4 JUMP JUMPDEST SWAP2 POP PUSH2 0x1D4E DUP4 PUSH2 0x15C4 JUMP JUMPDEST SWAP3 POP DUP3 PUSH2 0x1D5E JUMPI PUSH2 0x1D5D PUSH2 0x1D09 JUMP JUMPDEST JUMPDEST DUP3 DUP3 DIV SWAP1 POP SWAP3 SWAP2 POP POP JUMP INVALID LOG2 PUSH5 0x6970667358 0x22 SLT KECCAK256 PUSH3 0xB0EA71 DUP6 0xC3 TIMESTAMP 0xDF 0xA8 0xDD PUSH6 0x3647CEE2D741 0x4F SWAP3 PUSH17 0x47F272C72CFBDFD48DC08F9A64736F6C63 NUMBER STOP ADDMOD XOR STOP CALLER "},"gasEstimates":{"creation":{"codeDepositCost":"1516600","executionCost":"infinite","totalCost":"infinite"},"external":{"dataFeed()":"infinite","fund()":"infinite","fundersToAmount(address)":"2814","getChainlinkDataFeedLatestAnswer()":"infinite","getFund()":"infinite","getFundSuccess()":"2609","owner()":"2559","refund()":"infinite","setErc20Addr(address)":"infinite","setFunderToAmount(address,uint256)":"infinite","transferOwnership(address)":"infinite"},"internal":{"c_d31433b2(bytes8)":"11","c_falsed31433b2(bytes8)":"infinite","c_trued31433b2(bytes8)":"infinite","convertEthToUsd(uint256)":"infinite"}},"methodIdentifiers":{"dataFeed()":"9e42ff90","fund()":"b60d4288","fundersToAmount(address)":"9f883a05","getChainlinkDataFeedLatestAnswer()":"bea4dfb5","getFund()":"8edd6eb6","getFundSuccess()":"da4658e0","owner()":"8da5cb5b","refund()":"590e1ae3","setErc20Addr(address)":"13ffff01","setFunderToAmount(address,uint256)":"d39cf006","transferOwnership(address)":"f2fde38b"}},"storageLayout":{"storage":[{"astId":450,"contract":"contracts/FundMe.sol:FundMe","label":"fundersToAmount","offset":0,"slot":"0","type":"t_mapping(t_address,t_uint256)"},{"astId":460,"contract":"contracts/FundMe.sol:FundMe","label":"dataFeed","offset":0,"slot":"1","type":"t_contract(AggregatorV3Interface)104"},{"astId":469,"contract":"contracts/FundMe.sol:FundMe","label":"owner","offset":0,"slot":"2","type":"t_address"},{"astId":471,"contract":"contracts/FundMe.sol:FundMe","label":"deploymentTimestamp","offset":0,"slot":"3","type":"t_uint256"},{"astId":473,"contract":"contracts/FundMe.sol:FundMe","label":"lockTime","offset":0,"slot":"4","type":"t_uint256"},{"astId":475,"contract":"contracts/FundMe.sol:FundMe","label":"erc20Addr","offset":0,"slot":"5","type":"t_address"},{"astId":478,"contract":"contracts/FundMe.sol:FundMe","label":"getFundSuccess","offset":20,"slot":"5","type":"t_bool"}],"types":{"t_address":{"encoding":"inplace","label":"address","numberOfBytes":"20"},"t_bool":{"encoding":"inplace","label":"bool","numberOfBytes":"1"},"t_contract(AggregatorV3Interface)104":{"encoding":"inplace","label":"contract AggregatorV3Interface","numberOfBytes":"20"},"t_mapping(t_address,t_uint256)":{"encoding":"mapping","key":"t_address","label":"mapping(address => uint256)","numberOfBytes":"32","value":"t_uint256"},"t_uint256":{"encoding":"inplace","label":"uint256","numberOfBytes":"32"}}},"userdoc":{"kind":"user","methods":{},"version":1}}}}