{
	"solidityByExample/contract/004Variales.sol": {
		"Variables": {
			"abi": [
				{
					"inputs": [],
					"name": "a",
					"outputs": [
						{
							"internalType": "int32",
							"name": "",
							"type": "int32"
						}
					],
					"stateMutability": "view",
					"type": "function"
				},
				{
					"inputs": [],
					"name": "doSomething",
					"outputs": [
						{
							"internalType": "uint256",
							"name": "",
							"type": "uint256"
						},
						{
							"internalType": "address",
							"name": "",
							"type": "address"
						}
					],
					"stateMutability": "view",
					"type": "function"
				},
				{
					"inputs": [],
					"name": "text",
					"outputs": [
						{
							"internalType": "string",
							"name": "",
							"type": "string"
						}
					],
					"stateMutability": "view",
					"type": "function"
				}
			],
			"devdoc": {
				"kind": "dev",
				"methods": {},
				"version": 1
			},
			"evm": {
				"assembly": "    /* \"solidityByExample/contract/004Variales.sol\":63:693  contract Variables{... */\n  mstore(0x40, 0x80)\n    /* \"solidityByExample/contract/004Variales.sol\":105:120  type(int32).min */\n  0xffffffffffffffffffffffffffffffffffffffffffffffffffffffff80000000\n    /* \"solidityByExample/contract/004Variales.sol\":88:120  int32 public a = type(int32).min */\n  0x00\n  dup1\n  0x0100\n  exp\n  dup2\n  sload\n  dup2\n  0xffffffff\n  mul\n  not\n  and\n  swap1\n  dup4\n  0x03\n  signextend\n  0xffffffff\n  and\n  mul\n  or\n  swap1\n  sstore\n  pop\n    /* \"solidityByExample/contract/004Variales.sol\":405:438  string public text = \"Hello,Fred\" */\n  mload(0x40)\n  dup1\n  0x40\n  add\n  0x40\n  mstore\n  dup1\n  0x0a\n  dup2\n  mstore\n  0x20\n  add\n  0x48656c6c6f2c4672656400000000000000000000000000000000000000000000\n  dup2\n  mstore\n  pop\n  0x01\n  swap1\n  dup2\n  tag_1\n  swap2\n  swap1\n  tag_2\n  jump\t// in\ntag_1:\n  pop\n    /* \"solidityByExample/contract/004Variales.sol\":459:461  88 */\n  0x58\n    /* \"solidityByExample/contract/004Variales.sol\":447:461  uint numa = 88 */\n  0x02\n  sstore\n    /* \"solidityByExample/contract/004Variales.sol\":63:693  contract Variables{... */\n  callvalue\n  dup1\n  iszero\n  tag_3\n  jumpi\n  0x00\n  dup1\n  revert\ntag_3:\n  pop\n  jump(tag_4)\n    /* \"#utility.yul\":7:106   */\ntag_5:\n    /* \"#utility.yul\":59:65   */\n  0x00\n    /* \"#utility.yul\":93:98   */\n  dup2\n    /* \"#utility.yul\":87:99   */\n  mload\n    /* \"#utility.yul\":77:99   */\n  swap1\n  pop\n    /* \"#utility.yul\":7:106   */\n  swap2\n  swap1\n  pop\n  jump\t// out\n    /* \"#utility.yul\":112:292   */\ntag_6:\n    /* \"#utility.yul\":160:237   */\n  0x4e487b7100000000000000000000000000000000000000000000000000000000\n    /* \"#utility.yul\":157:158   */\n  0x00\n    /* \"#utility.yul\":150:238   */\n  mstore\n    /* \"#utility.yul\":257:261   */\n  0x41\n    /* \"#utility.yul\":254:255   */\n  0x04\n    /* \"#utility.yul\":247:262   */\n  mstore\n    /* \"#utility.yul\":281:285   */\n  0x24\n    /* \"#utility.yul\":278:279   */\n  0x00\n    /* \"#utility.yul\":271:286   */\n  revert\n    /* \"#utility.yul\":298:478   */\ntag_7:\n    /* \"#utility.yul\":346:423   */\n  0x4e487b7100000000000000000000000000000000000000000000000000000000\n    /* \"#utility.yul\":343:344   */\n  0x00\n    /* \"#utility.yul\":336:424   */\n  mstore\n    /* \"#utility.yul\":443:447   */\n  0x22\n    /* \"#utility.yul\":440:441   */\n  0x04\n    /* \"#utility.yul\":433:448   */\n  mstore\n    /* \"#utility.yul\":467:471   */\n  0x24\n    /* \"#utility.yul\":464:465   */\n  0x00\n    /* \"#utility.yul\":457:472   */\n  revert\n    /* \"#utility.yul\":484:804   */\ntag_8:\n    /* \"#utility.yul\":528:534   */\n  0x00\n    /* \"#utility.yul\":565:566   */\n  0x02\n    /* \"#utility.yul\":559:563   */\n  dup3\n    /* \"#utility.yul\":555:567   */\n  div\n    /* \"#utility.yul\":545:567   */\n  swap1\n  pop\n    /* \"#utility.yul\":612:613   */\n  0x01\n    /* \"#utility.yul\":606:610   */\n  dup3\n    /* \"#utility.yul\":602:614   */\n  and\n    /* \"#utility.yul\":633:651   */\n  dup1\n    /* \"#utility.yul\":623:704   */\n  tag_30\n  jumpi\n    /* \"#utility.yul\":689:693   */\n  0x7f\n    /* \"#utility.yul\":681:687   */\n  dup3\n    /* \"#utility.yul\":677:694   */\n  and\n    /* \"#utility.yul\":667:694   */\n  swap2\n  pop\n    /* \"#utility.yul\":623:704   */\ntag_30:\n    /* \"#utility.yul\":751:753   */\n  0x20\n    /* \"#utility.yul\":743:749   */\n  dup3\n    /* \"#utility.yul\":740:754   */\n  lt\n    /* \"#utility.yul\":720:738   */\n  dup2\n    /* \"#utility.yul\":717:755   */\n  sub\n    /* \"#utility.yul\":714:798   */\n  tag_31\n  jumpi\n    /* \"#utility.yul\":770:788   */\n  tag_32\n  tag_7\n  jump\t// in\ntag_32:\n    /* \"#utility.yul\":714:798   */\ntag_31:\n    /* \"#utility.yul\":535:804   */\n  pop\n    /* \"#utility.yul\":484:804   */\n  swap2\n  swap1\n  pop\n  jump\t// out\n    /* \"#utility.yul\":810:951   */\ntag_9:\n    /* \"#utility.yul\":859:863   */\n  0x00\n    /* \"#utility.yul\":882:885   */\n  dup2\n    /* \"#utility.yul\":874:885   */\n  swap1\n  pop\n    /* \"#utility.yul\":905:908   */\n  dup2\n    /* \"#utility.yul\":902:903   */\n  0x00\n    /* \"#utility.yul\":895:909   */\n  mstore\n    /* \"#utility.yul\":939:943   */\n  0x20\n    /* \"#utility.yul\":936:937   */\n  0x00\n    /* \"#utility.yul\":926:944   */\n  keccak256\n    /* \"#utility.yul\":918:944   */\n  swap1\n  pop\n    /* \"#utility.yul\":810:951   */\n  swap2\n  swap1\n  pop\n  jump\t// out\n    /* \"#utility.yul\":957:1050   */\ntag_10:\n    /* \"#utility.yul\":994:1000   */\n  0x00\n    /* \"#utility.yul\":1041:1043   */\n  0x20\n    /* \"#utility.yul\":1036:1038   */\n  0x1f\n    /* \"#utility.yul\":1029:1034   */\n  dup4\n    /* \"#utility.yul\":1025:1039   */\n  add\n    /* \"#utility.yul\":1021:1044   */\n  div\n    /* \"#utility.yul\":1011:1044   */\n  swap1\n  pop\n    /* \"#utility.yul\":957:1050   */\n  swap2\n  swap1\n  pop\n  jump\t// out\n    /* \"#utility.yul\":1056:1163   */\ntag_11:\n    /* \"#utility.yul\":1100:1108   */\n  0x00\n    /* \"#utility.yul\":1150:1155   */\n  dup3\n    /* \"#utility.yul\":1144:1148   */\n  dup3\n    /* \"#utility.yul\":1140:1156   */\n  shl\n    /* \"#utility.yul\":1119:1156   */\n  swap1\n  pop\n    /* \"#utility.yul\":1056:1163   */\n  swap3\n  swap2\n  pop\n  pop\n  jump\t// out\n    /* \"#utility.yul\":1169:1562   */\ntag_12:\n    /* \"#utility.yul\":1238:1244   */\n  0x00\n    /* \"#utility.yul\":1288:1289   */\n  0x08\n    /* \"#utility.yul\":1276:1286   */\n  dup4\n    /* \"#utility.yul\":1272:1290   */\n  mul\n    /* \"#utility.yul\":1311:1408   */\n  tag_37\n    /* \"#utility.yul\":1341:1407   */\n  0xffffffffffffffffffffffffffffffffffffffffffffffffffffffffffffffff\n    /* \"#utility.yul\":1330:1339   */\n  dup3\n    /* \"#utility.yul\":1311:1408   */\n  tag_11\n  jump\t// in\ntag_37:\n    /* \"#utility.yul\":1429:1468   */\n  tag_38\n    /* \"#utility.yul\":1459:1467   */\n  dup7\n    /* \"#utility.yul\":1448:1457   */\n  dup4\n    /* \"#utility.yul\":1429:1468   */\n  tag_11\n  jump\t// in\ntag_38:\n    /* \"#utility.yul\":1417:1468   */\n  swap6\n  pop\n    /* \"#utility.yul\":1501:1505   */\n  dup1\n    /* \"#utility.yul\":1497:1506   */\n  not\n    /* \"#utility.yul\":1490:1495   */\n  dup5\n    /* \"#utility.yul\":1486:1507   */\n  and\n    /* \"#utility.yul\":1477:1507   */\n  swap4\n  pop\n    /* \"#utility.yul\":1550:1554   */\n  dup1\n    /* \"#utility.yul\":1540:1548   */\n  dup7\n    /* \"#utility.yul\":1536:1555   */\n  and\n    /* \"#utility.yul\":1529:1534   */\n  dup5\n    /* \"#utility.yul\":1526:1556   */\n  or\n    /* \"#utility.yul\":1516:1556   */\n  swap3\n  pop\n    /* \"#utility.yul\":1245:1562   */\n  pop\n  pop\n    /* \"#utility.yul\":1169:1562   */\n  swap4\n  swap3\n  pop\n  pop\n  pop\n  jump\t// out\n    /* \"#utility.yul\":1568:1645   */\ntag_13:\n    /* \"#utility.yul\":1605:1612   */\n  0x00\n    /* \"#utility.yul\":1634:1639   */\n  dup2\n    /* \"#utility.yul\":1623:1639   */\n  swap1\n  pop\n    /* \"#utility.yul\":1568:1645   */\n  swap2\n  swap1\n  pop\n  jump\t// out\n    /* \"#utility.yul\":1651:1711   */\ntag_14:\n    /* \"#utility.yul\":1679:1682   */\n  0x00\n    /* \"#utility.yul\":1700:1705   */\n  dup2\n    /* \"#utility.yul\":1693:1705   */\n  swap1\n  pop\n    /* \"#utility.yul\":1651:1711   */\n  swap2\n  swap1\n  pop\n  jump\t// out\n    /* \"#utility.yul\":1717:1859   */\ntag_15:\n    /* \"#utility.yul\":1767:1776   */\n  0x00\n    /* \"#utility.yul\":1800:1853   */\n  tag_42\n    /* \"#utility.yul\":1818:1852   */\n  tag_43\n    /* \"#utility.yul\":1827:1851   */\n  tag_44\n    /* \"#utility.yul\":1845:1850   */\n  dup5\n    /* \"#utility.yul\":1827:1851   */\n  tag_13\n  jump\t// in\ntag_44:\n    /* \"#utility.yul\":1818:1852   */\n  tag_14\n  jump\t// in\ntag_43:\n    /* \"#utility.yul\":1800:1853   */\n  tag_13\n  jump\t// in\ntag_42:\n    /* \"#utility.yul\":1787:1853   */\n  swap1\n  pop\n    /* \"#utility.yul\":1717:1859   */\n  swap2\n  swap1\n  pop\n  jump\t// out\n    /* \"#utility.yul\":1865:1940   */\ntag_16:\n    /* \"#utility.yul\":1908:1911   */\n  0x00\n    /* \"#utility.yul\":1929:1934   */\n  dup2\n    /* \"#utility.yul\":1922:1934   */\n  swap1\n  pop\n    /* \"#utility.yul\":1865:1940   */\n  swap2\n  swap1\n  pop\n  jump\t// out\n    /* \"#utility.yul\":1946:2215   */\ntag_17:\n    /* \"#utility.yul\":2056:2095   */\n  tag_47\n    /* \"#utility.yul\":2087:2094   */\n  dup4\n    /* \"#utility.yul\":2056:2095   */\n  tag_15\n  jump\t// in\ntag_47:\n    /* \"#utility.yul\":2117:2208   */\n  tag_48\n    /* \"#utility.yul\":2166:2207   */\n  tag_49\n    /* \"#utility.yul\":2190:2206   */\n  dup3\n    /* \"#utility.yul\":2166:2207   */\n  tag_16\n  jump\t// in\ntag_49:\n    /* \"#utility.yul\":2158:2164   */\n  dup5\n    /* \"#utility.yul\":2151:2155   */\n  dup5\n    /* \"#utility.yul\":2145:2156   */\n  sload\n    /* \"#utility.yul\":2117:2208   */\n  tag_12\n  jump\t// in\ntag_48:\n    /* \"#utility.yul\":2111:2115   */\n  dup3\n    /* \"#utility.yul\":2104:2209   */\n  sstore\n    /* \"#utility.yul\":2022:2215   */\n  pop\n    /* \"#utility.yul\":1946:2215   */\n  pop\n  pop\n  pop\n  jump\t// out\n    /* \"#utility.yul\":2221:2294   */\ntag_18:\n    /* \"#utility.yul\":2266:2269   */\n  0x00\n    /* \"#utility.yul\":2221:2294   */\n  swap1\n  jump\t// out\n    /* \"#utility.yul\":2300:2489   */\ntag_19:\n    /* \"#utility.yul\":2377:2409   */\n  tag_52\n  tag_18\n  jump\t// in\ntag_52:\n    /* \"#utility.yul\":2418:2483   */\n  tag_53\n    /* \"#utility.yul\":2476:2482   */\n  dup2\n    /* \"#utility.yul\":2468:2474   */\n  dup5\n    /* \"#utility.yul\":2462:2466   */\n  dup5\n    /* \"#utility.yul\":2418:2483   */\n  tag_17\n  jump\t// in\ntag_53:\n    /* \"#utility.yul\":2353:2489   */\n  pop\n    /* \"#utility.yul\":2300:2489   */\n  pop\n  pop\n  jump\t// out\n    /* \"#utility.yul\":2495:2681   */\ntag_20:\n    /* \"#utility.yul\":2555:2675   */\ntag_55:\n    /* \"#utility.yul\":2572:2575   */\n  dup2\n    /* \"#utility.yul\":2565:2570   */\n  dup2\n    /* \"#utility.yul\":2562:2576   */\n  lt\n    /* \"#utility.yul\":2555:2675   */\n  iszero\n  tag_57\n  jumpi\n    /* \"#utility.yul\":2626:2665   */\n  tag_58\n    /* \"#utility.yul\":2663:2664   */\n  0x00\n    /* \"#utility.yul\":2656:2661   */\n  dup3\n    /* \"#utility.yul\":2626:2665   */\n  tag_19\n  jump\t// in\ntag_58:\n    /* \"#utility.yul\":2599:2600   */\n  0x01\n    /* \"#utility.yul\":2592:2597   */\n  dup2\n    /* \"#utility.yul\":2588:2601   */\n  add\n    /* \"#utility.yul\":2579:2601   */\n  swap1\n  pop\n    /* \"#utility.yul\":2555:2675   */\n  jump(tag_55)\ntag_57:\n    /* \"#utility.yul\":2495:2681   */\n  pop\n  pop\n  jump\t// out\n    /* \"#utility.yul\":2687:3230   */\ntag_21:\n    /* \"#utility.yul\":2788:2790   */\n  0x1f\n    /* \"#utility.yul\":2783:2786   */\n  dup3\n    /* \"#utility.yul\":2780:2791   */\n  gt\n    /* \"#utility.yul\":2777:3223   */\n  iszero\n  tag_60\n  jumpi\n    /* \"#utility.yul\":2822:2860   */\n  tag_61\n    /* \"#utility.yul\":2854:2859   */\n  dup2\n    /* \"#utility.yul\":2822:2860   */\n  tag_9\n  jump\t// in\ntag_61:\n    /* \"#utility.yul\":2906:2935   */\n  tag_62\n    /* \"#utility.yul\":2924:2934   */\n  dup5\n    /* \"#utility.yul\":2906:2935   */\n  tag_10\n  jump\t// in\ntag_62:\n    /* \"#utility.yul\":2896:2904   */\n  dup2\n    /* \"#utility.yul\":2892:2936   */\n  add\n    /* \"#utility.yul\":3089:3091   */\n  0x20\n    /* \"#utility.yul\":3077:3087   */\n  dup6\n    /* \"#utility.yul\":3074:3092   */\n  lt\n    /* \"#utility.yul\":3071:3120   */\n  iszero\n  tag_63\n  jumpi\n    /* \"#utility.yul\":3110:3118   */\n  dup2\n    /* \"#utility.yul\":3095:3118   */\n  swap1\n  pop\n    /* \"#utility.yul\":3071:3120   */\ntag_63:\n    /* \"#utility.yul\":3133:3213   */\n  tag_64\n    /* \"#utility.yul\":3189:3211   */\n  tag_65\n    /* \"#utility.yul\":3207:3210   */\n  dup6\n    /* \"#utility.yul\":3189:3211   */\n  tag_10\n  jump\t// in\ntag_65:\n    /* \"#utility.yul\":3179:3187   */\n  dup4\n    /* \"#utility.yul\":3175:3212   */\n  add\n    /* \"#utility.yul\":3162:3173   */\n  dup3\n    /* \"#utility.yul\":3133:3213   */\n  tag_20\n  jump\t// in\ntag_64:\n    /* \"#utility.yul\":2792:3223   */\n  pop\n  pop\n    /* \"#utility.yul\":2777:3223   */\ntag_60:\n    /* \"#utility.yul\":2687:3230   */\n  pop\n  pop\n  pop\n  jump\t// out\n    /* \"#utility.yul\":3236:3353   */\ntag_22:\n    /* \"#utility.yul\":3290:3298   */\n  0x00\n    /* \"#utility.yul\":3340:3345   */\n  dup3\n    /* \"#utility.yul\":3334:3338   */\n  dup3\n    /* \"#utility.yul\":3330:3346   */\n  shr\n    /* \"#utility.yul\":3309:3346   */\n  swap1\n  pop\n    /* \"#utility.yul\":3236:3353   */\n  swap3\n  swap2\n  pop\n  pop\n  jump\t// out\n    /* \"#utility.yul\":3359:3528   */\ntag_23:\n    /* \"#utility.yul\":3403:3409   */\n  0x00\n    /* \"#utility.yul\":3436:3487   */\n  tag_68\n    /* \"#utility.yul\":3484:3485   */\n  0x00\n    /* \"#utility.yul\":3480:3486   */\n  not\n    /* \"#utility.yul\":3472:3477   */\n  dup5\n    /* \"#utility.yul\":3469:3470   */\n  0x08\n    /* \"#utility.yul\":3465:3478   */\n  mul\n    /* \"#utility.yul\":3436:3487   */\n  tag_22\n  jump\t// in\ntag_68:\n    /* \"#utility.yul\":3432:3488   */\n  not\n    /* \"#utility.yul\":3517:3521   */\n  dup1\n    /* \"#utility.yul\":3511:3515   */\n  dup4\n    /* \"#utility.yul\":3507:3522   */\n  and\n    /* \"#utility.yul\":3497:3522   */\n  swap2\n  pop\n    /* \"#utility.yul\":3410:3528   */\n  pop\n    /* \"#utility.yul\":3359:3528   */\n  swap3\n  swap2\n  pop\n  pop\n  jump\t// out\n    /* \"#utility.yul\":3533:3828   */\ntag_24:\n    /* \"#utility.yul\":3609:3613   */\n  0x00\n    /* \"#utility.yul\":3755:3784   */\n  tag_70\n    /* \"#utility.yul\":3780:3783   */\n  dup4\n    /* \"#utility.yul\":3774:3778   */\n  dup4\n    /* \"#utility.yul\":3755:3784   */\n  tag_23\n  jump\t// in\ntag_70:\n    /* \"#utility.yul\":3747:3784   */\n  swap2\n  pop\n    /* \"#utility.yul\":3817:3820   */\n  dup3\n    /* \"#utility.yul\":3814:3815   */\n  0x02\n    /* \"#utility.yul\":3810:3821   */\n  mul\n    /* \"#utility.yul\":3804:3808   */\n  dup3\n    /* \"#utility.yul\":3801:3822   */\n  or\n    /* \"#utility.yul\":3793:3822   */\n  swap1\n  pop\n    /* \"#utility.yul\":3533:3828   */\n  swap3\n  swap2\n  pop\n  pop\n  jump\t// out\n    /* \"#utility.yul\":3833:5228   */\ntag_2:\n    /* \"#utility.yul\":3950:3987   */\n  tag_72\n    /* \"#utility.yul\":3983:3986   */\n  dup3\n    /* \"#utility.yul\":3950:3987   */\n  tag_5\n  jump\t// in\ntag_72:\n    /* \"#utility.yul\":4052:4070   */\n  0xffffffffffffffff\n    /* \"#utility.yul\":4044:4050   */\n  dup2\n    /* \"#utility.yul\":4041:4071   */\n  gt\n    /* \"#utility.yul\":4038:4094   */\n  iszero\n  tag_73\n  jumpi\n    /* \"#utility.yul\":4074:4092   */\n  tag_74\n  tag_6\n  jump\t// in\ntag_74:\n    /* \"#utility.yul\":4038:4094   */\ntag_73:\n    /* \"#utility.yul\":4118:4156   */\n  tag_75\n    /* \"#utility.yul\":4150:4154   */\n  dup3\n    /* \"#utility.yul\":4144:4155   */\n  sload\n    /* \"#utility.yul\":4118:4156   */\n  tag_8\n  jump\t// in\ntag_75:\n    /* \"#utility.yul\":4203:4270   */\n  tag_76\n    /* \"#utility.yul\":4263:4269   */\n  dup3\n    /* \"#utility.yul\":4255:4261   */\n  dup3\n    /* \"#utility.yul\":4249:4253   */\n  dup6\n    /* \"#utility.yul\":4203:4270   */\n  tag_21\n  jump\t// in\ntag_76:\n    /* \"#utility.yul\":4297:4298   */\n  0x00\n    /* \"#utility.yul\":4321:4325   */\n  0x20\n    /* \"#utility.yul\":4308:4325   */\n  swap1\n  pop\n    /* \"#utility.yul\":4353:4355   */\n  0x1f\n    /* \"#utility.yul\":4345:4351   */\n  dup4\n    /* \"#utility.yul\":4342:4356   */\n  gt\n    /* \"#utility.yul\":4370:4371   */\n  0x01\n    /* \"#utility.yul\":4365:4983   */\n  dup2\n  eq\n  tag_78\n  jumpi\n    /* \"#utility.yul\":5027:5028   */\n  0x00\n    /* \"#utility.yul\":5044:5050   */\n  dup5\n    /* \"#utility.yul\":5041:5118   */\n  iszero\n  tag_79\n  jumpi\n    /* \"#utility.yul\":5093:5102   */\n  dup3\n    /* \"#utility.yul\":5088:5091   */\n  dup8\n    /* \"#utility.yul\":5084:5103   */\n  add\n    /* \"#utility.yul\":5078:5104   */\n  mload\n    /* \"#utility.yul\":5069:5104   */\n  swap1\n  pop\n    /* \"#utility.yul\":5041:5118   */\ntag_79:\n    /* \"#utility.yul\":5144:5211   */\n  tag_80\n    /* \"#utility.yul\":5204:5210   */\n  dup6\n    /* \"#utility.yul\":5197:5202   */\n  dup3\n    /* \"#utility.yul\":5144:5211   */\n  tag_24\n  jump\t// in\ntag_80:\n    /* \"#utility.yul\":5138:5142   */\n  dup7\n    /* \"#utility.yul\":5131:5212   */\n  sstore\n    /* \"#utility.yul\":5000:5222   */\n  pop\n    /* \"#utility.yul\":4335:5222   */\n  jump(tag_77)\n    /* \"#utility.yul\":4365:4983   */\ntag_78:\n    /* \"#utility.yul\":4417:4421   */\n  0x1f\n    /* \"#utility.yul\":4413:4422   */\n  not\n    /* \"#utility.yul\":4405:4411   */\n  dup5\n    /* \"#utility.yul\":4401:4423   */\n  and\n    /* \"#utility.yul\":4451:4488   */\n  tag_81\n    /* \"#utility.yul\":4483:4487   */\n  dup7\n    /* \"#utility.yul\":4451:4488   */\n  tag_9\n  jump\t// in\ntag_81:\n    /* \"#utility.yul\":4510:4511   */\n  0x00\n    /* \"#utility.yul\":4524:4732   */\ntag_82:\n    /* \"#utility.yul\":4538:4545   */\n  dup3\n    /* \"#utility.yul\":4535:4536   */\n  dup2\n    /* \"#utility.yul\":4532:4546   */\n  lt\n    /* \"#utility.yul\":4524:4732   */\n  iszero\n  tag_84\n  jumpi\n    /* \"#utility.yul\":4617:4626   */\n  dup5\n    /* \"#utility.yul\":4612:4615   */\n  dup10\n    /* \"#utility.yul\":4608:4627   */\n  add\n    /* \"#utility.yul\":4602:4628   */\n  mload\n    /* \"#utility.yul\":4594:4600   */\n  dup3\n    /* \"#utility.yul\":4587:4629   */\n  sstore\n    /* \"#utility.yul\":4668:4669   */\n  0x01\n    /* \"#utility.yul\":4660:4666   */\n  dup3\n    /* \"#utility.yul\":4656:4670   */\n  add\n    /* \"#utility.yul\":4646:4670   */\n  swap2\n  pop\n    /* \"#utility.yul\":4715:4717   */\n  0x20\n    /* \"#utility.yul\":4704:4713   */\n  dup6\n    /* \"#utility.yul\":4700:4718   */\n  add\n    /* \"#utility.yul\":4687:4718   */\n  swap5\n  pop\n    /* \"#utility.yul\":4561:4565   */\n  0x20\n    /* \"#utility.yul\":4558:4559   */\n  dup2\n    /* \"#utility.yul\":4554:4566   */\n  add\n    /* \"#utility.yul\":4549:4566   */\n  swap1\n  pop\n    /* \"#utility.yul\":4524:4732   */\n  jump(tag_82)\ntag_84:\n    /* \"#utility.yul\":4760:4766   */\n  dup7\n    /* \"#utility.yul\":4751:4758   */\n  dup4\n    /* \"#utility.yul\":4748:4767   */\n  lt\n    /* \"#utility.yul\":4745:4924   */\n  iszero\n  tag_85\n  jumpi\n    /* \"#utility.yul\":4818:4827   */\n  dup5\n    /* \"#utility.yul\":4813:4816   */\n  dup10\n    /* \"#utility.yul\":4809:4828   */\n  add\n    /* \"#utility.yul\":4803:4829   */\n  mload\n    /* \"#utility.yul\":4861:4909   */\n  tag_86\n    /* \"#utility.yul\":4903:4907   */\n  0x1f\n    /* \"#utility.yul\":4895:4901   */\n  dup10\n    /* \"#utility.yul\":4891:4908   */\n  and\n    /* \"#utility.yul\":4880:4889   */\n  dup3\n    /* \"#utility.yul\":4861:4909   */\n  tag_23\n  jump\t// in\ntag_86:\n    /* \"#utility.yul\":4853:4859   */\n  dup4\n    /* \"#utility.yul\":4846:4910   */\n  sstore\n    /* \"#utility.yul\":4768:4924   */\n  pop\n    /* \"#utility.yul\":4745:4924   */\ntag_85:\n    /* \"#utility.yul\":4970:4971   */\n  0x01\n    /* \"#utility.yul\":4966:4967   */\n  0x02\n    /* \"#utility.yul\":4958:4964   */\n  dup9\n    /* \"#utility.yul\":4954:4968   */\n  mul\n    /* \"#utility.yul\":4950:4972   */\n  add\n    /* \"#utility.yul\":4944:4948   */\n  dup9\n    /* \"#utility.yul\":4937:4973   */\n  sstore\n    /* \"#utility.yul\":4372:4983   */\n  pop\n  pop\n  pop\n    /* \"#utility.yul\":4335:5222   */\ntag_77:\n  pop\n    /* \"#utility.yul\":3925:5228   */\n  pop\n  pop\n  pop\n    /* \"#utility.yul\":3833:5228   */\n  pop\n  pop\n  jump\t// out\n    /* \"solidityByExample/contract/004Variales.sol\":63:693  contract Variables{... */\ntag_4:\n  dataSize(sub_0)\n  dup1\n  dataOffset(sub_0)\n  0x00\n  codecopy\n  0x00\n  return\nstop\n\nsub_0: assembly {\n        /* \"solidityByExample/contract/004Variales.sol\":63:693  contract Variables{... */\n      mstore(0x40, 0x80)\n      callvalue\n      dup1\n      iszero\n      tag_1\n      jumpi\n      0x00\n      dup1\n      revert\n    tag_1:\n      pop\n      jumpi(tag_2, lt(calldatasize, 0x04))\n      shr(0xe0, calldataload(0x00))\n      dup1\n      0x0dbe671f\n      eq\n      tag_3\n      jumpi\n      dup1\n      0x1f1bd692\n      eq\n      tag_4\n      jumpi\n      dup1\n      0x82692679\n      eq\n      tag_5\n      jumpi\n    tag_2:\n      0x00\n      dup1\n      revert\n        /* \"solidityByExample/contract/004Variales.sol\":88:120  int32 public a = type(int32).min */\n    tag_3:\n      tag_6\n      tag_7\n      jump\t// in\n    tag_6:\n      mload(0x40)\n      tag_8\n      swap2\n      swap1\n      tag_9\n      jump\t// in\n    tag_8:\n      mload(0x40)\n      dup1\n      swap2\n      sub\n      swap1\n      return\n        /* \"solidityByExample/contract/004Variales.sol\":405:438  string public text = \"Hello,Fred\" */\n    tag_4:\n      tag_10\n      tag_11\n      jump\t// in\n    tag_10:\n      mload(0x40)\n      tag_12\n      swap2\n      swap1\n      tag_13\n      jump\t// in\n    tag_12:\n      mload(0x40)\n      dup1\n      swap2\n      sub\n      swap1\n      return\n        /* \"solidityByExample/contract/004Variales.sol\":470:684  function doSomething() public view returns(uint,address) {... */\n    tag_5:\n      tag_14\n      tag_15\n      jump\t// in\n    tag_14:\n      mload(0x40)\n      tag_16\n      swap3\n      swap2\n      swap1\n      tag_17\n      jump\t// in\n    tag_16:\n      mload(0x40)\n      dup1\n      swap2\n      sub\n      swap1\n      return\n        /* \"solidityByExample/contract/004Variales.sol\":88:120  int32 public a = type(int32).min */\n    tag_7:\n      0x00\n      dup1\n      sload\n      swap1\n      0x0100\n      exp\n      swap1\n      div\n      0x03\n      signextend\n      dup2\n      jump\t// out\n        /* \"solidityByExample/contract/004Variales.sol\":405:438  string public text = \"Hello,Fred\" */\n    tag_11:\n      0x01\n      dup1\n      sload\n      tag_18\n      swap1\n      tag_19\n      jump\t// in\n    tag_18:\n      dup1\n      0x1f\n      add\n      0x20\n      dup1\n      swap2\n      div\n      mul\n      0x20\n      add\n      mload(0x40)\n      swap1\n      dup2\n      add\n      0x40\n      mstore\n      dup1\n      swap3\n      swap2\n      swap1\n      dup2\n      dup2\n      mstore\n      0x20\n      add\n      dup3\n      dup1\n      sload\n      tag_20\n      swap1\n      tag_19\n      jump\t// in\n    tag_20:\n      dup1\n      iszero\n      tag_21\n      jumpi\n      dup1\n      0x1f\n      lt\n      tag_22\n      jumpi\n      0x0100\n      dup1\n      dup4\n      sload\n      div\n      mul\n      dup4\n      mstore\n      swap2\n      0x20\n      add\n      swap2\n      jump(tag_21)\n    tag_22:\n      dup3\n      add\n      swap2\n      swap1\n      0x00\n      mstore\n      keccak256(0x00, 0x20)\n      swap1\n    tag_23:\n      dup2\n      sload\n      dup2\n      mstore\n      swap1\n      0x01\n      add\n      swap1\n      0x20\n      add\n      dup1\n      dup4\n      gt\n      tag_23\n      jumpi\n      dup3\n      swap1\n      sub\n      0x1f\n      and\n      dup3\n      add\n      swap2\n    tag_21:\n      pop\n      pop\n      pop\n      pop\n      pop\n      dup2\n      jump\t// out\n        /* \"solidityByExample/contract/004Variales.sol\":470:684  function doSomething() public view returns(uint,address) {... */\n    tag_15:\n        /* \"solidityByExample/contract/004Variales.sol\":513:517  uint */\n      0x00\n        /* \"solidityByExample/contract/004Variales.sol\":518:525  address */\n      dup1\n        /* \"solidityByExample/contract/004Variales.sol\":538:547  uint numb */\n      0x00\n        /* \"solidityByExample/contract/004Variales.sol\":550:552  99 */\n      0x63\n        /* \"solidityByExample/contract/004Variales.sol\":538:552  uint numb = 99 */\n      swap1\n      pop\n        /* \"solidityByExample/contract/004Variales.sol\":577:586  uint time */\n      0x00\n        /* \"solidityByExample/contract/004Variales.sol\":589:604  block.timestamp */\n      timestamp\n        /* \"solidityByExample/contract/004Variales.sol\":577:604  uint time = block.timestamp */\n      swap1\n      pop\n        /* \"solidityByExample/contract/004Variales.sol\":617:631  address sender */\n      0x00\n        /* \"solidityByExample/contract/004Variales.sol\":634:644  msg.sender */\n      caller\n        /* \"solidityByExample/contract/004Variales.sol\":617:644  address sender = msg.sender */\n      swap1\n      pop\n        /* \"solidityByExample/contract/004Variales.sol\":663:667  time */\n      dup2\n        /* \"solidityByExample/contract/004Variales.sol\":669:675  sender */\n      dup2\n        /* \"solidityByExample/contract/004Variales.sol\":655:676  return (time, sender) */\n      swap5\n      pop\n      swap5\n      pop\n      pop\n      pop\n      pop\n        /* \"solidityByExample/contract/004Variales.sol\":470:684  function doSomething() public view returns(uint,address) {... */\n      swap1\n      swap2\n      jump\t// out\n        /* \"#utility.yul\":7:97   */\n    tag_25:\n        /* \"#utility.yul\":42:49   */\n      0x00\n        /* \"#utility.yul\":85:90   */\n      dup2\n        /* \"#utility.yul\":82:83   */\n      0x03\n        /* \"#utility.yul\":71:91   */\n      signextend\n        /* \"#utility.yul\":60:91   */\n      swap1\n      pop\n        /* \"#utility.yul\":7:97   */\n      swap2\n      swap1\n      pop\n      jump\t// out\n        /* \"#utility.yul\":103:215   */\n    tag_26:\n        /* \"#utility.yul\":186:208   */\n      tag_41\n        /* \"#utility.yul\":202:207   */\n      dup2\n        /* \"#utility.yul\":186:208   */\n      tag_25\n      jump\t// in\n    tag_41:\n        /* \"#utility.yul\":181:184   */\n      dup3\n        /* \"#utility.yul\":174:209   */\n      mstore\n        /* \"#utility.yul\":103:215   */\n      pop\n      pop\n      jump\t// out\n        /* \"#utility.yul\":221:435   */\n    tag_9:\n        /* \"#utility.yul\":310:314   */\n      0x00\n        /* \"#utility.yul\":348:350   */\n      0x20\n        /* \"#utility.yul\":337:346   */\n      dup3\n        /* \"#utility.yul\":333:351   */\n      add\n        /* \"#utility.yul\":325:351   */\n      swap1\n      pop\n        /* \"#utility.yul\":361:428   */\n      tag_43\n        /* \"#utility.yul\":425:426   */\n      0x00\n        /* \"#utility.yul\":414:423   */\n      dup4\n        /* \"#utility.yul\":410:427   */\n      add\n        /* \"#utility.yul\":401:407   */\n      dup5\n        /* \"#utility.yul\":361:428   */\n      tag_26\n      jump\t// in\n    tag_43:\n        /* \"#utility.yul\":221:435   */\n      swap3\n      swap2\n      pop\n      pop\n      jump\t// out\n        /* \"#utility.yul\":441:540   */\n    tag_27:\n        /* \"#utility.yul\":493:499   */\n      0x00\n        /* \"#utility.yul\":527:532   */\n      dup2\n        /* \"#utility.yul\":521:533   */\n      mload\n        /* \"#utility.yul\":511:533   */\n      swap1\n      pop\n        /* \"#utility.yul\":441:540   */\n      swap2\n      swap1\n      pop\n      jump\t// out\n        /* \"#utility.yul\":546:715   */\n    tag_28:\n        /* \"#utility.yul\":630:641   */\n      0x00\n        /* \"#utility.yul\":664:670   */\n      dup3\n        /* \"#utility.yul\":659:662   */\n      dup3\n        /* \"#utility.yul\":652:671   */\n      mstore\n        /* \"#utility.yul\":704:708   */\n      0x20\n        /* \"#utility.yul\":699:702   */\n      dup3\n        /* \"#utility.yul\":695:709   */\n      add\n        /* \"#utility.yul\":680:709   */\n      swap1\n      pop\n        /* \"#utility.yul\":546:715   */\n      swap3\n      swap2\n      pop\n      pop\n      jump\t// out\n        /* \"#utility.yul\":721:860   */\n    tag_29:\n        /* \"#utility.yul\":810:816   */\n      dup3\n        /* \"#utility.yul\":805:808   */\n      dup2\n        /* \"#utility.yul\":800:803   */\n      dup4\n        /* \"#utility.yul\":794:817   */\n      mcopy\n        /* \"#utility.yul\":851:852   */\n      0x00\n        /* \"#utility.yul\":842:848   */\n      dup4\n        /* \"#utility.yul\":837:840   */\n      dup4\n        /* \"#utility.yul\":833:849   */\n      add\n        /* \"#utility.yul\":826:853   */\n      mstore\n        /* \"#utility.yul\":721:860   */\n      pop\n      pop\n      pop\n      jump\t// out\n        /* \"#utility.yul\":866:968   */\n    tag_30:\n        /* \"#utility.yul\":907:913   */\n      0x00\n        /* \"#utility.yul\":958:960   */\n      0x1f\n        /* \"#utility.yul\":954:961   */\n      not\n        /* \"#utility.yul\":949:951   */\n      0x1f\n        /* \"#utility.yul\":942:947   */\n      dup4\n        /* \"#utility.yul\":938:952   */\n      add\n        /* \"#utility.yul\":934:962   */\n      and\n        /* \"#utility.yul\":924:962   */\n      swap1\n      pop\n        /* \"#utility.yul\":866:968   */\n      swap2\n      swap1\n      pop\n      jump\t// out\n        /* \"#utility.yul\":974:1351   */\n    tag_31:\n        /* \"#utility.yul\":1062:1065   */\n      0x00\n        /* \"#utility.yul\":1090:1129   */\n      tag_49\n        /* \"#utility.yul\":1123:1128   */\n      dup3\n        /* \"#utility.yul\":1090:1129   */\n      tag_27\n      jump\t// in\n    tag_49:\n        /* \"#utility.yul\":1145:1216   */\n      tag_50\n        /* \"#utility.yul\":1209:1215   */\n      dup2\n        /* \"#utility.yul\":1204:1207   */\n      dup6\n        /* \"#utility.yul\":1145:1216   */\n      tag_28\n      jump\t// in\n    tag_50:\n        /* \"#utility.yul\":1138:1216   */\n      swap4\n      pop\n        /* \"#utility.yul\":1225:1290   */\n      tag_51\n        /* \"#utility.yul\":1283:1289   */\n      dup2\n        /* \"#utility.yul\":1278:1281   */\n      dup6\n        /* \"#utility.yul\":1271:1275   */\n      0x20\n        /* \"#utility.yul\":1264:1269   */\n      dup7\n        /* \"#utility.yul\":1260:1276   */\n      add\n        /* \"#utility.yul\":1225:1290   */\n      tag_29\n      jump\t// in\n    tag_51:\n        /* \"#utility.yul\":1315:1344   */\n      tag_52\n        /* \"#utility.yul\":1337:1343   */\n      dup2\n        /* \"#utility.yul\":1315:1344   */\n      tag_30\n      jump\t// in\n    tag_52:\n        /* \"#utility.yul\":1310:1313   */\n      dup5\n        /* \"#utility.yul\":1306:1345   */\n      add\n        /* \"#utility.yul\":1299:1345   */\n      swap2\n      pop\n        /* \"#utility.yul\":1066:1351   */\n      pop\n        /* \"#utility.yul\":974:1351   */\n      swap3\n      swap2\n      pop\n      pop\n      jump\t// out\n        /* \"#utility.yul\":1357:1670   */\n    tag_13:\n        /* \"#utility.yul\":1470:1474   */\n      0x00\n        /* \"#utility.yul\":1508:1510   */\n      0x20\n        /* \"#utility.yul\":1497:1506   */\n      dup3\n        /* \"#utility.yul\":1493:1511   */\n      add\n        /* \"#utility.yul\":1485:1511   */\n      swap1\n      pop\n        /* \"#utility.yul\":1557:1566   */\n      dup2\n        /* \"#utility.yul\":1551:1555   */\n      dup2\n        /* \"#utility.yul\":1547:1567   */\n      sub\n        /* \"#utility.yul\":1543:1544   */\n      0x00\n        /* \"#utility.yul\":1532:1541   */\n      dup4\n        /* \"#utility.yul\":1528:1545   */\n      add\n        /* \"#utility.yul\":1521:1568   */\n      mstore\n        /* \"#utility.yul\":1585:1663   */\n      tag_54\n        /* \"#utility.yul\":1658:1662   */\n      dup2\n        /* \"#utility.yul\":1649:1655   */\n      dup5\n        /* \"#utility.yul\":1585:1663   */\n      tag_31\n      jump\t// in\n    tag_54:\n        /* \"#utility.yul\":1577:1663   */\n      swap1\n      pop\n        /* \"#utility.yul\":1357:1670   */\n      swap3\n      swap2\n      pop\n      pop\n      jump\t// out\n        /* \"#utility.yul\":1676:1753   */\n    tag_32:\n        /* \"#utility.yul\":1713:1720   */\n      0x00\n        /* \"#utility.yul\":1742:1747   */\n      dup2\n        /* \"#utility.yul\":1731:1747   */\n      swap1\n      pop\n        /* \"#utility.yul\":1676:1753   */\n      swap2\n      swap1\n      pop\n      jump\t// out\n        /* \"#utility.yul\":1759:1877   */\n    tag_33:\n        /* \"#utility.yul\":1846:1870   */\n      tag_57\n        /* \"#utility.yul\":1864:1869   */\n      dup2\n        /* \"#utility.yul\":1846:1870   */\n      tag_32\n      jump\t// in\n    tag_57:\n        /* \"#utility.yul\":1841:1844   */\n      dup3\n        /* \"#utility.yul\":1834:1871   */\n      mstore\n        /* \"#utility.yul\":1759:1877   */\n      pop\n      pop\n      jump\t// out\n        /* \"#utility.yul\":1883:2009   */\n    tag_34:\n        /* \"#utility.yul\":1920:1927   */\n      0x00\n        /* \"#utility.yul\":1960:2002   */\n      0xffffffffffffffffffffffffffffffffffffffff\n        /* \"#utility.yul\":1953:1958   */\n      dup3\n        /* \"#utility.yul\":1949:2003   */\n      and\n        /* \"#utility.yul\":1938:2003   */\n      swap1\n      pop\n        /* \"#utility.yul\":1883:2009   */\n      swap2\n      swap1\n      pop\n      jump\t// out\n        /* \"#utility.yul\":2015:2111   */\n    tag_35:\n        /* \"#utility.yul\":2052:2059   */\n      0x00\n        /* \"#utility.yul\":2081:2105   */\n      tag_60\n        /* \"#utility.yul\":2099:2104   */\n      dup3\n        /* \"#utility.yul\":2081:2105   */\n      tag_34\n      jump\t// in\n    tag_60:\n        /* \"#utility.yul\":2070:2105   */\n      swap1\n      pop\n        /* \"#utility.yul\":2015:2111   */\n      swap2\n      swap1\n      pop\n      jump\t// out\n        /* \"#utility.yul\":2117:2235   */\n    tag_36:\n        /* \"#utility.yul\":2204:2228   */\n      tag_62\n        /* \"#utility.yul\":2222:2227   */\n      dup2\n        /* \"#utility.yul\":2204:2228   */\n      tag_35\n      jump\t// in\n    tag_62:\n        /* \"#utility.yul\":2199:2202   */\n      dup3\n        /* \"#utility.yul\":2192:2229   */\n      mstore\n        /* \"#utility.yul\":2117:2235   */\n      pop\n      pop\n      jump\t// out\n        /* \"#utility.yul\":2241:2573   */\n    tag_17:\n        /* \"#utility.yul\":2362:2366   */\n      0x00\n        /* \"#utility.yul\":2400:2402   */\n      0x40\n        /* \"#utility.yul\":2389:2398   */\n      dup3\n        /* \"#utility.yul\":2385:2403   */\n      add\n        /* \"#utility.yul\":2377:2403   */\n      swap1\n      pop\n        /* \"#utility.yul\":2413:2484   */\n      tag_64\n        /* \"#utility.yul\":2481:2482   */\n      0x00\n        /* \"#utility.yul\":2470:2479   */\n      dup4\n        /* \"#utility.yul\":2466:2483   */\n      add\n        /* \"#utility.yul\":2457:2463   */\n      dup6\n        /* \"#utility.yul\":2413:2484   */\n      tag_33\n      jump\t// in\n    tag_64:\n        /* \"#utility.yul\":2494:2566   */\n      tag_65\n        /* \"#utility.yul\":2562:2564   */\n      0x20\n        /* \"#utility.yul\":2551:2560   */\n      dup4\n        /* \"#utility.yul\":2547:2565   */\n      add\n        /* \"#utility.yul\":2538:2544   */\n      dup5\n        /* \"#utility.yul\":2494:2566   */\n      tag_36\n      jump\t// in\n    tag_65:\n        /* \"#utility.yul\":2241:2573   */\n      swap4\n      swap3\n      pop\n      pop\n      pop\n      jump\t// out\n        /* \"#utility.yul\":2579:2759   */\n    tag_37:\n        /* \"#utility.yul\":2627:2704   */\n      0x4e487b7100000000000000000000000000000000000000000000000000000000\n        /* \"#utility.yul\":2624:2625   */\n      0x00\n        /* \"#utility.yul\":2617:2705   */\n      mstore\n        /* \"#utility.yul\":2724:2728   */\n      0x22\n        /* \"#utility.yul\":2721:2722   */\n      0x04\n        /* \"#utility.yul\":2714:2729   */\n      mstore\n        /* \"#utility.yul\":2748:2752   */\n      0x24\n        /* \"#utility.yul\":2745:2746   */\n      0x00\n        /* \"#utility.yul\":2738:2753   */\n      revert\n        /* \"#utility.yul\":2765:3085   */\n    tag_19:\n        /* \"#utility.yul\":2809:2815   */\n      0x00\n        /* \"#utility.yul\":2846:2847   */\n      0x02\n        /* \"#utility.yul\":2840:2844   */\n      dup3\n        /* \"#utility.yul\":2836:2848   */\n      div\n        /* \"#utility.yul\":2826:2848   */\n      swap1\n      pop\n        /* \"#utility.yul\":2893:2894   */\n      0x01\n        /* \"#utility.yul\":2887:2891   */\n      dup3\n        /* \"#utility.yul\":2883:2895   */\n      and\n        /* \"#utility.yul\":2914:2932   */\n      dup1\n        /* \"#utility.yul\":2904:2985   */\n      tag_68\n      jumpi\n        /* \"#utility.yul\":2970:2974   */\n      0x7f\n        /* \"#utility.yul\":2962:2968   */\n      dup3\n        /* \"#utility.yul\":2958:2975   */\n      and\n        /* \"#utility.yul\":2948:2975   */\n      swap2\n      pop\n        /* \"#utility.yul\":2904:2985   */\n    tag_68:\n        /* \"#utility.yul\":3032:3034   */\n      0x20\n        /* \"#utility.yul\":3024:3030   */\n      dup3\n        /* \"#utility.yul\":3021:3035   */\n      lt\n        /* \"#utility.yul\":3001:3019   */\n      dup2\n        /* \"#utility.yul\":2998:3036   */\n      sub\n        /* \"#utility.yul\":2995:3079   */\n      tag_69\n      jumpi\n        /* \"#utility.yul\":3051:3069   */\n      tag_70\n      tag_37\n      jump\t// in\n    tag_70:\n        /* \"#utility.yul\":2995:3079   */\n    tag_69:\n        /* \"#utility.yul\":2816:3085   */\n      pop\n        /* \"#utility.yul\":2765:3085   */\n      swap2\n      swap1\n      pop\n      jump\t// out\n\n    auxdata: 0xa26469706673582212206a3ff11f04e05a8bffb6c4ef96d70c51bde61f67e35595d13046bd7bda57524c64736f6c634300081a0033\n}\n",
				"bytecode": {
					"linkReferences": {},
					"object": "60806040527fffffffffffffffffffffffffffffffffffffffffffffffffffffffff800000005f806101000a81548163ffffffff021916908360030b63ffffffff1602179055506040518060400160405280600a81526020017f48656c6c6f2c46726564000000000000000000000000000000000000000000008152506001908161008a91906102db565b50605860025534801561009b575f80fd5b506103aa565b5f81519050919050565b7f4e487b71000000000000000000000000000000000000000000000000000000005f52604160045260245ffd5b7f4e487b71000000000000000000000000000000000000000000000000000000005f52602260045260245ffd5b5f600282049050600182168061011c57607f821691505b60208210810361012f5761012e6100d8565b5b50919050565b5f819050815f5260205f209050919050565b5f6020601f8301049050919050565b5f82821b905092915050565b5f600883026101917fffffffffffffffffffffffffffffffffffffffffffffffffffffffffffffffff82610156565b61019b8683610156565b95508019841693508086168417925050509392505050565b5f819050919050565b5f819050919050565b5f6101df6101da6101d5846101b3565b6101bc565b6101b3565b9050919050565b5f819050919050565b6101f8836101c5565b61020c610204826101e6565b848454610162565b825550505050565b5f90565b610220610214565b61022b8184846101ef565b505050565b5b8181101561024e576102435f82610218565b600181019050610231565b5050565b601f8211156102935761026481610135565b61026d84610147565b8101602085101561027c578190505b61029061028885610147565b830182610230565b50505b505050565b5f82821c905092915050565b5f6102b35f1984600802610298565b1980831691505092915050565b5f6102cb83836102a4565b9150826002028217905092915050565b6102e4826100a1565b67ffffffffffffffff8111156102fd576102fc6100ab565b5b6103078254610105565b610312828285610252565b5f60209050601f831160018114610343575f8415610331578287015190505b61033b85826102c0565b8655506103a2565b601f19841661035186610135565b5f5b8281101561037857848901518255600182019150602085019450602081019050610353565b868310156103955784890151610391601f8916826102a4565b8355505b6001600288020188555050505b505050505050565b61032b806103b75f395ff3fe608060405234801561000f575f80fd5b506004361061003f575f3560e01c80630dbe671f146100435780631f1bd69214610061578063826926791461007f575b5f80fd5b61004b61009e565b6040516100589190610171565b60405180910390f35b6100696100ae565b60405161007691906101fa565b60405180910390f35b61008761013a565b604051610095929190610271565b60405180910390f35b5f8054906101000a900460030b81565b600180546100bb906102c5565b80601f01602080910402602001604051908101604052809291908181526020018280546100e7906102c5565b80156101325780601f1061010957610100808354040283529160200191610132565b820191905f5260205f20905b81548152906001019060200180831161011557829003601f168201915b505050505081565b5f805f606390505f4290505f3390508181945094505050509091565b5f8160030b9050919050565b61016b81610156565b82525050565b5f6020820190506101845f830184610162565b92915050565b5f81519050919050565b5f82825260208201905092915050565b8281835e5f83830152505050565b5f601f19601f8301169050919050565b5f6101cc8261018a565b6101d68185610194565b93506101e68185602086016101a4565b6101ef816101b2565b840191505092915050565b5f6020820190508181035f83015261021281846101c2565b905092915050565b5f819050919050565b61022c8161021a565b82525050565b5f73ffffffffffffffffffffffffffffffffffffffff82169050919050565b5f61025b82610232565b9050919050565b61026b81610251565b82525050565b5f6040820190506102845f830185610223565b6102916020830184610262565b9392505050565b7f4e487b71000000000000000000000000000000000000000000000000000000005f52602260045260245ffd5b5f60028204905060018216806102dc57607f821691505b6020821081036102ef576102ee610298565b5b5091905056fea26469706673582212206a3ff11f04e05a8bffb6c4ef96d70c51bde61f67e35595d13046bd7bda57524c64736f6c634300081a0033",
					"opcodes": "PUSH1 0x80 PUSH1 0x40 MSTORE PUSH32 0xFFFFFFFFFFFFFFFFFFFFFFFFFFFFFFFFFFFFFFFFFFFFFFFFFFFFFFFF80000000 PUSH0 DUP1 PUSH2 0x100 EXP DUP2 SLOAD DUP2 PUSH4 0xFFFFFFFF MUL NOT AND SWAP1 DUP4 PUSH1 0x3 SIGNEXTEND PUSH4 0xFFFFFFFF AND MUL OR SWAP1 SSTORE POP PUSH1 0x40 MLOAD DUP1 PUSH1 0x40 ADD PUSH1 0x40 MSTORE DUP1 PUSH1 0xA DUP2 MSTORE PUSH1 0x20 ADD PUSH32 0x48656C6C6F2C4672656400000000000000000000000000000000000000000000 DUP2 MSTORE POP PUSH1 0x1 SWAP1 DUP2 PUSH2 0x8A SWAP2 SWAP1 PUSH2 0x2DB JUMP JUMPDEST POP PUSH1 0x58 PUSH1 0x2 SSTORE CALLVALUE DUP1 ISZERO PUSH2 0x9B JUMPI PUSH0 DUP1 REVERT JUMPDEST POP PUSH2 0x3AA JUMP JUMPDEST PUSH0 DUP2 MLOAD SWAP1 POP SWAP2 SWAP1 POP JUMP JUMPDEST PUSH32 0x4E487B7100000000000000000000000000000000000000000000000000000000 PUSH0 MSTORE PUSH1 0x41 PUSH1 0x4 MSTORE PUSH1 0x24 PUSH0 REVERT JUMPDEST PUSH32 0x4E487B7100000000000000000000000000000000000000000000000000000000 PUSH0 MSTORE PUSH1 0x22 PUSH1 0x4 MSTORE PUSH1 0x24 PUSH0 REVERT JUMPDEST PUSH0 PUSH1 0x2 DUP3 DIV SWAP1 POP PUSH1 0x1 DUP3 AND DUP1 PUSH2 0x11C JUMPI PUSH1 0x7F DUP3 AND SWAP2 POP JUMPDEST PUSH1 0x20 DUP3 LT DUP2 SUB PUSH2 0x12F JUMPI PUSH2 0x12E PUSH2 0xD8 JUMP JUMPDEST JUMPDEST POP SWAP2 SWAP1 POP JUMP JUMPDEST PUSH0 DUP2 SWAP1 POP DUP2 PUSH0 MSTORE PUSH1 0x20 PUSH0 KECCAK256 SWAP1 POP SWAP2 SWAP1 POP JUMP JUMPDEST PUSH0 PUSH1 0x20 PUSH1 0x1F DUP4 ADD DIV SWAP1 POP SWAP2 SWAP1 POP JUMP JUMPDEST PUSH0 DUP3 DUP3 SHL SWAP1 POP SWAP3 SWAP2 POP POP JUMP JUMPDEST PUSH0 PUSH1 0x8 DUP4 MUL PUSH2 0x191 PUSH32 0xFFFFFFFFFFFFFFFFFFFFFFFFFFFFFFFFFFFFFFFFFFFFFFFFFFFFFFFFFFFFFFFF DUP3 PUSH2 0x156 JUMP JUMPDEST PUSH2 0x19B DUP7 DUP4 PUSH2 0x156 JUMP JUMPDEST SWAP6 POP DUP1 NOT DUP5 AND SWAP4 POP DUP1 DUP7 AND DUP5 OR SWAP3 POP POP POP SWAP4 SWAP3 POP POP POP JUMP JUMPDEST PUSH0 DUP2 SWAP1 POP SWAP2 SWAP1 POP JUMP JUMPDEST PUSH0 DUP2 SWAP1 POP SWAP2 SWAP1 POP JUMP JUMPDEST PUSH0 PUSH2 0x1DF PUSH2 0x1DA PUSH2 0x1D5 DUP5 PUSH2 0x1B3 JUMP JUMPDEST PUSH2 0x1BC JUMP JUMPDEST PUSH2 0x1B3 JUMP JUMPDEST SWAP1 POP SWAP2 SWAP1 POP JUMP JUMPDEST PUSH0 DUP2 SWAP1 POP SWAP2 SWAP1 POP JUMP JUMPDEST PUSH2 0x1F8 DUP4 PUSH2 0x1C5 JUMP JUMPDEST PUSH2 0x20C PUSH2 0x204 DUP3 PUSH2 0x1E6 JUMP JUMPDEST DUP5 DUP5 SLOAD PUSH2 0x162 JUMP JUMPDEST DUP3 SSTORE POP POP POP POP JUMP JUMPDEST PUSH0 SWAP1 JUMP JUMPDEST PUSH2 0x220 PUSH2 0x214 JUMP JUMPDEST PUSH2 0x22B DUP2 DUP5 DUP5 PUSH2 0x1EF JUMP JUMPDEST POP POP POP JUMP JUMPDEST JUMPDEST DUP2 DUP2 LT ISZERO PUSH2 0x24E JUMPI PUSH2 0x243 PUSH0 DUP3 PUSH2 0x218 JUMP JUMPDEST PUSH1 0x1 DUP2 ADD SWAP1 POP PUSH2 0x231 JUMP JUMPDEST POP POP JUMP JUMPDEST PUSH1 0x1F DUP3 GT ISZERO PUSH2 0x293 JUMPI PUSH2 0x264 DUP2 PUSH2 0x135 JUMP JUMPDEST PUSH2 0x26D DUP5 PUSH2 0x147 JUMP JUMPDEST DUP2 ADD PUSH1 0x20 DUP6 LT ISZERO PUSH2 0x27C JUMPI DUP2 SWAP1 POP JUMPDEST PUSH2 0x290 PUSH2 0x288 DUP6 PUSH2 0x147 JUMP JUMPDEST DUP4 ADD DUP3 PUSH2 0x230 JUMP JUMPDEST POP POP JUMPDEST POP POP POP JUMP JUMPDEST PUSH0 DUP3 DUP3 SHR SWAP1 POP SWAP3 SWAP2 POP POP JUMP JUMPDEST PUSH0 PUSH2 0x2B3 PUSH0 NOT DUP5 PUSH1 0x8 MUL PUSH2 0x298 JUMP JUMPDEST NOT DUP1 DUP4 AND SWAP2 POP POP SWAP3 SWAP2 POP POP JUMP JUMPDEST PUSH0 PUSH2 0x2CB DUP4 DUP4 PUSH2 0x2A4 JUMP JUMPDEST SWAP2 POP DUP3 PUSH1 0x2 MUL DUP3 OR SWAP1 POP SWAP3 SWAP2 POP POP JUMP JUMPDEST PUSH2 0x2E4 DUP3 PUSH2 0xA1 JUMP JUMPDEST PUSH8 0xFFFFFFFFFFFFFFFF DUP2 GT ISZERO PUSH2 0x2FD JUMPI PUSH2 0x2FC PUSH2 0xAB JUMP JUMPDEST JUMPDEST PUSH2 0x307 DUP3 SLOAD PUSH2 0x105 JUMP JUMPDEST PUSH2 0x312 DUP3 DUP3 DUP6 PUSH2 0x252 JUMP JUMPDEST PUSH0 PUSH1 0x20 SWAP1 POP PUSH1 0x1F DUP4 GT PUSH1 0x1 DUP2 EQ PUSH2 0x343 JUMPI PUSH0 DUP5 ISZERO PUSH2 0x331 JUMPI DUP3 DUP8 ADD MLOAD SWAP1 POP JUMPDEST PUSH2 0x33B DUP6 DUP3 PUSH2 0x2C0 JUMP JUMPDEST DUP7 SSTORE POP PUSH2 0x3A2 JUMP JUMPDEST PUSH1 0x1F NOT DUP5 AND PUSH2 0x351 DUP7 PUSH2 0x135 JUMP JUMPDEST PUSH0 JUMPDEST DUP3 DUP2 LT ISZERO PUSH2 0x378 JUMPI DUP5 DUP10 ADD MLOAD DUP3 SSTORE PUSH1 0x1 DUP3 ADD SWAP2 POP PUSH1 0x20 DUP6 ADD SWAP5 POP PUSH1 0x20 DUP2 ADD SWAP1 POP PUSH2 0x353 JUMP JUMPDEST DUP7 DUP4 LT ISZERO PUSH2 0x395 JUMPI DUP5 DUP10 ADD MLOAD PUSH2 0x391 PUSH1 0x1F DUP10 AND DUP3 PUSH2 0x2A4 JUMP JUMPDEST DUP4 SSTORE POP JUMPDEST PUSH1 0x1 PUSH1 0x2 DUP9 MUL ADD DUP9 SSTORE POP POP POP JUMPDEST POP POP POP POP POP POP JUMP JUMPDEST PUSH2 0x32B DUP1 PUSH2 0x3B7 PUSH0 CODECOPY PUSH0 RETURN INVALID PUSH1 0x80 PUSH1 0x40 MSTORE CALLVALUE DUP1 ISZERO PUSH2 0xF JUMPI PUSH0 DUP1 REVERT JUMPDEST POP PUSH1 0x4 CALLDATASIZE LT PUSH2 0x3F JUMPI PUSH0 CALLDATALOAD PUSH1 0xE0 SHR DUP1 PUSH4 0xDBE671F EQ PUSH2 0x43 JUMPI DUP1 PUSH4 0x1F1BD692 EQ PUSH2 0x61 JUMPI DUP1 PUSH4 0x82692679 EQ PUSH2 0x7F JUMPI JUMPDEST PUSH0 DUP1 REVERT JUMPDEST PUSH2 0x4B PUSH2 0x9E JUMP JUMPDEST PUSH1 0x40 MLOAD PUSH2 0x58 SWAP2 SWAP1 PUSH2 0x171 JUMP JUMPDEST PUSH1 0x40 MLOAD DUP1 SWAP2 SUB SWAP1 RETURN JUMPDEST PUSH2 0x69 PUSH2 0xAE JUMP JUMPDEST PUSH1 0x40 MLOAD PUSH2 0x76 SWAP2 SWAP1 PUSH2 0x1FA JUMP JUMPDEST PUSH1 0x40 MLOAD DUP1 SWAP2 SUB SWAP1 RETURN JUMPDEST PUSH2 0x87 PUSH2 0x13A JUMP JUMPDEST PUSH1 0x40 MLOAD PUSH2 0x95 SWAP3 SWAP2 SWAP1 PUSH2 0x271 JUMP JUMPDEST PUSH1 0x40 MLOAD DUP1 SWAP2 SUB SWAP1 RETURN JUMPDEST PUSH0 DUP1 SLOAD SWAP1 PUSH2 0x100 EXP SWAP1 DIV PUSH1 0x3 SIGNEXTEND DUP2 JUMP JUMPDEST PUSH1 0x1 DUP1 SLOAD PUSH2 0xBB SWAP1 PUSH2 0x2C5 JUMP JUMPDEST DUP1 PUSH1 0x1F ADD PUSH1 0x20 DUP1 SWAP2 DIV MUL PUSH1 0x20 ADD PUSH1 0x40 MLOAD SWAP1 DUP2 ADD PUSH1 0x40 MSTORE DUP1 SWAP3 SWAP2 SWAP1 DUP2 DUP2 MSTORE PUSH1 0x20 ADD DUP3 DUP1 SLOAD PUSH2 0xE7 SWAP1 PUSH2 0x2C5 JUMP JUMPDEST DUP1 ISZERO PUSH2 0x132 JUMPI DUP1 PUSH1 0x1F LT PUSH2 0x109 JUMPI PUSH2 0x100 DUP1 DUP4 SLOAD DIV MUL DUP4 MSTORE SWAP2 PUSH1 0x20 ADD SWAP2 PUSH2 0x132 JUMP JUMPDEST DUP3 ADD SWAP2 SWAP1 PUSH0 MSTORE PUSH1 0x20 PUSH0 KECCAK256 SWAP1 JUMPDEST DUP2 SLOAD DUP2 MSTORE SWAP1 PUSH1 0x1 ADD SWAP1 PUSH1 0x20 ADD DUP1 DUP4 GT PUSH2 0x115 JUMPI DUP3 SWAP1 SUB PUSH1 0x1F AND DUP3 ADD SWAP2 JUMPDEST POP POP POP POP POP DUP2 JUMP JUMPDEST PUSH0 DUP1 PUSH0 PUSH1 0x63 SWAP1 POP PUSH0 TIMESTAMP SWAP1 POP PUSH0 CALLER SWAP1 POP DUP2 DUP2 SWAP5 POP SWAP5 POP POP POP POP SWAP1 SWAP2 JUMP JUMPDEST PUSH0 DUP2 PUSH1 0x3 SIGNEXTEND SWAP1 POP SWAP2 SWAP1 POP JUMP JUMPDEST PUSH2 0x16B DUP2 PUSH2 0x156 JUMP JUMPDEST DUP3 MSTORE POP POP JUMP JUMPDEST PUSH0 PUSH1 0x20 DUP3 ADD SWAP1 POP PUSH2 0x184 PUSH0 DUP4 ADD DUP5 PUSH2 0x162 JUMP JUMPDEST SWAP3 SWAP2 POP POP JUMP JUMPDEST PUSH0 DUP2 MLOAD SWAP1 POP SWAP2 SWAP1 POP JUMP JUMPDEST PUSH0 DUP3 DUP3 MSTORE PUSH1 0x20 DUP3 ADD SWAP1 POP SWAP3 SWAP2 POP POP JUMP JUMPDEST DUP3 DUP2 DUP4 MCOPY PUSH0 DUP4 DUP4 ADD MSTORE POP POP POP JUMP JUMPDEST PUSH0 PUSH1 0x1F NOT PUSH1 0x1F DUP4 ADD AND SWAP1 POP SWAP2 SWAP1 POP JUMP JUMPDEST PUSH0 PUSH2 0x1CC DUP3 PUSH2 0x18A JUMP JUMPDEST PUSH2 0x1D6 DUP2 DUP6 PUSH2 0x194 JUMP JUMPDEST SWAP4 POP PUSH2 0x1E6 DUP2 DUP6 PUSH1 0x20 DUP7 ADD PUSH2 0x1A4 JUMP JUMPDEST PUSH2 0x1EF DUP2 PUSH2 0x1B2 JUMP JUMPDEST DUP5 ADD SWAP2 POP POP SWAP3 SWAP2 POP POP JUMP JUMPDEST PUSH0 PUSH1 0x20 DUP3 ADD SWAP1 POP DUP2 DUP2 SUB PUSH0 DUP4 ADD MSTORE PUSH2 0x212 DUP2 DUP5 PUSH2 0x1C2 JUMP JUMPDEST SWAP1 POP SWAP3 SWAP2 POP POP JUMP JUMPDEST PUSH0 DUP2 SWAP1 POP SWAP2 SWAP1 POP JUMP JUMPDEST PUSH2 0x22C DUP2 PUSH2 0x21A JUMP JUMPDEST DUP3 MSTORE POP POP JUMP JUMPDEST PUSH0 PUSH20 0xFFFFFFFFFFFFFFFFFFFFFFFFFFFFFFFFFFFFFFFF DUP3 AND SWAP1 POP SWAP2 SWAP1 POP JUMP JUMPDEST PUSH0 PUSH2 0x25B DUP3 PUSH2 0x232 JUMP JUMPDEST SWAP1 POP SWAP2 SWAP1 POP JUMP JUMPDEST PUSH2 0x26B DUP2 PUSH2 0x251 JUMP JUMPDEST DUP3 MSTORE POP POP JUMP JUMPDEST PUSH0 PUSH1 0x40 DUP3 ADD SWAP1 POP PUSH2 0x284 PUSH0 DUP4 ADD DUP6 PUSH2 0x223 JUMP JUMPDEST PUSH2 0x291 PUSH1 0x20 DUP4 ADD DUP5 PUSH2 0x262 JUMP JUMPDEST SWAP4 SWAP3 POP POP POP JUMP JUMPDEST PUSH32 0x4E487B7100000000000000000000000000000000000000000000000000000000 PUSH0 MSTORE PUSH1 0x22 PUSH1 0x4 MSTORE PUSH1 0x24 PUSH0 REVERT JUMPDEST PUSH0 PUSH1 0x2 DUP3 DIV SWAP1 POP PUSH1 0x1 DUP3 AND DUP1 PUSH2 0x2DC JUMPI PUSH1 0x7F DUP3 AND SWAP2 POP JUMPDEST PUSH1 0x20 DUP3 LT DUP2 SUB PUSH2 0x2EF JUMPI PUSH2 0x2EE PUSH2 0x298 JUMP JUMPDEST JUMPDEST POP SWAP2 SWAP1 POP JUMP INVALID LOG2 PUSH5 0x6970667358 0x22 SLT KECCAK256 PUSH11 0x3FF11F04E05A8BFFB6C4EF SWAP7 0xD7 0xC MLOAD 0xBD 0xE6 0x1F PUSH8 0xE35595D13046BD7B 0xDA JUMPI MSTORE 0x4C PUSH5 0x736F6C6343 STOP ADDMOD BYTE STOP CALLER "
				},
				"gasEstimates": {
					"creation": {
						"codeDepositCost": "162200",
						"executionCost": "infinite",
						"totalCost": "infinite"
					},
					"external": {
						"a()": "2445",
						"doSomething()": "549",
						"text()": "infinite"
					}
				},
				"methodIdentifiers": {
					"a()": "0dbe671f",
					"doSomething()": "82692679",
					"text()": "1f1bd692"
				}
			},
			"storageLayout": {
				"storage": [
					{
						"astId": 8,
						"contract": "solidityByExample/contract/004Variales.sol:Variables",
						"label": "a",
						"offset": 0,
						"slot": "0",
						"type": "t_int32"
					},
					{
						"astId": 11,
						"contract": "solidityByExample/contract/004Variales.sol:Variables",
						"label": "text",
						"offset": 0,
						"slot": "1",
						"type": "t_string_storage"
					},
					{
						"astId": 14,
						"contract": "solidityByExample/contract/004Variales.sol:Variables",
						"label": "numa",
						"offset": 0,
						"slot": "2",
						"type": "t_uint256"
					}
				],
				"types": {
					"t_int32": {
						"encoding": "inplace",
						"label": "int32",
						"numberOfBytes": "4"
					},
					"t_string_storage": {
						"encoding": "bytes",
						"label": "string",
						"numberOfBytes": "32"
					},
					"t_uint256": {
						"encoding": "inplace",
						"label": "uint256",
						"numberOfBytes": "32"
					}
				}
			},
			"userdoc": {
				"kind": "user",
				"methods": {},
				"version": 1
			}
		}
	}
}