{
	"solidityByExample/contract/011Loop.sol": {
		"ForWhile": {
			"abi": [
				{
					"inputs": [
						{
							"internalType": "uint256",
							"name": "_x",
							"type": "uint256"
						}
					],
					"name": "ForLoop",
					"outputs": [
						{
							"internalType": "uint256",
							"name": "",
							"type": "uint256"
						}
					],
					"stateMutability": "pure",
					"type": "function"
				},
				{
					"inputs": [],
					"name": "loop",
					"outputs": [
						{
							"internalType": "uint256",
							"name": "",
							"type": "uint256"
						},
						{
							"internalType": "uint256",
							"name": "",
							"type": "uint256"
						}
					],
					"stateMutability": "pure",
					"type": "function"
				},
				{
					"inputs": [],
					"name": "whileLoop",
					"outputs": [
						{
							"internalType": "uint256",
							"name": "",
							"type": "uint256"
						}
					],
					"stateMutability": "pure",
					"type": "function"
				}
			],
			"devdoc": {
				"kind": "dev",
				"methods": {},
				"version": 1
			},
			"evm": {
				"assembly": "    /* \"solidityByExample/contract/011Loop.sol\":59:892  contract ForWhile {... */\n  mstore(0x40, 0x80)\n  callvalue\n  dup1\n  iszero\n  tag_1\n  jumpi\n  0x00\n  dup1\n  revert\ntag_1:\n  pop\n  dataSize(sub_0)\n  dup1\n  dataOffset(sub_0)\n  0x00\n  codecopy\n  0x00\n  return\nstop\n\nsub_0: assembly {\n        /* \"solidityByExample/contract/011Loop.sol\":59:892  contract ForWhile {... */\n      mstore(0x40, 0x80)\n      callvalue\n      dup1\n      iszero\n      tag_1\n      jumpi\n      0x00\n      dup1\n      revert\n    tag_1:\n      pop\n      jumpi(tag_2, lt(calldatasize, 0x04))\n      shr(0xe0, calldataload(0x00))\n      dup1\n      0x9cc8e419\n      eq\n      tag_3\n      jumpi\n      dup1\n      0xa92100cb\n      eq\n      tag_4\n      jumpi\n      dup1\n      0xe7c898ef\n      eq\n      tag_5\n      jumpi\n    tag_2:\n      0x00\n      dup1\n      revert\n        /* \"solidityByExample/contract/011Loop.sol\":83:259  function ForLoop(uint _x) public pure returns(uint) {... */\n    tag_3:\n      tag_6\n      0x04\n      dup1\n      calldatasize\n      sub\n      dup2\n      add\n      swap1\n      tag_7\n      swap2\n      swap1\n      tag_8\n      jump\t// in\n    tag_7:\n      tag_9\n      jump\t// in\n    tag_6:\n      mload(0x40)\n      tag_10\n      swap2\n      swap1\n      tag_11\n      jump\t// in\n    tag_10:\n      mload(0x40)\n      dup1\n      swap2\n      sub\n      swap1\n      return\n        /* \"solidityByExample/contract/011Loop.sol\":541:890  function loop() public pure returns(uint, uint) {... */\n    tag_4:\n      tag_12\n      tag_13\n      jump\t// in\n    tag_12:\n      mload(0x40)\n      tag_14\n      swap3\n      swap2\n      swap1\n      tag_15\n      jump\t// in\n    tag_14:\n      mload(0x40)\n      dup1\n      swap2\n      sub\n      swap1\n      return\n        /* \"solidityByExample/contract/011Loop.sol\":265:535  function whileLoop() public pure returns (uint) {... */\n    tag_5:\n      tag_16\n      tag_17\n      jump\t// in\n    tag_16:\n      mload(0x40)\n      tag_18\n      swap2\n      swap1\n      tag_11\n      jump\t// in\n    tag_18:\n      mload(0x40)\n      dup1\n      swap2\n      sub\n      swap1\n      return\n        /* \"solidityByExample/contract/011Loop.sol\":83:259  function ForLoop(uint _x) public pure returns(uint) {... */\n    tag_9:\n        /* \"solidityByExample/contract/011Loop.sol\":129:133  uint */\n      0x00\n        /* \"solidityByExample/contract/011Loop.sol\":145:154  uint numa */\n      dup1\n        /* \"solidityByExample/contract/011Loop.sol\":157:158  0 */\n      0x00\n        /* \"solidityByExample/contract/011Loop.sol\":145:158  uint numa = 0 */\n      swap1\n      pop\n        /* \"solidityByExample/contract/011Loop.sol\":173:179  uint i */\n      0x00\n        /* \"solidityByExample/contract/011Loop.sol\":169:232  for(uint i = 0; i <= _x; i++){... */\n    tag_20:\n        /* \"solidityByExample/contract/011Loop.sol\":190:192  _x */\n      dup4\n        /* \"solidityByExample/contract/011Loop.sol\":185:186  i */\n      dup2\n        /* \"solidityByExample/contract/011Loop.sol\":185:192  i <= _x */\n      gt\n        /* \"solidityByExample/contract/011Loop.sol\":169:232  for(uint i = 0; i <= _x; i++){... */\n      tag_21\n      jumpi\n        /* \"solidityByExample/contract/011Loop.sol\":220:221  i */\n      dup1\n        /* \"solidityByExample/contract/011Loop.sol\":212:221  numa += i */\n      dup3\n      tag_23\n      swap2\n      swap1\n      tag_24\n      jump\t// in\n    tag_23:\n      swap2\n      pop\n        /* \"solidityByExample/contract/011Loop.sol\":194:197  i++ */\n      dup1\n      dup1\n      tag_25\n      swap1\n      tag_26\n      jump\t// in\n    tag_25:\n      swap2\n      pop\n      pop\n        /* \"solidityByExample/contract/011Loop.sol\":169:232  for(uint i = 0; i <= _x; i++){... */\n      jump(tag_20)\n    tag_21:\n      pop\n        /* \"solidityByExample/contract/011Loop.sol\":248:252  numa */\n      dup1\n        /* \"solidityByExample/contract/011Loop.sol\":241:252  return numa */\n      swap2\n      pop\n      pop\n        /* \"solidityByExample/contract/011Loop.sol\":83:259  function ForLoop(uint _x) public pure returns(uint) {... */\n      swap2\n      swap1\n      pop\n      jump\t// out\n        /* \"solidityByExample/contract/011Loop.sol\":541:890  function loop() public pure returns(uint, uint) {... */\n    tag_13:\n        /* \"solidityByExample/contract/011Loop.sol\":577:581  uint */\n      0x00\n        /* \"solidityByExample/contract/011Loop.sol\":583:587  uint */\n      dup1\n        /* \"solidityByExample/contract/011Loop.sol\":599:608  uint numa */\n      0x00\n        /* \"solidityByExample/contract/011Loop.sol\":626:632  uint i */\n      dup1\n        /* \"solidityByExample/contract/011Loop.sol\":622:884  for(uint i = 0; i < 10; i++) {... */\n    tag_28:\n        /* \"solidityByExample/contract/011Loop.sol\":642:644  10 */\n      0x0a\n        /* \"solidityByExample/contract/011Loop.sol\":638:639  i */\n      dup2\n        /* \"solidityByExample/contract/011Loop.sol\":638:644  i < 10 */\n      lt\n        /* \"solidityByExample/contract/011Loop.sol\":622:884  for(uint i = 0; i < 10; i++) {... */\n      iszero\n      tag_29\n      jumpi\n        /* \"solidityByExample/contract/011Loop.sol\":673:674  3 */\n      0x03\n        /* \"solidityByExample/contract/011Loop.sol\":669:670  i */\n      dup2\n        /* \"solidityByExample/contract/011Loop.sol\":669:674  i < 3 */\n      lt\n        /* \"solidityByExample/contract/011Loop.sol\":693:701  continue */\n      tag_30\n        /* \"solidityByExample/contract/011Loop.sol\":665:717  if (i < 3){... */\n      jumpi\n        /* \"solidityByExample/contract/011Loop.sol\":725:726  5 */\n      0x05\n        /* \"solidityByExample/contract/011Loop.sol\":721:722  i */\n      dup2\n        /* \"solidityByExample/contract/011Loop.sol\":721:726  i > 5 */\n      gt\n        /* \"solidityByExample/contract/011Loop.sol\":745:750  break */\n      tag_29\n        /* \"solidityByExample/contract/011Loop.sol\":717:765  if (i > 5){... */\n      jumpi\n        /* \"solidityByExample/contract/011Loop.sol\":773:774  i */\n      dup1\n        /* \"solidityByExample/contract/011Loop.sol\":766:774  numa = i */\n      swap2\n      pop\n        /* \"solidityByExample/contract/011Loop.sol\":784:790  uint j */\n      0x00\n        /* \"solidityByExample/contract/011Loop.sol\":805:848  while (j < 10) {... */\n    tag_33:\n        /* \"solidityByExample/contract/011Loop.sol\":816:818  10 */\n      0x0a\n        /* \"solidityByExample/contract/011Loop.sol\":812:813  j */\n      dup2\n        /* \"solidityByExample/contract/011Loop.sol\":812:818  j < 10 */\n      lt\n        /* \"solidityByExample/contract/011Loop.sol\":805:848  while (j < 10) {... */\n      iszero\n      tag_34\n      jumpi\n        /* \"solidityByExample/contract/011Loop.sol\":834:837  j++ */\n      dup1\n      dup1\n      tag_35\n      swap1\n      tag_26\n      jump\t// in\n    tag_35:\n      swap2\n      pop\n      pop\n        /* \"solidityByExample/contract/011Loop.sol\":805:848  while (j < 10) {... */\n      jump(tag_33)\n    tag_34:\n        /* \"solidityByExample/contract/011Loop.sol\":865:869  numa */\n      dup3\n        /* \"solidityByExample/contract/011Loop.sol\":871:872  j */\n      dup2\n        /* \"solidityByExample/contract/011Loop.sol\":857:873  return (numa, j) */\n      swap5\n      pop\n      swap5\n      pop\n      pop\n      pop\n      pop\n      jump(tag_27)\n        /* \"solidityByExample/contract/011Loop.sol\":622:884  for(uint i = 0; i < 10; i++) {... */\n    tag_30:\n        /* \"solidityByExample/contract/011Loop.sol\":646:649  i++ */\n      dup1\n      dup1\n      0x01\n      add\n      swap2\n      pop\n      pop\n        /* \"solidityByExample/contract/011Loop.sol\":622:884  for(uint i = 0; i < 10; i++) {... */\n      jump(tag_28)\n    tag_29:\n      pop\n        /* \"solidityByExample/contract/011Loop.sol\":589:890  {... */\n      pop\n        /* \"solidityByExample/contract/011Loop.sol\":541:890  function loop() public pure returns(uint, uint) {... */\n    tag_27:\n      swap1\n      swap2\n      jump\t// out\n        /* \"solidityByExample/contract/011Loop.sol\":265:535  function whileLoop() public pure returns (uint) {... */\n    tag_17:\n        /* \"solidityByExample/contract/011Loop.sol\":307:311  uint */\n      0x00\n        /* \"solidityByExample/contract/011Loop.sol\":323:329  uint x */\n      dup1\n        /* \"solidityByExample/contract/011Loop.sol\":332:335  255 */\n      0xff\n        /* \"solidityByExample/contract/011Loop.sol\":323:335  uint x = 255 */\n      swap1\n      pop\n        /* \"solidityByExample/contract/011Loop.sol\":357:360  256 */\n      0x0100\n        /* \"solidityByExample/contract/011Loop.sol\":353:354  x */\n      dup2\n        /* \"solidityByExample/contract/011Loop.sol\":353:360  x < 256 */\n      lt\n        /* \"solidityByExample/contract/011Loop.sol\":346:465  while (x < 256) {... */\n      iszero\n      tag_38\n      jumpi\n        /* \"solidityByExample/contract/011Loop.sol\":376:379  x++ */\n      dup1\n      dup1\n      tag_39\n      swap1\n      tag_26\n      jump\t// in\n    tag_39:\n      swap2\n      pop\n      pop\n        /* \"solidityByExample/contract/011Loop.sol\":400:401  x */\n      dup1\n        /* \"solidityByExample/contract/011Loop.sol\":393:401  return x */\n      swap2\n      pop\n      pop\n      jump(tag_36)\n        /* \"solidityByExample/contract/011Loop.sol\":346:465  while (x < 256) {... */\n    tag_38:\n        /* \"solidityByExample/contract/011Loop.sol\":481:482  x */\n      dup1\n        /* \"solidityByExample/contract/011Loop.sol\":474:482  return x */\n      swap2\n      pop\n      pop\n        /* \"solidityByExample/contract/011Loop.sol\":265:535  function whileLoop() public pure returns (uint) {... */\n    tag_36:\n      swap1\n      jump\t// out\n        /* \"#utility.yul\":88:205   */\n    tag_41:\n        /* \"#utility.yul\":197:198   */\n      0x00\n        /* \"#utility.yul\":194:195   */\n      dup1\n        /* \"#utility.yul\":187:199   */\n      revert\n        /* \"#utility.yul\":334:411   */\n    tag_43:\n        /* \"#utility.yul\":371:378   */\n      0x00\n        /* \"#utility.yul\":400:405   */\n      dup2\n        /* \"#utility.yul\":389:405   */\n      swap1\n      pop\n        /* \"#utility.yul\":334:411   */\n      swap2\n      swap1\n      pop\n      jump\t// out\n        /* \"#utility.yul\":417:539   */\n    tag_44:\n        /* \"#utility.yul\":490:514   */\n      tag_54\n        /* \"#utility.yul\":508:513   */\n      dup2\n        /* \"#utility.yul\":490:514   */\n      tag_43\n      jump\t// in\n    tag_54:\n        /* \"#utility.yul\":483:488   */\n      dup2\n        /* \"#utility.yul\":480:515   */\n      eq\n        /* \"#utility.yul\":470:533   */\n      tag_55\n      jumpi\n        /* \"#utility.yul\":529:530   */\n      0x00\n        /* \"#utility.yul\":526:527   */\n      dup1\n        /* \"#utility.yul\":519:531   */\n      revert\n        /* \"#utility.yul\":470:533   */\n    tag_55:\n        /* \"#utility.yul\":417:539   */\n      pop\n      jump\t// out\n        /* \"#utility.yul\":545:684   */\n    tag_45:\n        /* \"#utility.yul\":591:596   */\n      0x00\n        /* \"#utility.yul\":629:635   */\n      dup2\n        /* \"#utility.yul\":616:636   */\n      calldataload\n        /* \"#utility.yul\":607:636   */\n      swap1\n      pop\n        /* \"#utility.yul\":645:678   */\n      tag_57\n        /* \"#utility.yul\":672:677   */\n      dup2\n        /* \"#utility.yul\":645:678   */\n      tag_44\n      jump\t// in\n    tag_57:\n        /* \"#utility.yul\":545:684   */\n      swap3\n      swap2\n      pop\n      pop\n      jump\t// out\n        /* \"#utility.yul\":690:1019   */\n    tag_8:\n        /* \"#utility.yul\":749:755   */\n      0x00\n        /* \"#utility.yul\":798:800   */\n      0x20\n        /* \"#utility.yul\":786:795   */\n      dup3\n        /* \"#utility.yul\":777:784   */\n      dup5\n        /* \"#utility.yul\":773:796   */\n      sub\n        /* \"#utility.yul\":769:801   */\n      slt\n        /* \"#utility.yul\":766:885   */\n      iszero\n      tag_59\n      jumpi\n        /* \"#utility.yul\":804:883   */\n      tag_60\n      tag_41\n      jump\t// in\n    tag_60:\n        /* \"#utility.yul\":766:885   */\n    tag_59:\n        /* \"#utility.yul\":924:925   */\n      0x00\n        /* \"#utility.yul\":949:1002   */\n      tag_61\n        /* \"#utility.yul\":994:1001   */\n      dup5\n        /* \"#utility.yul\":985:991   */\n      dup3\n        /* \"#utility.yul\":974:983   */\n      dup6\n        /* \"#utility.yul\":970:992   */\n      add\n        /* \"#utility.yul\":949:1002   */\n      tag_45\n      jump\t// in\n    tag_61:\n        /* \"#utility.yul\":939:1002   */\n      swap2\n      pop\n        /* \"#utility.yul\":895:1012   */\n      pop\n        /* \"#utility.yul\":690:1019   */\n      swap3\n      swap2\n      pop\n      pop\n      jump\t// out\n        /* \"#utility.yul\":1025:1143   */\n    tag_46:\n        /* \"#utility.yul\":1112:1136   */\n      tag_63\n        /* \"#utility.yul\":1130:1135   */\n      dup2\n        /* \"#utility.yul\":1112:1136   */\n      tag_43\n      jump\t// in\n    tag_63:\n        /* \"#utility.yul\":1107:1110   */\n      dup3\n        /* \"#utility.yul\":1100:1137   */\n      mstore\n        /* \"#utility.yul\":1025:1143   */\n      pop\n      pop\n      jump\t// out\n        /* \"#utility.yul\":1149:1371   */\n    tag_11:\n        /* \"#utility.yul\":1242:1246   */\n      0x00\n        /* \"#utility.yul\":1280:1282   */\n      0x20\n        /* \"#utility.yul\":1269:1278   */\n      dup3\n        /* \"#utility.yul\":1265:1283   */\n      add\n        /* \"#utility.yul\":1257:1283   */\n      swap1\n      pop\n        /* \"#utility.yul\":1293:1364   */\n      tag_65\n        /* \"#utility.yul\":1361:1362   */\n      0x00\n        /* \"#utility.yul\":1350:1359   */\n      dup4\n        /* \"#utility.yul\":1346:1363   */\n      add\n        /* \"#utility.yul\":1337:1343   */\n      dup5\n        /* \"#utility.yul\":1293:1364   */\n      tag_46\n      jump\t// in\n    tag_65:\n        /* \"#utility.yul\":1149:1371   */\n      swap3\n      swap2\n      pop\n      pop\n      jump\t// out\n        /* \"#utility.yul\":1377:1709   */\n    tag_15:\n        /* \"#utility.yul\":1498:1502   */\n      0x00\n        /* \"#utility.yul\":1536:1538   */\n      0x40\n        /* \"#utility.yul\":1525:1534   */\n      dup3\n        /* \"#utility.yul\":1521:1539   */\n      add\n        /* \"#utility.yul\":1513:1539   */\n      swap1\n      pop\n        /* \"#utility.yul\":1549:1620   */\n      tag_67\n        /* \"#utility.yul\":1617:1618   */\n      0x00\n        /* \"#utility.yul\":1606:1615   */\n      dup4\n        /* \"#utility.yul\":1602:1619   */\n      add\n        /* \"#utility.yul\":1593:1599   */\n      dup6\n        /* \"#utility.yul\":1549:1620   */\n      tag_46\n      jump\t// in\n    tag_67:\n        /* \"#utility.yul\":1630:1702   */\n      tag_68\n        /* \"#utility.yul\":1698:1700   */\n      0x20\n        /* \"#utility.yul\":1687:1696   */\n      dup4\n        /* \"#utility.yul\":1683:1701   */\n      add\n        /* \"#utility.yul\":1674:1680   */\n      dup5\n        /* \"#utility.yul\":1630:1702   */\n      tag_46\n      jump\t// in\n    tag_68:\n        /* \"#utility.yul\":1377:1709   */\n      swap4\n      swap3\n      pop\n      pop\n      pop\n      jump\t// out\n        /* \"#utility.yul\":1715:1895   */\n    tag_47:\n        /* \"#utility.yul\":1763:1840   */\n      0x4e487b7100000000000000000000000000000000000000000000000000000000\n        /* \"#utility.yul\":1760:1761   */\n      0x00\n        /* \"#utility.yul\":1753:1841   */\n      mstore\n        /* \"#utility.yul\":1860:1864   */\n      0x11\n        /* \"#utility.yul\":1857:1858   */\n      0x04\n        /* \"#utility.yul\":1850:1865   */\n      mstore\n        /* \"#utility.yul\":1884:1888   */\n      0x24\n        /* \"#utility.yul\":1881:1882   */\n      0x00\n        /* \"#utility.yul\":1874:1889   */\n      revert\n        /* \"#utility.yul\":1901:2092   */\n    tag_24:\n        /* \"#utility.yul\":1941:1944   */\n      0x00\n        /* \"#utility.yul\":1960:1980   */\n      tag_71\n        /* \"#utility.yul\":1978:1979   */\n      dup3\n        /* \"#utility.yul\":1960:1980   */\n      tag_43\n      jump\t// in\n    tag_71:\n        /* \"#utility.yul\":1955:1980   */\n      swap2\n      pop\n        /* \"#utility.yul\":1994:2014   */\n      tag_72\n        /* \"#utility.yul\":2012:2013   */\n      dup4\n        /* \"#utility.yul\":1994:2014   */\n      tag_43\n      jump\t// in\n    tag_72:\n        /* \"#utility.yul\":1989:2014   */\n      swap3\n      pop\n        /* \"#utility.yul\":2037:2038   */\n      dup3\n        /* \"#utility.yul\":2034:2035   */\n      dup3\n        /* \"#utility.yul\":2030:2039   */\n      add\n        /* \"#utility.yul\":2023:2039   */\n      swap1\n      pop\n        /* \"#utility.yul\":2058:2061   */\n      dup1\n        /* \"#utility.yul\":2055:2056   */\n      dup3\n        /* \"#utility.yul\":2052:2062   */\n      gt\n        /* \"#utility.yul\":2049:2085   */\n      iszero\n      tag_73\n      jumpi\n        /* \"#utility.yul\":2065:2083   */\n      tag_74\n      tag_47\n      jump\t// in\n    tag_74:\n        /* \"#utility.yul\":2049:2085   */\n    tag_73:\n        /* \"#utility.yul\":1901:2092   */\n      swap3\n      swap2\n      pop\n      pop\n      jump\t// out\n        /* \"#utility.yul\":2098:2331   */\n    tag_26:\n        /* \"#utility.yul\":2137:2140   */\n      0x00\n        /* \"#utility.yul\":2160:2184   */\n      tag_76\n        /* \"#utility.yul\":2178:2183   */\n      dup3\n        /* \"#utility.yul\":2160:2184   */\n      tag_43\n      jump\t// in\n    tag_76:\n        /* \"#utility.yul\":2151:2184   */\n      swap2\n      pop\n        /* \"#utility.yul\":2206:2272   */\n      0xffffffffffffffffffffffffffffffffffffffffffffffffffffffffffffffff\n        /* \"#utility.yul\":2199:2204   */\n      dup3\n        /* \"#utility.yul\":2196:2273   */\n      sub\n        /* \"#utility.yul\":2193:2296   */\n      tag_77\n      jumpi\n        /* \"#utility.yul\":2276:2294   */\n      tag_78\n      tag_47\n      jump\t// in\n    tag_78:\n        /* \"#utility.yul\":2193:2296   */\n    tag_77:\n        /* \"#utility.yul\":2323:2324   */\n      0x01\n        /* \"#utility.yul\":2316:2321   */\n      dup3\n        /* \"#utility.yul\":2312:2325   */\n      add\n        /* \"#utility.yul\":2305:2325   */\n      swap1\n      pop\n        /* \"#utility.yul\":2098:2331   */\n      swap2\n      swap1\n      pop\n      jump\t// out\n\n    auxdata: 0xa2646970667358221220515eed9ee5e2d11eb5dcc91d00afac8d3e375551b55ca246c93a823583912d6d64736f6c634300081a0033\n}\n",
				"bytecode": {
					"linkReferences": {},
					"object": "6080604052348015600e575f80fd5b506103078061001c5f395ff3fe608060405234801561000f575f80fd5b506004361061003f575f3560e01c80639cc8e41914610043578063a92100cb14610073578063e7c898ef14610092575b5f80fd5b61005d600480360381019061005891906101b0565b6100b0565b60405161006a91906101ea565b60405180910390f35b61007b6100e9565b604051610089929190610203565b60405180910390f35b61009a61014a565b6040516100a791906101ea565b60405180910390f35b5f805f90505f5b8381116100df5780826100ca9190610257565b915080806100d79061028a565b9150506100b7565b5080915050919050565b5f805f805b600a81101561014357600381106101365760058111610143578091505f5b600a8110156101285780806101209061028a565b91505061010c565b828194509450505050610146565b80806001019150506100ee565b50505b9091565b5f8060ff90506101008110156101715780806101659061028a565b91505080915050610176565b809150505b90565b5f80fd5b5f819050919050565b61018f8161017d565b8114610199575f80fd5b50565b5f813590506101aa81610186565b92915050565b5f602082840312156101c5576101c4610179565b5b5f6101d28482850161019c565b91505092915050565b6101e48161017d565b82525050565b5f6020820190506101fd5f8301846101db565b92915050565b5f6040820190506102165f8301856101db565b61022360208301846101db565b9392505050565b7f4e487b71000000000000000000000000000000000000000000000000000000005f52601160045260245ffd5b5f6102618261017d565b915061026c8361017d565b92508282019050808211156102845761028361022a565b5b92915050565b5f6102948261017d565b91507fffffffffffffffffffffffffffffffffffffffffffffffffffffffffffffffff82036102c6576102c561022a565b5b60018201905091905056fea2646970667358221220515eed9ee5e2d11eb5dcc91d00afac8d3e375551b55ca246c93a823583912d6d64736f6c634300081a0033",
					"opcodes": "PUSH1 0x80 PUSH1 0x40 MSTORE CALLVALUE DUP1 ISZERO PUSH1 0xE JUMPI PUSH0 DUP1 REVERT JUMPDEST POP PUSH2 0x307 DUP1 PUSH2 0x1C PUSH0 CODECOPY PUSH0 RETURN INVALID PUSH1 0x80 PUSH1 0x40 MSTORE CALLVALUE DUP1 ISZERO PUSH2 0xF JUMPI PUSH0 DUP1 REVERT JUMPDEST POP PUSH1 0x4 CALLDATASIZE LT PUSH2 0x3F JUMPI PUSH0 CALLDATALOAD PUSH1 0xE0 SHR DUP1 PUSH4 0x9CC8E419 EQ PUSH2 0x43 JUMPI DUP1 PUSH4 0xA92100CB EQ PUSH2 0x73 JUMPI DUP1 PUSH4 0xE7C898EF EQ PUSH2 0x92 JUMPI JUMPDEST PUSH0 DUP1 REVERT JUMPDEST PUSH2 0x5D PUSH1 0x4 DUP1 CALLDATASIZE SUB DUP2 ADD SWAP1 PUSH2 0x58 SWAP2 SWAP1 PUSH2 0x1B0 JUMP JUMPDEST PUSH2 0xB0 JUMP JUMPDEST PUSH1 0x40 MLOAD PUSH2 0x6A SWAP2 SWAP1 PUSH2 0x1EA JUMP JUMPDEST PUSH1 0x40 MLOAD DUP1 SWAP2 SUB SWAP1 RETURN JUMPDEST PUSH2 0x7B PUSH2 0xE9 JUMP JUMPDEST PUSH1 0x40 MLOAD PUSH2 0x89 SWAP3 SWAP2 SWAP1 PUSH2 0x203 JUMP JUMPDEST PUSH1 0x40 MLOAD DUP1 SWAP2 SUB SWAP1 RETURN JUMPDEST PUSH2 0x9A PUSH2 0x14A JUMP JUMPDEST PUSH1 0x40 MLOAD PUSH2 0xA7 SWAP2 SWAP1 PUSH2 0x1EA JUMP JUMPDEST PUSH1 0x40 MLOAD DUP1 SWAP2 SUB SWAP1 RETURN JUMPDEST PUSH0 DUP1 PUSH0 SWAP1 POP PUSH0 JUMPDEST DUP4 DUP2 GT PUSH2 0xDF JUMPI DUP1 DUP3 PUSH2 0xCA SWAP2 SWAP1 PUSH2 0x257 JUMP JUMPDEST SWAP2 POP DUP1 DUP1 PUSH2 0xD7 SWAP1 PUSH2 0x28A JUMP JUMPDEST SWAP2 POP POP PUSH2 0xB7 JUMP JUMPDEST POP DUP1 SWAP2 POP POP SWAP2 SWAP1 POP JUMP JUMPDEST PUSH0 DUP1 PUSH0 DUP1 JUMPDEST PUSH1 0xA DUP2 LT ISZERO PUSH2 0x143 JUMPI PUSH1 0x3 DUP2 LT PUSH2 0x136 JUMPI PUSH1 0x5 DUP2 GT PUSH2 0x143 JUMPI DUP1 SWAP2 POP PUSH0 JUMPDEST PUSH1 0xA DUP2 LT ISZERO PUSH2 0x128 JUMPI DUP1 DUP1 PUSH2 0x120 SWAP1 PUSH2 0x28A JUMP JUMPDEST SWAP2 POP POP PUSH2 0x10C JUMP JUMPDEST DUP3 DUP2 SWAP5 POP SWAP5 POP POP POP POP PUSH2 0x146 JUMP JUMPDEST DUP1 DUP1 PUSH1 0x1 ADD SWAP2 POP POP PUSH2 0xEE JUMP JUMPDEST POP POP JUMPDEST SWAP1 SWAP2 JUMP JUMPDEST PUSH0 DUP1 PUSH1 0xFF SWAP1 POP PUSH2 0x100 DUP2 LT ISZERO PUSH2 0x171 JUMPI DUP1 DUP1 PUSH2 0x165 SWAP1 PUSH2 0x28A JUMP JUMPDEST SWAP2 POP POP DUP1 SWAP2 POP POP PUSH2 0x176 JUMP JUMPDEST DUP1 SWAP2 POP POP JUMPDEST SWAP1 JUMP JUMPDEST PUSH0 DUP1 REVERT JUMPDEST PUSH0 DUP2 SWAP1 POP SWAP2 SWAP1 POP JUMP JUMPDEST PUSH2 0x18F DUP2 PUSH2 0x17D JUMP JUMPDEST DUP2 EQ PUSH2 0x199 JUMPI PUSH0 DUP1 REVERT JUMPDEST POP JUMP JUMPDEST PUSH0 DUP2 CALLDATALOAD SWAP1 POP PUSH2 0x1AA DUP2 PUSH2 0x186 JUMP JUMPDEST SWAP3 SWAP2 POP POP JUMP JUMPDEST PUSH0 PUSH1 0x20 DUP3 DUP5 SUB SLT ISZERO PUSH2 0x1C5 JUMPI PUSH2 0x1C4 PUSH2 0x179 JUMP JUMPDEST JUMPDEST PUSH0 PUSH2 0x1D2 DUP5 DUP3 DUP6 ADD PUSH2 0x19C JUMP JUMPDEST SWAP2 POP POP SWAP3 SWAP2 POP POP JUMP JUMPDEST PUSH2 0x1E4 DUP2 PUSH2 0x17D JUMP JUMPDEST DUP3 MSTORE POP POP JUMP JUMPDEST PUSH0 PUSH1 0x20 DUP3 ADD SWAP1 POP PUSH2 0x1FD PUSH0 DUP4 ADD DUP5 PUSH2 0x1DB JUMP JUMPDEST SWAP3 SWAP2 POP POP JUMP JUMPDEST PUSH0 PUSH1 0x40 DUP3 ADD SWAP1 POP PUSH2 0x216 PUSH0 DUP4 ADD DUP6 PUSH2 0x1DB JUMP JUMPDEST PUSH2 0x223 PUSH1 0x20 DUP4 ADD DUP5 PUSH2 0x1DB JUMP JUMPDEST SWAP4 SWAP3 POP POP POP JUMP JUMPDEST PUSH32 0x4E487B7100000000000000000000000000000000000000000000000000000000 PUSH0 MSTORE PUSH1 0x11 PUSH1 0x4 MSTORE PUSH1 0x24 PUSH0 REVERT JUMPDEST PUSH0 PUSH2 0x261 DUP3 PUSH2 0x17D JUMP JUMPDEST SWAP2 POP PUSH2 0x26C DUP4 PUSH2 0x17D JUMP JUMPDEST SWAP3 POP DUP3 DUP3 ADD SWAP1 POP DUP1 DUP3 GT ISZERO PUSH2 0x284 JUMPI PUSH2 0x283 PUSH2 0x22A JUMP JUMPDEST JUMPDEST SWAP3 SWAP2 POP POP JUMP JUMPDEST PUSH0 PUSH2 0x294 DUP3 PUSH2 0x17D JUMP JUMPDEST SWAP2 POP PUSH32 0xFFFFFFFFFFFFFFFFFFFFFFFFFFFFFFFFFFFFFFFFFFFFFFFFFFFFFFFFFFFFFFFF DUP3 SUB PUSH2 0x2C6 JUMPI PUSH2 0x2C5 PUSH2 0x22A JUMP JUMPDEST JUMPDEST PUSH1 0x1 DUP3 ADD SWAP1 POP SWAP2 SWAP1 POP JUMP INVALID LOG2 PUSH5 0x6970667358 0x22 SLT KECCAK256 MLOAD MCOPY 0xED SWAP15 0xE5 0xE2 0xD1 0x1E 0xB5 0xDC 0xC9 SAR STOP 0xAF 0xAC DUP14 RETURNDATACOPY CALLDATACOPY SSTORE MLOAD 0xB5 TLOAD LOG2 CHAINID 0xC9 GASPRICE DUP3 CALLDATALOAD DUP4 SWAP2 0x2D PUSH14 0x64736F6C634300081A0033000000 "
				},
				"gasEstimates": {
					"creation": {
						"codeDepositCost": "155000",
						"executionCost": "200",
						"totalCost": "155200"
					},
					"external": {
						"ForLoop(uint256)": "infinite",
						"loop()": "infinite",
						"whileLoop()": "infinite"
					}
				},
				"methodIdentifiers": {
					"ForLoop(uint256)": "9cc8e419",
					"loop()": "a92100cb",
					"whileLoop()": "e7c898ef"
				}
			},
			"storageLayout": {
				"storage": [],
				"types": null
			},
			"userdoc": {
				"kind": "user",
				"methods": {},
				"version": 1
			}
		}
	}
}