{
	"solidityByExample/contract/017Function.sol": {
		"Function": {
			"abi": [
				{
					"inputs": [
						{
							"internalType": "uint256",
							"name": "",
							"type": "uint256"
						}
					],
					"name": "arr",
					"outputs": [
						{
							"internalType": "uint256",
							"name": "",
							"type": "uint256"
						}
					],
					"stateMutability": "view",
					"type": "function"
				},
				{
					"inputs": [
						{
							"internalType": "uint256[]",
							"name": "_arr",
							"type": "uint256[]"
						}
					],
					"name": "arrInput",
					"outputs": [],
					"stateMutability": "nonpayable",
					"type": "function"
				},
				{
					"inputs": [],
					"name": "destructingAssignments",
					"outputs": [
						{
							"internalType": "uint256",
							"name": "",
							"type": "uint256"
						},
						{
							"internalType": "bool",
							"name": "",
							"type": "bool"
						},
						{
							"internalType": "uint256",
							"name": "",
							"type": "uint256"
						},
						{
							"internalType": "uint256",
							"name": "",
							"type": "uint256"
						},
						{
							"internalType": "uint256",
							"name": "",
							"type": "uint256"
						}
					],
					"stateMutability": "pure",
					"type": "function"
				},
				{
					"inputs": [],
					"name": "getarr",
					"outputs": [
						{
							"internalType": "uint256[]",
							"name": "",
							"type": "uint256[]"
						}
					],
					"stateMutability": "view",
					"type": "function"
				},
				{
					"inputs": [],
					"name": "num",
					"outputs": [
						{
							"internalType": "uint256",
							"name": "",
							"type": "uint256"
						}
					],
					"stateMutability": "view",
					"type": "function"
				},
				{
					"inputs": [],
					"name": "returnMany",
					"outputs": [
						{
							"internalType": "uint256",
							"name": "",
							"type": "uint256"
						},
						{
							"internalType": "bool",
							"name": "",
							"type": "bool"
						},
						{
							"internalType": "uint256",
							"name": "",
							"type": "uint256"
						}
					],
					"stateMutability": "pure",
					"type": "function"
				},
				{
					"inputs": [],
					"name": "returnMany1",
					"outputs": [
						{
							"internalType": "uint256",
							"name": "x",
							"type": "uint256"
						},
						{
							"internalType": "bool",
							"name": "y",
							"type": "bool"
						},
						{
							"internalType": "uint256",
							"name": "z",
							"type": "uint256"
						}
					],
					"stateMutability": "view",
					"type": "function"
				},
				{
					"inputs": [],
					"name": "returnMany2",
					"outputs": [
						{
							"internalType": "uint256",
							"name": "x",
							"type": "uint256"
						},
						{
							"internalType": "bool",
							"name": "y",
							"type": "bool"
						},
						{
							"internalType": "uint256",
							"name": "z",
							"type": "uint256"
						}
					],
					"stateMutability": "view",
					"type": "function"
				}
			],
			"devdoc": {
				"kind": "dev",
				"methods": {},
				"version": 1
			},
			"evm": {
				"assembly": "    /* \"solidityByExample/contract/017Function.sol\":59:880  contract Function {... */\n  mstore(0x40, 0x80)\n    /* \"solidityByExample/contract/017Function.sol\":98:100  88 */\n  0x58\n    /* \"solidityByExample/contract/017Function.sol\":80:100  uint public num = 88 */\n  0x00\n  sstore\n    /* \"solidityByExample/contract/017Function.sol\":59:880  contract Function {... */\n  callvalue\n  dup1\n  iszero\n  tag_1\n  jumpi\n  0x00\n  dup1\n  revert\ntag_1:\n  pop\n  dataSize(sub_0)\n  dup1\n  dataOffset(sub_0)\n  0x00\n  codecopy\n  0x00\n  return\nstop\n\nsub_0: assembly {\n        /* \"solidityByExample/contract/017Function.sol\":59:880  contract Function {... */\n      mstore(0x40, 0x80)\n      callvalue\n      dup1\n      iszero\n      tag_1\n      jumpi\n      0x00\n      dup1\n      revert\n    tag_1:\n      pop\n      jumpi(tag_2, lt(calldatasize, 0x04))\n      shr(0xe0, calldataload(0x00))\n      dup1\n      0x6bc7deae\n      gt\n      tag_11\n      jumpi\n      dup1\n      0x6bc7deae\n      eq\n      tag_7\n      jumpi\n      dup1\n      0x71e5ee5f\n      eq\n      tag_8\n      jumpi\n      dup1\n      0x86887544\n      eq\n      tag_9\n      jumpi\n      dup1\n      0xd93cc2d8\n      eq\n      tag_10\n      jumpi\n      jump(tag_2)\n    tag_11:\n      dup1\n      0x0bbf1f04\n      eq\n      tag_3\n      jumpi\n      dup1\n      0x3f7f3db6\n      eq\n      tag_4\n      jumpi\n      dup1\n      0x4e70b1dc\n      eq\n      tag_5\n      jumpi\n      dup1\n      0x65fd8204\n      eq\n      tag_6\n      jumpi\n    tag_2:\n      0x00\n      dup1\n      revert\n        /* \"solidityByExample/contract/017Function.sol\":211:318  function returnMany1() public view returns (uint x, bool y, uint z) {... */\n    tag_3:\n      tag_12\n      tag_13\n      jump\t// in\n    tag_12:\n      mload(0x40)\n      tag_14\n      swap4\n      swap3\n      swap2\n      swap1\n      tag_15\n      jump\t// in\n    tag_14:\n      mload(0x40)\n      dup1\n      swap2\n      sub\n      swap1\n      return\n        /* \"solidityByExample/contract/017Function.sol\":456:708  function destructingAssignments() public pure returns(uint, bool, uint, uint, uint) {... */\n    tag_4:\n      tag_16\n      tag_17\n      jump\t// in\n    tag_16:\n      mload(0x40)\n      tag_18\n      swap6\n      swap5\n      swap4\n      swap3\n      swap2\n      swap1\n      tag_19\n      jump\t// in\n    tag_18:\n      mload(0x40)\n      dup1\n      swap2\n      sub\n      swap1\n      return\n        /* \"solidityByExample/contract/017Function.sol\":80:100  uint public num = 88 */\n    tag_5:\n      tag_20\n      tag_21\n      jump\t// in\n    tag_20:\n      mload(0x40)\n      tag_22\n      swap2\n      swap1\n      tag_23\n      jump\t// in\n    tag_22:\n      mload(0x40)\n      dup1\n      swap2\n      sub\n      swap1\n      return\n        /* \"solidityByExample/contract/017Function.sol\":324:450  function returnMany2() public view returns (uint x, bool y, uint z) {... */\n    tag_6:\n      tag_24\n      tag_25\n      jump\t// in\n    tag_24:\n      mload(0x40)\n      tag_26\n      swap4\n      swap3\n      swap2\n      swap1\n      tag_15\n      jump\t// in\n    tag_26:\n      mload(0x40)\n      dup1\n      swap2\n      sub\n      swap1\n      return\n        /* \"solidityByExample/contract/017Function.sol\":797:878  function getarr() public view returns (uint[] memory) {... */\n    tag_7:\n      tag_27\n      tag_28\n      jump\t// in\n    tag_27:\n      mload(0x40)\n      tag_29\n      swap2\n      swap1\n      tag_30\n      jump\t// in\n    tag_29:\n      mload(0x40)\n      dup1\n      swap2\n      sub\n      swap1\n      return\n        /* \"solidityByExample/contract/017Function.sol\":773:790  uint[] public arr */\n    tag_8:\n      tag_31\n      0x04\n      dup1\n      calldatasize\n      sub\n      dup2\n      add\n      swap1\n      tag_32\n      swap2\n      swap1\n      tag_33\n      jump\t// in\n    tag_32:\n      tag_34\n      jump\t// in\n    tag_31:\n      mload(0x40)\n      tag_35\n      swap2\n      swap1\n      tag_23\n      jump\t// in\n    tag_35:\n      mload(0x40)\n      dup1\n      swap2\n      sub\n      swap1\n      return\n        /* \"solidityByExample/contract/017Function.sol\":107:205  function returnMany() public pure returns (uint, bool, uint) {... */\n    tag_9:\n      tag_36\n      tag_37\n      jump\t// in\n    tag_36:\n      mload(0x40)\n      tag_38\n      swap4\n      swap3\n      swap2\n      swap1\n      tag_15\n      jump\t// in\n    tag_38:\n      mload(0x40)\n      dup1\n      swap2\n      sub\n      swap1\n      return\n        /* \"solidityByExample/contract/017Function.sol\":714:767  function arrInput(uint[] memory _arr) public {... */\n    tag_10:\n      tag_39\n      0x04\n      dup1\n      calldatasize\n      sub\n      dup2\n      add\n      swap1\n      tag_40\n      swap2\n      swap1\n      tag_41\n      jump\t// in\n    tag_40:\n      tag_42\n      jump\t// in\n    tag_39:\n      stop\n        /* \"solidityByExample/contract/017Function.sol\":211:318  function returnMany1() public view returns (uint x, bool y, uint z) {... */\n    tag_13:\n        /* \"solidityByExample/contract/017Function.sol\":255:261  uint x */\n      0x00\n        /* \"solidityByExample/contract/017Function.sol\":263:269  bool y */\n      dup1\n        /* \"solidityByExample/contract/017Function.sol\":271:277  uint z */\n      0x00\n        /* \"solidityByExample/contract/017Function.sol\":297:300  num */\n      dup1\n      sload\n        /* \"solidityByExample/contract/017Function.sol\":302:306  true */\n      0x01\n        /* \"solidityByExample/contract/017Function.sol\":308:310  22 */\n      0x16\n        /* \"solidityByExample/contract/017Function.sol\":289:311  return (num, true, 22) */\n      swap3\n      pop\n      swap3\n      pop\n      swap3\n      pop\n        /* \"solidityByExample/contract/017Function.sol\":211:318  function returnMany1() public view returns (uint x, bool y, uint z) {... */\n      swap1\n      swap2\n      swap3\n      jump\t// out\n        /* \"solidityByExample/contract/017Function.sol\":456:708  function destructingAssignments() public pure returns(uint, bool, uint, uint, uint) {... */\n    tag_17:\n        /* \"solidityByExample/contract/017Function.sol\":510:514  uint */\n      0x00\n        /* \"solidityByExample/contract/017Function.sol\":516:520  bool */\n      dup1\n        /* \"solidityByExample/contract/017Function.sol\":522:526  uint */\n      0x00\n        /* \"solidityByExample/contract/017Function.sol\":528:532  uint */\n      dup1\n        /* \"solidityByExample/contract/017Function.sol\":534:538  uint */\n      0x00\n        /* \"solidityByExample/contract/017Function.sol\":551:557  uint i */\n      dup1\n        /* \"solidityByExample/contract/017Function.sol\":559:565  bool b */\n      0x00\n        /* \"solidityByExample/contract/017Function.sol\":567:573  uint j */\n      dup1\n        /* \"solidityByExample/contract/017Function.sol\":577:589  returnMany() */\n      tag_45\n        /* \"solidityByExample/contract/017Function.sol\":577:587  returnMany */\n      tag_37\n        /* \"solidityByExample/contract/017Function.sol\":577:589  returnMany() */\n      jump\t// in\n    tag_45:\n        /* \"solidityByExample/contract/017Function.sol\":550:589  (uint i, bool b, uint j) = returnMany() */\n      swap3\n      pop\n      swap3\n      pop\n      swap3\n      pop\n        /* \"solidityByExample/contract/017Function.sol\":628:634  uint x */\n      0x00\n        /* \"solidityByExample/contract/017Function.sol\":638:644  uint y */\n      dup1\n        /* \"solidityByExample/contract/017Function.sol\":649:650  4 */\n      0x04\n        /* \"solidityByExample/contract/017Function.sol\":651:652  5 */\n      0x05\n        /* \"solidityByExample/contract/017Function.sol\":653:654  6 */\n      0x06\n        /* \"solidityByExample/contract/017Function.sol\":627:655  (uint x, , uint y) = (4,5,6) */\n      swap3\n      pop\n      pop\n      swap2\n      pop\n        /* \"solidityByExample/contract/017Function.sol\":691:692  i */\n      dup5\n        /* \"solidityByExample/contract/017Function.sol\":693:694  b */\n      dup5\n        /* \"solidityByExample/contract/017Function.sol\":695:696  j */\n      dup5\n        /* \"solidityByExample/contract/017Function.sol\":697:698  x */\n      dup5\n        /* \"solidityByExample/contract/017Function.sol\":699:700  y */\n      dup5\n        /* \"solidityByExample/contract/017Function.sol\":683:701  return (i,b,j,x,y) */\n      swap10\n      pop\n      swap10\n      pop\n      swap10\n      pop\n      swap10\n      pop\n      swap10\n      pop\n      pop\n      pop\n      pop\n      pop\n      pop\n        /* \"solidityByExample/contract/017Function.sol\":456:708  function destructingAssignments() public pure returns(uint, bool, uint, uint, uint) {... */\n      swap1\n      swap2\n      swap3\n      swap4\n      swap5\n      jump\t// out\n        /* \"solidityByExample/contract/017Function.sol\":80:100  uint public num = 88 */\n    tag_21:\n      sload(0x00)\n      dup2\n      jump\t// out\n        /* \"solidityByExample/contract/017Function.sol\":324:450  function returnMany2() public view returns (uint x, bool y, uint z) {... */\n    tag_25:\n        /* \"solidityByExample/contract/017Function.sol\":368:374  uint x */\n      0x00\n        /* \"solidityByExample/contract/017Function.sol\":376:382  bool y */\n      dup1\n        /* \"solidityByExample/contract/017Function.sol\":384:390  uint z */\n      0x00\n        /* \"solidityByExample/contract/017Function.sol\":406:408  22 */\n      0x16\n        /* \"solidityByExample/contract/017Function.sol\":402:408  x = 22 */\n      swap3\n      pop\n        /* \"solidityByExample/contract/017Function.sol\":422:426  true */\n      0x01\n        /* \"solidityByExample/contract/017Function.sol\":418:426  y = true */\n      swap2\n      pop\n        /* \"solidityByExample/contract/017Function.sol\":440:443  num */\n      sload(0x00)\n        /* \"solidityByExample/contract/017Function.sol\":436:443  z = num */\n      swap1\n      pop\n        /* \"solidityByExample/contract/017Function.sol\":324:450  function returnMany2() public view returns (uint x, bool y, uint z) {... */\n      swap1\n      swap2\n      swap3\n      jump\t// out\n        /* \"solidityByExample/contract/017Function.sol\":797:878  function getarr() public view returns (uint[] memory) {... */\n    tag_28:\n        /* \"solidityByExample/contract/017Function.sol\":836:849  uint[] memory */\n      0x60\n        /* \"solidityByExample/contract/017Function.sol\":868:871  arr */\n      0x01\n        /* \"solidityByExample/contract/017Function.sol\":861:871  return arr */\n      dup1\n      sload\n      dup1\n      0x20\n      mul\n      0x20\n      add\n      mload(0x40)\n      swap1\n      dup2\n      add\n      0x40\n      mstore\n      dup1\n      swap3\n      swap2\n      swap1\n      dup2\n      dup2\n      mstore\n      0x20\n      add\n      dup3\n      dup1\n      sload\n      dup1\n      iszero\n      tag_48\n      jumpi\n      0x20\n      mul\n      dup3\n      add\n      swap2\n      swap1\n      0x00\n      mstore\n      keccak256(0x00, 0x20)\n      swap1\n    tag_49:\n      dup2\n      sload\n      dup2\n      mstore\n      0x20\n      add\n      swap1\n      0x01\n      add\n      swap1\n      dup1\n      dup4\n      gt\n      tag_49\n      jumpi\n    tag_48:\n      pop\n      pop\n      pop\n      pop\n      pop\n      swap1\n      pop\n        /* \"solidityByExample/contract/017Function.sol\":797:878  function getarr() public view returns (uint[] memory) {... */\n      swap1\n      jump\t// out\n        /* \"solidityByExample/contract/017Function.sol\":773:790  uint[] public arr */\n    tag_34:\n      0x01\n      dup2\n      dup2\n      sload\n      dup2\n      lt\n      tag_50\n      jumpi\n      0x00\n      dup1\n      revert\n    tag_50:\n      swap1\n      0x00\n      mstore\n      keccak256(0x00, 0x20)\n      add\n      0x00\n      swap2\n      pop\n      swap1\n      pop\n      sload\n      dup2\n      jump\t// out\n        /* \"solidityByExample/contract/017Function.sol\":107:205  function returnMany() public pure returns (uint, bool, uint) {... */\n    tag_37:\n        /* \"solidityByExample/contract/017Function.sol\":150:154  uint */\n      0x00\n        /* \"solidityByExample/contract/017Function.sol\":156:160  bool */\n      dup1\n        /* \"solidityByExample/contract/017Function.sol\":162:166  uint */\n      0x00\n        /* \"solidityByExample/contract/017Function.sol\":186:187  1 */\n      0x01\n        /* \"solidityByExample/contract/017Function.sol\":189:193  true */\n      dup1\n        /* \"solidityByExample/contract/017Function.sol\":195:197  22 */\n      0x16\n        /* \"solidityByExample/contract/017Function.sol\":178:198  return (1, true, 22) */\n      swap3\n      pop\n      swap3\n      pop\n      swap3\n      pop\n        /* \"solidityByExample/contract/017Function.sol\":107:205  function returnMany() public pure returns (uint, bool, uint) {... */\n      swap1\n      swap2\n      swap3\n      jump\t// out\n        /* \"solidityByExample/contract/017Function.sol\":714:767  function arrInput(uint[] memory _arr) public {... */\n    tag_42:\n      pop\n      jump\t// out\n        /* \"#utility.yul\":7:84   */\n    tag_54:\n        /* \"#utility.yul\":44:51   */\n      0x00\n        /* \"#utility.yul\":73:78   */\n      dup2\n        /* \"#utility.yul\":62:78   */\n      swap1\n      pop\n        /* \"#utility.yul\":7:84   */\n      swap2\n      swap1\n      pop\n      jump\t// out\n        /* \"#utility.yul\":90:208   */\n    tag_55:\n        /* \"#utility.yul\":177:201   */\n      tag_82\n        /* \"#utility.yul\":195:200   */\n      dup2\n        /* \"#utility.yul\":177:201   */\n      tag_54\n      jump\t// in\n    tag_82:\n        /* \"#utility.yul\":172:175   */\n      dup3\n        /* \"#utility.yul\":165:202   */\n      mstore\n        /* \"#utility.yul\":90:208   */\n      pop\n      pop\n      jump\t// out\n        /* \"#utility.yul\":214:304   */\n    tag_56:\n        /* \"#utility.yul\":248:255   */\n      0x00\n        /* \"#utility.yul\":291:296   */\n      dup2\n        /* \"#utility.yul\":284:297   */\n      iszero\n        /* \"#utility.yul\":277:298   */\n      iszero\n        /* \"#utility.yul\":266:298   */\n      swap1\n      pop\n        /* \"#utility.yul\":214:304   */\n      swap2\n      swap1\n      pop\n      jump\t// out\n        /* \"#utility.yul\":310:419   */\n    tag_57:\n        /* \"#utility.yul\":391:412   */\n      tag_85\n        /* \"#utility.yul\":406:411   */\n      dup2\n        /* \"#utility.yul\":391:412   */\n      tag_56\n      jump\t// in\n    tag_85:\n        /* \"#utility.yul\":386:389   */\n      dup3\n        /* \"#utility.yul\":379:413   */\n      mstore\n        /* \"#utility.yul\":310:419   */\n      pop\n      pop\n      jump\t// out\n        /* \"#utility.yul\":425:855   */\n    tag_15:\n        /* \"#utility.yul\":568:572   */\n      0x00\n        /* \"#utility.yul\":606:608   */\n      0x60\n        /* \"#utility.yul\":595:604   */\n      dup3\n        /* \"#utility.yul\":591:609   */\n      add\n        /* \"#utility.yul\":583:609   */\n      swap1\n      pop\n        /* \"#utility.yul\":619:690   */\n      tag_87\n        /* \"#utility.yul\":687:688   */\n      0x00\n        /* \"#utility.yul\":676:685   */\n      dup4\n        /* \"#utility.yul\":672:689   */\n      add\n        /* \"#utility.yul\":663:669   */\n      dup7\n        /* \"#utility.yul\":619:690   */\n      tag_55\n      jump\t// in\n    tag_87:\n        /* \"#utility.yul\":700:766   */\n      tag_88\n        /* \"#utility.yul\":762:764   */\n      0x20\n        /* \"#utility.yul\":751:760   */\n      dup4\n        /* \"#utility.yul\":747:765   */\n      add\n        /* \"#utility.yul\":738:744   */\n      dup6\n        /* \"#utility.yul\":700:766   */\n      tag_57\n      jump\t// in\n    tag_88:\n        /* \"#utility.yul\":776:848   */\n      tag_89\n        /* \"#utility.yul\":844:846   */\n      0x40\n        /* \"#utility.yul\":833:842   */\n      dup4\n        /* \"#utility.yul\":829:847   */\n      add\n        /* \"#utility.yul\":820:826   */\n      dup5\n        /* \"#utility.yul\":776:848   */\n      tag_55\n      jump\t// in\n    tag_89:\n        /* \"#utility.yul\":425:855   */\n      swap5\n      swap4\n      pop\n      pop\n      pop\n      pop\n      jump\t// out\n        /* \"#utility.yul\":861:1513   */\n    tag_19:\n        /* \"#utility.yul\":1060:1064   */\n      0x00\n        /* \"#utility.yul\":1098:1101   */\n      0xa0\n        /* \"#utility.yul\":1087:1096   */\n      dup3\n        /* \"#utility.yul\":1083:1102   */\n      add\n        /* \"#utility.yul\":1075:1102   */\n      swap1\n      pop\n        /* \"#utility.yul\":1112:1183   */\n      tag_91\n        /* \"#utility.yul\":1180:1181   */\n      0x00\n        /* \"#utility.yul\":1169:1178   */\n      dup4\n        /* \"#utility.yul\":1165:1182   */\n      add\n        /* \"#utility.yul\":1156:1162   */\n      dup9\n        /* \"#utility.yul\":1112:1183   */\n      tag_55\n      jump\t// in\n    tag_91:\n        /* \"#utility.yul\":1193:1259   */\n      tag_92\n        /* \"#utility.yul\":1255:1257   */\n      0x20\n        /* \"#utility.yul\":1244:1253   */\n      dup4\n        /* \"#utility.yul\":1240:1258   */\n      add\n        /* \"#utility.yul\":1231:1237   */\n      dup8\n        /* \"#utility.yul\":1193:1259   */\n      tag_57\n      jump\t// in\n    tag_92:\n        /* \"#utility.yul\":1269:1341   */\n      tag_93\n        /* \"#utility.yul\":1337:1339   */\n      0x40\n        /* \"#utility.yul\":1326:1335   */\n      dup4\n        /* \"#utility.yul\":1322:1340   */\n      add\n        /* \"#utility.yul\":1313:1319   */\n      dup7\n        /* \"#utility.yul\":1269:1341   */\n      tag_55\n      jump\t// in\n    tag_93:\n        /* \"#utility.yul\":1351:1423   */\n      tag_94\n        /* \"#utility.yul\":1419:1421   */\n      0x60\n        /* \"#utility.yul\":1408:1417   */\n      dup4\n        /* \"#utility.yul\":1404:1422   */\n      add\n        /* \"#utility.yul\":1395:1401   */\n      dup6\n        /* \"#utility.yul\":1351:1423   */\n      tag_55\n      jump\t// in\n    tag_94:\n        /* \"#utility.yul\":1433:1506   */\n      tag_95\n        /* \"#utility.yul\":1501:1504   */\n      0x80\n        /* \"#utility.yul\":1490:1499   */\n      dup4\n        /* \"#utility.yul\":1486:1505   */\n      add\n        /* \"#utility.yul\":1477:1483   */\n      dup5\n        /* \"#utility.yul\":1433:1506   */\n      tag_55\n      jump\t// in\n    tag_95:\n        /* \"#utility.yul\":861:1513   */\n      swap7\n      swap6\n      pop\n      pop\n      pop\n      pop\n      pop\n      pop\n      jump\t// out\n        /* \"#utility.yul\":1519:1741   */\n    tag_23:\n        /* \"#utility.yul\":1612:1616   */\n      0x00\n        /* \"#utility.yul\":1650:1652   */\n      0x20\n        /* \"#utility.yul\":1639:1648   */\n      dup3\n        /* \"#utility.yul\":1635:1653   */\n      add\n        /* \"#utility.yul\":1627:1653   */\n      swap1\n      pop\n        /* \"#utility.yul\":1663:1734   */\n      tag_97\n        /* \"#utility.yul\":1731:1732   */\n      0x00\n        /* \"#utility.yul\":1720:1729   */\n      dup4\n        /* \"#utility.yul\":1716:1733   */\n      add\n        /* \"#utility.yul\":1707:1713   */\n      dup5\n        /* \"#utility.yul\":1663:1734   */\n      tag_55\n      jump\t// in\n    tag_97:\n        /* \"#utility.yul\":1519:1741   */\n      swap3\n      swap2\n      pop\n      pop\n      jump\t// out\n        /* \"#utility.yul\":1747:1861   */\n    tag_58:\n        /* \"#utility.yul\":1814:1820   */\n      0x00\n        /* \"#utility.yul\":1848:1853   */\n      dup2\n        /* \"#utility.yul\":1842:1854   */\n      mload\n        /* \"#utility.yul\":1832:1854   */\n      swap1\n      pop\n        /* \"#utility.yul\":1747:1861   */\n      swap2\n      swap1\n      pop\n      jump\t// out\n        /* \"#utility.yul\":1867:2051   */\n    tag_59:\n        /* \"#utility.yul\":1966:1977   */\n      0x00\n        /* \"#utility.yul\":2000:2006   */\n      dup3\n        /* \"#utility.yul\":1995:1998   */\n      dup3\n        /* \"#utility.yul\":1988:2007   */\n      mstore\n        /* \"#utility.yul\":2040:2044   */\n      0x20\n        /* \"#utility.yul\":2035:2038   */\n      dup3\n        /* \"#utility.yul\":2031:2045   */\n      add\n        /* \"#utility.yul\":2016:2045   */\n      swap1\n      pop\n        /* \"#utility.yul\":1867:2051   */\n      swap3\n      swap2\n      pop\n      pop\n      jump\t// out\n        /* \"#utility.yul\":2057:2189   */\n    tag_60:\n        /* \"#utility.yul\":2124:2128   */\n      0x00\n        /* \"#utility.yul\":2147:2150   */\n      dup2\n        /* \"#utility.yul\":2139:2150   */\n      swap1\n      pop\n        /* \"#utility.yul\":2177:2181   */\n      0x20\n        /* \"#utility.yul\":2172:2175   */\n      dup3\n        /* \"#utility.yul\":2168:2182   */\n      add\n        /* \"#utility.yul\":2160:2182   */\n      swap1\n      pop\n        /* \"#utility.yul\":2057:2189   */\n      swap2\n      swap1\n      pop\n      jump\t// out\n        /* \"#utility.yul\":2195:2303   */\n    tag_61:\n        /* \"#utility.yul\":2272:2296   */\n      tag_102\n        /* \"#utility.yul\":2290:2295   */\n      dup2\n        /* \"#utility.yul\":2272:2296   */\n      tag_54\n      jump\t// in\n    tag_102:\n        /* \"#utility.yul\":2267:2270   */\n      dup3\n        /* \"#utility.yul\":2260:2297   */\n      mstore\n        /* \"#utility.yul\":2195:2303   */\n      pop\n      pop\n      jump\t// out\n        /* \"#utility.yul\":2309:2488   */\n    tag_62:\n        /* \"#utility.yul\":2378:2388   */\n      0x00\n        /* \"#utility.yul\":2399:2445   */\n      tag_104\n        /* \"#utility.yul\":2441:2444   */\n      dup4\n        /* \"#utility.yul\":2433:2439   */\n      dup4\n        /* \"#utility.yul\":2399:2445   */\n      tag_61\n      jump\t// in\n    tag_104:\n        /* \"#utility.yul\":2477:2481   */\n      0x20\n        /* \"#utility.yul\":2472:2475   */\n      dup4\n        /* \"#utility.yul\":2468:2482   */\n      add\n        /* \"#utility.yul\":2454:2482   */\n      swap1\n      pop\n        /* \"#utility.yul\":2309:2488   */\n      swap3\n      swap2\n      pop\n      pop\n      jump\t// out\n        /* \"#utility.yul\":2494:2607   */\n    tag_63:\n        /* \"#utility.yul\":2564:2568   */\n      0x00\n        /* \"#utility.yul\":2596:2600   */\n      0x20\n        /* \"#utility.yul\":2591:2594   */\n      dup3\n        /* \"#utility.yul\":2587:2601   */\n      add\n        /* \"#utility.yul\":2579:2601   */\n      swap1\n      pop\n        /* \"#utility.yul\":2494:2607   */\n      swap2\n      swap1\n      pop\n      jump\t// out\n        /* \"#utility.yul\":2643:3375   */\n    tag_64:\n        /* \"#utility.yul\":2762:2765   */\n      0x00\n        /* \"#utility.yul\":2791:2845   */\n      tag_107\n        /* \"#utility.yul\":2839:2844   */\n      dup3\n        /* \"#utility.yul\":2791:2845   */\n      tag_58\n      jump\t// in\n    tag_107:\n        /* \"#utility.yul\":2861:2947   */\n      tag_108\n        /* \"#utility.yul\":2940:2946   */\n      dup2\n        /* \"#utility.yul\":2935:2938   */\n      dup6\n        /* \"#utility.yul\":2861:2947   */\n      tag_59\n      jump\t// in\n    tag_108:\n        /* \"#utility.yul\":2854:2947   */\n      swap4\n      pop\n        /* \"#utility.yul\":2971:3027   */\n      tag_109\n        /* \"#utility.yul\":3021:3026   */\n      dup4\n        /* \"#utility.yul\":2971:3027   */\n      tag_60\n      jump\t// in\n    tag_109:\n        /* \"#utility.yul\":3050:3057   */\n      dup1\n        /* \"#utility.yul\":3081:3082   */\n      0x00\n        /* \"#utility.yul\":3066:3350   */\n    tag_110:\n        /* \"#utility.yul\":3091:3097   */\n      dup4\n        /* \"#utility.yul\":3088:3089   */\n      dup2\n        /* \"#utility.yul\":3085:3098   */\n      lt\n        /* \"#utility.yul\":3066:3350   */\n      iszero\n      tag_112\n      jumpi\n        /* \"#utility.yul\":3167:3173   */\n      dup2\n        /* \"#utility.yul\":3161:3174   */\n      mload\n        /* \"#utility.yul\":3194:3257   */\n      tag_113\n        /* \"#utility.yul\":3253:3256   */\n      dup9\n        /* \"#utility.yul\":3238:3251   */\n      dup3\n        /* \"#utility.yul\":3194:3257   */\n      tag_62\n      jump\t// in\n    tag_113:\n        /* \"#utility.yul\":3187:3257   */\n      swap8\n      pop\n        /* \"#utility.yul\":3280:3340   */\n      tag_114\n        /* \"#utility.yul\":3333:3339   */\n      dup4\n        /* \"#utility.yul\":3280:3340   */\n      tag_63\n      jump\t// in\n    tag_114:\n        /* \"#utility.yul\":3270:3340   */\n      swap3\n      pop\n        /* \"#utility.yul\":3126:3350   */\n      pop\n        /* \"#utility.yul\":3113:3114   */\n      0x01\n        /* \"#utility.yul\":3110:3111   */\n      dup2\n        /* \"#utility.yul\":3106:3115   */\n      add\n        /* \"#utility.yul\":3101:3115   */\n      swap1\n      pop\n        /* \"#utility.yul\":3066:3350   */\n      jump(tag_110)\n    tag_112:\n        /* \"#utility.yul\":3070:3084   */\n      pop\n        /* \"#utility.yul\":3366:3369   */\n      dup6\n        /* \"#utility.yul\":3359:3369   */\n      swap4\n      pop\n        /* \"#utility.yul\":2767:3375   */\n      pop\n      pop\n      pop\n        /* \"#utility.yul\":2643:3375   */\n      swap3\n      swap2\n      pop\n      pop\n      jump\t// out\n        /* \"#utility.yul\":3381:3754   */\n    tag_30:\n        /* \"#utility.yul\":3524:3528   */\n      0x00\n        /* \"#utility.yul\":3562:3564   */\n      0x20\n        /* \"#utility.yul\":3551:3560   */\n      dup3\n        /* \"#utility.yul\":3547:3565   */\n      add\n        /* \"#utility.yul\":3539:3565   */\n      swap1\n      pop\n        /* \"#utility.yul\":3611:3620   */\n      dup2\n        /* \"#utility.yul\":3605:3609   */\n      dup2\n        /* \"#utility.yul\":3601:3621   */\n      sub\n        /* \"#utility.yul\":3597:3598   */\n      0x00\n        /* \"#utility.yul\":3586:3595   */\n      dup4\n        /* \"#utility.yul\":3582:3599   */\n      add\n        /* \"#utility.yul\":3575:3622   */\n      mstore\n        /* \"#utility.yul\":3639:3747   */\n      tag_116\n        /* \"#utility.yul\":3742:3746   */\n      dup2\n        /* \"#utility.yul\":3733:3739   */\n      dup5\n        /* \"#utility.yul\":3639:3747   */\n      tag_64\n      jump\t// in\n    tag_116:\n        /* \"#utility.yul\":3631:3747   */\n      swap1\n      pop\n        /* \"#utility.yul\":3381:3754   */\n      swap3\n      swap2\n      pop\n      pop\n      jump\t// out\n        /* \"#utility.yul\":3760:3835   */\n    tag_65:\n        /* \"#utility.yul\":3793:3799   */\n      0x00\n        /* \"#utility.yul\":3826:3828   */\n      0x40\n        /* \"#utility.yul\":3820:3829   */\n      mload\n        /* \"#utility.yul\":3810:3829   */\n      swap1\n      pop\n        /* \"#utility.yul\":3760:3835   */\n      swap1\n      jump\t// out\n        /* \"#utility.yul\":3841:3958   */\n    tag_66:\n        /* \"#utility.yul\":3950:3951   */\n      0x00\n        /* \"#utility.yul\":3947:3948   */\n      dup1\n        /* \"#utility.yul\":3940:3952   */\n      revert\n        /* \"#utility.yul\":3964:4081   */\n    tag_67:\n        /* \"#utility.yul\":4073:4074   */\n      0x00\n        /* \"#utility.yul\":4070:4071   */\n      dup1\n        /* \"#utility.yul\":4063:4075   */\n      revert\n        /* \"#utility.yul\":4087:4209   */\n    tag_68:\n        /* \"#utility.yul\":4160:4184   */\n      tag_121\n        /* \"#utility.yul\":4178:4183   */\n      dup2\n        /* \"#utility.yul\":4160:4184   */\n      tag_54\n      jump\t// in\n    tag_121:\n        /* \"#utility.yul\":4153:4158   */\n      dup2\n        /* \"#utility.yul\":4150:4185   */\n      eq\n        /* \"#utility.yul\":4140:4203   */\n      tag_122\n      jumpi\n        /* \"#utility.yul\":4199:4200   */\n      0x00\n        /* \"#utility.yul\":4196:4197   */\n      dup1\n        /* \"#utility.yul\":4189:4201   */\n      revert\n        /* \"#utility.yul\":4140:4203   */\n    tag_122:\n        /* \"#utility.yul\":4087:4209   */\n      pop\n      jump\t// out\n        /* \"#utility.yul\":4215:4354   */\n    tag_69:\n        /* \"#utility.yul\":4261:4266   */\n      0x00\n        /* \"#utility.yul\":4299:4305   */\n      dup2\n        /* \"#utility.yul\":4286:4306   */\n      calldataload\n        /* \"#utility.yul\":4277:4306   */\n      swap1\n      pop\n        /* \"#utility.yul\":4315:4348   */\n      tag_124\n        /* \"#utility.yul\":4342:4347   */\n      dup2\n        /* \"#utility.yul\":4315:4348   */\n      tag_68\n      jump\t// in\n    tag_124:\n        /* \"#utility.yul\":4215:4354   */\n      swap3\n      swap2\n      pop\n      pop\n      jump\t// out\n        /* \"#utility.yul\":4360:4689   */\n    tag_33:\n        /* \"#utility.yul\":4419:4425   */\n      0x00\n        /* \"#utility.yul\":4468:4470   */\n      0x20\n        /* \"#utility.yul\":4456:4465   */\n      dup3\n        /* \"#utility.yul\":4447:4454   */\n      dup5\n        /* \"#utility.yul\":4443:4466   */\n      sub\n        /* \"#utility.yul\":4439:4471   */\n      slt\n        /* \"#utility.yul\":4436:4555   */\n      iszero\n      tag_126\n      jumpi\n        /* \"#utility.yul\":4474:4553   */\n      tag_127\n      tag_66\n      jump\t// in\n    tag_127:\n        /* \"#utility.yul\":4436:4555   */\n    tag_126:\n        /* \"#utility.yul\":4594:4595   */\n      0x00\n        /* \"#utility.yul\":4619:4672   */\n      tag_128\n        /* \"#utility.yul\":4664:4671   */\n      dup5\n        /* \"#utility.yul\":4655:4661   */\n      dup3\n        /* \"#utility.yul\":4644:4653   */\n      dup6\n        /* \"#utility.yul\":4640:4662   */\n      add\n        /* \"#utility.yul\":4619:4672   */\n      tag_69\n      jump\t// in\n    tag_128:\n        /* \"#utility.yul\":4609:4672   */\n      swap2\n      pop\n        /* \"#utility.yul\":4565:4682   */\n      pop\n        /* \"#utility.yul\":4360:4689   */\n      swap3\n      swap2\n      pop\n      pop\n      jump\t// out\n        /* \"#utility.yul\":4695:4812   */\n    tag_70:\n        /* \"#utility.yul\":4804:4805   */\n      0x00\n        /* \"#utility.yul\":4801:4802   */\n      dup1\n        /* \"#utility.yul\":4794:4806   */\n      revert\n        /* \"#utility.yul\":4818:4920   */\n    tag_71:\n        /* \"#utility.yul\":4859:4865   */\n      0x00\n        /* \"#utility.yul\":4910:4912   */\n      0x1f\n        /* \"#utility.yul\":4906:4913   */\n      not\n        /* \"#utility.yul\":4901:4903   */\n      0x1f\n        /* \"#utility.yul\":4894:4899   */\n      dup4\n        /* \"#utility.yul\":4890:4904   */\n      add\n        /* \"#utility.yul\":4886:4914   */\n      and\n        /* \"#utility.yul\":4876:4914   */\n      swap1\n      pop\n        /* \"#utility.yul\":4818:4920   */\n      swap2\n      swap1\n      pop\n      jump\t// out\n        /* \"#utility.yul\":4926:5106   */\n    tag_72:\n        /* \"#utility.yul\":4974:5051   */\n      0x4e487b7100000000000000000000000000000000000000000000000000000000\n        /* \"#utility.yul\":4971:4972   */\n      0x00\n        /* \"#utility.yul\":4964:5052   */\n      mstore\n        /* \"#utility.yul\":5071:5075   */\n      0x41\n        /* \"#utility.yul\":5068:5069   */\n      0x04\n        /* \"#utility.yul\":5061:5076   */\n      mstore\n        /* \"#utility.yul\":5095:5099   */\n      0x24\n        /* \"#utility.yul\":5092:5093   */\n      0x00\n        /* \"#utility.yul\":5085:5100   */\n      revert\n        /* \"#utility.yul\":5112:5393   */\n    tag_73:\n        /* \"#utility.yul\":5195:5222   */\n      tag_133\n        /* \"#utility.yul\":5217:5221   */\n      dup3\n        /* \"#utility.yul\":5195:5222   */\n      tag_71\n      jump\t// in\n    tag_133:\n        /* \"#utility.yul\":5187:5193   */\n      dup2\n        /* \"#utility.yul\":5183:5223   */\n      add\n        /* \"#utility.yul\":5325:5331   */\n      dup2\n        /* \"#utility.yul\":5313:5323   */\n      dup2\n        /* \"#utility.yul\":5310:5332   */\n      lt\n        /* \"#utility.yul\":5289:5307   */\n      0xffffffffffffffff\n        /* \"#utility.yul\":5277:5287   */\n      dup3\n        /* \"#utility.yul\":5274:5308   */\n      gt\n        /* \"#utility.yul\":5271:5333   */\n      or\n        /* \"#utility.yul\":5268:5356   */\n      iszero\n      tag_134\n      jumpi\n        /* \"#utility.yul\":5336:5354   */\n      tag_135\n      tag_72\n      jump\t// in\n    tag_135:\n        /* \"#utility.yul\":5268:5356   */\n    tag_134:\n        /* \"#utility.yul\":5376:5386   */\n      dup1\n        /* \"#utility.yul\":5372:5374   */\n      0x40\n        /* \"#utility.yul\":5365:5387   */\n      mstore\n        /* \"#utility.yul\":5155:5393   */\n      pop\n        /* \"#utility.yul\":5112:5393   */\n      pop\n      pop\n      jump\t// out\n        /* \"#utility.yul\":5399:5528   */\n    tag_74:\n        /* \"#utility.yul\":5433:5439   */\n      0x00\n        /* \"#utility.yul\":5460:5480   */\n      tag_137\n      tag_65\n      jump\t// in\n    tag_137:\n        /* \"#utility.yul\":5450:5480   */\n      swap1\n      pop\n        /* \"#utility.yul\":5489:5522   */\n      tag_138\n        /* \"#utility.yul\":5517:5521   */\n      dup3\n        /* \"#utility.yul\":5509:5515   */\n      dup3\n        /* \"#utility.yul\":5489:5522   */\n      tag_73\n      jump\t// in\n    tag_138:\n        /* \"#utility.yul\":5399:5528   */\n      swap2\n      swap1\n      pop\n      jump\t// out\n        /* \"#utility.yul\":5534:5845   */\n    tag_75:\n        /* \"#utility.yul\":5611:5615   */\n      0x00\n        /* \"#utility.yul\":5701:5719   */\n      0xffffffffffffffff\n        /* \"#utility.yul\":5693:5699   */\n      dup3\n        /* \"#utility.yul\":5690:5720   */\n      gt\n        /* \"#utility.yul\":5687:5743   */\n      iszero\n      tag_140\n      jumpi\n        /* \"#utility.yul\":5723:5741   */\n      tag_141\n      tag_72\n      jump\t// in\n    tag_141:\n        /* \"#utility.yul\":5687:5743   */\n    tag_140:\n        /* \"#utility.yul\":5773:5777   */\n      0x20\n        /* \"#utility.yul\":5765:5771   */\n      dup3\n        /* \"#utility.yul\":5761:5778   */\n      mul\n        /* \"#utility.yul\":5753:5778   */\n      swap1\n      pop\n        /* \"#utility.yul\":5833:5837   */\n      0x20\n        /* \"#utility.yul\":5827:5831   */\n      dup2\n        /* \"#utility.yul\":5823:5838   */\n      add\n        /* \"#utility.yul\":5815:5838   */\n      swap1\n      pop\n        /* \"#utility.yul\":5534:5845   */\n      swap2\n      swap1\n      pop\n      jump\t// out\n        /* \"#utility.yul\":5851:5968   */\n    tag_76:\n        /* \"#utility.yul\":5960:5961   */\n      0x00\n        /* \"#utility.yul\":5957:5958   */\n      dup1\n        /* \"#utility.yul\":5950:5962   */\n      revert\n        /* \"#utility.yul\":5991:6701   */\n    tag_77:\n        /* \"#utility.yul\":6087:6092   */\n      0x00\n        /* \"#utility.yul\":6112:6193   */\n      tag_144\n        /* \"#utility.yul\":6128:6192   */\n      tag_145\n        /* \"#utility.yul\":6185:6191   */\n      dup5\n        /* \"#utility.yul\":6128:6192   */\n      tag_75\n      jump\t// in\n    tag_145:\n        /* \"#utility.yul\":6112:6193   */\n      tag_74\n      jump\t// in\n    tag_144:\n        /* \"#utility.yul\":6103:6193   */\n      swap1\n      pop\n        /* \"#utility.yul\":6213:6218   */\n      dup1\n        /* \"#utility.yul\":6242:6248   */\n      dup4\n        /* \"#utility.yul\":6235:6240   */\n      dup3\n        /* \"#utility.yul\":6228:6249   */\n      mstore\n        /* \"#utility.yul\":6276:6280   */\n      0x20\n        /* \"#utility.yul\":6269:6274   */\n      dup3\n        /* \"#utility.yul\":6265:6281   */\n      add\n        /* \"#utility.yul\":6258:6281   */\n      swap1\n      pop\n        /* \"#utility.yul\":6329:6333   */\n      0x20\n        /* \"#utility.yul\":6321:6327   */\n      dup5\n        /* \"#utility.yul\":6317:6334   */\n      mul\n        /* \"#utility.yul\":6309:6315   */\n      dup4\n        /* \"#utility.yul\":6305:6335   */\n      add\n        /* \"#utility.yul\":6358:6361   */\n      dup6\n        /* \"#utility.yul\":6350:6356   */\n      dup2\n        /* \"#utility.yul\":6347:6362   */\n      gt\n        /* \"#utility.yul\":6344:6466   */\n      iszero\n      tag_146\n      jumpi\n        /* \"#utility.yul\":6377:6456   */\n      tag_147\n      tag_76\n      jump\t// in\n    tag_147:\n        /* \"#utility.yul\":6344:6466   */\n    tag_146:\n        /* \"#utility.yul\":6492:6498   */\n      dup4\n        /* \"#utility.yul\":6475:6695   */\n    tag_148:\n        /* \"#utility.yul\":6509:6515   */\n      dup2\n        /* \"#utility.yul\":6504:6507   */\n      dup2\n        /* \"#utility.yul\":6501:6516   */\n      lt\n        /* \"#utility.yul\":6475:6695   */\n      iszero\n      tag_150\n      jumpi\n        /* \"#utility.yul\":6584:6587   */\n      dup1\n        /* \"#utility.yul\":6613:6650   */\n      tag_151\n        /* \"#utility.yul\":6646:6649   */\n      dup9\n        /* \"#utility.yul\":6634:6644   */\n      dup3\n        /* \"#utility.yul\":6613:6650   */\n      tag_69\n      jump\t// in\n    tag_151:\n        /* \"#utility.yul\":6608:6611   */\n      dup5\n        /* \"#utility.yul\":6601:6651   */\n      mstore\n        /* \"#utility.yul\":6680:6684   */\n      0x20\n        /* \"#utility.yul\":6675:6678   */\n      dup5\n        /* \"#utility.yul\":6671:6685   */\n      add\n        /* \"#utility.yul\":6664:6685   */\n      swap4\n      pop\n        /* \"#utility.yul\":6551:6695   */\n      pop\n        /* \"#utility.yul\":6535:6539   */\n      0x20\n        /* \"#utility.yul\":6530:6533   */\n      dup2\n        /* \"#utility.yul\":6526:6540   */\n      add\n        /* \"#utility.yul\":6519:6540   */\n      swap1\n      pop\n        /* \"#utility.yul\":6475:6695   */\n      jump(tag_148)\n    tag_150:\n        /* \"#utility.yul\":6479:6500   */\n      pop\n        /* \"#utility.yul\":6093:6701   */\n      pop\n      pop\n        /* \"#utility.yul\":5991:6701   */\n      swap4\n      swap3\n      pop\n      pop\n      pop\n      jump\t// out\n        /* \"#utility.yul\":6724:7094   */\n    tag_78:\n        /* \"#utility.yul\":6795:6800   */\n      0x00\n        /* \"#utility.yul\":6844:6847   */\n      dup3\n        /* \"#utility.yul\":6837:6841   */\n      0x1f\n        /* \"#utility.yul\":6829:6835   */\n      dup4\n        /* \"#utility.yul\":6825:6842   */\n      add\n        /* \"#utility.yul\":6821:6848   */\n      slt\n        /* \"#utility.yul\":6811:6933   */\n      tag_153\n      jumpi\n        /* \"#utility.yul\":6852:6931   */\n      tag_154\n      tag_70\n      jump\t// in\n    tag_154:\n        /* \"#utility.yul\":6811:6933   */\n    tag_153:\n        /* \"#utility.yul\":6969:6975   */\n      dup2\n        /* \"#utility.yul\":6956:6976   */\n      calldataload\n        /* \"#utility.yul\":6994:7088   */\n      tag_155\n        /* \"#utility.yul\":7084:7087   */\n      dup5\n        /* \"#utility.yul\":7076:7082   */\n      dup3\n        /* \"#utility.yul\":7069:7073   */\n      0x20\n        /* \"#utility.yul\":7061:7067   */\n      dup7\n        /* \"#utility.yul\":7057:7074   */\n      add\n        /* \"#utility.yul\":6994:7088   */\n      tag_77\n      jump\t// in\n    tag_155:\n        /* \"#utility.yul\":6985:7088   */\n      swap2\n      pop\n        /* \"#utility.yul\":6801:7094   */\n      pop\n        /* \"#utility.yul\":6724:7094   */\n      swap3\n      swap2\n      pop\n      pop\n      jump\t// out\n        /* \"#utility.yul\":7100:7639   */\n    tag_41:\n        /* \"#utility.yul\":7184:7190   */\n      0x00\n        /* \"#utility.yul\":7233:7235   */\n      0x20\n        /* \"#utility.yul\":7221:7230   */\n      dup3\n        /* \"#utility.yul\":7212:7219   */\n      dup5\n        /* \"#utility.yul\":7208:7231   */\n      sub\n        /* \"#utility.yul\":7204:7236   */\n      slt\n        /* \"#utility.yul\":7201:7320   */\n      iszero\n      tag_157\n      jumpi\n        /* \"#utility.yul\":7239:7318   */\n      tag_158\n      tag_66\n      jump\t// in\n    tag_158:\n        /* \"#utility.yul\":7201:7320   */\n    tag_157:\n        /* \"#utility.yul\":7387:7388   */\n      0x00\n        /* \"#utility.yul\":7376:7385   */\n      dup3\n        /* \"#utility.yul\":7372:7389   */\n      add\n        /* \"#utility.yul\":7359:7390   */\n      calldataload\n        /* \"#utility.yul\":7417:7435   */\n      0xffffffffffffffff\n        /* \"#utility.yul\":7409:7415   */\n      dup2\n        /* \"#utility.yul\":7406:7436   */\n      gt\n        /* \"#utility.yul\":7403:7520   */\n      iszero\n      tag_159\n      jumpi\n        /* \"#utility.yul\":7439:7518   */\n      tag_160\n      tag_67\n      jump\t// in\n    tag_160:\n        /* \"#utility.yul\":7403:7520   */\n    tag_159:\n        /* \"#utility.yul\":7544:7622   */\n      tag_161\n        /* \"#utility.yul\":7614:7621   */\n      dup5\n        /* \"#utility.yul\":7605:7611   */\n      dup3\n        /* \"#utility.yul\":7594:7603   */\n      dup6\n        /* \"#utility.yul\":7590:7612   */\n      add\n        /* \"#utility.yul\":7544:7622   */\n      tag_78\n      jump\t// in\n    tag_161:\n        /* \"#utility.yul\":7534:7622   */\n      swap2\n      pop\n        /* \"#utility.yul\":7330:7632   */\n      pop\n        /* \"#utility.yul\":7100:7639   */\n      swap3\n      swap2\n      pop\n      pop\n      jump\t// out\n\n    auxdata: 0xa2646970667358221220bd92eff6a9ed2d76e7da77ff62cdcb70b2f47f48632a47c7815593d4bdc55b0864736f6c634300081a0033\n}\n",
				"bytecode": {
					"linkReferences": {},
					"object": "608060405260585f553480156012575f80fd5b50610666806100205f395ff3fe608060405234801561000f575f80fd5b5060043610610086575f3560e01c80636bc7deae116100595780636bc7deae1461010a57806371e5ee5f146101285780638688754414610158578063d93cc2d81461017857610086565b80630bbf1f041461008a5780633f7f3db6146100aa5780634e70b1dc146100cc57806365fd8204146100ea575b5f80fd5b610092610194565b6040516100a1939291906102bd565b60405180910390f35b6100b26101a8565b6040516100c39594939291906102f2565b60405180910390f35b6100d46101e6565b6040516100e19190610343565b60405180910390f35b6100f26101eb565b604051610101939291906102bd565b60405180910390f35b6101126101ff565b60405161011f9190610413565b60405180910390f35b610142600480360381019061013d919061046e565b610255565b60405161014f9190610343565b60405180910390f35b610160610275565b60405161016f939291906102bd565b60405180910390f35b610192600480360381019061018d91906105e9565b610288565b005b5f805f805460016016925092509250909192565b5f805f805f805f806101b8610275565b9250925092505f80600460056006925050915084848484849950995099509950995050505050509091929394565b5f5481565b5f805f60169250600191505f549050909192565b6060600180548060200260200160405190810160405280929190818152602001828054801561024b57602002820191905f5260205f20905b815481526020019060010190808311610237575b5050505050905090565b60018181548110610264575f80fd5b905f5260205f20015f915090505481565b5f805f6001806016925092509250909192565b50565b5f819050919050565b61029d8161028b565b82525050565b5f8115159050919050565b6102b7816102a3565b82525050565b5f6060820190506102d05f830186610294565b6102dd60208301856102ae565b6102ea6040830184610294565b949350505050565b5f60a0820190506103055f830188610294565b61031260208301876102ae565b61031f6040830186610294565b61032c6060830185610294565b6103396080830184610294565b9695505050505050565b5f6020820190506103565f830184610294565b92915050565b5f81519050919050565b5f82825260208201905092915050565b5f819050602082019050919050565b61038e8161028b565b82525050565b5f61039f8383610385565b60208301905092915050565b5f602082019050919050565b5f6103c18261035c565b6103cb8185610366565b93506103d683610376565b805f5b838110156104065781516103ed8882610394565b97506103f8836103ab565b9250506001810190506103d9565b5085935050505092915050565b5f6020820190508181035f83015261042b81846103b7565b905092915050565b5f604051905090565b5f80fd5b5f80fd5b61044d8161028b565b8114610457575f80fd5b50565b5f8135905061046881610444565b92915050565b5f602082840312156104835761048261043c565b5b5f6104908482850161045a565b91505092915050565b5f80fd5b5f601f19601f8301169050919050565b7f4e487b71000000000000000000000000000000000000000000000000000000005f52604160045260245ffd5b6104e38261049d565b810181811067ffffffffffffffff82111715610502576105016104ad565b5b80604052505050565b5f610514610433565b905061052082826104da565b919050565b5f67ffffffffffffffff82111561053f5761053e6104ad565b5b602082029050602081019050919050565b5f80fd5b5f61056661056184610525565b61050b565b9050808382526020820190506020840283018581111561058957610588610550565b5b835b818110156105b2578061059e888261045a565b84526020840193505060208101905061058b565b5050509392505050565b5f82601f8301126105d0576105cf610499565b5b81356105e0848260208601610554565b91505092915050565b5f602082840312156105fe576105fd61043c565b5b5f82013567ffffffffffffffff81111561061b5761061a610440565b5b610627848285016105bc565b9150509291505056fea2646970667358221220bd92eff6a9ed2d76e7da77ff62cdcb70b2f47f48632a47c7815593d4bdc55b0864736f6c634300081a0033",
					"opcodes": "PUSH1 0x80 PUSH1 0x40 MSTORE PUSH1 0x58 PUSH0 SSTORE CALLVALUE DUP1 ISZERO PUSH1 0x12 JUMPI PUSH0 DUP1 REVERT JUMPDEST POP PUSH2 0x666 DUP1 PUSH2 0x20 PUSH0 CODECOPY PUSH0 RETURN INVALID PUSH1 0x80 PUSH1 0x40 MSTORE CALLVALUE DUP1 ISZERO PUSH2 0xF JUMPI PUSH0 DUP1 REVERT JUMPDEST POP PUSH1 0x4 CALLDATASIZE LT PUSH2 0x86 JUMPI PUSH0 CALLDATALOAD PUSH1 0xE0 SHR DUP1 PUSH4 0x6BC7DEAE GT PUSH2 0x59 JUMPI DUP1 PUSH4 0x6BC7DEAE EQ PUSH2 0x10A JUMPI DUP1 PUSH4 0x71E5EE5F EQ PUSH2 0x128 JUMPI DUP1 PUSH4 0x86887544 EQ PUSH2 0x158 JUMPI DUP1 PUSH4 0xD93CC2D8 EQ PUSH2 0x178 JUMPI PUSH2 0x86 JUMP JUMPDEST DUP1 PUSH4 0xBBF1F04 EQ PUSH2 0x8A JUMPI DUP1 PUSH4 0x3F7F3DB6 EQ PUSH2 0xAA JUMPI DUP1 PUSH4 0x4E70B1DC EQ PUSH2 0xCC JUMPI DUP1 PUSH4 0x65FD8204 EQ PUSH2 0xEA JUMPI JUMPDEST PUSH0 DUP1 REVERT JUMPDEST PUSH2 0x92 PUSH2 0x194 JUMP JUMPDEST PUSH1 0x40 MLOAD PUSH2 0xA1 SWAP4 SWAP3 SWAP2 SWAP1 PUSH2 0x2BD JUMP JUMPDEST PUSH1 0x40 MLOAD DUP1 SWAP2 SUB SWAP1 RETURN JUMPDEST PUSH2 0xB2 PUSH2 0x1A8 JUMP JUMPDEST PUSH1 0x40 MLOAD PUSH2 0xC3 SWAP6 SWAP5 SWAP4 SWAP3 SWAP2 SWAP1 PUSH2 0x2F2 JUMP JUMPDEST PUSH1 0x40 MLOAD DUP1 SWAP2 SUB SWAP1 RETURN JUMPDEST PUSH2 0xD4 PUSH2 0x1E6 JUMP JUMPDEST PUSH1 0x40 MLOAD PUSH2 0xE1 SWAP2 SWAP1 PUSH2 0x343 JUMP JUMPDEST PUSH1 0x40 MLOAD DUP1 SWAP2 SUB SWAP1 RETURN JUMPDEST PUSH2 0xF2 PUSH2 0x1EB JUMP JUMPDEST PUSH1 0x40 MLOAD PUSH2 0x101 SWAP4 SWAP3 SWAP2 SWAP1 PUSH2 0x2BD JUMP JUMPDEST PUSH1 0x40 MLOAD DUP1 SWAP2 SUB SWAP1 RETURN JUMPDEST PUSH2 0x112 PUSH2 0x1FF JUMP JUMPDEST PUSH1 0x40 MLOAD PUSH2 0x11F SWAP2 SWAP1 PUSH2 0x413 JUMP JUMPDEST PUSH1 0x40 MLOAD DUP1 SWAP2 SUB SWAP1 RETURN JUMPDEST PUSH2 0x142 PUSH1 0x4 DUP1 CALLDATASIZE SUB DUP2 ADD SWAP1 PUSH2 0x13D SWAP2 SWAP1 PUSH2 0x46E JUMP JUMPDEST PUSH2 0x255 JUMP JUMPDEST PUSH1 0x40 MLOAD PUSH2 0x14F SWAP2 SWAP1 PUSH2 0x343 JUMP JUMPDEST PUSH1 0x40 MLOAD DUP1 SWAP2 SUB SWAP1 RETURN JUMPDEST PUSH2 0x160 PUSH2 0x275 JUMP JUMPDEST PUSH1 0x40 MLOAD PUSH2 0x16F SWAP4 SWAP3 SWAP2 SWAP1 PUSH2 0x2BD JUMP JUMPDEST PUSH1 0x40 MLOAD DUP1 SWAP2 SUB SWAP1 RETURN JUMPDEST PUSH2 0x192 PUSH1 0x4 DUP1 CALLDATASIZE SUB DUP2 ADD SWAP1 PUSH2 0x18D SWAP2 SWAP1 PUSH2 0x5E9 JUMP JUMPDEST PUSH2 0x288 JUMP JUMPDEST STOP JUMPDEST PUSH0 DUP1 PUSH0 DUP1 SLOAD PUSH1 0x1 PUSH1 0x16 SWAP3 POP SWAP3 POP SWAP3 POP SWAP1 SWAP2 SWAP3 JUMP JUMPDEST PUSH0 DUP1 PUSH0 DUP1 PUSH0 DUP1 PUSH0 DUP1 PUSH2 0x1B8 PUSH2 0x275 JUMP JUMPDEST SWAP3 POP SWAP3 POP SWAP3 POP PUSH0 DUP1 PUSH1 0x4 PUSH1 0x5 PUSH1 0x6 SWAP3 POP POP SWAP2 POP DUP5 DUP5 DUP5 DUP5 DUP5 SWAP10 POP SWAP10 POP SWAP10 POP SWAP10 POP SWAP10 POP POP POP POP POP POP SWAP1 SWAP2 SWAP3 SWAP4 SWAP5 JUMP JUMPDEST PUSH0 SLOAD DUP2 JUMP JUMPDEST PUSH0 DUP1 PUSH0 PUSH1 0x16 SWAP3 POP PUSH1 0x1 SWAP2 POP PUSH0 SLOAD SWAP1 POP SWAP1 SWAP2 SWAP3 JUMP JUMPDEST PUSH1 0x60 PUSH1 0x1 DUP1 SLOAD DUP1 PUSH1 0x20 MUL PUSH1 0x20 ADD PUSH1 0x40 MLOAD SWAP1 DUP2 ADD PUSH1 0x40 MSTORE DUP1 SWAP3 SWAP2 SWAP1 DUP2 DUP2 MSTORE PUSH1 0x20 ADD DUP3 DUP1 SLOAD DUP1 ISZERO PUSH2 0x24B JUMPI PUSH1 0x20 MUL DUP3 ADD SWAP2 SWAP1 PUSH0 MSTORE PUSH1 0x20 PUSH0 KECCAK256 SWAP1 JUMPDEST DUP2 SLOAD DUP2 MSTORE PUSH1 0x20 ADD SWAP1 PUSH1 0x1 ADD SWAP1 DUP1 DUP4 GT PUSH2 0x237 JUMPI JUMPDEST POP POP POP POP POP SWAP1 POP SWAP1 JUMP JUMPDEST PUSH1 0x1 DUP2 DUP2 SLOAD DUP2 LT PUSH2 0x264 JUMPI PUSH0 DUP1 REVERT JUMPDEST SWAP1 PUSH0 MSTORE PUSH1 0x20 PUSH0 KECCAK256 ADD PUSH0 SWAP2 POP SWAP1 POP SLOAD DUP2 JUMP JUMPDEST PUSH0 DUP1 PUSH0 PUSH1 0x1 DUP1 PUSH1 0x16 SWAP3 POP SWAP3 POP SWAP3 POP SWAP1 SWAP2 SWAP3 JUMP JUMPDEST POP JUMP JUMPDEST PUSH0 DUP2 SWAP1 POP SWAP2 SWAP1 POP JUMP JUMPDEST PUSH2 0x29D DUP2 PUSH2 0x28B JUMP JUMPDEST DUP3 MSTORE POP POP JUMP JUMPDEST PUSH0 DUP2 ISZERO ISZERO SWAP1 POP SWAP2 SWAP1 POP JUMP JUMPDEST PUSH2 0x2B7 DUP2 PUSH2 0x2A3 JUMP JUMPDEST DUP3 MSTORE POP POP JUMP JUMPDEST PUSH0 PUSH1 0x60 DUP3 ADD SWAP1 POP PUSH2 0x2D0 PUSH0 DUP4 ADD DUP7 PUSH2 0x294 JUMP JUMPDEST PUSH2 0x2DD PUSH1 0x20 DUP4 ADD DUP6 PUSH2 0x2AE JUMP JUMPDEST PUSH2 0x2EA PUSH1 0x40 DUP4 ADD DUP5 PUSH2 0x294 JUMP JUMPDEST SWAP5 SWAP4 POP POP POP POP JUMP JUMPDEST PUSH0 PUSH1 0xA0 DUP3 ADD SWAP1 POP PUSH2 0x305 PUSH0 DUP4 ADD DUP9 PUSH2 0x294 JUMP JUMPDEST PUSH2 0x312 PUSH1 0x20 DUP4 ADD DUP8 PUSH2 0x2AE JUMP JUMPDEST PUSH2 0x31F PUSH1 0x40 DUP4 ADD DUP7 PUSH2 0x294 JUMP JUMPDEST PUSH2 0x32C PUSH1 0x60 DUP4 ADD DUP6 PUSH2 0x294 JUMP JUMPDEST PUSH2 0x339 PUSH1 0x80 DUP4 ADD DUP5 PUSH2 0x294 JUMP JUMPDEST SWAP7 SWAP6 POP POP POP POP POP POP JUMP JUMPDEST PUSH0 PUSH1 0x20 DUP3 ADD SWAP1 POP PUSH2 0x356 PUSH0 DUP4 ADD DUP5 PUSH2 0x294 JUMP JUMPDEST SWAP3 SWAP2 POP POP JUMP JUMPDEST PUSH0 DUP2 MLOAD SWAP1 POP SWAP2 SWAP1 POP JUMP JUMPDEST PUSH0 DUP3 DUP3 MSTORE PUSH1 0x20 DUP3 ADD SWAP1 POP SWAP3 SWAP2 POP POP JUMP JUMPDEST PUSH0 DUP2 SWAP1 POP PUSH1 0x20 DUP3 ADD SWAP1 POP SWAP2 SWAP1 POP JUMP JUMPDEST PUSH2 0x38E DUP2 PUSH2 0x28B JUMP JUMPDEST DUP3 MSTORE POP POP JUMP JUMPDEST PUSH0 PUSH2 0x39F DUP4 DUP4 PUSH2 0x385 JUMP JUMPDEST PUSH1 0x20 DUP4 ADD SWAP1 POP SWAP3 SWAP2 POP POP JUMP JUMPDEST PUSH0 PUSH1 0x20 DUP3 ADD SWAP1 POP SWAP2 SWAP1 POP JUMP JUMPDEST PUSH0 PUSH2 0x3C1 DUP3 PUSH2 0x35C JUMP JUMPDEST PUSH2 0x3CB DUP2 DUP6 PUSH2 0x366 JUMP JUMPDEST SWAP4 POP PUSH2 0x3D6 DUP4 PUSH2 0x376 JUMP JUMPDEST DUP1 PUSH0 JUMPDEST DUP4 DUP2 LT ISZERO PUSH2 0x406 JUMPI DUP2 MLOAD PUSH2 0x3ED DUP9 DUP3 PUSH2 0x394 JUMP JUMPDEST SWAP8 POP PUSH2 0x3F8 DUP4 PUSH2 0x3AB JUMP JUMPDEST SWAP3 POP POP PUSH1 0x1 DUP2 ADD SWAP1 POP PUSH2 0x3D9 JUMP JUMPDEST POP DUP6 SWAP4 POP POP POP POP SWAP3 SWAP2 POP POP JUMP JUMPDEST PUSH0 PUSH1 0x20 DUP3 ADD SWAP1 POP DUP2 DUP2 SUB PUSH0 DUP4 ADD MSTORE PUSH2 0x42B DUP2 DUP5 PUSH2 0x3B7 JUMP JUMPDEST SWAP1 POP SWAP3 SWAP2 POP POP JUMP JUMPDEST PUSH0 PUSH1 0x40 MLOAD SWAP1 POP SWAP1 JUMP JUMPDEST PUSH0 DUP1 REVERT JUMPDEST PUSH0 DUP1 REVERT JUMPDEST PUSH2 0x44D DUP2 PUSH2 0x28B JUMP JUMPDEST DUP2 EQ PUSH2 0x457 JUMPI PUSH0 DUP1 REVERT JUMPDEST POP JUMP JUMPDEST PUSH0 DUP2 CALLDATALOAD SWAP1 POP PUSH2 0x468 DUP2 PUSH2 0x444 JUMP JUMPDEST SWAP3 SWAP2 POP POP JUMP JUMPDEST PUSH0 PUSH1 0x20 DUP3 DUP5 SUB SLT ISZERO PUSH2 0x483 JUMPI PUSH2 0x482 PUSH2 0x43C JUMP JUMPDEST JUMPDEST PUSH0 PUSH2 0x490 DUP5 DUP3 DUP6 ADD PUSH2 0x45A JUMP JUMPDEST SWAP2 POP POP SWAP3 SWAP2 POP POP JUMP JUMPDEST PUSH0 DUP1 REVERT JUMPDEST PUSH0 PUSH1 0x1F NOT PUSH1 0x1F DUP4 ADD AND SWAP1 POP SWAP2 SWAP1 POP JUMP JUMPDEST PUSH32 0x4E487B7100000000000000000000000000000000000000000000000000000000 PUSH0 MSTORE PUSH1 0x41 PUSH1 0x4 MSTORE PUSH1 0x24 PUSH0 REVERT JUMPDEST PUSH2 0x4E3 DUP3 PUSH2 0x49D JUMP JUMPDEST DUP2 ADD DUP2 DUP2 LT PUSH8 0xFFFFFFFFFFFFFFFF DUP3 GT OR ISZERO PUSH2 0x502 JUMPI PUSH2 0x501 PUSH2 0x4AD JUMP JUMPDEST JUMPDEST DUP1 PUSH1 0x40 MSTORE POP POP POP JUMP JUMPDEST PUSH0 PUSH2 0x514 PUSH2 0x433 JUMP JUMPDEST SWAP1 POP PUSH2 0x520 DUP3 DUP3 PUSH2 0x4DA JUMP JUMPDEST SWAP2 SWAP1 POP JUMP JUMPDEST PUSH0 PUSH8 0xFFFFFFFFFFFFFFFF DUP3 GT ISZERO PUSH2 0x53F JUMPI PUSH2 0x53E PUSH2 0x4AD JUMP JUMPDEST JUMPDEST PUSH1 0x20 DUP3 MUL SWAP1 POP PUSH1 0x20 DUP2 ADD SWAP1 POP SWAP2 SWAP1 POP JUMP JUMPDEST PUSH0 DUP1 REVERT JUMPDEST PUSH0 PUSH2 0x566 PUSH2 0x561 DUP5 PUSH2 0x525 JUMP JUMPDEST PUSH2 0x50B JUMP JUMPDEST SWAP1 POP DUP1 DUP4 DUP3 MSTORE PUSH1 0x20 DUP3 ADD SWAP1 POP PUSH1 0x20 DUP5 MUL DUP4 ADD DUP6 DUP2 GT ISZERO PUSH2 0x589 JUMPI PUSH2 0x588 PUSH2 0x550 JUMP JUMPDEST JUMPDEST DUP4 JUMPDEST DUP2 DUP2 LT ISZERO PUSH2 0x5B2 JUMPI DUP1 PUSH2 0x59E DUP9 DUP3 PUSH2 0x45A JUMP JUMPDEST DUP5 MSTORE PUSH1 0x20 DUP5 ADD SWAP4 POP POP PUSH1 0x20 DUP2 ADD SWAP1 POP PUSH2 0x58B JUMP JUMPDEST POP POP POP SWAP4 SWAP3 POP POP POP JUMP JUMPDEST PUSH0 DUP3 PUSH1 0x1F DUP4 ADD SLT PUSH2 0x5D0 JUMPI PUSH2 0x5CF PUSH2 0x499 JUMP JUMPDEST JUMPDEST DUP2 CALLDATALOAD PUSH2 0x5E0 DUP5 DUP3 PUSH1 0x20 DUP7 ADD PUSH2 0x554 JUMP JUMPDEST SWAP2 POP POP SWAP3 SWAP2 POP POP JUMP JUMPDEST PUSH0 PUSH1 0x20 DUP3 DUP5 SUB SLT ISZERO PUSH2 0x5FE JUMPI PUSH2 0x5FD PUSH2 0x43C JUMP JUMPDEST JUMPDEST PUSH0 DUP3 ADD CALLDATALOAD PUSH8 0xFFFFFFFFFFFFFFFF DUP2 GT ISZERO PUSH2 0x61B JUMPI PUSH2 0x61A PUSH2 0x440 JUMP JUMPDEST JUMPDEST PUSH2 0x627 DUP5 DUP3 DUP6 ADD PUSH2 0x5BC JUMP JUMPDEST SWAP2 POP POP SWAP3 SWAP2 POP POP JUMP INVALID LOG2 PUSH5 0x6970667358 0x22 SLT KECCAK256 0xBD SWAP3 0xEF 0xF6 0xA9 0xED 0x2D PUSH23 0xE7DA77FF62CDCB70B2F47F48632A47C7815593D4BDC55B ADDMOD PUSH5 0x736F6C6343 STOP ADDMOD BYTE STOP CALLER "
				},
				"gasEstimates": {
					"creation": {
						"codeDepositCost": "327600",
						"executionCost": "22471",
						"totalCost": "350071"
					},
					"external": {
						"arr(uint256)": "infinite",
						"arrInput(uint256[])": "infinite",
						"destructingAssignments()": "infinite",
						"getarr()": "infinite",
						"num()": "2469",
						"returnMany()": "infinite",
						"returnMany1()": "infinite",
						"returnMany2()": "infinite"
					}
				},
				"methodIdentifiers": {
					"arr(uint256)": "71e5ee5f",
					"arrInput(uint256[])": "d93cc2d8",
					"destructingAssignments()": "3f7f3db6",
					"getarr()": "6bc7deae",
					"num()": "4e70b1dc",
					"returnMany()": "86887544",
					"returnMany1()": "0bbf1f04",
					"returnMany2()": "65fd8204"
				}
			},
			"storageLayout": {
				"storage": [
					{
						"astId": 4,
						"contract": "solidityByExample/contract/017Function.sol:Function",
						"label": "num",
						"offset": 0,
						"slot": "0",
						"type": "t_uint256"
					},
					{
						"astId": 105,
						"contract": "solidityByExample/contract/017Function.sol:Function",
						"label": "arr",
						"offset": 0,
						"slot": "1",
						"type": "t_array(t_uint256)dyn_storage"
					}
				],
				"types": {
					"t_array(t_uint256)dyn_storage": {
						"base": "t_uint256",
						"encoding": "dynamic_array",
						"label": "uint256[]",
						"numberOfBytes": "32"
					},
					"t_uint256": {
						"encoding": "inplace",
						"label": "uint256",
						"numberOfBytes": "32"
					}
				}
			},
			"userdoc": {
				"kind": "user",
				"methods": {},
				"version": 1
			}
		}
	}
}