{
	"solidityByExample/contract/019FunctionModifier.sol.sol": {
		"FunctionModifier": {
			"abi": [
				{
					"inputs": [],
					"stateMutability": "nonpayable",
					"type": "constructor"
				},
				{
					"inputs": [],
					"name": "addr",
					"outputs": [
						{
							"internalType": "address",
							"name": "",
							"type": "address"
						}
					],
					"stateMutability": "view",
					"type": "function"
				},
				{
					"inputs": [
						{
							"internalType": "uint256",
							"name": "i",
							"type": "uint256"
						}
					],
					"name": "decrement",
					"outputs": [],
					"stateMutability": "nonpayable",
					"type": "function"
				},
				{
					"inputs": [],
					"name": "locked",
					"outputs": [
						{
							"internalType": "bool",
							"name": "",
							"type": "bool"
						}
					],
					"stateMutability": "view",
					"type": "function"
				},
				{
					"inputs": [
						{
							"internalType": "address",
							"name": "_newOwner",
							"type": "address"
						}
					],
					"name": "modifyOwner",
					"outputs": [],
					"stateMutability": "nonpayable",
					"type": "function"
				},
				{
					"inputs": [],
					"name": "x",
					"outputs": [
						{
							"internalType": "uint256",
							"name": "",
							"type": "uint256"
						}
					],
					"stateMutability": "view",
					"type": "function"
				}
			],
			"devdoc": {
				"kind": "dev",
				"methods": {},
				"version": 1
			},
			"evm": {
				"assembly": "    /* \"solidityByExample/contract/019FunctionModifier.sol.sol\":58:1359  contract FunctionModifier {... */\n  mstore(0x40, 0x80)\n    /* \"solidityByExample/contract/019FunctionModifier.sol.sol\":130:132  10 */\n  0x0a\n    /* \"solidityByExample/contract/019FunctionModifier.sol.sol\":115:132  uint public x =10 */\n  0x01\n  sstore\n    /* \"solidityByExample/contract/019FunctionModifier.sol.sol\":189:304  constructor() {... */\n  callvalue\n  dup1\n  iszero\n  tag_1\n  jumpi\n  0x00\n  dup1\n  revert\ntag_1:\n  pop\n    /* \"solidityByExample/contract/019FunctionModifier.sol.sol\":288:298  msg.sender */\n  caller\n    /* \"solidityByExample/contract/019FunctionModifier.sol.sol\":281:285  addr */\n  0x00\n  dup1\n    /* \"solidityByExample/contract/019FunctionModifier.sol.sol\":281:298  addr = msg.sender */\n  0x0100\n  exp\n  dup2\n  sload\n  dup2\n  0xffffffffffffffffffffffffffffffffffffffff\n  mul\n  not\n  and\n  swap1\n  dup4\n  0xffffffffffffffffffffffffffffffffffffffff\n  and\n  mul\n  or\n  swap1\n  sstore\n  pop\n    /* \"solidityByExample/contract/019FunctionModifier.sol.sol\":58:1359  contract FunctionModifier {... */\n  dataSize(sub_0)\n  dup1\n  dataOffset(sub_0)\n  0x00\n  codecopy\n  0x00\n  return\nstop\n\nsub_0: assembly {\n        /* \"solidityByExample/contract/019FunctionModifier.sol.sol\":58:1359  contract FunctionModifier {... */\n      mstore(0x40, 0x80)\n      callvalue\n      dup1\n      iszero\n      tag_1\n      jumpi\n      0x00\n      dup1\n      revert\n    tag_1:\n      pop\n      jumpi(tag_2, lt(calldatasize, 0x04))\n      shr(0xe0, calldataload(0x00))\n      dup1\n      0x0c55699c\n      eq\n      tag_3\n      jumpi\n      dup1\n      0x3a9ebefd\n      eq\n      tag_4\n      jumpi\n      dup1\n      0x40cb3462\n      eq\n      tag_5\n      jumpi\n      dup1\n      0x767800de\n      eq\n      tag_6\n      jumpi\n      dup1\n      0xcf309012\n      eq\n      tag_7\n      jumpi\n    tag_2:\n      0x00\n      dup1\n      revert\n        /* \"solidityByExample/contract/019FunctionModifier.sol.sol\":115:132  uint public x =10 */\n    tag_3:\n      tag_8\n      tag_9\n      jump\t// in\n    tag_8:\n      mload(0x40)\n      tag_10\n      swap2\n      swap1\n      tag_11\n      jump\t// in\n    tag_10:\n      mload(0x40)\n      dup1\n      swap2\n      sub\n      swap1\n      return\n        /* \"solidityByExample/contract/019FunctionModifier.sol.sol\":1121:1357  function decrement(uint i) public noReentrancy {... */\n    tag_4:\n      tag_12\n      0x04\n      dup1\n      calldatasize\n      sub\n      dup2\n      add\n      swap1\n      tag_13\n      swap2\n      swap1\n      tag_14\n      jump\t// in\n    tag_13:\n      tag_15\n      jump\t// in\n    tag_12:\n      stop\n        /* \"solidityByExample/contract/019FunctionModifier.sol.sol\":700:814  function modifyOwner(address _newOwner) public onlyOwner validAddress(_newOwner) {... */\n    tag_5:\n      tag_16\n      0x04\n      dup1\n      calldatasize\n      sub\n      dup2\n      add\n      swap1\n      tag_17\n      swap2\n      swap1\n      tag_18\n      jump\t// in\n    tag_17:\n      tag_19\n      jump\t// in\n    tag_16:\n      stop\n        /* \"solidityByExample/contract/019FunctionModifier.sol.sol\":90:109  address public addr */\n    tag_6:\n      tag_20\n      tag_21\n      jump\t// in\n    tag_20:\n      mload(0x40)\n      tag_22\n      swap2\n      swap1\n      tag_23\n      jump\t// in\n    tag_22:\n      mload(0x40)\n      dup1\n      swap2\n      sub\n      swap1\n      return\n        /* \"solidityByExample/contract/019FunctionModifier.sol.sol\":138:156  bool public locked */\n    tag_7:\n      tag_24\n      tag_25\n      jump\t// in\n    tag_24:\n      mload(0x40)\n      tag_26\n      swap2\n      swap1\n      tag_27\n      jump\t// in\n    tag_26:\n      mload(0x40)\n      dup1\n      swap2\n      sub\n      swap1\n      return\n        /* \"solidityByExample/contract/019FunctionModifier.sol.sol\":115:132  uint public x =10 */\n    tag_9:\n      sload(0x01)\n      dup2\n      jump\t// out\n        /* \"solidityByExample/contract/019FunctionModifier.sol.sol\":1121:1357  function decrement(uint i) public noReentrancy {... */\n    tag_15:\n        /* \"solidityByExample/contract/019FunctionModifier.sol.sol\":1025:1031  locked */\n      0x02\n      0x00\n      swap1\n      sload\n      swap1\n      0x0100\n      exp\n      swap1\n      div\n      0xff\n      and\n        /* \"solidityByExample/contract/019FunctionModifier.sol.sol\":1024:1031  !locked */\n      iszero\n        /* \"solidityByExample/contract/019FunctionModifier.sol.sol\":1016:1049  require(!locked, 'no Reentrancy') */\n      tag_29\n      jumpi\n      mload(0x40)\n      0x08c379a000000000000000000000000000000000000000000000000000000000\n      dup2\n      mstore\n      0x04\n      add\n      tag_30\n      swap1\n      tag_31\n      jump\t// in\n    tag_30:\n      mload(0x40)\n      dup1\n      swap2\n      sub\n      swap1\n      revert\n    tag_29:\n        /* \"solidityByExample/contract/019FunctionModifier.sol.sol\":1069:1073  true */\n      0x01\n        /* \"solidityByExample/contract/019FunctionModifier.sol.sol\":1060:1066  locked */\n      0x02\n      0x00\n        /* \"solidityByExample/contract/019FunctionModifier.sol.sol\":1060:1073  locked = true */\n      0x0100\n      exp\n      dup2\n      sload\n      dup2\n      0xff\n      mul\n      not\n      and\n      swap1\n      dup4\n      iszero\n      iszero\n      mul\n      or\n      swap1\n      sstore\n      pop\n        /* \"solidityByExample/contract/019FunctionModifier.sol.sol\":1312:1313  i */\n      dup1\n        /* \"solidityByExample/contract/019FunctionModifier.sol.sol\":1308:1309  x */\n      sload(0x01)\n        /* \"solidityByExample/contract/019FunctionModifier.sol.sol\":1308:1313  x > i */\n      gt\n        /* \"solidityByExample/contract/019FunctionModifier.sol.sol\":1300:1334  require(x > i, \"x is less than i\") */\n      tag_33\n      jumpi\n      mload(0x40)\n      0x08c379a000000000000000000000000000000000000000000000000000000000\n      dup2\n      mstore\n      0x04\n      add\n      tag_34\n      swap1\n      tag_35\n      jump\t// in\n    tag_34:\n      mload(0x40)\n      dup1\n      swap2\n      sub\n      swap1\n      revert\n    tag_33:\n        /* \"solidityByExample/contract/019FunctionModifier.sol.sol\":1349:1350  i */\n      dup1\n        /* \"solidityByExample/contract/019FunctionModifier.sol.sol\":1344:1345  x */\n      0x01\n      0x00\n        /* \"solidityByExample/contract/019FunctionModifier.sol.sol\":1344:1350  x -= i */\n      dup3\n      dup3\n      sload\n      tag_36\n      swap2\n      swap1\n      tag_37\n      jump\t// in\n    tag_36:\n      swap3\n      pop\n      pop\n      dup2\n      swap1\n      sstore\n      pop\n        /* \"solidityByExample/contract/019FunctionModifier.sol.sol\":1103:1108  false */\n      0x00\n        /* \"solidityByExample/contract/019FunctionModifier.sol.sol\":1094:1100  locked */\n      0x02\n      0x00\n        /* \"solidityByExample/contract/019FunctionModifier.sol.sol\":1094:1108  locked = false */\n      0x0100\n      exp\n      dup2\n      sload\n      dup2\n      0xff\n      mul\n      not\n      and\n      swap1\n      dup4\n      iszero\n      iszero\n      mul\n      or\n      swap1\n      sstore\n      pop\n        /* \"solidityByExample/contract/019FunctionModifier.sol.sol\":1121:1357  function decrement(uint i) public noReentrancy {... */\n      pop\n      jump\t// out\n        /* \"solidityByExample/contract/019FunctionModifier.sol.sol\":700:814  function modifyOwner(address _newOwner) public onlyOwner validAddress(_newOwner) {... */\n    tag_19:\n        /* \"solidityByExample/contract/019FunctionModifier.sol.sol\":372:376  addr */\n      0x00\n      dup1\n      sload\n      swap1\n      0x0100\n      exp\n      swap1\n      div\n      0xffffffffffffffffffffffffffffffffffffffff\n      and\n        /* \"solidityByExample/contract/019FunctionModifier.sol.sol\":358:376  msg.sender == addr */\n      0xffffffffffffffffffffffffffffffffffffffff\n      and\n        /* \"solidityByExample/contract/019FunctionModifier.sol.sol\":358:368  msg.sender */\n      caller\n        /* \"solidityByExample/contract/019FunctionModifier.sol.sol\":358:376  msg.sender == addr */\n      0xffffffffffffffffffffffffffffffffffffffff\n      and\n      eq\n        /* \"solidityByExample/contract/019FunctionModifier.sol.sol\":350:397  require(msg.sender == addr, \"u are not owner!\") */\n      tag_39\n      jumpi\n      mload(0x40)\n      0x08c379a000000000000000000000000000000000000000000000000000000000\n      dup2\n      mstore\n      0x04\n      add\n      tag_40\n      swap1\n      tag_41\n      jump\t// in\n    tag_40:\n      mload(0x40)\n      dup1\n      swap2\n      sub\n      swap1\n      revert\n    tag_39:\n        /* \"solidityByExample/contract/019FunctionModifier.sol.sol\":770:779  _newOwner */\n      dup1\n        /* \"solidityByExample/contract/019FunctionModifier.sol.sol\":652:653  0 */\n      0x00\n        /* \"solidityByExample/contract/019FunctionModifier.sol.sol\":635:654  _addr != address(0) */\n      0xffffffffffffffffffffffffffffffffffffffff\n      and\n        /* \"solidityByExample/contract/019FunctionModifier.sol.sol\":635:640  _addr */\n      dup2\n        /* \"solidityByExample/contract/019FunctionModifier.sol.sol\":635:654  _addr != address(0) */\n      0xffffffffffffffffffffffffffffffffffffffff\n      and\n      sub\n        /* \"solidityByExample/contract/019FunctionModifier.sol.sol\":627:676  require(_addr != address(0), \"Not valid address\") */\n      tag_43\n      jumpi\n      mload(0x40)\n      0x08c379a000000000000000000000000000000000000000000000000000000000\n      dup2\n      mstore\n      0x04\n      add\n      tag_44\n      swap1\n      tag_45\n      jump\t// in\n    tag_44:\n      mload(0x40)\n      dup1\n      swap2\n      sub\n      swap1\n      revert\n    tag_43:\n        /* \"solidityByExample/contract/019FunctionModifier.sol.sol\":798:807  _newOwner */\n      dup2\n        /* \"solidityByExample/contract/019FunctionModifier.sol.sol\":791:795  addr */\n      0x00\n      dup1\n        /* \"solidityByExample/contract/019FunctionModifier.sol.sol\":791:807  addr = _newOwner */\n      0x0100\n      exp\n      dup2\n      sload\n      dup2\n      0xffffffffffffffffffffffffffffffffffffffff\n      mul\n      not\n      and\n      swap1\n      dup4\n      0xffffffffffffffffffffffffffffffffffffffff\n      and\n      mul\n      or\n      swap1\n      sstore\n      pop\n        /* \"solidityByExample/contract/019FunctionModifier.sol.sol\":566:567  _ */\n      pop\n        /* \"solidityByExample/contract/019FunctionModifier.sol.sol\":700:814  function modifyOwner(address _newOwner) public onlyOwner validAddress(_newOwner) {... */\n      pop\n      jump\t// out\n        /* \"solidityByExample/contract/019FunctionModifier.sol.sol\":90:109  address public addr */\n    tag_21:\n      0x00\n      dup1\n      sload\n      swap1\n      0x0100\n      exp\n      swap1\n      div\n      0xffffffffffffffffffffffffffffffffffffffff\n      and\n      dup2\n      jump\t// out\n        /* \"solidityByExample/contract/019FunctionModifier.sol.sol\":138:156  bool public locked */\n    tag_25:\n      0x02\n      0x00\n      swap1\n      sload\n      swap1\n      0x0100\n      exp\n      swap1\n      div\n      0xff\n      and\n      dup2\n      jump\t// out\n        /* \"#utility.yul\":7:84   */\n    tag_47:\n        /* \"#utility.yul\":44:51   */\n      0x00\n        /* \"#utility.yul\":73:78   */\n      dup2\n        /* \"#utility.yul\":62:78   */\n      swap1\n      pop\n        /* \"#utility.yul\":7:84   */\n      swap2\n      swap1\n      pop\n      jump\t// out\n        /* \"#utility.yul\":90:208   */\n    tag_48:\n        /* \"#utility.yul\":177:201   */\n      tag_74\n        /* \"#utility.yul\":195:200   */\n      dup2\n        /* \"#utility.yul\":177:201   */\n      tag_47\n      jump\t// in\n    tag_74:\n        /* \"#utility.yul\":172:175   */\n      dup3\n        /* \"#utility.yul\":165:202   */\n      mstore\n        /* \"#utility.yul\":90:208   */\n      pop\n      pop\n      jump\t// out\n        /* \"#utility.yul\":214:436   */\n    tag_11:\n        /* \"#utility.yul\":307:311   */\n      0x00\n        /* \"#utility.yul\":345:347   */\n      0x20\n        /* \"#utility.yul\":334:343   */\n      dup3\n        /* \"#utility.yul\":330:348   */\n      add\n        /* \"#utility.yul\":322:348   */\n      swap1\n      pop\n        /* \"#utility.yul\":358:429   */\n      tag_76\n        /* \"#utility.yul\":426:427   */\n      0x00\n        /* \"#utility.yul\":415:424   */\n      dup4\n        /* \"#utility.yul\":411:428   */\n      add\n        /* \"#utility.yul\":402:408   */\n      dup5\n        /* \"#utility.yul\":358:429   */\n      tag_48\n      jump\t// in\n    tag_76:\n        /* \"#utility.yul\":214:436   */\n      swap3\n      swap2\n      pop\n      pop\n      jump\t// out\n        /* \"#utility.yul\":523:640   */\n    tag_50:\n        /* \"#utility.yul\":632:633   */\n      0x00\n        /* \"#utility.yul\":629:630   */\n      dup1\n        /* \"#utility.yul\":622:634   */\n      revert\n        /* \"#utility.yul\":769:891   */\n    tag_52:\n        /* \"#utility.yul\":842:866   */\n      tag_81\n        /* \"#utility.yul\":860:865   */\n      dup2\n        /* \"#utility.yul\":842:866   */\n      tag_47\n      jump\t// in\n    tag_81:\n        /* \"#utility.yul\":835:840   */\n      dup2\n        /* \"#utility.yul\":832:867   */\n      eq\n        /* \"#utility.yul\":822:885   */\n      tag_82\n      jumpi\n        /* \"#utility.yul\":881:882   */\n      0x00\n        /* \"#utility.yul\":878:879   */\n      dup1\n        /* \"#utility.yul\":871:883   */\n      revert\n        /* \"#utility.yul\":822:885   */\n    tag_82:\n        /* \"#utility.yul\":769:891   */\n      pop\n      jump\t// out\n        /* \"#utility.yul\":897:1036   */\n    tag_53:\n        /* \"#utility.yul\":943:948   */\n      0x00\n        /* \"#utility.yul\":981:987   */\n      dup2\n        /* \"#utility.yul\":968:988   */\n      calldataload\n        /* \"#utility.yul\":959:988   */\n      swap1\n      pop\n        /* \"#utility.yul\":997:1030   */\n      tag_84\n        /* \"#utility.yul\":1024:1029   */\n      dup2\n        /* \"#utility.yul\":997:1030   */\n      tag_52\n      jump\t// in\n    tag_84:\n        /* \"#utility.yul\":897:1036   */\n      swap3\n      swap2\n      pop\n      pop\n      jump\t// out\n        /* \"#utility.yul\":1042:1371   */\n    tag_14:\n        /* \"#utility.yul\":1101:1107   */\n      0x00\n        /* \"#utility.yul\":1150:1152   */\n      0x20\n        /* \"#utility.yul\":1138:1147   */\n      dup3\n        /* \"#utility.yul\":1129:1136   */\n      dup5\n        /* \"#utility.yul\":1125:1148   */\n      sub\n        /* \"#utility.yul\":1121:1153   */\n      slt\n        /* \"#utility.yul\":1118:1237   */\n      iszero\n      tag_86\n      jumpi\n        /* \"#utility.yul\":1156:1235   */\n      tag_87\n      tag_50\n      jump\t// in\n    tag_87:\n        /* \"#utility.yul\":1118:1237   */\n    tag_86:\n        /* \"#utility.yul\":1276:1277   */\n      0x00\n        /* \"#utility.yul\":1301:1354   */\n      tag_88\n        /* \"#utility.yul\":1346:1353   */\n      dup5\n        /* \"#utility.yul\":1337:1343   */\n      dup3\n        /* \"#utility.yul\":1326:1335   */\n      dup6\n        /* \"#utility.yul\":1322:1344   */\n      add\n        /* \"#utility.yul\":1301:1354   */\n      tag_53\n      jump\t// in\n    tag_88:\n        /* \"#utility.yul\":1291:1354   */\n      swap2\n      pop\n        /* \"#utility.yul\":1247:1364   */\n      pop\n        /* \"#utility.yul\":1042:1371   */\n      swap3\n      swap2\n      pop\n      pop\n      jump\t// out\n        /* \"#utility.yul\":1377:1503   */\n    tag_54:\n        /* \"#utility.yul\":1414:1421   */\n      0x00\n        /* \"#utility.yul\":1454:1496   */\n      0xffffffffffffffffffffffffffffffffffffffff\n        /* \"#utility.yul\":1447:1452   */\n      dup3\n        /* \"#utility.yul\":1443:1497   */\n      and\n        /* \"#utility.yul\":1432:1497   */\n      swap1\n      pop\n        /* \"#utility.yul\":1377:1503   */\n      swap2\n      swap1\n      pop\n      jump\t// out\n        /* \"#utility.yul\":1509:1605   */\n    tag_55:\n        /* \"#utility.yul\":1546:1553   */\n      0x00\n        /* \"#utility.yul\":1575:1599   */\n      tag_91\n        /* \"#utility.yul\":1593:1598   */\n      dup3\n        /* \"#utility.yul\":1575:1599   */\n      tag_54\n      jump\t// in\n    tag_91:\n        /* \"#utility.yul\":1564:1599   */\n      swap1\n      pop\n        /* \"#utility.yul\":1509:1605   */\n      swap2\n      swap1\n      pop\n      jump\t// out\n        /* \"#utility.yul\":1611:1733   */\n    tag_56:\n        /* \"#utility.yul\":1684:1708   */\n      tag_93\n        /* \"#utility.yul\":1702:1707   */\n      dup2\n        /* \"#utility.yul\":1684:1708   */\n      tag_55\n      jump\t// in\n    tag_93:\n        /* \"#utility.yul\":1677:1682   */\n      dup2\n        /* \"#utility.yul\":1674:1709   */\n      eq\n        /* \"#utility.yul\":1664:1727   */\n      tag_94\n      jumpi\n        /* \"#utility.yul\":1723:1724   */\n      0x00\n        /* \"#utility.yul\":1720:1721   */\n      dup1\n        /* \"#utility.yul\":1713:1725   */\n      revert\n        /* \"#utility.yul\":1664:1727   */\n    tag_94:\n        /* \"#utility.yul\":1611:1733   */\n      pop\n      jump\t// out\n        /* \"#utility.yul\":1739:1878   */\n    tag_57:\n        /* \"#utility.yul\":1785:1790   */\n      0x00\n        /* \"#utility.yul\":1823:1829   */\n      dup2\n        /* \"#utility.yul\":1810:1830   */\n      calldataload\n        /* \"#utility.yul\":1801:1830   */\n      swap1\n      pop\n        /* \"#utility.yul\":1839:1872   */\n      tag_96\n        /* \"#utility.yul\":1866:1871   */\n      dup2\n        /* \"#utility.yul\":1839:1872   */\n      tag_56\n      jump\t// in\n    tag_96:\n        /* \"#utility.yul\":1739:1878   */\n      swap3\n      swap2\n      pop\n      pop\n      jump\t// out\n        /* \"#utility.yul\":1884:2213   */\n    tag_18:\n        /* \"#utility.yul\":1943:1949   */\n      0x00\n        /* \"#utility.yul\":1992:1994   */\n      0x20\n        /* \"#utility.yul\":1980:1989   */\n      dup3\n        /* \"#utility.yul\":1971:1978   */\n      dup5\n        /* \"#utility.yul\":1967:1990   */\n      sub\n        /* \"#utility.yul\":1963:1995   */\n      slt\n        /* \"#utility.yul\":1960:2079   */\n      iszero\n      tag_98\n      jumpi\n        /* \"#utility.yul\":1998:2077   */\n      tag_99\n      tag_50\n      jump\t// in\n    tag_99:\n        /* \"#utility.yul\":1960:2079   */\n    tag_98:\n        /* \"#utility.yul\":2118:2119   */\n      0x00\n        /* \"#utility.yul\":2143:2196   */\n      tag_100\n        /* \"#utility.yul\":2188:2195   */\n      dup5\n        /* \"#utility.yul\":2179:2185   */\n      dup3\n        /* \"#utility.yul\":2168:2177   */\n      dup6\n        /* \"#utility.yul\":2164:2186   */\n      add\n        /* \"#utility.yul\":2143:2196   */\n      tag_57\n      jump\t// in\n    tag_100:\n        /* \"#utility.yul\":2133:2196   */\n      swap2\n      pop\n        /* \"#utility.yul\":2089:2206   */\n      pop\n        /* \"#utility.yul\":1884:2213   */\n      swap3\n      swap2\n      pop\n      pop\n      jump\t// out\n        /* \"#utility.yul\":2219:2337   */\n    tag_58:\n        /* \"#utility.yul\":2306:2330   */\n      tag_102\n        /* \"#utility.yul\":2324:2329   */\n      dup2\n        /* \"#utility.yul\":2306:2330   */\n      tag_55\n      jump\t// in\n    tag_102:\n        /* \"#utility.yul\":2301:2304   */\n      dup3\n        /* \"#utility.yul\":2294:2331   */\n      mstore\n        /* \"#utility.yul\":2219:2337   */\n      pop\n      pop\n      jump\t// out\n        /* \"#utility.yul\":2343:2565   */\n    tag_23:\n        /* \"#utility.yul\":2436:2440   */\n      0x00\n        /* \"#utility.yul\":2474:2476   */\n      0x20\n        /* \"#utility.yul\":2463:2472   */\n      dup3\n        /* \"#utility.yul\":2459:2477   */\n      add\n        /* \"#utility.yul\":2451:2477   */\n      swap1\n      pop\n        /* \"#utility.yul\":2487:2558   */\n      tag_104\n        /* \"#utility.yul\":2555:2556   */\n      0x00\n        /* \"#utility.yul\":2544:2553   */\n      dup4\n        /* \"#utility.yul\":2540:2557   */\n      add\n        /* \"#utility.yul\":2531:2537   */\n      dup5\n        /* \"#utility.yul\":2487:2558   */\n      tag_58\n      jump\t// in\n    tag_104:\n        /* \"#utility.yul\":2343:2565   */\n      swap3\n      swap2\n      pop\n      pop\n      jump\t// out\n        /* \"#utility.yul\":2571:2661   */\n    tag_59:\n        /* \"#utility.yul\":2605:2612   */\n      0x00\n        /* \"#utility.yul\":2648:2653   */\n      dup2\n        /* \"#utility.yul\":2641:2654   */\n      iszero\n        /* \"#utility.yul\":2634:2655   */\n      iszero\n        /* \"#utility.yul\":2623:2655   */\n      swap1\n      pop\n        /* \"#utility.yul\":2571:2661   */\n      swap2\n      swap1\n      pop\n      jump\t// out\n        /* \"#utility.yul\":2667:2776   */\n    tag_60:\n        /* \"#utility.yul\":2748:2769   */\n      tag_107\n        /* \"#utility.yul\":2763:2768   */\n      dup2\n        /* \"#utility.yul\":2748:2769   */\n      tag_59\n      jump\t// in\n    tag_107:\n        /* \"#utility.yul\":2743:2746   */\n      dup3\n        /* \"#utility.yul\":2736:2770   */\n      mstore\n        /* \"#utility.yul\":2667:2776   */\n      pop\n      pop\n      jump\t// out\n        /* \"#utility.yul\":2782:2992   */\n    tag_27:\n        /* \"#utility.yul\":2869:2873   */\n      0x00\n        /* \"#utility.yul\":2907:2909   */\n      0x20\n        /* \"#utility.yul\":2896:2905   */\n      dup3\n        /* \"#utility.yul\":2892:2910   */\n      add\n        /* \"#utility.yul\":2884:2910   */\n      swap1\n      pop\n        /* \"#utility.yul\":2920:2985   */\n      tag_109\n        /* \"#utility.yul\":2982:2983   */\n      0x00\n        /* \"#utility.yul\":2971:2980   */\n      dup4\n        /* \"#utility.yul\":2967:2984   */\n      add\n        /* \"#utility.yul\":2958:2964   */\n      dup5\n        /* \"#utility.yul\":2920:2985   */\n      tag_60\n      jump\t// in\n    tag_109:\n        /* \"#utility.yul\":2782:2992   */\n      swap3\n      swap2\n      pop\n      pop\n      jump\t// out\n        /* \"#utility.yul\":2998:3167   */\n    tag_61:\n        /* \"#utility.yul\":3082:3093   */\n      0x00\n        /* \"#utility.yul\":3116:3122   */\n      dup3\n        /* \"#utility.yul\":3111:3114   */\n      dup3\n        /* \"#utility.yul\":3104:3123   */\n      mstore\n        /* \"#utility.yul\":3156:3160   */\n      0x20\n        /* \"#utility.yul\":3151:3154   */\n      dup3\n        /* \"#utility.yul\":3147:3161   */\n      add\n        /* \"#utility.yul\":3132:3161   */\n      swap1\n      pop\n        /* \"#utility.yul\":2998:3167   */\n      swap3\n      swap2\n      pop\n      pop\n      jump\t// out\n        /* \"#utility.yul\":3173:3336   */\n    tag_62:\n        /* \"#utility.yul\":3313:3328   */\n      0x6e6f205265656e7472616e637900000000000000000000000000000000000000\n        /* \"#utility.yul\":3309:3310   */\n      0x00\n        /* \"#utility.yul\":3301:3307   */\n      dup3\n        /* \"#utility.yul\":3297:3311   */\n      add\n        /* \"#utility.yul\":3290:3329   */\n      mstore\n        /* \"#utility.yul\":3173:3336   */\n      pop\n      jump\t// out\n        /* \"#utility.yul\":3342:3708   */\n    tag_63:\n        /* \"#utility.yul\":3484:3487   */\n      0x00\n        /* \"#utility.yul\":3505:3572   */\n      tag_113\n        /* \"#utility.yul\":3569:3571   */\n      0x0d\n        /* \"#utility.yul\":3564:3567   */\n      dup4\n        /* \"#utility.yul\":3505:3572   */\n      tag_61\n      jump\t// in\n    tag_113:\n        /* \"#utility.yul\":3498:3572   */\n      swap2\n      pop\n        /* \"#utility.yul\":3581:3674   */\n      tag_114\n        /* \"#utility.yul\":3670:3673   */\n      dup3\n        /* \"#utility.yul\":3581:3674   */\n      tag_62\n      jump\t// in\n    tag_114:\n        /* \"#utility.yul\":3699:3701   */\n      0x20\n        /* \"#utility.yul\":3694:3697   */\n      dup3\n        /* \"#utility.yul\":3690:3702   */\n      add\n        /* \"#utility.yul\":3683:3702   */\n      swap1\n      pop\n        /* \"#utility.yul\":3342:3708   */\n      swap2\n      swap1\n      pop\n      jump\t// out\n        /* \"#utility.yul\":3714:4133   */\n    tag_31:\n        /* \"#utility.yul\":3880:3884   */\n      0x00\n        /* \"#utility.yul\":3918:3920   */\n      0x20\n        /* \"#utility.yul\":3907:3916   */\n      dup3\n        /* \"#utility.yul\":3903:3921   */\n      add\n        /* \"#utility.yul\":3895:3921   */\n      swap1\n      pop\n        /* \"#utility.yul\":3967:3976   */\n      dup2\n        /* \"#utility.yul\":3961:3965   */\n      dup2\n        /* \"#utility.yul\":3957:3977   */\n      sub\n        /* \"#utility.yul\":3953:3954   */\n      0x00\n        /* \"#utility.yul\":3942:3951   */\n      dup4\n        /* \"#utility.yul\":3938:3955   */\n      add\n        /* \"#utility.yul\":3931:3978   */\n      mstore\n        /* \"#utility.yul\":3995:4126   */\n      tag_116\n        /* \"#utility.yul\":4121:4125   */\n      dup2\n        /* \"#utility.yul\":3995:4126   */\n      tag_63\n      jump\t// in\n    tag_116:\n        /* \"#utility.yul\":3987:4126   */\n      swap1\n      pop\n        /* \"#utility.yul\":3714:4133   */\n      swap2\n      swap1\n      pop\n      jump\t// out\n        /* \"#utility.yul\":4139:4305   */\n    tag_64:\n        /* \"#utility.yul\":4279:4297   */\n      0x78206973206c657373207468616e206900000000000000000000000000000000\n        /* \"#utility.yul\":4275:4276   */\n      0x00\n        /* \"#utility.yul\":4267:4273   */\n      dup3\n        /* \"#utility.yul\":4263:4277   */\n      add\n        /* \"#utility.yul\":4256:4298   */\n      mstore\n        /* \"#utility.yul\":4139:4305   */\n      pop\n      jump\t// out\n        /* \"#utility.yul\":4311:4677   */\n    tag_65:\n        /* \"#utility.yul\":4453:4456   */\n      0x00\n        /* \"#utility.yul\":4474:4541   */\n      tag_119\n        /* \"#utility.yul\":4538:4540   */\n      0x10\n        /* \"#utility.yul\":4533:4536   */\n      dup4\n        /* \"#utility.yul\":4474:4541   */\n      tag_61\n      jump\t// in\n    tag_119:\n        /* \"#utility.yul\":4467:4541   */\n      swap2\n      pop\n        /* \"#utility.yul\":4550:4643   */\n      tag_120\n        /* \"#utility.yul\":4639:4642   */\n      dup3\n        /* \"#utility.yul\":4550:4643   */\n      tag_64\n      jump\t// in\n    tag_120:\n        /* \"#utility.yul\":4668:4670   */\n      0x20\n        /* \"#utility.yul\":4663:4666   */\n      dup3\n        /* \"#utility.yul\":4659:4671   */\n      add\n        /* \"#utility.yul\":4652:4671   */\n      swap1\n      pop\n        /* \"#utility.yul\":4311:4677   */\n      swap2\n      swap1\n      pop\n      jump\t// out\n        /* \"#utility.yul\":4683:5102   */\n    tag_35:\n        /* \"#utility.yul\":4849:4853   */\n      0x00\n        /* \"#utility.yul\":4887:4889   */\n      0x20\n        /* \"#utility.yul\":4876:4885   */\n      dup3\n        /* \"#utility.yul\":4872:4890   */\n      add\n        /* \"#utility.yul\":4864:4890   */\n      swap1\n      pop\n        /* \"#utility.yul\":4936:4945   */\n      dup2\n        /* \"#utility.yul\":4930:4934   */\n      dup2\n        /* \"#utility.yul\":4926:4946   */\n      sub\n        /* \"#utility.yul\":4922:4923   */\n      0x00\n        /* \"#utility.yul\":4911:4920   */\n      dup4\n        /* \"#utility.yul\":4907:4924   */\n      add\n        /* \"#utility.yul\":4900:4947   */\n      mstore\n        /* \"#utility.yul\":4964:5095   */\n      tag_122\n        /* \"#utility.yul\":5090:5094   */\n      dup2\n        /* \"#utility.yul\":4964:5095   */\n      tag_65\n      jump\t// in\n    tag_122:\n        /* \"#utility.yul\":4956:5095   */\n      swap1\n      pop\n        /* \"#utility.yul\":4683:5102   */\n      swap2\n      swap1\n      pop\n      jump\t// out\n        /* \"#utility.yul\":5108:5288   */\n    tag_66:\n        /* \"#utility.yul\":5156:5233   */\n      0x4e487b7100000000000000000000000000000000000000000000000000000000\n        /* \"#utility.yul\":5153:5154   */\n      0x00\n        /* \"#utility.yul\":5146:5234   */\n      mstore\n        /* \"#utility.yul\":5253:5257   */\n      0x11\n        /* \"#utility.yul\":5250:5251   */\n      0x04\n        /* \"#utility.yul\":5243:5258   */\n      mstore\n        /* \"#utility.yul\":5277:5281   */\n      0x24\n        /* \"#utility.yul\":5274:5275   */\n      0x00\n        /* \"#utility.yul\":5267:5282   */\n      revert\n        /* \"#utility.yul\":5294:5488   */\n    tag_37:\n        /* \"#utility.yul\":5334:5338   */\n      0x00\n        /* \"#utility.yul\":5354:5374   */\n      tag_125\n        /* \"#utility.yul\":5372:5373   */\n      dup3\n        /* \"#utility.yul\":5354:5374   */\n      tag_47\n      jump\t// in\n    tag_125:\n        /* \"#utility.yul\":5349:5374   */\n      swap2\n      pop\n        /* \"#utility.yul\":5388:5408   */\n      tag_126\n        /* \"#utility.yul\":5406:5407   */\n      dup4\n        /* \"#utility.yul\":5388:5408   */\n      tag_47\n      jump\t// in\n    tag_126:\n        /* \"#utility.yul\":5383:5408   */\n      swap3\n      pop\n        /* \"#utility.yul\":5432:5433   */\n      dup3\n        /* \"#utility.yul\":5429:5430   */\n      dup3\n        /* \"#utility.yul\":5425:5434   */\n      sub\n        /* \"#utility.yul\":5417:5434   */\n      swap1\n      pop\n        /* \"#utility.yul\":5456:5457   */\n      dup2\n        /* \"#utility.yul\":5450:5454   */\n      dup2\n        /* \"#utility.yul\":5447:5458   */\n      gt\n        /* \"#utility.yul\":5444:5481   */\n      iszero\n      tag_127\n      jumpi\n        /* \"#utility.yul\":5461:5479   */\n      tag_128\n      tag_66\n      jump\t// in\n    tag_128:\n        /* \"#utility.yul\":5444:5481   */\n    tag_127:\n        /* \"#utility.yul\":5294:5488   */\n      swap3\n      swap2\n      pop\n      pop\n      jump\t// out\n        /* \"#utility.yul\":5494:5660   */\n    tag_67:\n        /* \"#utility.yul\":5634:5652   */\n      0x7520617265206e6f74206f776e65722100000000000000000000000000000000\n        /* \"#utility.yul\":5630:5631   */\n      0x00\n        /* \"#utility.yul\":5622:5628   */\n      dup3\n        /* \"#utility.yul\":5618:5632   */\n      add\n        /* \"#utility.yul\":5611:5653   */\n      mstore\n        /* \"#utility.yul\":5494:5660   */\n      pop\n      jump\t// out\n        /* \"#utility.yul\":5666:6032   */\n    tag_68:\n        /* \"#utility.yul\":5808:5811   */\n      0x00\n        /* \"#utility.yul\":5829:5896   */\n      tag_131\n        /* \"#utility.yul\":5893:5895   */\n      0x10\n        /* \"#utility.yul\":5888:5891   */\n      dup4\n        /* \"#utility.yul\":5829:5896   */\n      tag_61\n      jump\t// in\n    tag_131:\n        /* \"#utility.yul\":5822:5896   */\n      swap2\n      pop\n        /* \"#utility.yul\":5905:5998   */\n      tag_132\n        /* \"#utility.yul\":5994:5997   */\n      dup3\n        /* \"#utility.yul\":5905:5998   */\n      tag_67\n      jump\t// in\n    tag_132:\n        /* \"#utility.yul\":6023:6025   */\n      0x20\n        /* \"#utility.yul\":6018:6021   */\n      dup3\n        /* \"#utility.yul\":6014:6026   */\n      add\n        /* \"#utility.yul\":6007:6026   */\n      swap1\n      pop\n        /* \"#utility.yul\":5666:6032   */\n      swap2\n      swap1\n      pop\n      jump\t// out\n        /* \"#utility.yul\":6038:6457   */\n    tag_41:\n        /* \"#utility.yul\":6204:6208   */\n      0x00\n        /* \"#utility.yul\":6242:6244   */\n      0x20\n        /* \"#utility.yul\":6231:6240   */\n      dup3\n        /* \"#utility.yul\":6227:6245   */\n      add\n        /* \"#utility.yul\":6219:6245   */\n      swap1\n      pop\n        /* \"#utility.yul\":6291:6300   */\n      dup2\n        /* \"#utility.yul\":6285:6289   */\n      dup2\n        /* \"#utility.yul\":6281:6301   */\n      sub\n        /* \"#utility.yul\":6277:6278   */\n      0x00\n        /* \"#utility.yul\":6266:6275   */\n      dup4\n        /* \"#utility.yul\":6262:6279   */\n      add\n        /* \"#utility.yul\":6255:6302   */\n      mstore\n        /* \"#utility.yul\":6319:6450   */\n      tag_134\n        /* \"#utility.yul\":6445:6449   */\n      dup2\n        /* \"#utility.yul\":6319:6450   */\n      tag_68\n      jump\t// in\n    tag_134:\n        /* \"#utility.yul\":6311:6450   */\n      swap1\n      pop\n        /* \"#utility.yul\":6038:6457   */\n      swap2\n      swap1\n      pop\n      jump\t// out\n        /* \"#utility.yul\":6463:6630   */\n    tag_69:\n        /* \"#utility.yul\":6603:6622   */\n      0x4e6f742076616c69642061646472657373000000000000000000000000000000\n        /* \"#utility.yul\":6599:6600   */\n      0x00\n        /* \"#utility.yul\":6591:6597   */\n      dup3\n        /* \"#utility.yul\":6587:6601   */\n      add\n        /* \"#utility.yul\":6580:6623   */\n      mstore\n        /* \"#utility.yul\":6463:6630   */\n      pop\n      jump\t// out\n        /* \"#utility.yul\":6636:7002   */\n    tag_70:\n        /* \"#utility.yul\":6778:6781   */\n      0x00\n        /* \"#utility.yul\":6799:6866   */\n      tag_137\n        /* \"#utility.yul\":6863:6865   */\n      0x11\n        /* \"#utility.yul\":6858:6861   */\n      dup4\n        /* \"#utility.yul\":6799:6866   */\n      tag_61\n      jump\t// in\n    tag_137:\n        /* \"#utility.yul\":6792:6866   */\n      swap2\n      pop\n        /* \"#utility.yul\":6875:6968   */\n      tag_138\n        /* \"#utility.yul\":6964:6967   */\n      dup3\n        /* \"#utility.yul\":6875:6968   */\n      tag_69\n      jump\t// in\n    tag_138:\n        /* \"#utility.yul\":6993:6995   */\n      0x20\n        /* \"#utility.yul\":6988:6991   */\n      dup3\n        /* \"#utility.yul\":6984:6996   */\n      add\n        /* \"#utility.yul\":6977:6996   */\n      swap1\n      pop\n        /* \"#utility.yul\":6636:7002   */\n      swap2\n      swap1\n      pop\n      jump\t// out\n        /* \"#utility.yul\":7008:7427   */\n    tag_45:\n        /* \"#utility.yul\":7174:7178   */\n      0x00\n        /* \"#utility.yul\":7212:7214   */\n      0x20\n        /* \"#utility.yul\":7201:7210   */\n      dup3\n        /* \"#utility.yul\":7197:7215   */\n      add\n        /* \"#utility.yul\":7189:7215   */\n      swap1\n      pop\n        /* \"#utility.yul\":7261:7270   */\n      dup2\n        /* \"#utility.yul\":7255:7259   */\n      dup2\n        /* \"#utility.yul\":7251:7271   */\n      sub\n        /* \"#utility.yul\":7247:7248   */\n      0x00\n        /* \"#utility.yul\":7236:7245   */\n      dup4\n        /* \"#utility.yul\":7232:7249   */\n      add\n        /* \"#utility.yul\":7225:7272   */\n      mstore\n        /* \"#utility.yul\":7289:7420   */\n      tag_140\n        /* \"#utility.yul\":7415:7419   */\n      dup2\n        /* \"#utility.yul\":7289:7420   */\n      tag_70\n      jump\t// in\n    tag_140:\n        /* \"#utility.yul\":7281:7420   */\n      swap1\n      pop\n        /* \"#utility.yul\":7008:7427   */\n      swap2\n      swap1\n      pop\n      jump\t// out\n\n    auxdata: 0xa2646970667358221220ee0bc2a4680c13ad18084c707962afa33f14e11b0312ea4a8a9387614b81903064736f6c634300081a0033\n}\n",
				"bytecode": {
					"linkReferences": {},
					"object": "6080604052600a6001553480156013575f80fd5b50335f806101000a81548173ffffffffffffffffffffffffffffffffffffffff021916908373ffffffffffffffffffffffffffffffffffffffff1602179055506106f6806100605f395ff3fe608060405234801561000f575f80fd5b5060043610610055575f3560e01c80630c55699c146100595780633a9ebefd1461007757806340cb346214610093578063767800de146100af578063cf309012146100cd575b5f80fd5b6100616100eb565b60405161006e919061035e565b60405180910390f35b610091600480360381019061008c91906103a5565b6100f1565b005b6100ad60048036038101906100a8919061042a565b6101d2565b005b6100b7610311565b6040516100c49190610464565b60405180910390f35b6100d5610334565b6040516100e29190610497565b60405180910390f35b60015481565b60025f9054906101000a900460ff1615610140576040517f08c379a00000000000000000000000000000000000000000000000000000000081526004016101379061050a565b60405180910390fd5b600160025f6101000a81548160ff021916908315150217905550806001541161019e576040517f08c379a000000000000000000000000000000000000000000000000000000000815260040161019590610572565b60405180910390fd5b8060015f8282546101af91906105bd565b925050819055505f60025f6101000a81548160ff02191690831515021790555050565b5f8054906101000a900473ffffffffffffffffffffffffffffffffffffffff1673ffffffffffffffffffffffffffffffffffffffff163373ffffffffffffffffffffffffffffffffffffffff161461025f576040517f08c379a00000000000000000000000000000000000000000000000000000000081526004016102569061063a565b60405180910390fd5b805f73ffffffffffffffffffffffffffffffffffffffff168173ffffffffffffffffffffffffffffffffffffffff16036102ce576040517f08c379a00000000000000000000000000000000000000000000000000000000081526004016102c5906106a2565b60405180910390fd5b815f806101000a81548173ffffffffffffffffffffffffffffffffffffffff021916908373ffffffffffffffffffffffffffffffffffffffff1602179055505050565b5f8054906101000a900473ffffffffffffffffffffffffffffffffffffffff1681565b60025f9054906101000a900460ff1681565b5f819050919050565b61035881610346565b82525050565b5f6020820190506103715f83018461034f565b92915050565b5f80fd5b61038481610346565b811461038e575f80fd5b50565b5f8135905061039f8161037b565b92915050565b5f602082840312156103ba576103b9610377565b5b5f6103c784828501610391565b91505092915050565b5f73ffffffffffffffffffffffffffffffffffffffff82169050919050565b5f6103f9826103d0565b9050919050565b610409816103ef565b8114610413575f80fd5b50565b5f8135905061042481610400565b92915050565b5f6020828403121561043f5761043e610377565b5b5f61044c84828501610416565b91505092915050565b61045e816103ef565b82525050565b5f6020820190506104775f830184610455565b92915050565b5f8115159050919050565b6104918161047d565b82525050565b5f6020820190506104aa5f830184610488565b92915050565b5f82825260208201905092915050565b7f6e6f205265656e7472616e6379000000000000000000000000000000000000005f82015250565b5f6104f4600d836104b0565b91506104ff826104c0565b602082019050919050565b5f6020820190508181035f830152610521816104e8565b9050919050565b7f78206973206c657373207468616e2069000000000000000000000000000000005f82015250565b5f61055c6010836104b0565b915061056782610528565b602082019050919050565b5f6020820190508181035f83015261058981610550565b9050919050565b7f4e487b71000000000000000000000000000000000000000000000000000000005f52601160045260245ffd5b5f6105c782610346565b91506105d283610346565b92508282039050818111156105ea576105e9610590565b5b92915050565b7f7520617265206e6f74206f776e657221000000000000000000000000000000005f82015250565b5f6106246010836104b0565b915061062f826105f0565b602082019050919050565b5f6020820190508181035f83015261065181610618565b9050919050565b7f4e6f742076616c696420616464726573730000000000000000000000000000005f82015250565b5f61068c6011836104b0565b915061069782610658565b602082019050919050565b5f6020820190508181035f8301526106b981610680565b905091905056fea2646970667358221220ee0bc2a4680c13ad18084c707962afa33f14e11b0312ea4a8a9387614b81903064736f6c634300081a0033",
					"opcodes": "PUSH1 0x80 PUSH1 0x40 MSTORE PUSH1 0xA PUSH1 0x1 SSTORE CALLVALUE DUP1 ISZERO PUSH1 0x13 JUMPI PUSH0 DUP1 REVERT JUMPDEST POP CALLER PUSH0 DUP1 PUSH2 0x100 EXP DUP2 SLOAD DUP2 PUSH20 0xFFFFFFFFFFFFFFFFFFFFFFFFFFFFFFFFFFFFFFFF MUL NOT AND SWAP1 DUP4 PUSH20 0xFFFFFFFFFFFFFFFFFFFFFFFFFFFFFFFFFFFFFFFF AND MUL OR SWAP1 SSTORE POP PUSH2 0x6F6 DUP1 PUSH2 0x60 PUSH0 CODECOPY PUSH0 RETURN INVALID PUSH1 0x80 PUSH1 0x40 MSTORE CALLVALUE DUP1 ISZERO PUSH2 0xF JUMPI PUSH0 DUP1 REVERT JUMPDEST POP PUSH1 0x4 CALLDATASIZE LT PUSH2 0x55 JUMPI PUSH0 CALLDATALOAD PUSH1 0xE0 SHR DUP1 PUSH4 0xC55699C EQ PUSH2 0x59 JUMPI DUP1 PUSH4 0x3A9EBEFD EQ PUSH2 0x77 JUMPI DUP1 PUSH4 0x40CB3462 EQ PUSH2 0x93 JUMPI DUP1 PUSH4 0x767800DE EQ PUSH2 0xAF JUMPI DUP1 PUSH4 0xCF309012 EQ PUSH2 0xCD JUMPI JUMPDEST PUSH0 DUP1 REVERT JUMPDEST PUSH2 0x61 PUSH2 0xEB JUMP JUMPDEST PUSH1 0x40 MLOAD PUSH2 0x6E SWAP2 SWAP1 PUSH2 0x35E JUMP JUMPDEST PUSH1 0x40 MLOAD DUP1 SWAP2 SUB SWAP1 RETURN JUMPDEST PUSH2 0x91 PUSH1 0x4 DUP1 CALLDATASIZE SUB DUP2 ADD SWAP1 PUSH2 0x8C SWAP2 SWAP1 PUSH2 0x3A5 JUMP JUMPDEST PUSH2 0xF1 JUMP JUMPDEST STOP JUMPDEST PUSH2 0xAD PUSH1 0x4 DUP1 CALLDATASIZE SUB DUP2 ADD SWAP1 PUSH2 0xA8 SWAP2 SWAP1 PUSH2 0x42A JUMP JUMPDEST PUSH2 0x1D2 JUMP JUMPDEST STOP JUMPDEST PUSH2 0xB7 PUSH2 0x311 JUMP JUMPDEST PUSH1 0x40 MLOAD PUSH2 0xC4 SWAP2 SWAP1 PUSH2 0x464 JUMP JUMPDEST PUSH1 0x40 MLOAD DUP1 SWAP2 SUB SWAP1 RETURN JUMPDEST PUSH2 0xD5 PUSH2 0x334 JUMP JUMPDEST PUSH1 0x40 MLOAD PUSH2 0xE2 SWAP2 SWAP1 PUSH2 0x497 JUMP JUMPDEST PUSH1 0x40 MLOAD DUP1 SWAP2 SUB SWAP1 RETURN JUMPDEST PUSH1 0x1 SLOAD DUP2 JUMP JUMPDEST PUSH1 0x2 PUSH0 SWAP1 SLOAD SWAP1 PUSH2 0x100 EXP SWAP1 DIV PUSH1 0xFF AND ISZERO PUSH2 0x140 JUMPI PUSH1 0x40 MLOAD PUSH32 0x8C379A000000000000000000000000000000000000000000000000000000000 DUP2 MSTORE PUSH1 0x4 ADD PUSH2 0x137 SWAP1 PUSH2 0x50A JUMP JUMPDEST PUSH1 0x40 MLOAD DUP1 SWAP2 SUB SWAP1 REVERT JUMPDEST PUSH1 0x1 PUSH1 0x2 PUSH0 PUSH2 0x100 EXP DUP2 SLOAD DUP2 PUSH1 0xFF MUL NOT AND SWAP1 DUP4 ISZERO ISZERO MUL OR SWAP1 SSTORE POP DUP1 PUSH1 0x1 SLOAD GT PUSH2 0x19E JUMPI PUSH1 0x40 MLOAD PUSH32 0x8C379A000000000000000000000000000000000000000000000000000000000 DUP2 MSTORE PUSH1 0x4 ADD PUSH2 0x195 SWAP1 PUSH2 0x572 JUMP JUMPDEST PUSH1 0x40 MLOAD DUP1 SWAP2 SUB SWAP1 REVERT JUMPDEST DUP1 PUSH1 0x1 PUSH0 DUP3 DUP3 SLOAD PUSH2 0x1AF SWAP2 SWAP1 PUSH2 0x5BD JUMP JUMPDEST SWAP3 POP POP DUP2 SWAP1 SSTORE POP PUSH0 PUSH1 0x2 PUSH0 PUSH2 0x100 EXP DUP2 SLOAD DUP2 PUSH1 0xFF MUL NOT AND SWAP1 DUP4 ISZERO ISZERO MUL OR SWAP1 SSTORE POP POP JUMP JUMPDEST PUSH0 DUP1 SLOAD SWAP1 PUSH2 0x100 EXP SWAP1 DIV PUSH20 0xFFFFFFFFFFFFFFFFFFFFFFFFFFFFFFFFFFFFFFFF AND PUSH20 0xFFFFFFFFFFFFFFFFFFFFFFFFFFFFFFFFFFFFFFFF AND CALLER PUSH20 0xFFFFFFFFFFFFFFFFFFFFFFFFFFFFFFFFFFFFFFFF AND EQ PUSH2 0x25F JUMPI PUSH1 0x40 MLOAD PUSH32 0x8C379A000000000000000000000000000000000000000000000000000000000 DUP2 MSTORE PUSH1 0x4 ADD PUSH2 0x256 SWAP1 PUSH2 0x63A JUMP JUMPDEST PUSH1 0x40 MLOAD DUP1 SWAP2 SUB SWAP1 REVERT JUMPDEST DUP1 PUSH0 PUSH20 0xFFFFFFFFFFFFFFFFFFFFFFFFFFFFFFFFFFFFFFFF AND DUP2 PUSH20 0xFFFFFFFFFFFFFFFFFFFFFFFFFFFFFFFFFFFFFFFF AND SUB PUSH2 0x2CE JUMPI PUSH1 0x40 MLOAD PUSH32 0x8C379A000000000000000000000000000000000000000000000000000000000 DUP2 MSTORE PUSH1 0x4 ADD PUSH2 0x2C5 SWAP1 PUSH2 0x6A2 JUMP JUMPDEST PUSH1 0x40 MLOAD DUP1 SWAP2 SUB SWAP1 REVERT JUMPDEST DUP2 PUSH0 DUP1 PUSH2 0x100 EXP DUP2 SLOAD DUP2 PUSH20 0xFFFFFFFFFFFFFFFFFFFFFFFFFFFFFFFFFFFFFFFF MUL NOT AND SWAP1 DUP4 PUSH20 0xFFFFFFFFFFFFFFFFFFFFFFFFFFFFFFFFFFFFFFFF AND MUL OR SWAP1 SSTORE POP POP POP JUMP JUMPDEST PUSH0 DUP1 SLOAD SWAP1 PUSH2 0x100 EXP SWAP1 DIV PUSH20 0xFFFFFFFFFFFFFFFFFFFFFFFFFFFFFFFFFFFFFFFF AND DUP2 JUMP JUMPDEST PUSH1 0x2 PUSH0 SWAP1 SLOAD SWAP1 PUSH2 0x100 EXP SWAP1 DIV PUSH1 0xFF AND DUP2 JUMP JUMPDEST PUSH0 DUP2 SWAP1 POP SWAP2 SWAP1 POP JUMP JUMPDEST PUSH2 0x358 DUP2 PUSH2 0x346 JUMP JUMPDEST DUP3 MSTORE POP POP JUMP JUMPDEST PUSH0 PUSH1 0x20 DUP3 ADD SWAP1 POP PUSH2 0x371 PUSH0 DUP4 ADD DUP5 PUSH2 0x34F JUMP JUMPDEST SWAP3 SWAP2 POP POP JUMP JUMPDEST PUSH0 DUP1 REVERT JUMPDEST PUSH2 0x384 DUP2 PUSH2 0x346 JUMP JUMPDEST DUP2 EQ PUSH2 0x38E JUMPI PUSH0 DUP1 REVERT JUMPDEST POP JUMP JUMPDEST PUSH0 DUP2 CALLDATALOAD SWAP1 POP PUSH2 0x39F DUP2 PUSH2 0x37B JUMP JUMPDEST SWAP3 SWAP2 POP POP JUMP JUMPDEST PUSH0 PUSH1 0x20 DUP3 DUP5 SUB SLT ISZERO PUSH2 0x3BA JUMPI PUSH2 0x3B9 PUSH2 0x377 JUMP JUMPDEST JUMPDEST PUSH0 PUSH2 0x3C7 DUP5 DUP3 DUP6 ADD PUSH2 0x391 JUMP JUMPDEST SWAP2 POP POP SWAP3 SWAP2 POP POP JUMP JUMPDEST PUSH0 PUSH20 0xFFFFFFFFFFFFFFFFFFFFFFFFFFFFFFFFFFFFFFFF DUP3 AND SWAP1 POP SWAP2 SWAP1 POP JUMP JUMPDEST PUSH0 PUSH2 0x3F9 DUP3 PUSH2 0x3D0 JUMP JUMPDEST SWAP1 POP SWAP2 SWAP1 POP JUMP JUMPDEST PUSH2 0x409 DUP2 PUSH2 0x3EF JUMP JUMPDEST DUP2 EQ PUSH2 0x413 JUMPI PUSH0 DUP1 REVERT JUMPDEST POP JUMP JUMPDEST PUSH0 DUP2 CALLDATALOAD SWAP1 POP PUSH2 0x424 DUP2 PUSH2 0x400 JUMP JUMPDEST SWAP3 SWAP2 POP POP JUMP JUMPDEST PUSH0 PUSH1 0x20 DUP3 DUP5 SUB SLT ISZERO PUSH2 0x43F JUMPI PUSH2 0x43E PUSH2 0x377 JUMP JUMPDEST JUMPDEST PUSH0 PUSH2 0x44C DUP5 DUP3 DUP6 ADD PUSH2 0x416 JUMP JUMPDEST SWAP2 POP POP SWAP3 SWAP2 POP POP JUMP JUMPDEST PUSH2 0x45E DUP2 PUSH2 0x3EF JUMP JUMPDEST DUP3 MSTORE POP POP JUMP JUMPDEST PUSH0 PUSH1 0x20 DUP3 ADD SWAP1 POP PUSH2 0x477 PUSH0 DUP4 ADD DUP5 PUSH2 0x455 JUMP JUMPDEST SWAP3 SWAP2 POP POP JUMP JUMPDEST PUSH0 DUP2 ISZERO ISZERO SWAP1 POP SWAP2 SWAP1 POP JUMP JUMPDEST PUSH2 0x491 DUP2 PUSH2 0x47D JUMP JUMPDEST DUP3 MSTORE POP POP JUMP JUMPDEST PUSH0 PUSH1 0x20 DUP3 ADD SWAP1 POP PUSH2 0x4AA PUSH0 DUP4 ADD DUP5 PUSH2 0x488 JUMP JUMPDEST SWAP3 SWAP2 POP POP JUMP JUMPDEST PUSH0 DUP3 DUP3 MSTORE PUSH1 0x20 DUP3 ADD SWAP1 POP SWAP3 SWAP2 POP POP JUMP JUMPDEST PUSH32 0x6E6F205265656E7472616E637900000000000000000000000000000000000000 PUSH0 DUP3 ADD MSTORE POP JUMP JUMPDEST PUSH0 PUSH2 0x4F4 PUSH1 0xD DUP4 PUSH2 0x4B0 JUMP JUMPDEST SWAP2 POP PUSH2 0x4FF DUP3 PUSH2 0x4C0 JUMP JUMPDEST PUSH1 0x20 DUP3 ADD SWAP1 POP SWAP2 SWAP1 POP JUMP JUMPDEST PUSH0 PUSH1 0x20 DUP3 ADD SWAP1 POP DUP2 DUP2 SUB PUSH0 DUP4 ADD MSTORE PUSH2 0x521 DUP2 PUSH2 0x4E8 JUMP JUMPDEST SWAP1 POP SWAP2 SWAP1 POP JUMP JUMPDEST PUSH32 0x78206973206C657373207468616E206900000000000000000000000000000000 PUSH0 DUP3 ADD MSTORE POP JUMP JUMPDEST PUSH0 PUSH2 0x55C PUSH1 0x10 DUP4 PUSH2 0x4B0 JUMP JUMPDEST SWAP2 POP PUSH2 0x567 DUP3 PUSH2 0x528 JUMP JUMPDEST PUSH1 0x20 DUP3 ADD SWAP1 POP SWAP2 SWAP1 POP JUMP JUMPDEST PUSH0 PUSH1 0x20 DUP3 ADD SWAP1 POP DUP2 DUP2 SUB PUSH0 DUP4 ADD MSTORE PUSH2 0x589 DUP2 PUSH2 0x550 JUMP JUMPDEST SWAP1 POP SWAP2 SWAP1 POP JUMP JUMPDEST PUSH32 0x4E487B7100000000000000000000000000000000000000000000000000000000 PUSH0 MSTORE PUSH1 0x11 PUSH1 0x4 MSTORE PUSH1 0x24 PUSH0 REVERT JUMPDEST PUSH0 PUSH2 0x5C7 DUP3 PUSH2 0x346 JUMP JUMPDEST SWAP2 POP PUSH2 0x5D2 DUP4 PUSH2 0x346 JUMP JUMPDEST SWAP3 POP DUP3 DUP3 SUB SWAP1 POP DUP2 DUP2 GT ISZERO PUSH2 0x5EA JUMPI PUSH2 0x5E9 PUSH2 0x590 JUMP JUMPDEST JUMPDEST SWAP3 SWAP2 POP POP JUMP JUMPDEST PUSH32 0x7520617265206E6F74206F776E65722100000000000000000000000000000000 PUSH0 DUP3 ADD MSTORE POP JUMP JUMPDEST PUSH0 PUSH2 0x624 PUSH1 0x10 DUP4 PUSH2 0x4B0 JUMP JUMPDEST SWAP2 POP PUSH2 0x62F DUP3 PUSH2 0x5F0 JUMP JUMPDEST PUSH1 0x20 DUP3 ADD SWAP1 POP SWAP2 SWAP1 POP JUMP JUMPDEST PUSH0 PUSH1 0x20 DUP3 ADD SWAP1 POP DUP2 DUP2 SUB PUSH0 DUP4 ADD MSTORE PUSH2 0x651 DUP2 PUSH2 0x618 JUMP JUMPDEST SWAP1 POP SWAP2 SWAP1 POP JUMP JUMPDEST PUSH32 0x4E6F742076616C69642061646472657373000000000000000000000000000000 PUSH0 DUP3 ADD MSTORE POP JUMP JUMPDEST PUSH0 PUSH2 0x68C PUSH1 0x11 DUP4 PUSH2 0x4B0 JUMP JUMPDEST SWAP2 POP PUSH2 0x697 DUP3 PUSH2 0x658 JUMP JUMPDEST PUSH1 0x20 DUP3 ADD SWAP1 POP SWAP2 SWAP1 POP JUMP JUMPDEST PUSH0 PUSH1 0x20 DUP3 ADD SWAP1 POP DUP2 DUP2 SUB PUSH0 DUP4 ADD MSTORE PUSH2 0x6B9 DUP2 PUSH2 0x680 JUMP JUMPDEST SWAP1 POP SWAP2 SWAP1 POP JUMP INVALID LOG2 PUSH5 0x6970667358 0x22 SLT KECCAK256 0xEE SIGNEXTEND 0xC2 LOG4 PUSH9 0xC13AD18084C707962 0xAF LOG3 EXTCODEHASH EQ 0xE1 SHL SUB SLT 0xEA BLOBBASEFEE DUP11 SWAP4 DUP8 PUSH2 0x4B81 SWAP1 ADDRESS PUSH5 0x736F6C6343 STOP ADDMOD BYTE STOP CALLER "
				},
				"gasEstimates": {
					"creation": {
						"codeDepositCost": "356400",
						"executionCost": "46762",
						"totalCost": "403162"
					},
					"external": {
						"addr()": "2549",
						"decrement(uint256)": "infinite",
						"locked()": "2532",
						"modifyOwner(address)": "26942",
						"x()": "2403"
					}
				},
				"methodIdentifiers": {
					"addr()": "767800de",
					"decrement(uint256)": "3a9ebefd",
					"locked()": "cf309012",
					"modifyOwner(address)": "40cb3462",
					"x()": "0c55699c"
				}
			},
			"storageLayout": {
				"storage": [
					{
						"astId": 3,
						"contract": "solidityByExample/contract/019FunctionModifier.sol.sol:FunctionModifier",
						"label": "addr",
						"offset": 0,
						"slot": "0",
						"type": "t_address"
					},
					{
						"astId": 6,
						"contract": "solidityByExample/contract/019FunctionModifier.sol.sol:FunctionModifier",
						"label": "x",
						"offset": 0,
						"slot": "1",
						"type": "t_uint256"
					},
					{
						"astId": 8,
						"contract": "solidityByExample/contract/019FunctionModifier.sol.sol:FunctionModifier",
						"label": "locked",
						"offset": 0,
						"slot": "2",
						"type": "t_bool"
					}
				],
				"types": {
					"t_address": {
						"encoding": "inplace",
						"label": "address",
						"numberOfBytes": "20"
					},
					"t_bool": {
						"encoding": "inplace",
						"label": "bool",
						"numberOfBytes": "1"
					},
					"t_uint256": {
						"encoding": "inplace",
						"label": "uint256",
						"numberOfBytes": "32"
					}
				}
			},
			"userdoc": {
				"kind": "user",
				"methods": {},
				"version": 1
			}
		}
	}
}